{
	"contracts/SupplyChain.sol": {
		"SupplyChain": {
			"abi": [
				{
					"inputs": [],
					"stateMutability": "nonpayable",
					"type": "constructor"
				},
				{
					"inputs": [
						{
							"internalType": "uint256",
							"name": "",
							"type": "uint256"
						}
					],
					"name": "AgricultureStock",
					"outputs": [
						{
							"internalType": "uint256",
							"name": "id",
							"type": "uint256"
						},
						{
							"internalType": "string",
							"name": "name",
							"type": "string"
						},
						{
							"internalType": "string",
							"name": "description",
							"type": "string"
						},
						{
							"internalType": "uint256",
							"name": "RMSid",
							"type": "uint256"
						},
						{
							"internalType": "uint256",
							"name": "MANid",
							"type": "uint256"
						},
						{
							"internalType": "uint256",
							"name": "DISid",
							"type": "uint256"
						},
						{
							"internalType": "uint256",
							"name": "RETid",
							"type": "uint256"
						},
						{
							"internalType": "enum SupplyChain.STAGE",
							"name": "stage",
							"type": "uint8"
						}
					],
					"stateMutability": "view",
					"type": "function"
				},
				{
					"inputs": [
						{
							"internalType": "uint256",
							"name": "",
							"type": "uint256"
						}
					],
					"name": "DIS",
					"outputs": [
						{
							"internalType": "address",
							"name": "addr",
							"type": "address"
						},
						{
							"internalType": "uint256",
							"name": "id",
							"type": "uint256"
						},
						{
							"internalType": "string",
							"name": "name",
							"type": "string"
						},
						{
							"internalType": "string",
							"name": "place",
							"type": "string"
						}
					],
					"stateMutability": "view",
					"type": "function"
				},
				{
					"inputs": [
						{
							"internalType": "uint256",
							"name": "_agricultureID",
							"type": "uint256"
						}
					],
					"name": "Distribute",
					"outputs": [],
					"stateMutability": "nonpayable",
					"type": "function"
				},
				{
					"inputs": [
						{
							"internalType": "uint256",
							"name": "",
							"type": "uint256"
						}
					],
					"name": "MAN",
					"outputs": [
						{
							"internalType": "address",
							"name": "addr",
							"type": "address"
						},
						{
							"internalType": "uint256",
							"name": "id",
							"type": "uint256"
						},
						{
							"internalType": "string",
							"name": "name",
							"type": "string"
						},
						{
							"internalType": "string",
							"name": "place",
							"type": "string"
						}
					],
					"stateMutability": "view",
					"type": "function"
				},
				{
					"inputs": [
						{
							"internalType": "uint256",
							"name": "_agricultureID",
							"type": "uint256"
						}
					],
					"name": "Manufacturing",
					"outputs": [],
					"stateMutability": "nonpayable",
					"type": "function"
				},
				{
					"inputs": [],
					"name": "Owner",
					"outputs": [
						{
							"internalType": "address",
							"name": "",
							"type": "address"
						}
					],
					"stateMutability": "view",
					"type": "function"
				},
				{
					"inputs": [
						{
							"internalType": "uint256",
							"name": "",
							"type": "uint256"
						}
					],
					"name": "RET",
					"outputs": [
						{
							"internalType": "address",
							"name": "addr",
							"type": "address"
						},
						{
							"internalType": "uint256",
							"name": "id",
							"type": "uint256"
						},
						{
							"internalType": "string",
							"name": "name",
							"type": "string"
						},
						{
							"internalType": "string",
							"name": "place",
							"type": "string"
						}
					],
					"stateMutability": "view",
					"type": "function"
				},
				{
					"inputs": [
						{
							"internalType": "uint256",
							"name": "",
							"type": "uint256"
						}
					],
					"name": "RMS",
					"outputs": [
						{
							"internalType": "address",
							"name": "addr",
							"type": "address"
						},
						{
							"internalType": "uint256",
							"name": "id",
							"type": "uint256"
						},
						{
							"internalType": "string",
							"name": "name",
							"type": "string"
						},
						{
							"internalType": "string",
							"name": "place",
							"type": "string"
						}
					],
					"stateMutability": "view",
					"type": "function"
				},
				{
					"inputs": [
						{
							"internalType": "uint256",
							"name": "_agricultureID",
							"type": "uint256"
						}
					],
					"name": "RMSsupply",
					"outputs": [],
					"stateMutability": "nonpayable",
					"type": "function"
				},
				{
					"inputs": [
						{
							"internalType": "uint256",
							"name": "_agricultureID",
							"type": "uint256"
						}
					],
					"name": "Retail",
					"outputs": [],
					"stateMutability": "nonpayable",
					"type": "function"
				},
				{
					"inputs": [
						{
							"internalType": "string",
							"name": "_name",
							"type": "string"
						},
						{
							"internalType": "string",
							"name": "_description",
							"type": "string"
						}
					],
					"name": "addAgriculture",
					"outputs": [],
					"stateMutability": "nonpayable",
					"type": "function"
				},
				{
					"inputs": [
						{
							"internalType": "address",
							"name": "_address",
							"type": "address"
						},
						{
							"internalType": "string",
							"name": "_name",
							"type": "string"
						},
						{
							"internalType": "string",
							"name": "_place",
							"type": "string"
						}
					],
					"name": "addDistributor",
					"outputs": [],
					"stateMutability": "nonpayable",
					"type": "function"
				},
				{
					"inputs": [
						{
							"internalType": "address",
							"name": "_address",
							"type": "address"
						},
						{
							"internalType": "string",
							"name": "_name",
							"type": "string"
						},
						{
							"internalType": "string",
							"name": "_place",
							"type": "string"
						}
					],
					"name": "addManufacturer",
					"outputs": [],
					"stateMutability": "nonpayable",
					"type": "function"
				},
				{
					"inputs": [
						{
							"internalType": "address",
							"name": "_address",
							"type": "address"
						},
						{
							"internalType": "string",
							"name": "_name",
							"type": "string"
						},
						{
							"internalType": "string",
							"name": "_place",
							"type": "string"
						}
					],
					"name": "addRMS",
					"outputs": [],
					"stateMutability": "nonpayable",
					"type": "function"
				},
				{
					"inputs": [
						{
							"internalType": "address",
							"name": "_address",
							"type": "address"
						},
						{
							"internalType": "string",
							"name": "_name",
							"type": "string"
						},
						{
							"internalType": "string",
							"name": "_place",
							"type": "string"
						}
					],
					"name": "addRetailer",
					"outputs": [],
					"stateMutability": "nonpayable",
					"type": "function"
				},
				{
					"inputs": [],
					"name": "agricultureCtr",
					"outputs": [
						{
							"internalType": "uint256",
							"name": "",
							"type": "uint256"
						}
					],
					"stateMutability": "view",
					"type": "function"
				},
				{
					"inputs": [],
					"name": "disCtr",
					"outputs": [
						{
							"internalType": "uint256",
							"name": "",
							"type": "uint256"
						}
					],
					"stateMutability": "view",
					"type": "function"
				},
				{
					"inputs": [],
					"name": "manCtr",
					"outputs": [
						{
							"internalType": "uint256",
							"name": "",
							"type": "uint256"
						}
					],
					"stateMutability": "view",
					"type": "function"
				},
				{
					"inputs": [],
					"name": "retCtr",
					"outputs": [
						{
							"internalType": "uint256",
							"name": "",
							"type": "uint256"
						}
					],
					"stateMutability": "view",
					"type": "function"
				},
				{
					"inputs": [],
					"name": "rmsCtr",
					"outputs": [
						{
							"internalType": "uint256",
							"name": "",
							"type": "uint256"
						}
					],
					"stateMutability": "view",
					"type": "function"
				},
				{
					"inputs": [
						{
							"internalType": "uint256",
							"name": "_agricultureID",
							"type": "uint256"
						}
					],
					"name": "showStage",
					"outputs": [
						{
							"internalType": "string",
							"name": "",
							"type": "string"
						}
					],
					"stateMutability": "view",
					"type": "function"
				},
				{
					"inputs": [
						{
							"internalType": "uint256",
							"name": "_agricultureID",
							"type": "uint256"
						}
					],
					"name": "sold",
					"outputs": [],
					"stateMutability": "nonpayable",
					"type": "function"
				}
			],
			"devdoc": {
				"kind": "dev",
				"methods": {},
				"version": 1
			},
			"evm": {
				"assembly": "    /* \"contracts/SupplyChain.sol\":61:10439  contract SupplyChain {... */\n  mstore(0x40, 0x80)\n    /* \"contracts/SupplyChain.sol\":1271:1272  0 */\n  0x00\n    /* \"contracts/SupplyChain.sol\":1239:1272  uint256 public agricultureCtr = 0 */\n  0x01\n  sstore\n    /* \"contracts/SupplyChain.sol\":1338:1339  0 */\n  0x00\n    /* \"contracts/SupplyChain.sol\":1314:1339  uint256 public rmsCtr = 0 */\n  0x02\n  sstore\n    /* \"contracts/SupplyChain.sol\":1396:1397  0 */\n  0x00\n    /* \"contracts/SupplyChain.sol\":1372:1397  uint256 public manCtr = 0 */\n  0x03\n  sstore\n    /* \"contracts/SupplyChain.sol\":1453:1454  0 */\n  0x00\n    /* \"contracts/SupplyChain.sol\":1429:1454  uint256 public disCtr = 0 */\n  0x04\n  sstore\n    /* \"contracts/SupplyChain.sol\":1507:1508  0 */\n  0x00\n    /* \"contracts/SupplyChain.sol\":1483:1508  uint256 public retCtr = 0 */\n  0x05\n  sstore\n    /* \"contracts/SupplyChain.sol\":352:403  constructor() {... */\n  callvalue\n  dup1\n  iszero\n  tag_1\n  jumpi\n  0x00\n  dup1\n  revert\ntag_1:\n  pop\n    /* \"contracts/SupplyChain.sol\":385:395  msg.sender */\n  caller\n    /* \"contracts/SupplyChain.sol\":377:382  Owner */\n  0x00\n  dup1\n    /* \"contracts/SupplyChain.sol\":377:395  Owner = msg.sender */\n  0x0100\n  exp\n  dup2\n  sload\n  dup2\n  0xffffffffffffffffffffffffffffffffffffffff\n  mul\n  not\n  and\n  swap1\n  dup4\n  0xffffffffffffffffffffffffffffffffffffffff\n  and\n  mul\n  or\n  swap1\n  sstore\n  pop\n    /* \"contracts/SupplyChain.sol\":61:10439  contract SupplyChain {... */\n  dataSize(sub_0)\n  dup1\n  dataOffset(sub_0)\n  0x00\n  codecopy\n  0x00\n  return\nstop\n\nsub_0: assembly {\n        /* \"contracts/SupplyChain.sol\":61:10439  contract SupplyChain {... */\n      mstore(0x40, 0x80)\n      callvalue\n      dup1\n      iszero\n      tag_1\n      jumpi\n      0x00\n      dup1\n      revert\n    tag_1:\n      pop\n      jumpi(tag_2, lt(calldatasize, 0x04))\n      shr(0xe0, calldataload(0x00))\n      dup1\n      0x857ddb04\n      gt\n      tag_25\n      jumpi\n      dup1\n      0xb4a99a4e\n      gt\n      tag_26\n      jumpi\n      dup1\n      0xb4a99a4e\n      eq\n      tag_19\n      jumpi\n      dup1\n      0xcc004874\n      eq\n      tag_20\n      jumpi\n      dup1\n      0xcc403069\n      eq\n      tag_21\n      jumpi\n      dup1\n      0xdd286398\n      eq\n      tag_22\n      jumpi\n      dup1\n      0xe101a2e0\n      eq\n      tag_23\n      jumpi\n      dup1\n      0xeef5cb40\n      eq\n      tag_24\n      jumpi\n      jump(tag_2)\n    tag_26:\n      dup1\n      0x857ddb04\n      eq\n      tag_14\n      jumpi\n      dup1\n      0x86c18275\n      eq\n      tag_15\n      jumpi\n      dup1\n      0x9ba9f1bb\n      eq\n      tag_16\n      jumpi\n      dup1\n      0x9c03facb\n      eq\n      tag_17\n      jumpi\n      dup1\n      0xa48d335a\n      eq\n      tag_18\n      jumpi\n      jump(tag_2)\n    tag_25:\n      dup1\n      0x3d753a1c\n      gt\n      tag_27\n      jumpi\n      dup1\n      0x3d753a1c\n      eq\n      tag_8\n      jumpi\n      dup1\n      0x438e9c4d\n      eq\n      tag_9\n      jumpi\n      dup1\n      0x4def474a\n      eq\n      tag_10\n      jumpi\n      dup1\n      0x59bf286f\n      eq\n      tag_11\n      jumpi\n      dup1\n      0x6a992c9f\n      eq\n      tag_12\n      jumpi\n      dup1\n      0x7e43d94d\n      eq\n      tag_13\n      jumpi\n      jump(tag_2)\n    tag_27:\n      dup1\n      0x102464ea\n      eq\n      tag_3\n      jumpi\n      dup1\n      0x2a4af440\n      eq\n      tag_4\n      jumpi\n      dup1\n      0x2b0187ac\n      eq\n      tag_5\n      jumpi\n      dup1\n      0x2b70b08d\n      eq\n      tag_6\n      jumpi\n      dup1\n      0x2bdb2e6b\n      eq\n      tag_7\n      jumpi\n    tag_2:\n      0x00\n      dup1\n      revert\n        /* \"contracts/SupplyChain.sol\":1239:1272  uint256 public agricultureCtr = 0 */\n    tag_3:\n      tag_28\n      tag_29\n      jump\t// in\n    tag_28:\n      mload(0x40)\n      tag_30\n      swap2\n      swap1\n      tag_31\n      jump\t// in\n    tag_30:\n      mload(0x40)\n      dup1\n      swap2\n      sub\n      swap1\n      return\n        /* \"contracts/SupplyChain.sol\":5636:5872  function addDistributor(... */\n    tag_4:\n      tag_32\n      0x04\n      dup1\n      calldatasize\n      sub\n      dup2\n      add\n      swap1\n      tag_33\n      swap2\n      swap1\n      tag_34\n      jump\t// in\n    tag_33:\n      tag_35\n      jump\t// in\n    tag_32:\n      stop\n        /* \"contracts/SupplyChain.sol\":4519:4561  mapping(uint256 => distributor) public DIS */\n    tag_5:\n      tag_36\n      0x04\n      dup1\n      calldatasize\n      sub\n      dup2\n      add\n      swap1\n      tag_37\n      swap2\n      swap1\n      tag_38\n      jump\t// in\n    tag_37:\n      tag_39\n      jump\t// in\n    tag_36:\n      mload(0x40)\n      tag_40\n      swap5\n      swap4\n      swap3\n      swap2\n      swap1\n      tag_41\n      jump\t// in\n    tag_40:\n      mload(0x40)\n      dup1\n      swap2\n      sub\n      swap1\n      return\n        /* \"contracts/SupplyChain.sol\":4998:5234  function addRMS(... */\n    tag_6:\n      tag_42\n      0x04\n      dup1\n      calldatasize\n      sub\n      dup2\n      add\n      swap1\n      tag_43\n      swap2\n      swap1\n      tag_34\n      jump\t// in\n    tag_43:\n      tag_44\n      jump\t// in\n    tag_42:\n      stop\n        /* \"contracts/SupplyChain.sol\":1429:1454  uint256 public disCtr = 0 */\n    tag_7:\n      tag_45\n      tag_46\n      jump\t// in\n    tag_45:\n      mload(0x40)\n      tag_47\n      swap2\n      swap1\n      tag_31\n      jump\t// in\n    tag_47:\n      mload(0x40)\n      dup1\n      swap2\n      sub\n      swap1\n      return\n        /* \"contracts/SupplyChain.sol\":8644:9043  function Retail(uint256 _agricultureID) public {... */\n    tag_8:\n      tag_48\n      0x04\n      dup1\n      calldatasize\n      sub\n      dup2\n      add\n      swap1\n      tag_49\n      swap2\n      swap1\n      tag_38\n      jump\t// in\n    tag_49:\n      tag_50\n      jump\t// in\n    tag_48:\n      stop\n        /* \"contracts/SupplyChain.sol\":1372:1397  uint256 public manCtr = 0 */\n    tag_9:\n      tag_51\n      tag_52\n      jump\t// in\n    tag_51:\n      mload(0x40)\n      tag_53\n      swap2\n      swap1\n      tag_31\n      jump\t// in\n    tag_53:\n      mload(0x40)\n      dup1\n      swap2\n      sub\n      swap1\n      return\n        /* \"contracts/SupplyChain.sol\":7840:8248  function Distribute(uint256 _agricultureID) public {... */\n    tag_10:\n      tag_54\n      0x04\n      dup1\n      calldatasize\n      sub\n      dup2\n      add\n      swap1\n      tag_55\n      swap2\n      swap1\n      tag_38\n      jump\t// in\n    tag_55:\n      tag_56\n      jump\t// in\n    tag_54:\n      stop\n        /* \"contracts/SupplyChain.sol\":4856:4895  mapping(uint256 => retailer) public RET */\n    tag_11:\n      tag_57\n      0x04\n      dup1\n      calldatasize\n      sub\n      dup2\n      add\n      swap1\n      tag_58\n      swap2\n      swap1\n      tag_38\n      jump\t// in\n    tag_58:\n      tag_59\n      jump\t// in\n    tag_57:\n      mload(0x40)\n      tag_60\n      swap5\n      swap4\n      swap3\n      swap2\n      swap1\n      tag_41\n      jump\t// in\n    tag_60:\n      mload(0x40)\n      dup1\n      swap2\n      sub\n      swap1\n      return\n        /* \"contracts/SupplyChain.sol\":5317:5555  function addManufacturer(... */\n    tag_12:\n      tag_61\n      0x04\n      dup1\n      calldatasize\n      sub\n      dup2\n      add\n      swap1\n      tag_62\n      swap2\n      swap1\n      tag_34\n      jump\t// in\n    tag_62:\n      tag_63\n      jump\t// in\n    tag_61:\n      stop\n        /* \"contracts/SupplyChain.sol\":1483:1508  uint256 public retCtr = 0 */\n    tag_13:\n      tag_64\n      tag_65\n      jump\t// in\n    tag_64:\n      mload(0x40)\n      tag_66\n      swap2\n      swap1\n      tag_31\n      jump\t// in\n    tag_66:\n      mload(0x40)\n      dup1\n      swap2\n      sub\n      swap1\n      return\n        /* \"contracts/SupplyChain.sol\":5947:6177  function addRetailer(... */\n    tag_14:\n      tag_67\n      0x04\n      dup1\n      calldatasize\n      sub\n      dup2\n      add\n      swap1\n      tag_68\n      swap2\n      swap1\n      tag_34\n      jump\t// in\n    tag_68:\n      tag_69\n      jump\t// in\n    tag_67:\n      stop\n        /* \"contracts/SupplyChain.sol\":6254:6659  function RMSsupply(uint256 _agricultureID) public {... */\n    tag_15:\n      tag_70\n      0x04\n      dup1\n      calldatasize\n      sub\n      dup2\n      add\n      swap1\n      tag_71\n      swap2\n      swap1\n      tag_38\n      jump\t// in\n    tag_71:\n      tag_72\n      jump\t// in\n    tag_70:\n      stop\n        /* \"contracts/SupplyChain.sol\":2247:2302  mapping(uint256 => agriculture) public AgricultureStock */\n    tag_16:\n      tag_73\n      0x04\n      dup1\n      calldatasize\n      sub\n      dup2\n      add\n      swap1\n      tag_74\n      swap2\n      swap1\n      tag_38\n      jump\t// in\n    tag_74:\n      tag_75\n      jump\t// in\n    tag_73:\n      mload(0x40)\n      tag_76\n      swap9\n      swap8\n      swap7\n      swap6\n      swap5\n      swap4\n      swap3\n      swap2\n      swap1\n      tag_77\n      jump\t// in\n    tag_76:\n      mload(0x40)\n      dup1\n      swap2\n      sub\n      swap1\n      return\n        /* \"contracts/SupplyChain.sol\":9431:9900  function sold(uint256 _agricultureID) public {... */\n    tag_17:\n      tag_78\n      0x04\n      dup1\n      calldatasize\n      sub\n      dup2\n      add\n      swap1\n      tag_79\n      swap2\n      swap1\n      tag_38\n      jump\t// in\n    tag_79:\n      tag_80\n      jump\t// in\n    tag_78:\n      stop\n        /* \"contracts/SupplyChain.sol\":7023:7439  function Manufacturing(uint256 _agricultureID) public {... */\n    tag_18:\n      tag_81\n      0x04\n      dup1\n      calldatasize\n      sub\n      dup2\n      add\n      swap1\n      tag_82\n      swap2\n      swap1\n      tag_38\n      jump\t// in\n    tag_82:\n      tag_83\n      jump\t// in\n    tag_81:\n      stop\n        /* \"contracts/SupplyChain.sol\":228:248  address public Owner */\n    tag_19:\n      tag_84\n      tag_85\n      jump\t// in\n    tag_84:\n      mload(0x40)\n      tag_86\n      swap2\n      swap1\n      tag_87\n      jump\t// in\n    tag_86:\n      mload(0x40)\n      dup1\n      swap2\n      sub\n      swap1\n      return\n        /* \"contracts/SupplyChain.sol\":9969:10434  function addAgriculture(string memory _name, string memory _description)... */\n    tag_20:\n      tag_88\n      0x04\n      dup1\n      calldatasize\n      sub\n      dup2\n      add\n      swap1\n      tag_89\n      swap2\n      swap1\n      tag_90\n      jump\t// in\n    tag_89:\n      tag_91\n      jump\t// in\n    tag_88:\n      stop\n        /* \"contracts/SupplyChain.sol\":4163:4206  mapping(uint256 => manufacturer) public MAN */\n    tag_21:\n      tag_92\n      0x04\n      dup1\n      calldatasize\n      sub\n      dup2\n      add\n      swap1\n      tag_93\n      swap2\n      swap1\n      tag_38\n      jump\t// in\n    tag_93:\n      tag_94\n      jump\t// in\n    tag_92:\n      mload(0x40)\n      tag_95\n      swap5\n      swap4\n      swap3\n      swap2\n      swap1\n      tag_41\n      jump\t// in\n    tag_95:\n      mload(0x40)\n      dup1\n      swap2\n      sub\n      swap1\n      return\n        /* \"contracts/SupplyChain.sol\":1314:1339  uint256 public rmsCtr = 0 */\n    tag_22:\n      tag_96\n      tag_97\n      jump\t// in\n    tag_96:\n      mload(0x40)\n      tag_98\n      swap2\n      swap1\n      tag_31\n      jump\t// in\n    tag_98:\n      mload(0x40)\n      dup1\n      swap2\n      sub\n      swap1\n      return\n        /* \"contracts/SupplyChain.sol\":2397:3435  function showStage(uint256 _agricultureID)... */\n    tag_23:\n      tag_99\n      0x04\n      dup1\n      calldatasize\n      sub\n      dup2\n      add\n      swap1\n      tag_100\n      swap2\n      swap1\n      tag_38\n      jump\t// in\n    tag_100:\n      tag_101\n      jump\t// in\n    tag_99:\n      mload(0x40)\n      tag_102\n      swap2\n      swap1\n      tag_103\n      jump\t// in\n    tag_102:\n      mload(0x40)\n      dup1\n      swap2\n      sub\n      swap1\n      return\n        /* \"contracts/SupplyChain.sol\":3794:3844  mapping(uint256 => rawMaterialSupplier) public RMS */\n    tag_24:\n      tag_104\n      0x04\n      dup1\n      calldatasize\n      sub\n      dup2\n      add\n      swap1\n      tag_105\n      swap2\n      swap1\n      tag_38\n      jump\t// in\n    tag_105:\n      tag_106\n      jump\t// in\n    tag_104:\n      mload(0x40)\n      tag_107\n      swap5\n      swap4\n      swap3\n      swap2\n      swap1\n      tag_41\n      jump\t// in\n    tag_107:\n      mload(0x40)\n      dup1\n      swap2\n      sub\n      swap1\n      return\n        /* \"contracts/SupplyChain.sol\":1239:1272  uint256 public agricultureCtr = 0 */\n    tag_29:\n      sload(0x01)\n      dup2\n      jump\t// out\n        /* \"contracts/SupplyChain.sol\":5636:5872  function addDistributor(... */\n    tag_35:\n        /* \"contracts/SupplyChain.sol\":927:932  Owner */\n      0x00\n      dup1\n      sload\n      swap1\n      0x0100\n      exp\n      swap1\n      div\n      0xffffffffffffffffffffffffffffffffffffffff\n      and\n        /* \"contracts/SupplyChain.sol\":913:932  msg.sender == Owner */\n      0xffffffffffffffffffffffffffffffffffffffff\n      and\n        /* \"contracts/SupplyChain.sol\":913:923  msg.sender */\n      caller\n        /* \"contracts/SupplyChain.sol\":913:932  msg.sender == Owner */\n      0xffffffffffffffffffffffffffffffffffffffff\n      and\n      eq\n        /* \"contracts/SupplyChain.sol\":905:933  require(msg.sender == Owner) */\n      tag_109\n      jumpi\n      0x00\n      dup1\n      revert\n    tag_109:\n        /* \"contracts/SupplyChain.sol\":5787:5793  disCtr */\n      0x04\n      0x00\n        /* \"contracts/SupplyChain.sol\":5787:5795  disCtr++ */\n      dup2\n      sload\n      dup1\n      swap3\n      swap2\n      swap1\n      tag_111\n      swap1\n      tag_112\n      jump\t// in\n    tag_111:\n      swap2\n      swap1\n      pop\n      sstore\n      pop\n        /* \"contracts/SupplyChain.sol\":5820:5864  distributor(_address, disCtr, _name, _place) */\n      mload(0x40)\n      dup1\n      0x80\n      add\n      0x40\n      mstore\n      dup1\n        /* \"contracts/SupplyChain.sol\":5832:5840  _address */\n      dup5\n        /* \"contracts/SupplyChain.sol\":5820:5864  distributor(_address, disCtr, _name, _place) */\n      0xffffffffffffffffffffffffffffffffffffffff\n      and\n      dup2\n      mstore\n      0x20\n      add\n        /* \"contracts/SupplyChain.sol\":5842:5848  disCtr */\n      sload(0x04)\n        /* \"contracts/SupplyChain.sol\":5820:5864  distributor(_address, disCtr, _name, _place) */\n      dup2\n      mstore\n      0x20\n      add\n        /* \"contracts/SupplyChain.sol\":5850:5855  _name */\n      dup4\n        /* \"contracts/SupplyChain.sol\":5820:5864  distributor(_address, disCtr, _name, _place) */\n      dup2\n      mstore\n      0x20\n      add\n        /* \"contracts/SupplyChain.sol\":5857:5863  _place */\n      dup3\n        /* \"contracts/SupplyChain.sol\":5820:5864  distributor(_address, disCtr, _name, _place) */\n      dup2\n      mstore\n      pop\n        /* \"contracts/SupplyChain.sol\":5806:5809  DIS */\n      0x09\n        /* \"contracts/SupplyChain.sol\":5806:5817  DIS[disCtr] */\n      0x00\n        /* \"contracts/SupplyChain.sol\":5810:5816  disCtr */\n      sload(0x04)\n        /* \"contracts/SupplyChain.sol\":5806:5817  DIS[disCtr] */\n      dup2\n      mstore\n      0x20\n      add\n      swap1\n      dup2\n      mstore\n      0x20\n      add\n      0x00\n      keccak256\n        /* \"contracts/SupplyChain.sol\":5806:5864  DIS[disCtr] = distributor(_address, disCtr, _name, _place) */\n      0x00\n      dup3\n      add\n      mload\n      dup2\n      0x00\n      add\n      exp(0x0100, 0x00)\n      dup2\n      sload\n      dup2\n      0xffffffffffffffffffffffffffffffffffffffff\n      mul\n      not\n      and\n      swap1\n      dup4\n      0xffffffffffffffffffffffffffffffffffffffff\n      and\n      mul\n      or\n      swap1\n      sstore\n      pop\n      0x20\n      dup3\n      add\n      mload\n      dup2\n      0x01\n      add\n      sstore\n      0x40\n      dup3\n      add\n      mload\n      dup2\n      0x02\n      add\n      swap1\n      dup2\n      tag_113\n      swap2\n      swap1\n      tag_114\n      jump\t// in\n    tag_113:\n      pop\n      0x60\n      dup3\n      add\n      mload\n      dup2\n      0x03\n      add\n      swap1\n      dup2\n      tag_115\n      swap2\n      swap1\n      tag_114\n      jump\t// in\n    tag_115:\n      pop\n      swap1\n      pop\n      pop\n        /* \"contracts/SupplyChain.sol\":5636:5872  function addDistributor(... */\n      pop\n      pop\n      pop\n      jump\t// out\n        /* \"contracts/SupplyChain.sol\":4519:4561  mapping(uint256 => distributor) public DIS */\n    tag_39:\n      mstore(0x20, 0x09)\n      dup1\n      0x00\n      mstore\n      keccak256(0x00, 0x40)\n      0x00\n      swap2\n      pop\n      swap1\n      pop\n      dup1\n      0x00\n      add\n      0x00\n      swap1\n      sload\n      swap1\n      0x0100\n      exp\n      swap1\n      div\n      0xffffffffffffffffffffffffffffffffffffffff\n      and\n      swap1\n      dup1\n      0x01\n      add\n      sload\n      swap1\n      dup1\n      0x02\n      add\n      dup1\n      sload\n      tag_116\n      swap1\n      tag_117\n      jump\t// in\n    tag_116:\n      dup1\n      0x1f\n      add\n      0x20\n      dup1\n      swap2\n      div\n      mul\n      0x20\n      add\n      mload(0x40)\n      swap1\n      dup2\n      add\n      0x40\n      mstore\n      dup1\n      swap3\n      swap2\n      swap1\n      dup2\n      dup2\n      mstore\n      0x20\n      add\n      dup3\n      dup1\n      sload\n      tag_118\n      swap1\n      tag_117\n      jump\t// in\n    tag_118:\n      dup1\n      iszero\n      tag_119\n      jumpi\n      dup1\n      0x1f\n      lt\n      tag_120\n      jumpi\n      0x0100\n      dup1\n      dup4\n      sload\n      div\n      mul\n      dup4\n      mstore\n      swap2\n      0x20\n      add\n      swap2\n      jump(tag_119)\n    tag_120:\n      dup3\n      add\n      swap2\n      swap1\n      0x00\n      mstore\n      keccak256(0x00, 0x20)\n      swap1\n    tag_121:\n      dup2\n      sload\n      dup2\n      mstore\n      swap1\n      0x01\n      add\n      swap1\n      0x20\n      add\n      dup1\n      dup4\n      gt\n      tag_121\n      jumpi\n      dup3\n      swap1\n      sub\n      0x1f\n      and\n      dup3\n      add\n      swap2\n    tag_119:\n      pop\n      pop\n      pop\n      pop\n      pop\n      swap1\n      dup1\n      0x03\n      add\n      dup1\n      sload\n      tag_122\n      swap1\n      tag_117\n      jump\t// in\n    tag_122:\n      dup1\n      0x1f\n      add\n      0x20\n      dup1\n      swap2\n      div\n      mul\n      0x20\n      add\n      mload(0x40)\n      swap1\n      dup2\n      add\n      0x40\n      mstore\n      dup1\n      swap3\n      swap2\n      swap1\n      dup2\n      dup2\n      mstore\n      0x20\n      add\n      dup3\n      dup1\n      sload\n      tag_123\n      swap1\n      tag_117\n      jump\t// in\n    tag_123:\n      dup1\n      iszero\n      tag_124\n      jumpi\n      dup1\n      0x1f\n      lt\n      tag_125\n      jumpi\n      0x0100\n      dup1\n      dup4\n      sload\n      div\n      mul\n      dup4\n      mstore\n      swap2\n      0x20\n      add\n      swap2\n      jump(tag_124)\n    tag_125:\n      dup3\n      add\n      swap2\n      swap1\n      0x00\n      mstore\n      keccak256(0x00, 0x20)\n      swap1\n    tag_126:\n      dup2\n      sload\n      dup2\n      mstore\n      swap1\n      0x01\n      add\n      swap1\n      0x20\n      add\n      dup1\n      dup4\n      gt\n      tag_126\n      jumpi\n      dup3\n      swap1\n      sub\n      0x1f\n      and\n      dup3\n      add\n      swap2\n    tag_124:\n      pop\n      pop\n      pop\n      pop\n      pop\n      swap1\n      pop\n      dup5\n      jump\t// out\n        /* \"contracts/SupplyChain.sol\":4998:5234  function addRMS(... */\n    tag_44:\n        /* \"contracts/SupplyChain.sol\":927:932  Owner */\n      0x00\n      dup1\n      sload\n      swap1\n      0x0100\n      exp\n      swap1\n      div\n      0xffffffffffffffffffffffffffffffffffffffff\n      and\n        /* \"contracts/SupplyChain.sol\":913:932  msg.sender == Owner */\n      0xffffffffffffffffffffffffffffffffffffffff\n      and\n        /* \"contracts/SupplyChain.sol\":913:923  msg.sender */\n      caller\n        /* \"contracts/SupplyChain.sol\":913:932  msg.sender == Owner */\n      0xffffffffffffffffffffffffffffffffffffffff\n      and\n      eq\n        /* \"contracts/SupplyChain.sol\":905:933  require(msg.sender == Owner) */\n      tag_128\n      jumpi\n      0x00\n      dup1\n      revert\n    tag_128:\n        /* \"contracts/SupplyChain.sol\":5141:5147  rmsCtr */\n      0x02\n      0x00\n        /* \"contracts/SupplyChain.sol\":5141:5149  rmsCtr++ */\n      dup2\n      sload\n      dup1\n      swap3\n      swap2\n      swap1\n      tag_130\n      swap1\n      tag_112\n      jump\t// in\n    tag_130:\n      swap2\n      swap1\n      pop\n      sstore\n      pop\n        /* \"contracts/SupplyChain.sol\":5174:5226  rawMaterialSupplier(_address, rmsCtr, _name, _place) */\n      mload(0x40)\n      dup1\n      0x80\n      add\n      0x40\n      mstore\n      dup1\n        /* \"contracts/SupplyChain.sol\":5194:5202  _address */\n      dup5\n        /* \"contracts/SupplyChain.sol\":5174:5226  rawMaterialSupplier(_address, rmsCtr, _name, _place) */\n      0xffffffffffffffffffffffffffffffffffffffff\n      and\n      dup2\n      mstore\n      0x20\n      add\n        /* \"contracts/SupplyChain.sol\":5204:5210  rmsCtr */\n      sload(0x02)\n        /* \"contracts/SupplyChain.sol\":5174:5226  rawMaterialSupplier(_address, rmsCtr, _name, _place) */\n      dup2\n      mstore\n      0x20\n      add\n        /* \"contracts/SupplyChain.sol\":5212:5217  _name */\n      dup4\n        /* \"contracts/SupplyChain.sol\":5174:5226  rawMaterialSupplier(_address, rmsCtr, _name, _place) */\n      dup2\n      mstore\n      0x20\n      add\n        /* \"contracts/SupplyChain.sol\":5219:5225  _place */\n      dup3\n        /* \"contracts/SupplyChain.sol\":5174:5226  rawMaterialSupplier(_address, rmsCtr, _name, _place) */\n      dup2\n      mstore\n      pop\n        /* \"contracts/SupplyChain.sol\":5160:5163  RMS */\n      0x07\n        /* \"contracts/SupplyChain.sol\":5160:5171  RMS[rmsCtr] */\n      0x00\n        /* \"contracts/SupplyChain.sol\":5164:5170  rmsCtr */\n      sload(0x02)\n        /* \"contracts/SupplyChain.sol\":5160:5171  RMS[rmsCtr] */\n      dup2\n      mstore\n      0x20\n      add\n      swap1\n      dup2\n      mstore\n      0x20\n      add\n      0x00\n      keccak256\n        /* \"contracts/SupplyChain.sol\":5160:5226  RMS[rmsCtr] = rawMaterialSupplier(_address, rmsCtr, _name, _place) */\n      0x00\n      dup3\n      add\n      mload\n      dup2\n      0x00\n      add\n      exp(0x0100, 0x00)\n      dup2\n      sload\n      dup2\n      0xffffffffffffffffffffffffffffffffffffffff\n      mul\n      not\n      and\n      swap1\n      dup4\n      0xffffffffffffffffffffffffffffffffffffffff\n      and\n      mul\n      or\n      swap1\n      sstore\n      pop\n      0x20\n      dup3\n      add\n      mload\n      dup2\n      0x01\n      add\n      sstore\n      0x40\n      dup3\n      add\n      mload\n      dup2\n      0x02\n      add\n      swap1\n      dup2\n      tag_131\n      swap2\n      swap1\n      tag_114\n      jump\t// in\n    tag_131:\n      pop\n      0x60\n      dup3\n      add\n      mload\n      dup2\n      0x03\n      add\n      swap1\n      dup2\n      tag_132\n      swap2\n      swap1\n      tag_114\n      jump\t// in\n    tag_132:\n      pop\n      swap1\n      pop\n      pop\n        /* \"contracts/SupplyChain.sol\":4998:5234  function addRMS(... */\n      pop\n      pop\n      pop\n      jump\t// out\n        /* \"contracts/SupplyChain.sol\":1429:1454  uint256 public disCtr = 0 */\n    tag_46:\n      sload(0x04)\n      dup2\n      jump\t// out\n        /* \"contracts/SupplyChain.sol\":8644:9043  function Retail(uint256 _agricultureID) public {... */\n    tag_50:\n        /* \"contracts/SupplyChain.sol\":8727:8728  0 */\n      0x00\n        /* \"contracts/SupplyChain.sol\":8710:8724  _agricultureID */\n      dup2\n        /* \"contracts/SupplyChain.sol\":8710:8728  _agricultureID > 0 */\n      gt\n        /* \"contracts/SupplyChain.sol\":8710:8764  _agricultureID > 0 && _agricultureID <= agricultureCtr */\n      dup1\n      iszero\n      tag_134\n      jumpi\n      pop\n        /* \"contracts/SupplyChain.sol\":8750:8764  agricultureCtr */\n      sload(0x01)\n        /* \"contracts/SupplyChain.sol\":8732:8746  _agricultureID */\n      dup2\n        /* \"contracts/SupplyChain.sol\":8732:8764  _agricultureID <= agricultureCtr */\n      gt\n      iszero\n        /* \"contracts/SupplyChain.sol\":8710:8764  _agricultureID > 0 && _agricultureID <= agricultureCtr */\n    tag_134:\n        /* \"contracts/SupplyChain.sol\":8702:8765  require(_agricultureID > 0 && _agricultureID <= agricultureCtr) */\n      tag_135\n      jumpi\n      0x00\n      dup1\n      revert\n    tag_135:\n        /* \"contracts/SupplyChain.sol\":8776:8787  uint256 _id */\n      0x00\n        /* \"contracts/SupplyChain.sol\":8790:8809  findRET(msg.sender) */\n      tag_136\n        /* \"contracts/SupplyChain.sol\":8798:8808  msg.sender */\n      caller\n        /* \"contracts/SupplyChain.sol\":8790:8797  findRET */\n      tag_137\n        /* \"contracts/SupplyChain.sol\":8790:8809  findRET(msg.sender) */\n      jump\t// in\n    tag_136:\n        /* \"contracts/SupplyChain.sol\":8776:8809  uint256 _id = findRET(msg.sender) */\n      swap1\n      pop\n        /* \"contracts/SupplyChain.sol\":8834:8835  0 */\n      0x00\n        /* \"contracts/SupplyChain.sol\":8828:8831  _id */\n      dup2\n        /* \"contracts/SupplyChain.sol\":8828:8835  _id > 0 */\n      gt\n        /* \"contracts/SupplyChain.sol\":8820:8836  require(_id > 0) */\n      tag_138\n      jumpi\n      0x00\n      dup1\n      revert\n    tag_138:\n        /* \"contracts/SupplyChain.sol\":8897:8915  STAGE.Distribution */\n      0x03\n        /* \"contracts/SupplyChain.sol\":8855:8915  AgricultureStock[_agricultureID].stage == STAGE.Distribution */\n      0x05\n      dup2\n      gt\n      iszero\n      tag_139\n      jumpi\n      tag_140\n      tag_141\n      jump\t// in\n    tag_140:\n    tag_139:\n        /* \"contracts/SupplyChain.sol\":8855:8871  AgricultureStock */\n      0x06\n        /* \"contracts/SupplyChain.sol\":8855:8887  AgricultureStock[_agricultureID] */\n      0x00\n        /* \"contracts/SupplyChain.sol\":8872:8886  _agricultureID */\n      dup5\n        /* \"contracts/SupplyChain.sol\":8855:8887  AgricultureStock[_agricultureID] */\n      dup2\n      mstore\n      0x20\n      add\n      swap1\n      dup2\n      mstore\n      0x20\n      add\n      0x00\n      keccak256\n        /* \"contracts/SupplyChain.sol\":8855:8893  AgricultureStock[_agricultureID].stage */\n      0x07\n      add\n      0x00\n      swap1\n      sload\n      swap1\n      0x0100\n      exp\n      swap1\n      div\n      0xff\n      and\n        /* \"contracts/SupplyChain.sol\":8855:8915  AgricultureStock[_agricultureID].stage == STAGE.Distribution */\n      0x05\n      dup2\n      gt\n      iszero\n      tag_142\n      jumpi\n      tag_143\n      tag_141\n      jump\t// in\n    tag_143:\n    tag_142:\n      eq\n        /* \"contracts/SupplyChain.sol\":8847:8916  require(AgricultureStock[_agricultureID].stage == STAGE.Distribution) */\n      tag_144\n      jumpi\n      0x00\n      dup1\n      revert\n    tag_144:\n        /* \"contracts/SupplyChain.sol\":8968:8971  _id */\n      dup1\n        /* \"contracts/SupplyChain.sol\":8927:8943  AgricultureStock */\n      0x06\n        /* \"contracts/SupplyChain.sol\":8927:8959  AgricultureStock[_agricultureID] */\n      0x00\n        /* \"contracts/SupplyChain.sol\":8944:8958  _agricultureID */\n      dup5\n        /* \"contracts/SupplyChain.sol\":8927:8959  AgricultureStock[_agricultureID] */\n      dup2\n      mstore\n      0x20\n      add\n      swap1\n      dup2\n      mstore\n      0x20\n      add\n      0x00\n      keccak256\n        /* \"contracts/SupplyChain.sol\":8927:8965  AgricultureStock[_agricultureID].RETid */\n      0x06\n      add\n        /* \"contracts/SupplyChain.sol\":8927:8971  AgricultureStock[_agricultureID].RETid = _id */\n      dup2\n      swap1\n      sstore\n      pop\n        /* \"contracts/SupplyChain.sol\":9023:9035  STAGE.Retail */\n      0x04\n        /* \"contracts/SupplyChain.sol\":8982:8998  AgricultureStock */\n      0x06\n        /* \"contracts/SupplyChain.sol\":8982:9014  AgricultureStock[_agricultureID] */\n      0x00\n        /* \"contracts/SupplyChain.sol\":8999:9013  _agricultureID */\n      dup5\n        /* \"contracts/SupplyChain.sol\":8982:9014  AgricultureStock[_agricultureID] */\n      dup2\n      mstore\n      0x20\n      add\n      swap1\n      dup2\n      mstore\n      0x20\n      add\n      0x00\n      keccak256\n        /* \"contracts/SupplyChain.sol\":8982:9020  AgricultureStock[_agricultureID].stage */\n      0x07\n      add\n      0x00\n        /* \"contracts/SupplyChain.sol\":8982:9035  AgricultureStock[_agricultureID].stage = STAGE.Retail */\n      0x0100\n      exp\n      dup2\n      sload\n      dup2\n      0xff\n      mul\n      not\n      and\n      swap1\n      dup4\n      0x05\n      dup2\n      gt\n      iszero\n      tag_145\n      jumpi\n      tag_146\n      tag_141\n      jump\t// in\n    tag_146:\n    tag_145:\n      mul\n      or\n      swap1\n      sstore\n      pop\n        /* \"contracts/SupplyChain.sol\":8691:9043  {... */\n      pop\n        /* \"contracts/SupplyChain.sol\":8644:9043  function Retail(uint256 _agricultureID) public {... */\n      pop\n      jump\t// out\n        /* \"contracts/SupplyChain.sol\":1372:1397  uint256 public manCtr = 0 */\n    tag_52:\n      sload(0x03)\n      dup2\n      jump\t// out\n        /* \"contracts/SupplyChain.sol\":7840:8248  function Distribute(uint256 _agricultureID) public {... */\n    tag_56:\n        /* \"contracts/SupplyChain.sol\":7927:7928  0 */\n      0x00\n        /* \"contracts/SupplyChain.sol\":7910:7924  _agricultureID */\n      dup2\n        /* \"contracts/SupplyChain.sol\":7910:7928  _agricultureID > 0 */\n      gt\n        /* \"contracts/SupplyChain.sol\":7910:7964  _agricultureID > 0 && _agricultureID <= agricultureCtr */\n      dup1\n      iszero\n      tag_148\n      jumpi\n      pop\n        /* \"contracts/SupplyChain.sol\":7950:7964  agricultureCtr */\n      sload(0x01)\n        /* \"contracts/SupplyChain.sol\":7932:7946  _agricultureID */\n      dup2\n        /* \"contracts/SupplyChain.sol\":7932:7964  _agricultureID <= agricultureCtr */\n      gt\n      iszero\n        /* \"contracts/SupplyChain.sol\":7910:7964  _agricultureID > 0 && _agricultureID <= agricultureCtr */\n    tag_148:\n        /* \"contracts/SupplyChain.sol\":7902:7965  require(_agricultureID > 0 && _agricultureID <= agricultureCtr) */\n      tag_149\n      jumpi\n      0x00\n      dup1\n      revert\n    tag_149:\n        /* \"contracts/SupplyChain.sol\":7976:7987  uint256 _id */\n      0x00\n        /* \"contracts/SupplyChain.sol\":7990:8009  findDIS(msg.sender) */\n      tag_150\n        /* \"contracts/SupplyChain.sol\":7998:8008  msg.sender */\n      caller\n        /* \"contracts/SupplyChain.sol\":7990:7997  findDIS */\n      tag_151\n        /* \"contracts/SupplyChain.sol\":7990:8009  findDIS(msg.sender) */\n      jump\t// in\n    tag_150:\n        /* \"contracts/SupplyChain.sol\":7976:8009  uint256 _id = findDIS(msg.sender) */\n      swap1\n      pop\n        /* \"contracts/SupplyChain.sol\":8034:8035  0 */\n      0x00\n        /* \"contracts/SupplyChain.sol\":8028:8031  _id */\n      dup2\n        /* \"contracts/SupplyChain.sol\":8028:8035  _id > 0 */\n      gt\n        /* \"contracts/SupplyChain.sol\":8020:8036  require(_id > 0) */\n      tag_152\n      jumpi\n      0x00\n      dup1\n      revert\n    tag_152:\n        /* \"contracts/SupplyChain.sol\":8097:8114  STAGE.Manufacture */\n      0x02\n        /* \"contracts/SupplyChain.sol\":8055:8114  AgricultureStock[_agricultureID].stage == STAGE.Manufacture */\n      0x05\n      dup2\n      gt\n      iszero\n      tag_153\n      jumpi\n      tag_154\n      tag_141\n      jump\t// in\n    tag_154:\n    tag_153:\n        /* \"contracts/SupplyChain.sol\":8055:8071  AgricultureStock */\n      0x06\n        /* \"contracts/SupplyChain.sol\":8055:8087  AgricultureStock[_agricultureID] */\n      0x00\n        /* \"contracts/SupplyChain.sol\":8072:8086  _agricultureID */\n      dup5\n        /* \"contracts/SupplyChain.sol\":8055:8087  AgricultureStock[_agricultureID] */\n      dup2\n      mstore\n      0x20\n      add\n      swap1\n      dup2\n      mstore\n      0x20\n      add\n      0x00\n      keccak256\n        /* \"contracts/SupplyChain.sol\":8055:8093  AgricultureStock[_agricultureID].stage */\n      0x07\n      add\n      0x00\n      swap1\n      sload\n      swap1\n      0x0100\n      exp\n      swap1\n      div\n      0xff\n      and\n        /* \"contracts/SupplyChain.sol\":8055:8114  AgricultureStock[_agricultureID].stage == STAGE.Manufacture */\n      0x05\n      dup2\n      gt\n      iszero\n      tag_155\n      jumpi\n      tag_156\n      tag_141\n      jump\t// in\n    tag_156:\n    tag_155:\n      eq\n        /* \"contracts/SupplyChain.sol\":8047:8115  require(AgricultureStock[_agricultureID].stage == STAGE.Manufacture) */\n      tag_157\n      jumpi\n      0x00\n      dup1\n      revert\n    tag_157:\n        /* \"contracts/SupplyChain.sol\":8167:8170  _id */\n      dup1\n        /* \"contracts/SupplyChain.sol\":8126:8142  AgricultureStock */\n      0x06\n        /* \"contracts/SupplyChain.sol\":8126:8158  AgricultureStock[_agricultureID] */\n      0x00\n        /* \"contracts/SupplyChain.sol\":8143:8157  _agricultureID */\n      dup5\n        /* \"contracts/SupplyChain.sol\":8126:8158  AgricultureStock[_agricultureID] */\n      dup2\n      mstore\n      0x20\n      add\n      swap1\n      dup2\n      mstore\n      0x20\n      add\n      0x00\n      keccak256\n        /* \"contracts/SupplyChain.sol\":8126:8164  AgricultureStock[_agricultureID].DISid */\n      0x05\n      add\n        /* \"contracts/SupplyChain.sol\":8126:8170  AgricultureStock[_agricultureID].DISid = _id */\n      dup2\n      swap1\n      sstore\n      pop\n        /* \"contracts/SupplyChain.sol\":8222:8240  STAGE.Distribution */\n      0x03\n        /* \"contracts/SupplyChain.sol\":8181:8197  AgricultureStock */\n      0x06\n        /* \"contracts/SupplyChain.sol\":8181:8213  AgricultureStock[_agricultureID] */\n      0x00\n        /* \"contracts/SupplyChain.sol\":8198:8212  _agricultureID */\n      dup5\n        /* \"contracts/SupplyChain.sol\":8181:8213  AgricultureStock[_agricultureID] */\n      dup2\n      mstore\n      0x20\n      add\n      swap1\n      dup2\n      mstore\n      0x20\n      add\n      0x00\n      keccak256\n        /* \"contracts/SupplyChain.sol\":8181:8219  AgricultureStock[_agricultureID].stage */\n      0x07\n      add\n      0x00\n        /* \"contracts/SupplyChain.sol\":8181:8240  AgricultureStock[_agricultureID].stage = STAGE.Distribution */\n      0x0100\n      exp\n      dup2\n      sload\n      dup2\n      0xff\n      mul\n      not\n      and\n      swap1\n      dup4\n      0x05\n      dup2\n      gt\n      iszero\n      tag_158\n      jumpi\n      tag_159\n      tag_141\n      jump\t// in\n    tag_159:\n    tag_158:\n      mul\n      or\n      swap1\n      sstore\n      pop\n        /* \"contracts/SupplyChain.sol\":7891:8248  {... */\n      pop\n        /* \"contracts/SupplyChain.sol\":7840:8248  function Distribute(uint256 _agricultureID) public {... */\n      pop\n      jump\t// out\n        /* \"contracts/SupplyChain.sol\":4856:4895  mapping(uint256 => retailer) public RET */\n    tag_59:\n      mstore(0x20, 0x0a)\n      dup1\n      0x00\n      mstore\n      keccak256(0x00, 0x40)\n      0x00\n      swap2\n      pop\n      swap1\n      pop\n      dup1\n      0x00\n      add\n      0x00\n      swap1\n      sload\n      swap1\n      0x0100\n      exp\n      swap1\n      div\n      0xffffffffffffffffffffffffffffffffffffffff\n      and\n      swap1\n      dup1\n      0x01\n      add\n      sload\n      swap1\n      dup1\n      0x02\n      add\n      dup1\n      sload\n      tag_160\n      swap1\n      tag_117\n      jump\t// in\n    tag_160:\n      dup1\n      0x1f\n      add\n      0x20\n      dup1\n      swap2\n      div\n      mul\n      0x20\n      add\n      mload(0x40)\n      swap1\n      dup2\n      add\n      0x40\n      mstore\n      dup1\n      swap3\n      swap2\n      swap1\n      dup2\n      dup2\n      mstore\n      0x20\n      add\n      dup3\n      dup1\n      sload\n      tag_161\n      swap1\n      tag_117\n      jump\t// in\n    tag_161:\n      dup1\n      iszero\n      tag_162\n      jumpi\n      dup1\n      0x1f\n      lt\n      tag_163\n      jumpi\n      0x0100\n      dup1\n      dup4\n      sload\n      div\n      mul\n      dup4\n      mstore\n      swap2\n      0x20\n      add\n      swap2\n      jump(tag_162)\n    tag_163:\n      dup3\n      add\n      swap2\n      swap1\n      0x00\n      mstore\n      keccak256(0x00, 0x20)\n      swap1\n    tag_164:\n      dup2\n      sload\n      dup2\n      mstore\n      swap1\n      0x01\n      add\n      swap1\n      0x20\n      add\n      dup1\n      dup4\n      gt\n      tag_164\n      jumpi\n      dup3\n      swap1\n      sub\n      0x1f\n      and\n      dup3\n      add\n      swap2\n    tag_162:\n      pop\n      pop\n      pop\n      pop\n      pop\n      swap1\n      dup1\n      0x03\n      add\n      dup1\n      sload\n      tag_165\n      swap1\n      tag_117\n      jump\t// in\n    tag_165:\n      dup1\n      0x1f\n      add\n      0x20\n      dup1\n      swap2\n      div\n      mul\n      0x20\n      add\n      mload(0x40)\n      swap1\n      dup2\n      add\n      0x40\n      mstore\n      dup1\n      swap3\n      swap2\n      swap1\n      dup2\n      dup2\n      mstore\n      0x20\n      add\n      dup3\n      dup1\n      sload\n      tag_166\n      swap1\n      tag_117\n      jump\t// in\n    tag_166:\n      dup1\n      iszero\n      tag_167\n      jumpi\n      dup1\n      0x1f\n      lt\n      tag_168\n      jumpi\n      0x0100\n      dup1\n      dup4\n      sload\n      div\n      mul\n      dup4\n      mstore\n      swap2\n      0x20\n      add\n      swap2\n      jump(tag_167)\n    tag_168:\n      dup3\n      add\n      swap2\n      swap1\n      0x00\n      mstore\n      keccak256(0x00, 0x20)\n      swap1\n    tag_169:\n      dup2\n      sload\n      dup2\n      mstore\n      swap1\n      0x01\n      add\n      swap1\n      0x20\n      add\n      dup1\n      dup4\n      gt\n      tag_169\n      jumpi\n      dup3\n      swap1\n      sub\n      0x1f\n      and\n      dup3\n      add\n      swap2\n    tag_167:\n      pop\n      pop\n      pop\n      pop\n      pop\n      swap1\n      pop\n      dup5\n      jump\t// out\n        /* \"contracts/SupplyChain.sol\":5317:5555  function addManufacturer(... */\n    tag_63:\n        /* \"contracts/SupplyChain.sol\":927:932  Owner */\n      0x00\n      dup1\n      sload\n      swap1\n      0x0100\n      exp\n      swap1\n      div\n      0xffffffffffffffffffffffffffffffffffffffff\n      and\n        /* \"contracts/SupplyChain.sol\":913:932  msg.sender == Owner */\n      0xffffffffffffffffffffffffffffffffffffffff\n      and\n        /* \"contracts/SupplyChain.sol\":913:923  msg.sender */\n      caller\n        /* \"contracts/SupplyChain.sol\":913:932  msg.sender == Owner */\n      0xffffffffffffffffffffffffffffffffffffffff\n      and\n      eq\n        /* \"contracts/SupplyChain.sol\":905:933  require(msg.sender == Owner) */\n      tag_171\n      jumpi\n      0x00\n      dup1\n      revert\n    tag_171:\n        /* \"contracts/SupplyChain.sol\":5469:5475  manCtr */\n      0x03\n      0x00\n        /* \"contracts/SupplyChain.sol\":5469:5477  manCtr++ */\n      dup2\n      sload\n      dup1\n      swap3\n      swap2\n      swap1\n      tag_173\n      swap1\n      tag_112\n      jump\t// in\n    tag_173:\n      swap2\n      swap1\n      pop\n      sstore\n      pop\n        /* \"contracts/SupplyChain.sol\":5502:5547  manufacturer(_address, manCtr, _name, _place) */\n      mload(0x40)\n      dup1\n      0x80\n      add\n      0x40\n      mstore\n      dup1\n        /* \"contracts/SupplyChain.sol\":5515:5523  _address */\n      dup5\n        /* \"contracts/SupplyChain.sol\":5502:5547  manufacturer(_address, manCtr, _name, _place) */\n      0xffffffffffffffffffffffffffffffffffffffff\n      and\n      dup2\n      mstore\n      0x20\n      add\n        /* \"contracts/SupplyChain.sol\":5525:5531  manCtr */\n      sload(0x03)\n        /* \"contracts/SupplyChain.sol\":5502:5547  manufacturer(_address, manCtr, _name, _place) */\n      dup2\n      mstore\n      0x20\n      add\n        /* \"contracts/SupplyChain.sol\":5533:5538  _name */\n      dup4\n        /* \"contracts/SupplyChain.sol\":5502:5547  manufacturer(_address, manCtr, _name, _place) */\n      dup2\n      mstore\n      0x20\n      add\n        /* \"contracts/SupplyChain.sol\":5540:5546  _place */\n      dup3\n        /* \"contracts/SupplyChain.sol\":5502:5547  manufacturer(_address, manCtr, _name, _place) */\n      dup2\n      mstore\n      pop\n        /* \"contracts/SupplyChain.sol\":5488:5491  MAN */\n      0x08\n        /* \"contracts/SupplyChain.sol\":5488:5499  MAN[manCtr] */\n      0x00\n        /* \"contracts/SupplyChain.sol\":5492:5498  manCtr */\n      sload(0x03)\n        /* \"contracts/SupplyChain.sol\":5488:5499  MAN[manCtr] */\n      dup2\n      mstore\n      0x20\n      add\n      swap1\n      dup2\n      mstore\n      0x20\n      add\n      0x00\n      keccak256\n        /* \"contracts/SupplyChain.sol\":5488:5547  MAN[manCtr] = manufacturer(_address, manCtr, _name, _place) */\n      0x00\n      dup3\n      add\n      mload\n      dup2\n      0x00\n      add\n      exp(0x0100, 0x00)\n      dup2\n      sload\n      dup2\n      0xffffffffffffffffffffffffffffffffffffffff\n      mul\n      not\n      and\n      swap1\n      dup4\n      0xffffffffffffffffffffffffffffffffffffffff\n      and\n      mul\n      or\n      swap1\n      sstore\n      pop\n      0x20\n      dup3\n      add\n      mload\n      dup2\n      0x01\n      add\n      sstore\n      0x40\n      dup3\n      add\n      mload\n      dup2\n      0x02\n      add\n      swap1\n      dup2\n      tag_174\n      swap2\n      swap1\n      tag_114\n      jump\t// in\n    tag_174:\n      pop\n      0x60\n      dup3\n      add\n      mload\n      dup2\n      0x03\n      add\n      swap1\n      dup2\n      tag_175\n      swap2\n      swap1\n      tag_114\n      jump\t// in\n    tag_175:\n      pop\n      swap1\n      pop\n      pop\n        /* \"contracts/SupplyChain.sol\":5317:5555  function addManufacturer(... */\n      pop\n      pop\n      pop\n      jump\t// out\n        /* \"contracts/SupplyChain.sol\":1483:1508  uint256 public retCtr = 0 */\n    tag_65:\n      sload(0x05)\n      dup2\n      jump\t// out\n        /* \"contracts/SupplyChain.sol\":5947:6177  function addRetailer(... */\n    tag_69:\n        /* \"contracts/SupplyChain.sol\":927:932  Owner */\n      0x00\n      dup1\n      sload\n      swap1\n      0x0100\n      exp\n      swap1\n      div\n      0xffffffffffffffffffffffffffffffffffffffff\n      and\n        /* \"contracts/SupplyChain.sol\":913:932  msg.sender == Owner */\n      0xffffffffffffffffffffffffffffffffffffffff\n      and\n        /* \"contracts/SupplyChain.sol\":913:923  msg.sender */\n      caller\n        /* \"contracts/SupplyChain.sol\":913:932  msg.sender == Owner */\n      0xffffffffffffffffffffffffffffffffffffffff\n      and\n      eq\n        /* \"contracts/SupplyChain.sol\":905:933  require(msg.sender == Owner) */\n      tag_177\n      jumpi\n      0x00\n      dup1\n      revert\n    tag_177:\n        /* \"contracts/SupplyChain.sol\":6095:6101  retCtr */\n      0x05\n      0x00\n        /* \"contracts/SupplyChain.sol\":6095:6103  retCtr++ */\n      dup2\n      sload\n      dup1\n      swap3\n      swap2\n      swap1\n      tag_179\n      swap1\n      tag_112\n      jump\t// in\n    tag_179:\n      swap2\n      swap1\n      pop\n      sstore\n      pop\n        /* \"contracts/SupplyChain.sol\":6128:6169  retailer(_address, retCtr, _name, _place) */\n      mload(0x40)\n      dup1\n      0x80\n      add\n      0x40\n      mstore\n      dup1\n        /* \"contracts/SupplyChain.sol\":6137:6145  _address */\n      dup5\n        /* \"contracts/SupplyChain.sol\":6128:6169  retailer(_address, retCtr, _name, _place) */\n      0xffffffffffffffffffffffffffffffffffffffff\n      and\n      dup2\n      mstore\n      0x20\n      add\n        /* \"contracts/SupplyChain.sol\":6147:6153  retCtr */\n      sload(0x05)\n        /* \"contracts/SupplyChain.sol\":6128:6169  retailer(_address, retCtr, _name, _place) */\n      dup2\n      mstore\n      0x20\n      add\n        /* \"contracts/SupplyChain.sol\":6155:6160  _name */\n      dup4\n        /* \"contracts/SupplyChain.sol\":6128:6169  retailer(_address, retCtr, _name, _place) */\n      dup2\n      mstore\n      0x20\n      add\n        /* \"contracts/SupplyChain.sol\":6162:6168  _place */\n      dup3\n        /* \"contracts/SupplyChain.sol\":6128:6169  retailer(_address, retCtr, _name, _place) */\n      dup2\n      mstore\n      pop\n        /* \"contracts/SupplyChain.sol\":6114:6117  RET */\n      0x0a\n        /* \"contracts/SupplyChain.sol\":6114:6125  RET[retCtr] */\n      0x00\n        /* \"contracts/SupplyChain.sol\":6118:6124  retCtr */\n      sload(0x05)\n        /* \"contracts/SupplyChain.sol\":6114:6125  RET[retCtr] */\n      dup2\n      mstore\n      0x20\n      add\n      swap1\n      dup2\n      mstore\n      0x20\n      add\n      0x00\n      keccak256\n        /* \"contracts/SupplyChain.sol\":6114:6169  RET[retCtr] = retailer(_address, retCtr, _name, _place) */\n      0x00\n      dup3\n      add\n      mload\n      dup2\n      0x00\n      add\n      exp(0x0100, 0x00)\n      dup2\n      sload\n      dup2\n      0xffffffffffffffffffffffffffffffffffffffff\n      mul\n      not\n      and\n      swap1\n      dup4\n      0xffffffffffffffffffffffffffffffffffffffff\n      and\n      mul\n      or\n      swap1\n      sstore\n      pop\n      0x20\n      dup3\n      add\n      mload\n      dup2\n      0x01\n      add\n      sstore\n      0x40\n      dup3\n      add\n      mload\n      dup2\n      0x02\n      add\n      swap1\n      dup2\n      tag_180\n      swap2\n      swap1\n      tag_114\n      jump\t// in\n    tag_180:\n      pop\n      0x60\n      dup3\n      add\n      mload\n      dup2\n      0x03\n      add\n      swap1\n      dup2\n      tag_181\n      swap2\n      swap1\n      tag_114\n      jump\t// in\n    tag_181:\n      pop\n      swap1\n      pop\n      pop\n        /* \"contracts/SupplyChain.sol\":5947:6177  function addRetailer(... */\n      pop\n      pop\n      pop\n      jump\t// out\n        /* \"contracts/SupplyChain.sol\":6254:6659  function RMSsupply(uint256 _agricultureID) public {... */\n    tag_72:\n        /* \"contracts/SupplyChain.sol\":6340:6341  0 */\n      0x00\n        /* \"contracts/SupplyChain.sol\":6323:6337  _agricultureID */\n      dup2\n        /* \"contracts/SupplyChain.sol\":6323:6341  _agricultureID > 0 */\n      gt\n        /* \"contracts/SupplyChain.sol\":6323:6377  _agricultureID > 0 && _agricultureID <= agricultureCtr */\n      dup1\n      iszero\n      tag_183\n      jumpi\n      pop\n        /* \"contracts/SupplyChain.sol\":6363:6377  agricultureCtr */\n      sload(0x01)\n        /* \"contracts/SupplyChain.sol\":6345:6359  _agricultureID */\n      dup2\n        /* \"contracts/SupplyChain.sol\":6345:6377  _agricultureID <= agricultureCtr */\n      gt\n      iszero\n        /* \"contracts/SupplyChain.sol\":6323:6377  _agricultureID > 0 && _agricultureID <= agricultureCtr */\n    tag_183:\n        /* \"contracts/SupplyChain.sol\":6315:6378  require(_agricultureID > 0 && _agricultureID <= agricultureCtr) */\n      tag_184\n      jumpi\n      0x00\n      dup1\n      revert\n    tag_184:\n        /* \"contracts/SupplyChain.sol\":6389:6400  uint256 _id */\n      0x00\n        /* \"contracts/SupplyChain.sol\":6403:6422  findRMS(msg.sender) */\n      tag_185\n        /* \"contracts/SupplyChain.sol\":6411:6421  msg.sender */\n      caller\n        /* \"contracts/SupplyChain.sol\":6403:6410  findRMS */\n      tag_186\n        /* \"contracts/SupplyChain.sol\":6403:6422  findRMS(msg.sender) */\n      jump\t// in\n    tag_185:\n        /* \"contracts/SupplyChain.sol\":6389:6422  uint256 _id = findRMS(msg.sender) */\n      swap1\n      pop\n        /* \"contracts/SupplyChain.sol\":6447:6448  0 */\n      0x00\n        /* \"contracts/SupplyChain.sol\":6441:6444  _id */\n      dup2\n        /* \"contracts/SupplyChain.sol\":6441:6448  _id > 0 */\n      gt\n        /* \"contracts/SupplyChain.sol\":6433:6449  require(_id > 0) */\n      tag_187\n      jumpi\n      0x00\n      dup1\n      revert\n    tag_187:\n        /* \"contracts/SupplyChain.sol\":6510:6520  STAGE.Init */\n      0x00\n        /* \"contracts/SupplyChain.sol\":6468:6520  AgricultureStock[_agricultureID].stage == STAGE.Init */\n      0x05\n      dup2\n      gt\n      iszero\n      tag_188\n      jumpi\n      tag_189\n      tag_141\n      jump\t// in\n    tag_189:\n    tag_188:\n        /* \"contracts/SupplyChain.sol\":6468:6484  AgricultureStock */\n      0x06\n        /* \"contracts/SupplyChain.sol\":6468:6500  AgricultureStock[_agricultureID] */\n      0x00\n        /* \"contracts/SupplyChain.sol\":6485:6499  _agricultureID */\n      dup5\n        /* \"contracts/SupplyChain.sol\":6468:6500  AgricultureStock[_agricultureID] */\n      dup2\n      mstore\n      0x20\n      add\n      swap1\n      dup2\n      mstore\n      0x20\n      add\n      0x00\n      keccak256\n        /* \"contracts/SupplyChain.sol\":6468:6506  AgricultureStock[_agricultureID].stage */\n      0x07\n      add\n      0x00\n      swap1\n      sload\n      swap1\n      0x0100\n      exp\n      swap1\n      div\n      0xff\n      and\n        /* \"contracts/SupplyChain.sol\":6468:6520  AgricultureStock[_agricultureID].stage == STAGE.Init */\n      0x05\n      dup2\n      gt\n      iszero\n      tag_190\n      jumpi\n      tag_191\n      tag_141\n      jump\t// in\n    tag_191:\n    tag_190:\n      eq\n        /* \"contracts/SupplyChain.sol\":6460:6521  require(AgricultureStock[_agricultureID].stage == STAGE.Init) */\n      tag_192\n      jumpi\n      0x00\n      dup1\n      revert\n    tag_192:\n        /* \"contracts/SupplyChain.sol\":6573:6576  _id */\n      dup1\n        /* \"contracts/SupplyChain.sol\":6532:6548  AgricultureStock */\n      0x06\n        /* \"contracts/SupplyChain.sol\":6532:6564  AgricultureStock[_agricultureID] */\n      0x00\n        /* \"contracts/SupplyChain.sol\":6549:6563  _agricultureID */\n      dup5\n        /* \"contracts/SupplyChain.sol\":6532:6564  AgricultureStock[_agricultureID] */\n      dup2\n      mstore\n      0x20\n      add\n      swap1\n      dup2\n      mstore\n      0x20\n      add\n      0x00\n      keccak256\n        /* \"contracts/SupplyChain.sol\":6532:6570  AgricultureStock[_agricultureID].RMSid */\n      0x03\n      add\n        /* \"contracts/SupplyChain.sol\":6532:6576  AgricultureStock[_agricultureID].RMSid = _id */\n      dup2\n      swap1\n      sstore\n      pop\n        /* \"contracts/SupplyChain.sol\":6628:6651  STAGE.RawMaterialSupply */\n      0x01\n        /* \"contracts/SupplyChain.sol\":6587:6603  AgricultureStock */\n      0x06\n        /* \"contracts/SupplyChain.sol\":6587:6619  AgricultureStock[_agricultureID] */\n      0x00\n        /* \"contracts/SupplyChain.sol\":6604:6618  _agricultureID */\n      dup5\n        /* \"contracts/SupplyChain.sol\":6587:6619  AgricultureStock[_agricultureID] */\n      dup2\n      mstore\n      0x20\n      add\n      swap1\n      dup2\n      mstore\n      0x20\n      add\n      0x00\n      keccak256\n        /* \"contracts/SupplyChain.sol\":6587:6625  AgricultureStock[_agricultureID].stage */\n      0x07\n      add\n      0x00\n        /* \"contracts/SupplyChain.sol\":6587:6651  AgricultureStock[_agricultureID].stage = STAGE.RawMaterialSupply */\n      0x0100\n      exp\n      dup2\n      sload\n      dup2\n      0xff\n      mul\n      not\n      and\n      swap1\n      dup4\n      0x05\n      dup2\n      gt\n      iszero\n      tag_193\n      jumpi\n      tag_194\n      tag_141\n      jump\t// in\n    tag_194:\n    tag_193:\n      mul\n      or\n      swap1\n      sstore\n      pop\n        /* \"contracts/SupplyChain.sol\":6304:6659  {... */\n      pop\n        /* \"contracts/SupplyChain.sol\":6254:6659  function RMSsupply(uint256 _agricultureID) public {... */\n      pop\n      jump\t// out\n        /* \"contracts/SupplyChain.sol\":2247:2302  mapping(uint256 => agriculture) public AgricultureStock */\n    tag_75:\n      mstore(0x20, 0x06)\n      dup1\n      0x00\n      mstore\n      keccak256(0x00, 0x40)\n      0x00\n      swap2\n      pop\n      swap1\n      pop\n      dup1\n      0x00\n      add\n      sload\n      swap1\n      dup1\n      0x01\n      add\n      dup1\n      sload\n      tag_195\n      swap1\n      tag_117\n      jump\t// in\n    tag_195:\n      dup1\n      0x1f\n      add\n      0x20\n      dup1\n      swap2\n      div\n      mul\n      0x20\n      add\n      mload(0x40)\n      swap1\n      dup2\n      add\n      0x40\n      mstore\n      dup1\n      swap3\n      swap2\n      swap1\n      dup2\n      dup2\n      mstore\n      0x20\n      add\n      dup3\n      dup1\n      sload\n      tag_196\n      swap1\n      tag_117\n      jump\t// in\n    tag_196:\n      dup1\n      iszero\n      tag_197\n      jumpi\n      dup1\n      0x1f\n      lt\n      tag_198\n      jumpi\n      0x0100\n      dup1\n      dup4\n      sload\n      div\n      mul\n      dup4\n      mstore\n      swap2\n      0x20\n      add\n      swap2\n      jump(tag_197)\n    tag_198:\n      dup3\n      add\n      swap2\n      swap1\n      0x00\n      mstore\n      keccak256(0x00, 0x20)\n      swap1\n    tag_199:\n      dup2\n      sload\n      dup2\n      mstore\n      swap1\n      0x01\n      add\n      swap1\n      0x20\n      add\n      dup1\n      dup4\n      gt\n      tag_199\n      jumpi\n      dup3\n      swap1\n      sub\n      0x1f\n      and\n      dup3\n      add\n      swap2\n    tag_197:\n      pop\n      pop\n      pop\n      pop\n      pop\n      swap1\n      dup1\n      0x02\n      add\n      dup1\n      sload\n      tag_200\n      swap1\n      tag_117\n      jump\t// in\n    tag_200:\n      dup1\n      0x1f\n      add\n      0x20\n      dup1\n      swap2\n      div\n      mul\n      0x20\n      add\n      mload(0x40)\n      swap1\n      dup2\n      add\n      0x40\n      mstore\n      dup1\n      swap3\n      swap2\n      swap1\n      dup2\n      dup2\n      mstore\n      0x20\n      add\n      dup3\n      dup1\n      sload\n      tag_201\n      swap1\n      tag_117\n      jump\t// in\n    tag_201:\n      dup1\n      iszero\n      tag_202\n      jumpi\n      dup1\n      0x1f\n      lt\n      tag_203\n      jumpi\n      0x0100\n      dup1\n      dup4\n      sload\n      div\n      mul\n      dup4\n      mstore\n      swap2\n      0x20\n      add\n      swap2\n      jump(tag_202)\n    tag_203:\n      dup3\n      add\n      swap2\n      swap1\n      0x00\n      mstore\n      keccak256(0x00, 0x20)\n      swap1\n    tag_204:\n      dup2\n      sload\n      dup2\n      mstore\n      swap1\n      0x01\n      add\n      swap1\n      0x20\n      add\n      dup1\n      dup4\n      gt\n      tag_204\n      jumpi\n      dup3\n      swap1\n      sub\n      0x1f\n      and\n      dup3\n      add\n      swap2\n    tag_202:\n      pop\n      pop\n      pop\n      pop\n      pop\n      swap1\n      dup1\n      0x03\n      add\n      sload\n      swap1\n      dup1\n      0x04\n      add\n      sload\n      swap1\n      dup1\n      0x05\n      add\n      sload\n      swap1\n      dup1\n      0x06\n      add\n      sload\n      swap1\n      dup1\n      0x07\n      add\n      0x00\n      swap1\n      sload\n      swap1\n      0x0100\n      exp\n      swap1\n      div\n      0xff\n      and\n      swap1\n      pop\n      dup9\n      jump\t// out\n        /* \"contracts/SupplyChain.sol\":9431:9900  function sold(uint256 _agricultureID) public {... */\n    tag_80:\n        /* \"contracts/SupplyChain.sol\":9512:9513  0 */\n      0x00\n        /* \"contracts/SupplyChain.sol\":9495:9509  _agricultureID */\n      dup2\n        /* \"contracts/SupplyChain.sol\":9495:9513  _agricultureID > 0 */\n      gt\n        /* \"contracts/SupplyChain.sol\":9495:9549  _agricultureID > 0 && _agricultureID <= agricultureCtr */\n      dup1\n      iszero\n      tag_206\n      jumpi\n      pop\n        /* \"contracts/SupplyChain.sol\":9535:9549  agricultureCtr */\n      sload(0x01)\n        /* \"contracts/SupplyChain.sol\":9517:9531  _agricultureID */\n      dup2\n        /* \"contracts/SupplyChain.sol\":9517:9549  _agricultureID <= agricultureCtr */\n      gt\n      iszero\n        /* \"contracts/SupplyChain.sol\":9495:9549  _agricultureID > 0 && _agricultureID <= agricultureCtr */\n    tag_206:\n        /* \"contracts/SupplyChain.sol\":9487:9550  require(_agricultureID > 0 && _agricultureID <= agricultureCtr) */\n      tag_207\n      jumpi\n      0x00\n      dup1\n      revert\n    tag_207:\n        /* \"contracts/SupplyChain.sol\":9561:9572  uint256 _id */\n      0x00\n        /* \"contracts/SupplyChain.sol\":9575:9594  findRET(msg.sender) */\n      tag_208\n        /* \"contracts/SupplyChain.sol\":9583:9593  msg.sender */\n      caller\n        /* \"contracts/SupplyChain.sol\":9575:9582  findRET */\n      tag_137\n        /* \"contracts/SupplyChain.sol\":9575:9594  findRET(msg.sender) */\n      jump\t// in\n    tag_208:\n        /* \"contracts/SupplyChain.sol\":9561:9594  uint256 _id = findRET(msg.sender) */\n      swap1\n      pop\n        /* \"contracts/SupplyChain.sol\":9619:9620  0 */\n      0x00\n        /* \"contracts/SupplyChain.sol\":9613:9616  _id */\n      dup2\n        /* \"contracts/SupplyChain.sol\":9613:9620  _id > 0 */\n      gt\n        /* \"contracts/SupplyChain.sol\":9605:9621  require(_id > 0) */\n      tag_209\n      jumpi\n      0x00\n      dup1\n      revert\n    tag_209:\n        /* \"contracts/SupplyChain.sol\":9647:9663  AgricultureStock */\n      0x06\n        /* \"contracts/SupplyChain.sol\":9647:9679  AgricultureStock[_agricultureID] */\n      0x00\n        /* \"contracts/SupplyChain.sol\":9664:9678  _agricultureID */\n      dup4\n        /* \"contracts/SupplyChain.sol\":9647:9679  AgricultureStock[_agricultureID] */\n      dup2\n      mstore\n      0x20\n      add\n      swap1\n      dup2\n      mstore\n      0x20\n      add\n      0x00\n      keccak256\n        /* \"contracts/SupplyChain.sol\":9647:9685  AgricultureStock[_agricultureID].RETid */\n      0x06\n      add\n      sload\n        /* \"contracts/SupplyChain.sol\":9640:9643  _id */\n      dup2\n        /* \"contracts/SupplyChain.sol\":9640:9685  _id == AgricultureStock[_agricultureID].RETid */\n      eq\n        /* \"contracts/SupplyChain.sol\":9632:9686  require(_id == AgricultureStock[_agricultureID].RETid) */\n      tag_210\n      jumpi\n      0x00\n      dup1\n      revert\n    tag_210:\n        /* \"contracts/SupplyChain.sol\":9817:9829  STAGE.Retail */\n      0x04\n        /* \"contracts/SupplyChain.sol\":9775:9829  AgricultureStock[_agricultureID].stage == STAGE.Retail */\n      0x05\n      dup2\n      gt\n      iszero\n      tag_211\n      jumpi\n      tag_212\n      tag_141\n      jump\t// in\n    tag_212:\n    tag_211:\n        /* \"contracts/SupplyChain.sol\":9775:9791  AgricultureStock */\n      0x06\n        /* \"contracts/SupplyChain.sol\":9775:9807  AgricultureStock[_agricultureID] */\n      0x00\n        /* \"contracts/SupplyChain.sol\":9792:9806  _agricultureID */\n      dup5\n        /* \"contracts/SupplyChain.sol\":9775:9807  AgricultureStock[_agricultureID] */\n      dup2\n      mstore\n      0x20\n      add\n      swap1\n      dup2\n      mstore\n      0x20\n      add\n      0x00\n      keccak256\n        /* \"contracts/SupplyChain.sol\":9775:9813  AgricultureStock[_agricultureID].stage */\n      0x07\n      add\n      0x00\n      swap1\n      sload\n      swap1\n      0x0100\n      exp\n      swap1\n      div\n      0xff\n      and\n        /* \"contracts/SupplyChain.sol\":9775:9829  AgricultureStock[_agricultureID].stage == STAGE.Retail */\n      0x05\n      dup2\n      gt\n      iszero\n      tag_213\n      jumpi\n      tag_214\n      tag_141\n      jump\t// in\n    tag_214:\n    tag_213:\n      eq\n        /* \"contracts/SupplyChain.sol\":9767:9830  require(AgricultureStock[_agricultureID].stage == STAGE.Retail) */\n      tag_215\n      jumpi\n      0x00\n      dup1\n      revert\n    tag_215:\n        /* \"contracts/SupplyChain.sol\":9882:9892  STAGE.Sold */\n      0x05\n        /* \"contracts/SupplyChain.sol\":9841:9857  AgricultureStock */\n      0x06\n        /* \"contracts/SupplyChain.sol\":9841:9873  AgricultureStock[_agricultureID] */\n      0x00\n        /* \"contracts/SupplyChain.sol\":9858:9872  _agricultureID */\n      dup5\n        /* \"contracts/SupplyChain.sol\":9841:9873  AgricultureStock[_agricultureID] */\n      dup2\n      mstore\n      0x20\n      add\n      swap1\n      dup2\n      mstore\n      0x20\n      add\n      0x00\n      keccak256\n        /* \"contracts/SupplyChain.sol\":9841:9879  AgricultureStock[_agricultureID].stage */\n      0x07\n      add\n      0x00\n        /* \"contracts/SupplyChain.sol\":9841:9892  AgricultureStock[_agricultureID].stage = STAGE.Sold */\n      0x0100\n      exp\n      dup2\n      sload\n      dup2\n      0xff\n      mul\n      not\n      and\n      swap1\n      dup4\n      0x05\n      dup2\n      gt\n      iszero\n      tag_216\n      jumpi\n      tag_217\n      tag_141\n      jump\t// in\n    tag_217:\n    tag_216:\n      mul\n      or\n      swap1\n      sstore\n      pop\n        /* \"contracts/SupplyChain.sol\":9476:9900  {... */\n      pop\n        /* \"contracts/SupplyChain.sol\":9431:9900  function sold(uint256 _agricultureID) public {... */\n      pop\n      jump\t// out\n        /* \"contracts/SupplyChain.sol\":7023:7439  function Manufacturing(uint256 _agricultureID) public {... */\n    tag_83:\n        /* \"contracts/SupplyChain.sol\":7113:7114  0 */\n      0x00\n        /* \"contracts/SupplyChain.sol\":7096:7110  _agricultureID */\n      dup2\n        /* \"contracts/SupplyChain.sol\":7096:7114  _agricultureID > 0 */\n      gt\n        /* \"contracts/SupplyChain.sol\":7096:7150  _agricultureID > 0 && _agricultureID <= agricultureCtr */\n      dup1\n      iszero\n      tag_219\n      jumpi\n      pop\n        /* \"contracts/SupplyChain.sol\":7136:7150  agricultureCtr */\n      sload(0x01)\n        /* \"contracts/SupplyChain.sol\":7118:7132  _agricultureID */\n      dup2\n        /* \"contracts/SupplyChain.sol\":7118:7150  _agricultureID <= agricultureCtr */\n      gt\n      iszero\n        /* \"contracts/SupplyChain.sol\":7096:7150  _agricultureID > 0 && _agricultureID <= agricultureCtr */\n    tag_219:\n        /* \"contracts/SupplyChain.sol\":7088:7151  require(_agricultureID > 0 && _agricultureID <= agricultureCtr) */\n      tag_220\n      jumpi\n      0x00\n      dup1\n      revert\n    tag_220:\n        /* \"contracts/SupplyChain.sol\":7162:7173  uint256 _id */\n      0x00\n        /* \"contracts/SupplyChain.sol\":7176:7195  findMAN(msg.sender) */\n      tag_221\n        /* \"contracts/SupplyChain.sol\":7184:7194  msg.sender */\n      caller\n        /* \"contracts/SupplyChain.sol\":7176:7183  findMAN */\n      tag_222\n        /* \"contracts/SupplyChain.sol\":7176:7195  findMAN(msg.sender) */\n      jump\t// in\n    tag_221:\n        /* \"contracts/SupplyChain.sol\":7162:7195  uint256 _id = findMAN(msg.sender) */\n      swap1\n      pop\n        /* \"contracts/SupplyChain.sol\":7220:7221  0 */\n      0x00\n        /* \"contracts/SupplyChain.sol\":7214:7217  _id */\n      dup2\n        /* \"contracts/SupplyChain.sol\":7214:7221  _id > 0 */\n      gt\n        /* \"contracts/SupplyChain.sol\":7206:7222  require(_id > 0) */\n      tag_223\n      jumpi\n      0x00\n      dup1\n      revert\n    tag_223:\n        /* \"contracts/SupplyChain.sol\":7283:7306  STAGE.RawMaterialSupply */\n      0x01\n        /* \"contracts/SupplyChain.sol\":7241:7306  AgricultureStock[_agricultureID].stage == STAGE.RawMaterialSupply */\n      0x05\n      dup2\n      gt\n      iszero\n      tag_224\n      jumpi\n      tag_225\n      tag_141\n      jump\t// in\n    tag_225:\n    tag_224:\n        /* \"contracts/SupplyChain.sol\":7241:7257  AgricultureStock */\n      0x06\n        /* \"contracts/SupplyChain.sol\":7241:7273  AgricultureStock[_agricultureID] */\n      0x00\n        /* \"contracts/SupplyChain.sol\":7258:7272  _agricultureID */\n      dup5\n        /* \"contracts/SupplyChain.sol\":7241:7273  AgricultureStock[_agricultureID] */\n      dup2\n      mstore\n      0x20\n      add\n      swap1\n      dup2\n      mstore\n      0x20\n      add\n      0x00\n      keccak256\n        /* \"contracts/SupplyChain.sol\":7241:7279  AgricultureStock[_agricultureID].stage */\n      0x07\n      add\n      0x00\n      swap1\n      sload\n      swap1\n      0x0100\n      exp\n      swap1\n      div\n      0xff\n      and\n        /* \"contracts/SupplyChain.sol\":7241:7306  AgricultureStock[_agricultureID].stage == STAGE.RawMaterialSupply */\n      0x05\n      dup2\n      gt\n      iszero\n      tag_226\n      jumpi\n      tag_227\n      tag_141\n      jump\t// in\n    tag_227:\n    tag_226:\n      eq\n        /* \"contracts/SupplyChain.sol\":7233:7307  require(AgricultureStock[_agricultureID].stage == STAGE.RawMaterialSupply) */\n      tag_228\n      jumpi\n      0x00\n      dup1\n      revert\n    tag_228:\n        /* \"contracts/SupplyChain.sol\":7359:7362  _id */\n      dup1\n        /* \"contracts/SupplyChain.sol\":7318:7334  AgricultureStock */\n      0x06\n        /* \"contracts/SupplyChain.sol\":7318:7350  AgricultureStock[_agricultureID] */\n      0x00\n        /* \"contracts/SupplyChain.sol\":7335:7349  _agricultureID */\n      dup5\n        /* \"contracts/SupplyChain.sol\":7318:7350  AgricultureStock[_agricultureID] */\n      dup2\n      mstore\n      0x20\n      add\n      swap1\n      dup2\n      mstore\n      0x20\n      add\n      0x00\n      keccak256\n        /* \"contracts/SupplyChain.sol\":7318:7356  AgricultureStock[_agricultureID].MANid */\n      0x04\n      add\n        /* \"contracts/SupplyChain.sol\":7318:7362  AgricultureStock[_agricultureID].MANid = _id */\n      dup2\n      swap1\n      sstore\n      pop\n        /* \"contracts/SupplyChain.sol\":7414:7431  STAGE.Manufacture */\n      0x02\n        /* \"contracts/SupplyChain.sol\":7373:7389  AgricultureStock */\n      0x06\n        /* \"contracts/SupplyChain.sol\":7373:7405  AgricultureStock[_agricultureID] */\n      0x00\n        /* \"contracts/SupplyChain.sol\":7390:7404  _agricultureID */\n      dup5\n        /* \"contracts/SupplyChain.sol\":7373:7405  AgricultureStock[_agricultureID] */\n      dup2\n      mstore\n      0x20\n      add\n      swap1\n      dup2\n      mstore\n      0x20\n      add\n      0x00\n      keccak256\n        /* \"contracts/SupplyChain.sol\":7373:7411  AgricultureStock[_agricultureID].stage */\n      0x07\n      add\n      0x00\n        /* \"contracts/SupplyChain.sol\":7373:7431  AgricultureStock[_agricultureID].stage = STAGE.Manufacture */\n      0x0100\n      exp\n      dup2\n      sload\n      dup2\n      0xff\n      mul\n      not\n      and\n      swap1\n      dup4\n      0x05\n      dup2\n      gt\n      iszero\n      tag_229\n      jumpi\n      tag_230\n      tag_141\n      jump\t// in\n    tag_230:\n    tag_229:\n      mul\n      or\n      swap1\n      sstore\n      pop\n        /* \"contracts/SupplyChain.sol\":7077:7439  {... */\n      pop\n        /* \"contracts/SupplyChain.sol\":7023:7439  function Manufacturing(uint256 _agricultureID) public {... */\n      pop\n      jump\t// out\n        /* \"contracts/SupplyChain.sol\":228:248  address public Owner */\n    tag_85:\n      0x00\n      dup1\n      sload\n      swap1\n      0x0100\n      exp\n      swap1\n      div\n      0xffffffffffffffffffffffffffffffffffffffff\n      and\n      dup2\n      jump\t// out\n        /* \"contracts/SupplyChain.sol\":9969:10434  function addAgriculture(string memory _name, string memory _description)... */\n    tag_91:\n        /* \"contracts/SupplyChain.sol\":927:932  Owner */\n      0x00\n      dup1\n      sload\n      swap1\n      0x0100\n      exp\n      swap1\n      div\n      0xffffffffffffffffffffffffffffffffffffffff\n      and\n        /* \"contracts/SupplyChain.sol\":913:932  msg.sender == Owner */\n      0xffffffffffffffffffffffffffffffffffffffff\n      and\n        /* \"contracts/SupplyChain.sol\":913:923  msg.sender */\n      caller\n        /* \"contracts/SupplyChain.sol\":913:932  msg.sender == Owner */\n      0xffffffffffffffffffffffffffffffffffffffff\n      and\n      eq\n        /* \"contracts/SupplyChain.sol\":905:933  require(msg.sender == Owner) */\n      tag_232\n      jumpi\n      0x00\n      dup1\n      revert\n    tag_232:\n        /* \"contracts/SupplyChain.sol\":10115:10116  0 */\n      0x00\n        /* \"contracts/SupplyChain.sol\":10106:10112  rmsCtr */\n      sload(0x02)\n        /* \"contracts/SupplyChain.sol\":10106:10116  rmsCtr > 0 */\n      gt\n        /* \"contracts/SupplyChain.sol\":10105:10133  (rmsCtr > 0) && (manCtr > 0) */\n      dup1\n      iszero\n      tag_234\n      jumpi\n      pop\n        /* \"contracts/SupplyChain.sol\":10131:10132  0 */\n      0x00\n        /* \"contracts/SupplyChain.sol\":10122:10128  manCtr */\n      sload(0x03)\n        /* \"contracts/SupplyChain.sol\":10122:10132  manCtr > 0 */\n      gt\n        /* \"contracts/SupplyChain.sol\":10105:10133  (rmsCtr > 0) && (manCtr > 0) */\n    tag_234:\n        /* \"contracts/SupplyChain.sol\":10105:10149  (rmsCtr > 0) && (manCtr > 0) && (disCtr > 0) */\n      dup1\n      iszero\n      tag_235\n      jumpi\n      pop\n        /* \"contracts/SupplyChain.sol\":10147:10148  0 */\n      0x00\n        /* \"contracts/SupplyChain.sol\":10138:10144  disCtr */\n      sload(0x04)\n        /* \"contracts/SupplyChain.sol\":10138:10148  disCtr > 0 */\n      gt\n        /* \"contracts/SupplyChain.sol\":10105:10149  (rmsCtr > 0) && (manCtr > 0) && (disCtr > 0) */\n    tag_235:\n        /* \"contracts/SupplyChain.sol\":10105:10165  (rmsCtr > 0) && (manCtr > 0) && (disCtr > 0) && (retCtr > 0) */\n      dup1\n      iszero\n      tag_236\n      jumpi\n      pop\n        /* \"contracts/SupplyChain.sol\":10163:10164  0 */\n      0x00\n        /* \"contracts/SupplyChain.sol\":10154:10160  retCtr */\n      sload(0x05)\n        /* \"contracts/SupplyChain.sol\":10154:10164  retCtr > 0 */\n      gt\n        /* \"contracts/SupplyChain.sol\":10105:10165  (rmsCtr > 0) && (manCtr > 0) && (disCtr > 0) && (retCtr > 0) */\n    tag_236:\n        /* \"contracts/SupplyChain.sol\":10097:10166  require((rmsCtr > 0) && (manCtr > 0) && (disCtr > 0) && (retCtr > 0)) */\n      tag_237\n      jumpi\n      0x00\n      dup1\n      revert\n    tag_237:\n        /* \"contracts/SupplyChain.sol\":10177:10191  agricultureCtr */\n      0x01\n      0x00\n        /* \"contracts/SupplyChain.sol\":10177:10193  agricultureCtr++ */\n      dup2\n      sload\n      dup1\n      swap3\n      swap2\n      swap1\n      tag_238\n      swap1\n      tag_112\n      jump\t// in\n    tag_238:\n      swap2\n      swap1\n      pop\n      sstore\n      pop\n        /* \"contracts/SupplyChain.sol\":10239:10426  agriculture(... */\n      mload(0x40)\n      dup1\n      0x0100\n      add\n      0x40\n      mstore\n      dup1\n        /* \"contracts/SupplyChain.sol\":10265:10279  agricultureCtr */\n      sload(0x01)\n        /* \"contracts/SupplyChain.sol\":10239:10426  agriculture(... */\n      dup2\n      mstore\n      0x20\n      add\n        /* \"contracts/SupplyChain.sol\":10294:10299  _name */\n      dup4\n        /* \"contracts/SupplyChain.sol\":10239:10426  agriculture(... */\n      dup2\n      mstore\n      0x20\n      add\n        /* \"contracts/SupplyChain.sol\":10314:10326  _description */\n      dup3\n        /* \"contracts/SupplyChain.sol\":10239:10426  agriculture(... */\n      dup2\n      mstore\n      0x20\n      add\n        /* \"contracts/SupplyChain.sol\":10341:10342  0 */\n      0x00\n        /* \"contracts/SupplyChain.sol\":10239:10426  agriculture(... */\n      dup2\n      mstore\n      0x20\n      add\n        /* \"contracts/SupplyChain.sol\":10357:10358  0 */\n      0x00\n        /* \"contracts/SupplyChain.sol\":10239:10426  agriculture(... */\n      dup2\n      mstore\n      0x20\n      add\n        /* \"contracts/SupplyChain.sol\":10373:10374  0 */\n      0x00\n        /* \"contracts/SupplyChain.sol\":10239:10426  agriculture(... */\n      dup2\n      mstore\n      0x20\n      add\n        /* \"contracts/SupplyChain.sol\":10389:10390  0 */\n      0x00\n        /* \"contracts/SupplyChain.sol\":10239:10426  agriculture(... */\n      dup2\n      mstore\n      0x20\n      add\n        /* \"contracts/SupplyChain.sol\":10405:10415  STAGE.Init */\n      0x00\n        /* \"contracts/SupplyChain.sol\":10239:10426  agriculture(... */\n      0x05\n      dup2\n      gt\n      iszero\n      tag_239\n      jumpi\n      tag_240\n      tag_141\n      jump\t// in\n    tag_240:\n    tag_239:\n      dup2\n      mstore\n      pop\n        /* \"contracts/SupplyChain.sol\":10204:10220  AgricultureStock */\n      0x06\n        /* \"contracts/SupplyChain.sol\":10204:10236  AgricultureStock[agricultureCtr] */\n      0x00\n        /* \"contracts/SupplyChain.sol\":10221:10235  agricultureCtr */\n      sload(0x01)\n        /* \"contracts/SupplyChain.sol\":10204:10236  AgricultureStock[agricultureCtr] */\n      dup2\n      mstore\n      0x20\n      add\n      swap1\n      dup2\n      mstore\n      0x20\n      add\n      0x00\n      keccak256\n        /* \"contracts/SupplyChain.sol\":10204:10426  AgricultureStock[agricultureCtr] = agriculture(... */\n      0x00\n      dup3\n      add\n      mload\n      dup2\n      0x00\n      add\n      sstore\n      0x20\n      dup3\n      add\n      mload\n      dup2\n      0x01\n      add\n      swap1\n      dup2\n      tag_241\n      swap2\n      swap1\n      tag_114\n      jump\t// in\n    tag_241:\n      pop\n      0x40\n      dup3\n      add\n      mload\n      dup2\n      0x02\n      add\n      swap1\n      dup2\n      tag_242\n      swap2\n      swap1\n      tag_114\n      jump\t// in\n    tag_242:\n      pop\n      0x60\n      dup3\n      add\n      mload\n      dup2\n      0x03\n      add\n      sstore\n      0x80\n      dup3\n      add\n      mload\n      dup2\n      0x04\n      add\n      sstore\n      0xa0\n      dup3\n      add\n      mload\n      dup2\n      0x05\n      add\n      sstore\n      0xc0\n      dup3\n      add\n      mload\n      dup2\n      0x06\n      add\n      sstore\n      0xe0\n      dup3\n      add\n      mload\n      dup2\n      0x07\n      add\n      exp(0x0100, 0x00)\n      dup2\n      sload\n      dup2\n      0xff\n      mul\n      not\n      and\n      swap1\n      dup4\n      0x05\n      dup2\n      gt\n      iszero\n      tag_243\n      jumpi\n      tag_244\n      tag_141\n      jump\t// in\n    tag_244:\n    tag_243:\n      mul\n      or\n      swap1\n      sstore\n      pop\n      swap1\n      pop\n      pop\n        /* \"contracts/SupplyChain.sol\":9969:10434  function addAgriculture(string memory _name, string memory _description)... */\n      pop\n      pop\n      jump\t// out\n        /* \"contracts/SupplyChain.sol\":4163:4206  mapping(uint256 => manufacturer) public MAN */\n    tag_94:\n      mstore(0x20, 0x08)\n      dup1\n      0x00\n      mstore\n      keccak256(0x00, 0x40)\n      0x00\n      swap2\n      pop\n      swap1\n      pop\n      dup1\n      0x00\n      add\n      0x00\n      swap1\n      sload\n      swap1\n      0x0100\n      exp\n      swap1\n      div\n      0xffffffffffffffffffffffffffffffffffffffff\n      and\n      swap1\n      dup1\n      0x01\n      add\n      sload\n      swap1\n      dup1\n      0x02\n      add\n      dup1\n      sload\n      tag_245\n      swap1\n      tag_117\n      jump\t// in\n    tag_245:\n      dup1\n      0x1f\n      add\n      0x20\n      dup1\n      swap2\n      div\n      mul\n      0x20\n      add\n      mload(0x40)\n      swap1\n      dup2\n      add\n      0x40\n      mstore\n      dup1\n      swap3\n      swap2\n      swap1\n      dup2\n      dup2\n      mstore\n      0x20\n      add\n      dup3\n      dup1\n      sload\n      tag_246\n      swap1\n      tag_117\n      jump\t// in\n    tag_246:\n      dup1\n      iszero\n      tag_247\n      jumpi\n      dup1\n      0x1f\n      lt\n      tag_248\n      jumpi\n      0x0100\n      dup1\n      dup4\n      sload\n      div\n      mul\n      dup4\n      mstore\n      swap2\n      0x20\n      add\n      swap2\n      jump(tag_247)\n    tag_248:\n      dup3\n      add\n      swap2\n      swap1\n      0x00\n      mstore\n      keccak256(0x00, 0x20)\n      swap1\n    tag_249:\n      dup2\n      sload\n      dup2\n      mstore\n      swap1\n      0x01\n      add\n      swap1\n      0x20\n      add\n      dup1\n      dup4\n      gt\n      tag_249\n      jumpi\n      dup3\n      swap1\n      sub\n      0x1f\n      and\n      dup3\n      add\n      swap2\n    tag_247:\n      pop\n      pop\n      pop\n      pop\n      pop\n      swap1\n      dup1\n      0x03\n      add\n      dup1\n      sload\n      tag_250\n      swap1\n      tag_117\n      jump\t// in\n    tag_250:\n      dup1\n      0x1f\n      add\n      0x20\n      dup1\n      swap2\n      div\n      mul\n      0x20\n      add\n      mload(0x40)\n      swap1\n      dup2\n      add\n      0x40\n      mstore\n      dup1\n      swap3\n      swap2\n      swap1\n      dup2\n      dup2\n      mstore\n      0x20\n      add\n      dup3\n      dup1\n      sload\n      tag_251\n      swap1\n      tag_117\n      jump\t// in\n    tag_251:\n      dup1\n      iszero\n      tag_252\n      jumpi\n      dup1\n      0x1f\n      lt\n      tag_253\n      jumpi\n      0x0100\n      dup1\n      dup4\n      sload\n      div\n      mul\n      dup4\n      mstore\n      swap2\n      0x20\n      add\n      swap2\n      jump(tag_252)\n    tag_253:\n      dup3\n      add\n      swap2\n      swap1\n      0x00\n      mstore\n      keccak256(0x00, 0x20)\n      swap1\n    tag_254:\n      dup2\n      sload\n      dup2\n      mstore\n      swap1\n      0x01\n      add\n      swap1\n      0x20\n      add\n      dup1\n      dup4\n      gt\n      tag_254\n      jumpi\n      dup3\n      swap1\n      sub\n      0x1f\n      and\n      dup3\n      add\n      swap2\n    tag_252:\n      pop\n      pop\n      pop\n      pop\n      pop\n      swap1\n      pop\n      dup5\n      jump\t// out\n        /* \"contracts/SupplyChain.sol\":1314:1339  uint256 public rmsCtr = 0 */\n    tag_97:\n      sload(0x02)\n      dup2\n      jump\t// out\n        /* \"contracts/SupplyChain.sol\":2397:3435  function showStage(uint256 _agricultureID)... */\n    tag_101:\n        /* \"contracts/SupplyChain.sol\":2476:2489  string memory */\n      0x60\n        /* \"contracts/SupplyChain.sol\":2524:2525  0 */\n      0x00\n        /* \"contracts/SupplyChain.sol\":2507:2521  agricultureCtr */\n      sload(0x01)\n        /* \"contracts/SupplyChain.sol\":2507:2525  agricultureCtr > 0 */\n      gt\n        /* \"contracts/SupplyChain.sol\":2499:2560  require(agricultureCtr > 0, \"No agriculture tools available\") */\n      tag_256\n      jumpi\n      mload(0x40)\n      0x08c379a000000000000000000000000000000000000000000000000000000000\n      dup2\n      mstore\n      0x04\n      add\n      tag_257\n      swap1\n      tag_258\n      jump\t// in\n    tag_257:\n      mload(0x40)\n      dup1\n      swap2\n      sub\n      swap1\n      revert\n    tag_256:\n        /* \"contracts/SupplyChain.sol\":2592:2593  0 */\n      0x00\n        /* \"contracts/SupplyChain.sol\":2575:2589  _agricultureID */\n      dup3\n        /* \"contracts/SupplyChain.sol\":2575:2593  _agricultureID > 0 */\n      gt\n        /* \"contracts/SupplyChain.sol\":2575:2629  _agricultureID > 0 && _agricultureID <= agricultureCtr */\n      dup1\n      iszero\n      tag_259\n      jumpi\n      pop\n        /* \"contracts/SupplyChain.sol\":2615:2629  agricultureCtr */\n      sload(0x01)\n        /* \"contracts/SupplyChain.sol\":2597:2611  _agricultureID */\n      dup3\n        /* \"contracts/SupplyChain.sol\":2597:2629  _agricultureID <= agricultureCtr */\n      gt\n      iszero\n        /* \"contracts/SupplyChain.sol\":2575:2629  _agricultureID > 0 && _agricultureID <= agricultureCtr */\n    tag_259:\n        /* \"contracts/SupplyChain.sol\":2567:2656  require(_agricultureID > 0 && _agricultureID <= agricultureCtr, \"Invalid agriculture ID\") */\n      tag_260\n      jumpi\n      mload(0x40)\n      0x08c379a000000000000000000000000000000000000000000000000000000000\n      dup2\n      mstore\n      0x04\n      add\n      tag_261\n      swap1\n      tag_262\n      jump\t// in\n    tag_261:\n      mload(0x40)\n      dup1\n      swap2\n      sub\n      swap1\n      revert\n    tag_260:\n        /* \"contracts/SupplyChain.sol\":2711:2721  STAGE.Init */\n      0x00\n        /* \"contracts/SupplyChain.sol\":2669:2721  AgricultureStock[_agricultureID].stage == STAGE.Init */\n      0x05\n      dup2\n      gt\n      iszero\n      tag_263\n      jumpi\n      tag_264\n      tag_141\n      jump\t// in\n    tag_264:\n    tag_263:\n        /* \"contracts/SupplyChain.sol\":2669:2685  AgricultureStock */\n      0x06\n        /* \"contracts/SupplyChain.sol\":2669:2701  AgricultureStock[_agricultureID] */\n      0x00\n        /* \"contracts/SupplyChain.sol\":2686:2700  _agricultureID */\n      dup5\n        /* \"contracts/SupplyChain.sol\":2669:2701  AgricultureStock[_agricultureID] */\n      dup2\n      mstore\n      0x20\n      add\n      swap1\n      dup2\n      mstore\n      0x20\n      add\n      0x00\n      keccak256\n        /* \"contracts/SupplyChain.sol\":2669:2707  AgricultureStock[_agricultureID].stage */\n      0x07\n      add\n      0x00\n      swap1\n      sload\n      swap1\n      0x0100\n      exp\n      swap1\n      div\n      0xff\n      and\n        /* \"contracts/SupplyChain.sol\":2669:2721  AgricultureStock[_agricultureID].stage == STAGE.Init */\n      0x05\n      dup2\n      gt\n      iszero\n      tag_265\n      jumpi\n      tag_266\n      tag_141\n      jump\t// in\n    tag_266:\n    tag_265:\n      sub\n        /* \"contracts/SupplyChain.sol\":2665:3350  if (AgricultureStock[_agricultureID].stage == STAGE.Init)... */\n      tag_267\n      jumpi\n        /* \"contracts/SupplyChain.sol\":2732:2775  return \"Agriculture tool/technique Ordered\" */\n      mload(0x40)\n      dup1\n      0x60\n      add\n      0x40\n      mstore\n      dup1\n      0x22\n      dup2\n      mstore\n      0x20\n      add\n      data_73844ee127f08613ebe37071089123d7a78eb5f8fbd91acdd219bfc40ebb7998\n      0x22\n      swap2\n      codecopy\n      swap1\n      pop\n      jump(tag_255)\n        /* \"contracts/SupplyChain.sol\":2665:3350  if (AgricultureStock[_agricultureID].stage == STAGE.Init)... */\n    tag_267:\n        /* \"contracts/SupplyChain.sol\":2833:2856  STAGE.RawMaterialSupply */\n      0x01\n        /* \"contracts/SupplyChain.sol\":2791:2856  AgricultureStock[_agricultureID].stage == STAGE.RawMaterialSupply */\n      0x05\n      dup2\n      gt\n      iszero\n      tag_269\n      jumpi\n      tag_270\n      tag_141\n      jump\t// in\n    tag_270:\n    tag_269:\n        /* \"contracts/SupplyChain.sol\":2791:2807  AgricultureStock */\n      0x06\n        /* \"contracts/SupplyChain.sol\":2791:2823  AgricultureStock[_agricultureID] */\n      0x00\n        /* \"contracts/SupplyChain.sol\":2808:2822  _agricultureID */\n      dup5\n        /* \"contracts/SupplyChain.sol\":2791:2823  AgricultureStock[_agricultureID] */\n      dup2\n      mstore\n      0x20\n      add\n      swap1\n      dup2\n      mstore\n      0x20\n      add\n      0x00\n      keccak256\n        /* \"contracts/SupplyChain.sol\":2791:2829  AgricultureStock[_agricultureID].stage */\n      0x07\n      add\n      0x00\n      swap1\n      sload\n      swap1\n      0x0100\n      exp\n      swap1\n      div\n      0xff\n      and\n        /* \"contracts/SupplyChain.sol\":2791:2856  AgricultureStock[_agricultureID].stage == STAGE.RawMaterialSupply */\n      0x05\n      dup2\n      gt\n      iszero\n      tag_271\n      jumpi\n      tag_272\n      tag_141\n      jump\t// in\n    tag_272:\n    tag_271:\n      sub\n        /* \"contracts/SupplyChain.sol\":2787:3350  if (AgricultureStock[_agricultureID].stage == STAGE.RawMaterialSupply)... */\n      tag_273\n      jumpi\n        /* \"contracts/SupplyChain.sol\":2867:2901  return \"Raw Material Supply Stage\" */\n      mload(0x40)\n      dup1\n      0x40\n      add\n      0x40\n      mstore\n      dup1\n      0x19\n      dup2\n      mstore\n      0x20\n      add\n      0x526177204d6174657269616c20537570706c7920537461676500000000000000\n      dup2\n      mstore\n      pop\n      swap1\n      pop\n      jump(tag_255)\n        /* \"contracts/SupplyChain.sol\":2787:3350  if (AgricultureStock[_agricultureID].stage == STAGE.RawMaterialSupply)... */\n    tag_273:\n        /* \"contracts/SupplyChain.sol\":2959:2976  STAGE.Manufacture */\n      0x02\n        /* \"contracts/SupplyChain.sol\":2917:2976  AgricultureStock[_agricultureID].stage == STAGE.Manufacture */\n      0x05\n      dup2\n      gt\n      iszero\n      tag_275\n      jumpi\n      tag_276\n      tag_141\n      jump\t// in\n    tag_276:\n    tag_275:\n        /* \"contracts/SupplyChain.sol\":2917:2933  AgricultureStock */\n      0x06\n        /* \"contracts/SupplyChain.sol\":2917:2949  AgricultureStock[_agricultureID] */\n      0x00\n        /* \"contracts/SupplyChain.sol\":2934:2948  _agricultureID */\n      dup5\n        /* \"contracts/SupplyChain.sol\":2917:2949  AgricultureStock[_agricultureID] */\n      dup2\n      mstore\n      0x20\n      add\n      swap1\n      dup2\n      mstore\n      0x20\n      add\n      0x00\n      keccak256\n        /* \"contracts/SupplyChain.sol\":2917:2955  AgricultureStock[_agricultureID].stage */\n      0x07\n      add\n      0x00\n      swap1\n      sload\n      swap1\n      0x0100\n      exp\n      swap1\n      div\n      0xff\n      and\n        /* \"contracts/SupplyChain.sol\":2917:2976  AgricultureStock[_agricultureID].stage == STAGE.Manufacture */\n      0x05\n      dup2\n      gt\n      iszero\n      tag_277\n      jumpi\n      tag_278\n      tag_141\n      jump\t// in\n    tag_278:\n    tag_277:\n      sub\n        /* \"contracts/SupplyChain.sol\":2913:3350  if (AgricultureStock[_agricultureID].stage == STAGE.Manufacture)... */\n      tag_279\n      jumpi\n        /* \"contracts/SupplyChain.sol\":2987:3015  return \"Manufacturing Stage\" */\n      mload(0x40)\n      dup1\n      0x40\n      add\n      0x40\n      mstore\n      dup1\n      0x13\n      dup2\n      mstore\n      0x20\n      add\n      0x4d616e75666163747572696e6720537461676500000000000000000000000000\n      dup2\n      mstore\n      pop\n      swap1\n      pop\n      jump(tag_255)\n        /* \"contracts/SupplyChain.sol\":2913:3350  if (AgricultureStock[_agricultureID].stage == STAGE.Manufacture)... */\n    tag_279:\n        /* \"contracts/SupplyChain.sol\":3073:3091  STAGE.Distribution */\n      0x03\n        /* \"contracts/SupplyChain.sol\":3031:3091  AgricultureStock[_agricultureID].stage == STAGE.Distribution */\n      0x05\n      dup2\n      gt\n      iszero\n      tag_281\n      jumpi\n      tag_282\n      tag_141\n      jump\t// in\n    tag_282:\n    tag_281:\n        /* \"contracts/SupplyChain.sol\":3031:3047  AgricultureStock */\n      0x06\n        /* \"contracts/SupplyChain.sol\":3031:3063  AgricultureStock[_agricultureID] */\n      0x00\n        /* \"contracts/SupplyChain.sol\":3048:3062  _agricultureID */\n      dup5\n        /* \"contracts/SupplyChain.sol\":3031:3063  AgricultureStock[_agricultureID] */\n      dup2\n      mstore\n      0x20\n      add\n      swap1\n      dup2\n      mstore\n      0x20\n      add\n      0x00\n      keccak256\n        /* \"contracts/SupplyChain.sol\":3031:3069  AgricultureStock[_agricultureID].stage */\n      0x07\n      add\n      0x00\n      swap1\n      sload\n      swap1\n      0x0100\n      exp\n      swap1\n      div\n      0xff\n      and\n        /* \"contracts/SupplyChain.sol\":3031:3091  AgricultureStock[_agricultureID].stage == STAGE.Distribution */\n      0x05\n      dup2\n      gt\n      iszero\n      tag_283\n      jumpi\n      tag_284\n      tag_141\n      jump\t// in\n    tag_284:\n    tag_283:\n      sub\n        /* \"contracts/SupplyChain.sol\":3027:3350  if (AgricultureStock[_agricultureID].stage == STAGE.Distribution)... */\n      tag_285\n      jumpi\n        /* \"contracts/SupplyChain.sol\":3102:3129  return \"Distribution Stage\" */\n      mload(0x40)\n      dup1\n      0x40\n      add\n      0x40\n      mstore\n      dup1\n      0x12\n      dup2\n      mstore\n      0x20\n      add\n      0x446973747269627574696f6e2053746167650000000000000000000000000000\n      dup2\n      mstore\n      pop\n      swap1\n      pop\n      jump(tag_255)\n        /* \"contracts/SupplyChain.sol\":3027:3350  if (AgricultureStock[_agricultureID].stage == STAGE.Distribution)... */\n    tag_285:\n        /* \"contracts/SupplyChain.sol\":3187:3199  STAGE.Retail */\n      0x04\n        /* \"contracts/SupplyChain.sol\":3145:3199  AgricultureStock[_agricultureID].stage == STAGE.Retail */\n      0x05\n      dup2\n      gt\n      iszero\n      tag_287\n      jumpi\n      tag_288\n      tag_141\n      jump\t// in\n    tag_288:\n    tag_287:\n        /* \"contracts/SupplyChain.sol\":3145:3161  AgricultureStock */\n      0x06\n        /* \"contracts/SupplyChain.sol\":3145:3177  AgricultureStock[_agricultureID] */\n      0x00\n        /* \"contracts/SupplyChain.sol\":3162:3176  _agricultureID */\n      dup5\n        /* \"contracts/SupplyChain.sol\":3145:3177  AgricultureStock[_agricultureID] */\n      dup2\n      mstore\n      0x20\n      add\n      swap1\n      dup2\n      mstore\n      0x20\n      add\n      0x00\n      keccak256\n        /* \"contracts/SupplyChain.sol\":3145:3183  AgricultureStock[_agricultureID].stage */\n      0x07\n      add\n      0x00\n      swap1\n      sload\n      swap1\n      0x0100\n      exp\n      swap1\n      div\n      0xff\n      and\n        /* \"contracts/SupplyChain.sol\":3145:3199  AgricultureStock[_agricultureID].stage == STAGE.Retail */\n      0x05\n      dup2\n      gt\n      iszero\n      tag_289\n      jumpi\n      tag_290\n      tag_141\n      jump\t// in\n    tag_290:\n    tag_289:\n      sub\n        /* \"contracts/SupplyChain.sol\":3141:3350  if (AgricultureStock[_agricultureID].stage == STAGE.Retail)... */\n      tag_291\n      jumpi\n        /* \"contracts/SupplyChain.sol\":3210:3231  return \"Retail Stage\" */\n      mload(0x40)\n      dup1\n      0x40\n      add\n      0x40\n      mstore\n      dup1\n      0x0c\n      dup2\n      mstore\n      0x20\n      add\n      0x52657461696c2053746167650000000000000000000000000000000000000000\n      dup2\n      mstore\n      pop\n      swap1\n      pop\n      jump(tag_255)\n        /* \"contracts/SupplyChain.sol\":3141:3350  if (AgricultureStock[_agricultureID].stage == STAGE.Retail)... */\n    tag_291:\n        /* \"contracts/SupplyChain.sol\":3289:3299  STAGE.Sold */\n      0x05\n        /* \"contracts/SupplyChain.sol\":3247:3299  AgricultureStock[_agricultureID].stage == STAGE.Sold */\n      dup1\n      dup2\n      gt\n      iszero\n      tag_293\n      jumpi\n      tag_294\n      tag_141\n      jump\t// in\n    tag_294:\n    tag_293:\n        /* \"contracts/SupplyChain.sol\":3247:3263  AgricultureStock */\n      0x06\n        /* \"contracts/SupplyChain.sol\":3247:3279  AgricultureStock[_agricultureID] */\n      0x00\n        /* \"contracts/SupplyChain.sol\":3264:3278  _agricultureID */\n      dup5\n        /* \"contracts/SupplyChain.sol\":3247:3279  AgricultureStock[_agricultureID] */\n      dup2\n      mstore\n      0x20\n      add\n      swap1\n      dup2\n      mstore\n      0x20\n      add\n      0x00\n      keccak256\n        /* \"contracts/SupplyChain.sol\":3247:3285  AgricultureStock[_agricultureID].stage */\n      0x07\n      add\n      0x00\n      swap1\n      sload\n      swap1\n      0x0100\n      exp\n      swap1\n      div\n      0xff\n      and\n        /* \"contracts/SupplyChain.sol\":3247:3299  AgricultureStock[_agricultureID].stage == STAGE.Sold */\n      0x05\n      dup2\n      gt\n      iszero\n      tag_295\n      jumpi\n      tag_296\n      tag_141\n      jump\t// in\n    tag_296:\n    tag_295:\n      sub\n        /* \"contracts/SupplyChain.sol\":3243:3350  if (AgricultureStock[_agricultureID].stage == STAGE.Sold)... */\n      tag_297\n      jumpi\n        /* \"contracts/SupplyChain.sol\":3310:3350  return \"Agriculture tool/technique Sold\" */\n      mload(0x40)\n      dup1\n      0x40\n      add\n      0x40\n      mstore\n      dup1\n      0x1f\n      dup2\n      mstore\n      0x20\n      add\n      0x4167726963756c7475726520746f6f6c2f746563686e6971756520536f6c6400\n      dup2\n      mstore\n      pop\n      swap1\n      pop\n      jump(tag_255)\n        /* \"contracts/SupplyChain.sol\":3243:3350  if (AgricultureStock[_agricultureID].stage == STAGE.Sold)... */\n    tag_297:\n        /* \"contracts/SupplyChain.sol\":3407:3431  return \"Stage not found\" */\n      mload(0x40)\n      dup1\n      0x40\n      add\n      0x40\n      mstore\n      dup1\n      0x0f\n      dup2\n      mstore\n      0x20\n      add\n      0x5374616765206e6f7420666f756e640000000000000000000000000000000000\n      dup2\n      mstore\n      pop\n      swap1\n      pop\n        /* \"contracts/SupplyChain.sol\":2397:3435  function showStage(uint256 _agricultureID)... */\n    tag_255:\n      swap2\n      swap1\n      pop\n      jump\t// out\n        /* \"contracts/SupplyChain.sol\":3794:3844  mapping(uint256 => rawMaterialSupplier) public RMS */\n    tag_106:\n      mstore(0x20, 0x07)\n      dup1\n      0x00\n      mstore\n      keccak256(0x00, 0x40)\n      0x00\n      swap2\n      pop\n      swap1\n      pop\n      dup1\n      0x00\n      add\n      0x00\n      swap1\n      sload\n      swap1\n      0x0100\n      exp\n      swap1\n      div\n      0xffffffffffffffffffffffffffffffffffffffff\n      and\n      swap1\n      dup1\n      0x01\n      add\n      sload\n      swap1\n      dup1\n      0x02\n      add\n      dup1\n      sload\n      tag_298\n      swap1\n      tag_117\n      jump\t// in\n    tag_298:\n      dup1\n      0x1f\n      add\n      0x20\n      dup1\n      swap2\n      div\n      mul\n      0x20\n      add\n      mload(0x40)\n      swap1\n      dup2\n      add\n      0x40\n      mstore\n      dup1\n      swap3\n      swap2\n      swap1\n      dup2\n      dup2\n      mstore\n      0x20\n      add\n      dup3\n      dup1\n      sload\n      tag_299\n      swap1\n      tag_117\n      jump\t// in\n    tag_299:\n      dup1\n      iszero\n      tag_300\n      jumpi\n      dup1\n      0x1f\n      lt\n      tag_301\n      jumpi\n      0x0100\n      dup1\n      dup4\n      sload\n      div\n      mul\n      dup4\n      mstore\n      swap2\n      0x20\n      add\n      swap2\n      jump(tag_300)\n    tag_301:\n      dup3\n      add\n      swap2\n      swap1\n      0x00\n      mstore\n      keccak256(0x00, 0x20)\n      swap1\n    tag_302:\n      dup2\n      sload\n      dup2\n      mstore\n      swap1\n      0x01\n      add\n      swap1\n      0x20\n      add\n      dup1\n      dup4\n      gt\n      tag_302\n      jumpi\n      dup3\n      swap1\n      sub\n      0x1f\n      and\n      dup3\n      add\n      swap2\n    tag_300:\n      pop\n      pop\n      pop\n      pop\n      pop\n      swap1\n      dup1\n      0x03\n      add\n      dup1\n      sload\n      tag_303\n      swap1\n      tag_117\n      jump\t// in\n    tag_303:\n      dup1\n      0x1f\n      add\n      0x20\n      dup1\n      swap2\n      div\n      mul\n      0x20\n      add\n      mload(0x40)\n      swap1\n      dup2\n      add\n      0x40\n      mstore\n      dup1\n      swap3\n      swap2\n      swap1\n      dup2\n      dup2\n      mstore\n      0x20\n      add\n      dup3\n      dup1\n      sload\n      tag_304\n      swap1\n      tag_117\n      jump\t// in\n    tag_304:\n      dup1\n      iszero\n      tag_305\n      jumpi\n      dup1\n      0x1f\n      lt\n      tag_306\n      jumpi\n      0x0100\n      dup1\n      dup4\n      sload\n      div\n      mul\n      dup4\n      mstore\n      swap2\n      0x20\n      add\n      swap2\n      jump(tag_305)\n    tag_306:\n      dup3\n      add\n      swap2\n      swap1\n      0x00\n      mstore\n      keccak256(0x00, 0x20)\n      swap1\n    tag_307:\n      dup2\n      sload\n      dup2\n      mstore\n      swap1\n      0x01\n      add\n      swap1\n      0x20\n      add\n      dup1\n      dup4\n      gt\n      tag_307\n      jumpi\n      dup3\n      swap1\n      sub\n      0x1f\n      and\n      dup3\n      add\n      swap2\n    tag_305:\n      pop\n      pop\n      pop\n      pop\n      pop\n      swap1\n      pop\n      dup5\n      jump\t// out\n        /* \"contracts/SupplyChain.sol\":9110:9353  function findRET(address _address) private view returns (uint256) {... */\n    tag_137:\n        /* \"contracts/SupplyChain.sol\":9167:9174  uint256 */\n      0x00\n        /* \"contracts/SupplyChain.sol\":9204:9205  0 */\n      dup1\n        /* \"contracts/SupplyChain.sol\":9195:9201  retCtr */\n      sload(0x05)\n        /* \"contracts/SupplyChain.sol\":9195:9205  retCtr > 0 */\n      gt\n        /* \"contracts/SupplyChain.sol\":9187:9206  require(retCtr > 0) */\n      tag_309\n      jumpi\n      0x00\n      dup1\n      revert\n    tag_309:\n        /* \"contracts/SupplyChain.sol\":9222:9231  uint256 i */\n      0x00\n        /* \"contracts/SupplyChain.sol\":9234:9235  1 */\n      0x01\n        /* \"contracts/SupplyChain.sol\":9222:9235  uint256 i = 1 */\n      swap1\n      pop\n        /* \"contracts/SupplyChain.sol\":9217:9327  for (uint256 i = 1; i <= retCtr; i++) {... */\n    tag_310:\n        /* \"contracts/SupplyChain.sol\":9242:9248  retCtr */\n      sload(0x05)\n        /* \"contracts/SupplyChain.sol\":9237:9238  i */\n      dup2\n        /* \"contracts/SupplyChain.sol\":9237:9248  i <= retCtr */\n      gt\n        /* \"contracts/SupplyChain.sol\":9217:9327  for (uint256 i = 1; i <= retCtr; i++) {... */\n      tag_311\n      jumpi\n        /* \"contracts/SupplyChain.sol\":9289:9297  _address */\n      dup3\n        /* \"contracts/SupplyChain.sol\":9274:9297  RET[i].addr == _address */\n      0xffffffffffffffffffffffffffffffffffffffff\n      and\n        /* \"contracts/SupplyChain.sol\":9274:9277  RET */\n      0x0a\n        /* \"contracts/SupplyChain.sol\":9274:9280  RET[i] */\n      0x00\n        /* \"contracts/SupplyChain.sol\":9278:9279  i */\n      dup4\n        /* \"contracts/SupplyChain.sol\":9274:9280  RET[i] */\n      dup2\n      mstore\n      0x20\n      add\n      swap1\n      dup2\n      mstore\n      0x20\n      add\n      0x00\n      keccak256\n        /* \"contracts/SupplyChain.sol\":9274:9285  RET[i].addr */\n      0x00\n      add\n      0x00\n      swap1\n      sload\n      swap1\n      0x0100\n      exp\n      swap1\n      div\n      0xffffffffffffffffffffffffffffffffffffffff\n      and\n        /* \"contracts/SupplyChain.sol\":9274:9297  RET[i].addr == _address */\n      0xffffffffffffffffffffffffffffffffffffffff\n      and\n      sub\n        /* \"contracts/SupplyChain.sol\":9270:9315  if (RET[i].addr == _address) return RET[i].id */\n      tag_313\n      jumpi\n        /* \"contracts/SupplyChain.sol\":9306:9309  RET */\n      0x0a\n        /* \"contracts/SupplyChain.sol\":9306:9312  RET[i] */\n      0x00\n        /* \"contracts/SupplyChain.sol\":9310:9311  i */\n      dup3\n        /* \"contracts/SupplyChain.sol\":9306:9312  RET[i] */\n      dup2\n      mstore\n      0x20\n      add\n      swap1\n      dup2\n      mstore\n      0x20\n      add\n      0x00\n      keccak256\n        /* \"contracts/SupplyChain.sol\":9306:9315  RET[i].id */\n      0x01\n      add\n      sload\n        /* \"contracts/SupplyChain.sol\":9299:9315  return RET[i].id */\n      swap2\n      pop\n      pop\n      jump(tag_308)\n        /* \"contracts/SupplyChain.sol\":9270:9315  if (RET[i].addr == _address) return RET[i].id */\n    tag_313:\n        /* \"contracts/SupplyChain.sol\":9250:9253  i++ */\n      dup1\n      dup1\n      tag_314\n      swap1\n      tag_112\n      jump\t// in\n    tag_314:\n      swap2\n      pop\n      pop\n        /* \"contracts/SupplyChain.sol\":9217:9327  for (uint256 i = 1; i <= retCtr; i++) {... */\n      jump(tag_310)\n    tag_311:\n      pop\n        /* \"contracts/SupplyChain.sol\":9344:9345  0 */\n      0x00\n        /* \"contracts/SupplyChain.sol\":9337:9345  return 0 */\n      swap1\n      pop\n        /* \"contracts/SupplyChain.sol\":9110:9353  function findRET(address _address) private view returns (uint256) {... */\n    tag_308:\n      swap2\n      swap1\n      pop\n      jump\t// out\n        /* \"contracts/SupplyChain.sol\":8318:8561  function findDIS(address _address) private view returns (uint256) {... */\n    tag_151:\n        /* \"contracts/SupplyChain.sol\":8375:8382  uint256 */\n      0x00\n        /* \"contracts/SupplyChain.sol\":8412:8413  0 */\n      dup1\n        /* \"contracts/SupplyChain.sol\":8403:8409  disCtr */\n      sload(0x04)\n        /* \"contracts/SupplyChain.sol\":8403:8413  disCtr > 0 */\n      gt\n        /* \"contracts/SupplyChain.sol\":8395:8414  require(disCtr > 0) */\n      tag_316\n      jumpi\n      0x00\n      dup1\n      revert\n    tag_316:\n        /* \"contracts/SupplyChain.sol\":8430:8439  uint256 i */\n      0x00\n        /* \"contracts/SupplyChain.sol\":8442:8443  1 */\n      0x01\n        /* \"contracts/SupplyChain.sol\":8430:8443  uint256 i = 1 */\n      swap1\n      pop\n        /* \"contracts/SupplyChain.sol\":8425:8535  for (uint256 i = 1; i <= disCtr; i++) {... */\n    tag_317:\n        /* \"contracts/SupplyChain.sol\":8450:8456  disCtr */\n      sload(0x04)\n        /* \"contracts/SupplyChain.sol\":8445:8446  i */\n      dup2\n        /* \"contracts/SupplyChain.sol\":8445:8456  i <= disCtr */\n      gt\n        /* \"contracts/SupplyChain.sol\":8425:8535  for (uint256 i = 1; i <= disCtr; i++) {... */\n      tag_318\n      jumpi\n        /* \"contracts/SupplyChain.sol\":8497:8505  _address */\n      dup3\n        /* \"contracts/SupplyChain.sol\":8482:8505  DIS[i].addr == _address */\n      0xffffffffffffffffffffffffffffffffffffffff\n      and\n        /* \"contracts/SupplyChain.sol\":8482:8485  DIS */\n      0x09\n        /* \"contracts/SupplyChain.sol\":8482:8488  DIS[i] */\n      0x00\n        /* \"contracts/SupplyChain.sol\":8486:8487  i */\n      dup4\n        /* \"contracts/SupplyChain.sol\":8482:8488  DIS[i] */\n      dup2\n      mstore\n      0x20\n      add\n      swap1\n      dup2\n      mstore\n      0x20\n      add\n      0x00\n      keccak256\n        /* \"contracts/SupplyChain.sol\":8482:8493  DIS[i].addr */\n      0x00\n      add\n      0x00\n      swap1\n      sload\n      swap1\n      0x0100\n      exp\n      swap1\n      div\n      0xffffffffffffffffffffffffffffffffffffffff\n      and\n        /* \"contracts/SupplyChain.sol\":8482:8505  DIS[i].addr == _address */\n      0xffffffffffffffffffffffffffffffffffffffff\n      and\n      sub\n        /* \"contracts/SupplyChain.sol\":8478:8523  if (DIS[i].addr == _address) return DIS[i].id */\n      tag_320\n      jumpi\n        /* \"contracts/SupplyChain.sol\":8514:8517  DIS */\n      0x09\n        /* \"contracts/SupplyChain.sol\":8514:8520  DIS[i] */\n      0x00\n        /* \"contracts/SupplyChain.sol\":8518:8519  i */\n      dup3\n        /* \"contracts/SupplyChain.sol\":8514:8520  DIS[i] */\n      dup2\n      mstore\n      0x20\n      add\n      swap1\n      dup2\n      mstore\n      0x20\n      add\n      0x00\n      keccak256\n        /* \"contracts/SupplyChain.sol\":8514:8523  DIS[i].id */\n      0x01\n      add\n      sload\n        /* \"contracts/SupplyChain.sol\":8507:8523  return DIS[i].id */\n      swap2\n      pop\n      pop\n      jump(tag_315)\n        /* \"contracts/SupplyChain.sol\":8478:8523  if (DIS[i].addr == _address) return DIS[i].id */\n    tag_320:\n        /* \"contracts/SupplyChain.sol\":8458:8461  i++ */\n      dup1\n      dup1\n      tag_321\n      swap1\n      tag_112\n      jump\t// in\n    tag_321:\n      swap2\n      pop\n      pop\n        /* \"contracts/SupplyChain.sol\":8425:8535  for (uint256 i = 1; i <= disCtr; i++) {... */\n      jump(tag_317)\n    tag_318:\n      pop\n        /* \"contracts/SupplyChain.sol\":8552:8553  0 */\n      0x00\n        /* \"contracts/SupplyChain.sol\":8545:8553  return 0 */\n      swap1\n      pop\n        /* \"contracts/SupplyChain.sol\":8318:8561  function findDIS(address _address) private view returns (uint256) {... */\n    tag_315:\n      swap2\n      swap1\n      pop\n      jump\t// out\n        /* \"contracts/SupplyChain.sol\":6721:6964  function findRMS(address _address) private view returns (uint256) {... */\n    tag_186:\n        /* \"contracts/SupplyChain.sol\":6778:6785  uint256 */\n      0x00\n        /* \"contracts/SupplyChain.sol\":6815:6816  0 */\n      dup1\n        /* \"contracts/SupplyChain.sol\":6806:6812  rmsCtr */\n      sload(0x02)\n        /* \"contracts/SupplyChain.sol\":6806:6816  rmsCtr > 0 */\n      gt\n        /* \"contracts/SupplyChain.sol\":6798:6817  require(rmsCtr > 0) */\n      tag_323\n      jumpi\n      0x00\n      dup1\n      revert\n    tag_323:\n        /* \"contracts/SupplyChain.sol\":6833:6842  uint256 i */\n      0x00\n        /* \"contracts/SupplyChain.sol\":6845:6846  1 */\n      0x01\n        /* \"contracts/SupplyChain.sol\":6833:6846  uint256 i = 1 */\n      swap1\n      pop\n        /* \"contracts/SupplyChain.sol\":6828:6938  for (uint256 i = 1; i <= rmsCtr; i++) {... */\n    tag_324:\n        /* \"contracts/SupplyChain.sol\":6853:6859  rmsCtr */\n      sload(0x02)\n        /* \"contracts/SupplyChain.sol\":6848:6849  i */\n      dup2\n        /* \"contracts/SupplyChain.sol\":6848:6859  i <= rmsCtr */\n      gt\n        /* \"contracts/SupplyChain.sol\":6828:6938  for (uint256 i = 1; i <= rmsCtr; i++) {... */\n      tag_325\n      jumpi\n        /* \"contracts/SupplyChain.sol\":6900:6908  _address */\n      dup3\n        /* \"contracts/SupplyChain.sol\":6885:6908  RMS[i].addr == _address */\n      0xffffffffffffffffffffffffffffffffffffffff\n      and\n        /* \"contracts/SupplyChain.sol\":6885:6888  RMS */\n      0x07\n        /* \"contracts/SupplyChain.sol\":6885:6891  RMS[i] */\n      0x00\n        /* \"contracts/SupplyChain.sol\":6889:6890  i */\n      dup4\n        /* \"contracts/SupplyChain.sol\":6885:6891  RMS[i] */\n      dup2\n      mstore\n      0x20\n      add\n      swap1\n      dup2\n      mstore\n      0x20\n      add\n      0x00\n      keccak256\n        /* \"contracts/SupplyChain.sol\":6885:6896  RMS[i].addr */\n      0x00\n      add\n      0x00\n      swap1\n      sload\n      swap1\n      0x0100\n      exp\n      swap1\n      div\n      0xffffffffffffffffffffffffffffffffffffffff\n      and\n        /* \"contracts/SupplyChain.sol\":6885:6908  RMS[i].addr == _address */\n      0xffffffffffffffffffffffffffffffffffffffff\n      and\n      sub\n        /* \"contracts/SupplyChain.sol\":6881:6926  if (RMS[i].addr == _address) return RMS[i].id */\n      tag_327\n      jumpi\n        /* \"contracts/SupplyChain.sol\":6917:6920  RMS */\n      0x07\n        /* \"contracts/SupplyChain.sol\":6917:6923  RMS[i] */\n      0x00\n        /* \"contracts/SupplyChain.sol\":6921:6922  i */\n      dup3\n        /* \"contracts/SupplyChain.sol\":6917:6923  RMS[i] */\n      dup2\n      mstore\n      0x20\n      add\n      swap1\n      dup2\n      mstore\n      0x20\n      add\n      0x00\n      keccak256\n        /* \"contracts/SupplyChain.sol\":6917:6926  RMS[i].id */\n      0x01\n      add\n      sload\n        /* \"contracts/SupplyChain.sol\":6910:6926  return RMS[i].id */\n      swap2\n      pop\n      pop\n      jump(tag_322)\n        /* \"contracts/SupplyChain.sol\":6881:6926  if (RMS[i].addr == _address) return RMS[i].id */\n    tag_327:\n        /* \"contracts/SupplyChain.sol\":6861:6864  i++ */\n      dup1\n      dup1\n      tag_328\n      swap1\n      tag_112\n      jump\t// in\n    tag_328:\n      swap2\n      pop\n      pop\n        /* \"contracts/SupplyChain.sol\":6828:6938  for (uint256 i = 1; i <= rmsCtr; i++) {... */\n      jump(tag_324)\n    tag_325:\n      pop\n        /* \"contracts/SupplyChain.sol\":6955:6956  0 */\n      0x00\n        /* \"contracts/SupplyChain.sol\":6948:6956  return 0 */\n      swap1\n      pop\n        /* \"contracts/SupplyChain.sol\":6721:6964  function findRMS(address _address) private view returns (uint256) {... */\n    tag_322:\n      swap2\n      swap1\n      pop\n      jump\t// out\n        /* \"contracts/SupplyChain.sol\":7510:7753  function findMAN(address _address) private view returns (uint256) {... */\n    tag_222:\n        /* \"contracts/SupplyChain.sol\":7567:7574  uint256 */\n      0x00\n        /* \"contracts/SupplyChain.sol\":7604:7605  0 */\n      dup1\n        /* \"contracts/SupplyChain.sol\":7595:7601  manCtr */\n      sload(0x03)\n        /* \"contracts/SupplyChain.sol\":7595:7605  manCtr > 0 */\n      gt\n        /* \"contracts/SupplyChain.sol\":7587:7606  require(manCtr > 0) */\n      tag_330\n      jumpi\n      0x00\n      dup1\n      revert\n    tag_330:\n        /* \"contracts/SupplyChain.sol\":7622:7631  uint256 i */\n      0x00\n        /* \"contracts/SupplyChain.sol\":7634:7635  1 */\n      0x01\n        /* \"contracts/SupplyChain.sol\":7622:7635  uint256 i = 1 */\n      swap1\n      pop\n        /* \"contracts/SupplyChain.sol\":7617:7727  for (uint256 i = 1; i <= manCtr; i++) {... */\n    tag_331:\n        /* \"contracts/SupplyChain.sol\":7642:7648  manCtr */\n      sload(0x03)\n        /* \"contracts/SupplyChain.sol\":7637:7638  i */\n      dup2\n        /* \"contracts/SupplyChain.sol\":7637:7648  i <= manCtr */\n      gt\n        /* \"contracts/SupplyChain.sol\":7617:7727  for (uint256 i = 1; i <= manCtr; i++) {... */\n      tag_332\n      jumpi\n        /* \"contracts/SupplyChain.sol\":7689:7697  _address */\n      dup3\n        /* \"contracts/SupplyChain.sol\":7674:7697  MAN[i].addr == _address */\n      0xffffffffffffffffffffffffffffffffffffffff\n      and\n        /* \"contracts/SupplyChain.sol\":7674:7677  MAN */\n      0x08\n        /* \"contracts/SupplyChain.sol\":7674:7680  MAN[i] */\n      0x00\n        /* \"contracts/SupplyChain.sol\":7678:7679  i */\n      dup4\n        /* \"contracts/SupplyChain.sol\":7674:7680  MAN[i] */\n      dup2\n      mstore\n      0x20\n      add\n      swap1\n      dup2\n      mstore\n      0x20\n      add\n      0x00\n      keccak256\n        /* \"contracts/SupplyChain.sol\":7674:7685  MAN[i].addr */\n      0x00\n      add\n      0x00\n      swap1\n      sload\n      swap1\n      0x0100\n      exp\n      swap1\n      div\n      0xffffffffffffffffffffffffffffffffffffffff\n      and\n        /* \"contracts/SupplyChain.sol\":7674:7697  MAN[i].addr == _address */\n      0xffffffffffffffffffffffffffffffffffffffff\n      and\n      sub\n        /* \"contracts/SupplyChain.sol\":7670:7715  if (MAN[i].addr == _address) return MAN[i].id */\n      tag_334\n      jumpi\n        /* \"contracts/SupplyChain.sol\":7706:7709  MAN */\n      0x08\n        /* \"contracts/SupplyChain.sol\":7706:7712  MAN[i] */\n      0x00\n        /* \"contracts/SupplyChain.sol\":7710:7711  i */\n      dup3\n        /* \"contracts/SupplyChain.sol\":7706:7712  MAN[i] */\n      dup2\n      mstore\n      0x20\n      add\n      swap1\n      dup2\n      mstore\n      0x20\n      add\n      0x00\n      keccak256\n        /* \"contracts/SupplyChain.sol\":7706:7715  MAN[i].id */\n      0x01\n      add\n      sload\n        /* \"contracts/SupplyChain.sol\":7699:7715  return MAN[i].id */\n      swap2\n      pop\n      pop\n      jump(tag_329)\n        /* \"contracts/SupplyChain.sol\":7670:7715  if (MAN[i].addr == _address) return MAN[i].id */\n    tag_334:\n        /* \"contracts/SupplyChain.sol\":7650:7653  i++ */\n      dup1\n      dup1\n      tag_335\n      swap1\n      tag_112\n      jump\t// in\n    tag_335:\n      swap2\n      pop\n      pop\n        /* \"contracts/SupplyChain.sol\":7617:7727  for (uint256 i = 1; i <= manCtr; i++) {... */\n      jump(tag_331)\n    tag_332:\n      pop\n        /* \"contracts/SupplyChain.sol\":7744:7745  0 */\n      0x00\n        /* \"contracts/SupplyChain.sol\":7737:7745  return 0 */\n      swap1\n      pop\n        /* \"contracts/SupplyChain.sol\":7510:7753  function findMAN(address _address) private view returns (uint256) {... */\n    tag_329:\n      swap2\n      swap1\n      pop\n      jump\t// out\n        /* \"#utility.yul\":7:84   */\n    tag_336:\n        /* \"#utility.yul\":44:51   */\n      0x00\n        /* \"#utility.yul\":73:78   */\n      dup2\n        /* \"#utility.yul\":62:78   */\n      swap1\n      pop\n        /* \"#utility.yul\":7:84   */\n      swap2\n      swap1\n      pop\n      jump\t// out\n        /* \"#utility.yul\":90:208   */\n    tag_337:\n        /* \"#utility.yul\":177:201   */\n      tag_390\n        /* \"#utility.yul\":195:200   */\n      dup2\n        /* \"#utility.yul\":177:201   */\n      tag_336\n      jump\t// in\n    tag_390:\n        /* \"#utility.yul\":172:175   */\n      dup3\n        /* \"#utility.yul\":165:202   */\n      mstore\n        /* \"#utility.yul\":90:208   */\n      pop\n      pop\n      jump\t// out\n        /* \"#utility.yul\":214:436   */\n    tag_31:\n        /* \"#utility.yul\":307:311   */\n      0x00\n        /* \"#utility.yul\":345:347   */\n      0x20\n        /* \"#utility.yul\":334:343   */\n      dup3\n        /* \"#utility.yul\":330:348   */\n      add\n        /* \"#utility.yul\":322:348   */\n      swap1\n      pop\n        /* \"#utility.yul\":358:429   */\n      tag_392\n        /* \"#utility.yul\":426:427   */\n      0x00\n        /* \"#utility.yul\":415:424   */\n      dup4\n        /* \"#utility.yul\":411:428   */\n      add\n        /* \"#utility.yul\":402:408   */\n      dup5\n        /* \"#utility.yul\":358:429   */\n      tag_337\n      jump\t// in\n    tag_392:\n        /* \"#utility.yul\":214:436   */\n      swap3\n      swap2\n      pop\n      pop\n      jump\t// out\n        /* \"#utility.yul\":442:517   */\n    tag_338:\n        /* \"#utility.yul\":475:481   */\n      0x00\n        /* \"#utility.yul\":508:510   */\n      0x40\n        /* \"#utility.yul\":502:511   */\n      mload\n        /* \"#utility.yul\":492:511   */\n      swap1\n      pop\n        /* \"#utility.yul\":442:517   */\n      swap1\n      jump\t// out\n        /* \"#utility.yul\":523:640   */\n    tag_339:\n        /* \"#utility.yul\":632:633   */\n      0x00\n        /* \"#utility.yul\":629:630   */\n      dup1\n        /* \"#utility.yul\":622:634   */\n      revert\n        /* \"#utility.yul\":646:763   */\n    tag_340:\n        /* \"#utility.yul\":755:756   */\n      0x00\n        /* \"#utility.yul\":752:753   */\n      dup1\n        /* \"#utility.yul\":745:757   */\n      revert\n        /* \"#utility.yul\":769:895   */\n    tag_341:\n        /* \"#utility.yul\":806:813   */\n      0x00\n        /* \"#utility.yul\":846:888   */\n      0xffffffffffffffffffffffffffffffffffffffff\n        /* \"#utility.yul\":839:844   */\n      dup3\n        /* \"#utility.yul\":835:889   */\n      and\n        /* \"#utility.yul\":824:889   */\n      swap1\n      pop\n        /* \"#utility.yul\":769:895   */\n      swap2\n      swap1\n      pop\n      jump\t// out\n        /* \"#utility.yul\":901:997   */\n    tag_342:\n        /* \"#utility.yul\":938:945   */\n      0x00\n        /* \"#utility.yul\":967:991   */\n      tag_398\n        /* \"#utility.yul\":985:990   */\n      dup3\n        /* \"#utility.yul\":967:991   */\n      tag_341\n      jump\t// in\n    tag_398:\n        /* \"#utility.yul\":956:991   */\n      swap1\n      pop\n        /* \"#utility.yul\":901:997   */\n      swap2\n      swap1\n      pop\n      jump\t// out\n        /* \"#utility.yul\":1003:1125   */\n    tag_343:\n        /* \"#utility.yul\":1076:1100   */\n      tag_400\n        /* \"#utility.yul\":1094:1099   */\n      dup2\n        /* \"#utility.yul\":1076:1100   */\n      tag_342\n      jump\t// in\n    tag_400:\n        /* \"#utility.yul\":1069:1074   */\n      dup2\n        /* \"#utility.yul\":1066:1101   */\n      eq\n        /* \"#utility.yul\":1056:1119   */\n      tag_401\n      jumpi\n        /* \"#utility.yul\":1115:1116   */\n      0x00\n        /* \"#utility.yul\":1112:1113   */\n      dup1\n        /* \"#utility.yul\":1105:1117   */\n      revert\n        /* \"#utility.yul\":1056:1119   */\n    tag_401:\n        /* \"#utility.yul\":1003:1125   */\n      pop\n      jump\t// out\n        /* \"#utility.yul\":1131:1270   */\n    tag_344:\n        /* \"#utility.yul\":1177:1182   */\n      0x00\n        /* \"#utility.yul\":1215:1221   */\n      dup2\n        /* \"#utility.yul\":1202:1222   */\n      calldataload\n        /* \"#utility.yul\":1193:1222   */\n      swap1\n      pop\n        /* \"#utility.yul\":1231:1264   */\n      tag_403\n        /* \"#utility.yul\":1258:1263   */\n      dup2\n        /* \"#utility.yul\":1231:1264   */\n      tag_343\n      jump\t// in\n    tag_403:\n        /* \"#utility.yul\":1131:1270   */\n      swap3\n      swap2\n      pop\n      pop\n      jump\t// out\n        /* \"#utility.yul\":1276:1393   */\n    tag_345:\n        /* \"#utility.yul\":1385:1386   */\n      0x00\n        /* \"#utility.yul\":1382:1383   */\n      dup1\n        /* \"#utility.yul\":1375:1387   */\n      revert\n        /* \"#utility.yul\":1399:1516   */\n    tag_346:\n        /* \"#utility.yul\":1508:1509   */\n      0x00\n        /* \"#utility.yul\":1505:1506   */\n      dup1\n        /* \"#utility.yul\":1498:1510   */\n      revert\n        /* \"#utility.yul\":1522:1624   */\n    tag_347:\n        /* \"#utility.yul\":1563:1569   */\n      0x00\n        /* \"#utility.yul\":1614:1616   */\n      0x1f\n        /* \"#utility.yul\":1610:1617   */\n      not\n        /* \"#utility.yul\":1605:1607   */\n      0x1f\n        /* \"#utility.yul\":1598:1603   */\n      dup4\n        /* \"#utility.yul\":1594:1608   */\n      add\n        /* \"#utility.yul\":1590:1618   */\n      and\n        /* \"#utility.yul\":1580:1618   */\n      swap1\n      pop\n        /* \"#utility.yul\":1522:1624   */\n      swap2\n      swap1\n      pop\n      jump\t// out\n        /* \"#utility.yul\":1630:1810   */\n    tag_348:\n        /* \"#utility.yul\":1678:1755   */\n      0x4e487b7100000000000000000000000000000000000000000000000000000000\n        /* \"#utility.yul\":1675:1676   */\n      0x00\n        /* \"#utility.yul\":1668:1756   */\n      mstore\n        /* \"#utility.yul\":1775:1779   */\n      0x41\n        /* \"#utility.yul\":1772:1773   */\n      0x04\n        /* \"#utility.yul\":1765:1780   */\n      mstore\n        /* \"#utility.yul\":1799:1803   */\n      0x24\n        /* \"#utility.yul\":1796:1797   */\n      0x00\n        /* \"#utility.yul\":1789:1804   */\n      revert\n        /* \"#utility.yul\":1816:2097   */\n    tag_349:\n        /* \"#utility.yul\":1899:1926   */\n      tag_409\n        /* \"#utility.yul\":1921:1925   */\n      dup3\n        /* \"#utility.yul\":1899:1926   */\n      tag_347\n      jump\t// in\n    tag_409:\n        /* \"#utility.yul\":1891:1897   */\n      dup2\n        /* \"#utility.yul\":1887:1927   */\n      add\n        /* \"#utility.yul\":2029:2035   */\n      dup2\n        /* \"#utility.yul\":2017:2027   */\n      dup2\n        /* \"#utility.yul\":2014:2036   */\n      lt\n        /* \"#utility.yul\":1993:2011   */\n      0xffffffffffffffff\n        /* \"#utility.yul\":1981:1991   */\n      dup3\n        /* \"#utility.yul\":1978:2012   */\n      gt\n        /* \"#utility.yul\":1975:2037   */\n      or\n        /* \"#utility.yul\":1972:2060   */\n      iszero\n      tag_410\n      jumpi\n        /* \"#utility.yul\":2040:2058   */\n      tag_411\n      tag_348\n      jump\t// in\n    tag_411:\n        /* \"#utility.yul\":1972:2060   */\n    tag_410:\n        /* \"#utility.yul\":2080:2090   */\n      dup1\n        /* \"#utility.yul\":2076:2078   */\n      0x40\n        /* \"#utility.yul\":2069:2091   */\n      mstore\n        /* \"#utility.yul\":1859:2097   */\n      pop\n        /* \"#utility.yul\":1816:2097   */\n      pop\n      pop\n      jump\t// out\n        /* \"#utility.yul\":2103:2232   */\n    tag_350:\n        /* \"#utility.yul\":2137:2143   */\n      0x00\n        /* \"#utility.yul\":2164:2184   */\n      tag_413\n      tag_338\n      jump\t// in\n    tag_413:\n        /* \"#utility.yul\":2154:2184   */\n      swap1\n      pop\n        /* \"#utility.yul\":2193:2226   */\n      tag_414\n        /* \"#utility.yul\":2221:2225   */\n      dup3\n        /* \"#utility.yul\":2213:2219   */\n      dup3\n        /* \"#utility.yul\":2193:2226   */\n      tag_349\n      jump\t// in\n    tag_414:\n        /* \"#utility.yul\":2103:2232   */\n      swap2\n      swap1\n      pop\n      jump\t// out\n        /* \"#utility.yul\":2238:2546   */\n    tag_351:\n        /* \"#utility.yul\":2300:2304   */\n      0x00\n        /* \"#utility.yul\":2390:2408   */\n      0xffffffffffffffff\n        /* \"#utility.yul\":2382:2388   */\n      dup3\n        /* \"#utility.yul\":2379:2409   */\n      gt\n        /* \"#utility.yul\":2376:2432   */\n      iszero\n      tag_416\n      jumpi\n        /* \"#utility.yul\":2412:2430   */\n      tag_417\n      tag_348\n      jump\t// in\n    tag_417:\n        /* \"#utility.yul\":2376:2432   */\n    tag_416:\n        /* \"#utility.yul\":2450:2479   */\n      tag_418\n        /* \"#utility.yul\":2472:2478   */\n      dup3\n        /* \"#utility.yul\":2450:2479   */\n      tag_347\n      jump\t// in\n    tag_418:\n        /* \"#utility.yul\":2442:2479   */\n      swap1\n      pop\n        /* \"#utility.yul\":2534:2538   */\n      0x20\n        /* \"#utility.yul\":2528:2532   */\n      dup2\n        /* \"#utility.yul\":2524:2539   */\n      add\n        /* \"#utility.yul\":2516:2539   */\n      swap1\n      pop\n        /* \"#utility.yul\":2238:2546   */\n      swap2\n      swap1\n      pop\n      jump\t// out\n        /* \"#utility.yul\":2552:2700   */\n    tag_352:\n        /* \"#utility.yul\":2650:2656   */\n      dup3\n        /* \"#utility.yul\":2645:2648   */\n      dup2\n        /* \"#utility.yul\":2640:2643   */\n      dup4\n        /* \"#utility.yul\":2627:2657   */\n      calldatacopy\n        /* \"#utility.yul\":2691:2692   */\n      0x00\n        /* \"#utility.yul\":2682:2688   */\n      dup4\n        /* \"#utility.yul\":2677:2680   */\n      dup4\n        /* \"#utility.yul\":2673:2689   */\n      add\n        /* \"#utility.yul\":2666:2693   */\n      mstore\n        /* \"#utility.yul\":2552:2700   */\n      pop\n      pop\n      pop\n      jump\t// out\n        /* \"#utility.yul\":2706:3131   */\n    tag_353:\n        /* \"#utility.yul\":2784:2789   */\n      0x00\n        /* \"#utility.yul\":2809:2875   */\n      tag_421\n        /* \"#utility.yul\":2825:2874   */\n      tag_422\n        /* \"#utility.yul\":2867:2873   */\n      dup5\n        /* \"#utility.yul\":2825:2874   */\n      tag_351\n      jump\t// in\n    tag_422:\n        /* \"#utility.yul\":2809:2875   */\n      tag_350\n      jump\t// in\n    tag_421:\n        /* \"#utility.yul\":2800:2875   */\n      swap1\n      pop\n        /* \"#utility.yul\":2898:2904   */\n      dup3\n        /* \"#utility.yul\":2891:2896   */\n      dup2\n        /* \"#utility.yul\":2884:2905   */\n      mstore\n        /* \"#utility.yul\":2936:2940   */\n      0x20\n        /* \"#utility.yul\":2929:2934   */\n      dup2\n        /* \"#utility.yul\":2925:2941   */\n      add\n        /* \"#utility.yul\":2974:2977   */\n      dup5\n        /* \"#utility.yul\":2965:2971   */\n      dup5\n        /* \"#utility.yul\":2960:2963   */\n      dup5\n        /* \"#utility.yul\":2956:2972   */\n      add\n        /* \"#utility.yul\":2953:2978   */\n      gt\n        /* \"#utility.yul\":2950:3062   */\n      iszero\n      tag_423\n      jumpi\n        /* \"#utility.yul\":2981:3060   */\n      tag_424\n      tag_346\n      jump\t// in\n    tag_424:\n        /* \"#utility.yul\":2950:3062   */\n    tag_423:\n        /* \"#utility.yul\":3071:3125   */\n      tag_425\n        /* \"#utility.yul\":3118:3124   */\n      dup5\n        /* \"#utility.yul\":3113:3116   */\n      dup3\n        /* \"#utility.yul\":3108:3111   */\n      dup6\n        /* \"#utility.yul\":3071:3125   */\n      tag_352\n      jump\t// in\n    tag_425:\n        /* \"#utility.yul\":2790:3131   */\n      pop\n        /* \"#utility.yul\":2706:3131   */\n      swap4\n      swap3\n      pop\n      pop\n      pop\n      jump\t// out\n        /* \"#utility.yul\":3151:3491   */\n    tag_354:\n        /* \"#utility.yul\":3207:3212   */\n      0x00\n        /* \"#utility.yul\":3256:3259   */\n      dup3\n        /* \"#utility.yul\":3249:3253   */\n      0x1f\n        /* \"#utility.yul\":3241:3247   */\n      dup4\n        /* \"#utility.yul\":3237:3254   */\n      add\n        /* \"#utility.yul\":3233:3260   */\n      slt\n        /* \"#utility.yul\":3223:3345   */\n      tag_427\n      jumpi\n        /* \"#utility.yul\":3264:3343   */\n      tag_428\n      tag_345\n      jump\t// in\n    tag_428:\n        /* \"#utility.yul\":3223:3345   */\n    tag_427:\n        /* \"#utility.yul\":3381:3387   */\n      dup2\n        /* \"#utility.yul\":3368:3388   */\n      calldataload\n        /* \"#utility.yul\":3406:3485   */\n      tag_429\n        /* \"#utility.yul\":3481:3484   */\n      dup5\n        /* \"#utility.yul\":3473:3479   */\n      dup3\n        /* \"#utility.yul\":3466:3470   */\n      0x20\n        /* \"#utility.yul\":3458:3464   */\n      dup7\n        /* \"#utility.yul\":3454:3471   */\n      add\n        /* \"#utility.yul\":3406:3485   */\n      tag_353\n      jump\t// in\n    tag_429:\n        /* \"#utility.yul\":3397:3485   */\n      swap2\n      pop\n        /* \"#utility.yul\":3213:3491   */\n      pop\n        /* \"#utility.yul\":3151:3491   */\n      swap3\n      swap2\n      pop\n      pop\n      jump\t// out\n        /* \"#utility.yul\":3497:4476   */\n    tag_34:\n        /* \"#utility.yul\":3594:3600   */\n      0x00\n        /* \"#utility.yul\":3602:3608   */\n      dup1\n        /* \"#utility.yul\":3610:3616   */\n      0x00\n        /* \"#utility.yul\":3659:3661   */\n      0x60\n        /* \"#utility.yul\":3647:3656   */\n      dup5\n        /* \"#utility.yul\":3638:3645   */\n      dup7\n        /* \"#utility.yul\":3634:3657   */\n      sub\n        /* \"#utility.yul\":3630:3662   */\n      slt\n        /* \"#utility.yul\":3627:3746   */\n      iszero\n      tag_431\n      jumpi\n        /* \"#utility.yul\":3665:3744   */\n      tag_432\n      tag_339\n      jump\t// in\n    tag_432:\n        /* \"#utility.yul\":3627:3746   */\n    tag_431:\n        /* \"#utility.yul\":3785:3786   */\n      0x00\n        /* \"#utility.yul\":3810:3863   */\n      tag_433\n        /* \"#utility.yul\":3855:3862   */\n      dup7\n        /* \"#utility.yul\":3846:3852   */\n      dup3\n        /* \"#utility.yul\":3835:3844   */\n      dup8\n        /* \"#utility.yul\":3831:3853   */\n      add\n        /* \"#utility.yul\":3810:3863   */\n      tag_344\n      jump\t// in\n    tag_433:\n        /* \"#utility.yul\":3800:3863   */\n      swap4\n      pop\n        /* \"#utility.yul\":3756:3873   */\n      pop\n        /* \"#utility.yul\":3940:3942   */\n      0x20\n        /* \"#utility.yul\":3929:3938   */\n      dup5\n        /* \"#utility.yul\":3925:3943   */\n      add\n        /* \"#utility.yul\":3912:3944   */\n      calldataload\n        /* \"#utility.yul\":3971:3989   */\n      0xffffffffffffffff\n        /* \"#utility.yul\":3963:3969   */\n      dup2\n        /* \"#utility.yul\":3960:3990   */\n      gt\n        /* \"#utility.yul\":3957:4074   */\n      iszero\n      tag_434\n      jumpi\n        /* \"#utility.yul\":3993:4072   */\n      tag_435\n      tag_340\n      jump\t// in\n    tag_435:\n        /* \"#utility.yul\":3957:4074   */\n    tag_434:\n        /* \"#utility.yul\":4098:4161   */\n      tag_436\n        /* \"#utility.yul\":4153:4160   */\n      dup7\n        /* \"#utility.yul\":4144:4150   */\n      dup3\n        /* \"#utility.yul\":4133:4142   */\n      dup8\n        /* \"#utility.yul\":4129:4151   */\n      add\n        /* \"#utility.yul\":4098:4161   */\n      tag_354\n      jump\t// in\n    tag_436:\n        /* \"#utility.yul\":4088:4161   */\n      swap3\n      pop\n        /* \"#utility.yul\":3883:4171   */\n      pop\n        /* \"#utility.yul\":4238:4240   */\n      0x40\n        /* \"#utility.yul\":4227:4236   */\n      dup5\n        /* \"#utility.yul\":4223:4241   */\n      add\n        /* \"#utility.yul\":4210:4242   */\n      calldataload\n        /* \"#utility.yul\":4269:4287   */\n      0xffffffffffffffff\n        /* \"#utility.yul\":4261:4267   */\n      dup2\n        /* \"#utility.yul\":4258:4288   */\n      gt\n        /* \"#utility.yul\":4255:4372   */\n      iszero\n      tag_437\n      jumpi\n        /* \"#utility.yul\":4291:4370   */\n      tag_438\n      tag_340\n      jump\t// in\n    tag_438:\n        /* \"#utility.yul\":4255:4372   */\n    tag_437:\n        /* \"#utility.yul\":4396:4459   */\n      tag_439\n        /* \"#utility.yul\":4451:4458   */\n      dup7\n        /* \"#utility.yul\":4442:4448   */\n      dup3\n        /* \"#utility.yul\":4431:4440   */\n      dup8\n        /* \"#utility.yul\":4427:4449   */\n      add\n        /* \"#utility.yul\":4396:4459   */\n      tag_354\n      jump\t// in\n    tag_439:\n        /* \"#utility.yul\":4386:4459   */\n      swap2\n      pop\n        /* \"#utility.yul\":4181:4469   */\n      pop\n        /* \"#utility.yul\":3497:4476   */\n      swap3\n      pop\n      swap3\n      pop\n      swap3\n      jump\t// out\n        /* \"#utility.yul\":4482:4604   */\n    tag_355:\n        /* \"#utility.yul\":4555:4579   */\n      tag_441\n        /* \"#utility.yul\":4573:4578   */\n      dup2\n        /* \"#utility.yul\":4555:4579   */\n      tag_336\n      jump\t// in\n    tag_441:\n        /* \"#utility.yul\":4548:4553   */\n      dup2\n        /* \"#utility.yul\":4545:4580   */\n      eq\n        /* \"#utility.yul\":4535:4598   */\n      tag_442\n      jumpi\n        /* \"#utility.yul\":4594:4595   */\n      0x00\n        /* \"#utility.yul\":4591:4592   */\n      dup1\n        /* \"#utility.yul\":4584:4596   */\n      revert\n        /* \"#utility.yul\":4535:4598   */\n    tag_442:\n        /* \"#utility.yul\":4482:4604   */\n      pop\n      jump\t// out\n        /* \"#utility.yul\":4610:4749   */\n    tag_356:\n        /* \"#utility.yul\":4656:4661   */\n      0x00\n        /* \"#utility.yul\":4694:4700   */\n      dup2\n        /* \"#utility.yul\":4681:4701   */\n      calldataload\n        /* \"#utility.yul\":4672:4701   */\n      swap1\n      pop\n        /* \"#utility.yul\":4710:4743   */\n      tag_444\n        /* \"#utility.yul\":4737:4742   */\n      dup2\n        /* \"#utility.yul\":4710:4743   */\n      tag_355\n      jump\t// in\n    tag_444:\n        /* \"#utility.yul\":4610:4749   */\n      swap3\n      swap2\n      pop\n      pop\n      jump\t// out\n        /* \"#utility.yul\":4755:5084   */\n    tag_38:\n        /* \"#utility.yul\":4814:4820   */\n      0x00\n        /* \"#utility.yul\":4863:4865   */\n      0x20\n        /* \"#utility.yul\":4851:4860   */\n      dup3\n        /* \"#utility.yul\":4842:4849   */\n      dup5\n        /* \"#utility.yul\":4838:4861   */\n      sub\n        /* \"#utility.yul\":4834:4866   */\n      slt\n        /* \"#utility.yul\":4831:4950   */\n      iszero\n      tag_446\n      jumpi\n        /* \"#utility.yul\":4869:4948   */\n      tag_447\n      tag_339\n      jump\t// in\n    tag_447:\n        /* \"#utility.yul\":4831:4950   */\n    tag_446:\n        /* \"#utility.yul\":4989:4990   */\n      0x00\n        /* \"#utility.yul\":5014:5067   */\n      tag_448\n        /* \"#utility.yul\":5059:5066   */\n      dup5\n        /* \"#utility.yul\":5050:5056   */\n      dup3\n        /* \"#utility.yul\":5039:5048   */\n      dup6\n        /* \"#utility.yul\":5035:5057   */\n      add\n        /* \"#utility.yul\":5014:5067   */\n      tag_356\n      jump\t// in\n    tag_448:\n        /* \"#utility.yul\":5004:5067   */\n      swap2\n      pop\n        /* \"#utility.yul\":4960:5077   */\n      pop\n        /* \"#utility.yul\":4755:5084   */\n      swap3\n      swap2\n      pop\n      pop\n      jump\t// out\n        /* \"#utility.yul\":5090:5208   */\n    tag_357:\n        /* \"#utility.yul\":5177:5201   */\n      tag_450\n        /* \"#utility.yul\":5195:5200   */\n      dup2\n        /* \"#utility.yul\":5177:5201   */\n      tag_342\n      jump\t// in\n    tag_450:\n        /* \"#utility.yul\":5172:5175   */\n      dup3\n        /* \"#utility.yul\":5165:5202   */\n      mstore\n        /* \"#utility.yul\":5090:5208   */\n      pop\n      pop\n      jump\t// out\n        /* \"#utility.yul\":5214:5313   */\n    tag_358:\n        /* \"#utility.yul\":5266:5272   */\n      0x00\n        /* \"#utility.yul\":5300:5305   */\n      dup2\n        /* \"#utility.yul\":5294:5306   */\n      mload\n        /* \"#utility.yul\":5284:5306   */\n      swap1\n      pop\n        /* \"#utility.yul\":5214:5313   */\n      swap2\n      swap1\n      pop\n      jump\t// out\n        /* \"#utility.yul\":5319:5488   */\n    tag_359:\n        /* \"#utility.yul\":5403:5414   */\n      0x00\n        /* \"#utility.yul\":5437:5443   */\n      dup3\n        /* \"#utility.yul\":5432:5435   */\n      dup3\n        /* \"#utility.yul\":5425:5444   */\n      mstore\n        /* \"#utility.yul\":5477:5481   */\n      0x20\n        /* \"#utility.yul\":5472:5475   */\n      dup3\n        /* \"#utility.yul\":5468:5482   */\n      add\n        /* \"#utility.yul\":5453:5482   */\n      swap1\n      pop\n        /* \"#utility.yul\":5319:5488   */\n      swap3\n      swap2\n      pop\n      pop\n      jump\t// out\n        /* \"#utility.yul\":5494:5742   */\n    tag_360:\n        /* \"#utility.yul\":5576:5577   */\n      0x00\n        /* \"#utility.yul\":5586:5699   */\n    tag_454:\n        /* \"#utility.yul\":5600:5606   */\n      dup4\n        /* \"#utility.yul\":5597:5598   */\n      dup2\n        /* \"#utility.yul\":5594:5607   */\n      lt\n        /* \"#utility.yul\":5586:5699   */\n      iszero\n      tag_456\n      jumpi\n        /* \"#utility.yul\":5685:5686   */\n      dup1\n        /* \"#utility.yul\":5680:5683   */\n      dup3\n        /* \"#utility.yul\":5676:5687   */\n      add\n        /* \"#utility.yul\":5670:5688   */\n      mload\n        /* \"#utility.yul\":5666:5667   */\n      dup2\n        /* \"#utility.yul\":5661:5664   */\n      dup5\n        /* \"#utility.yul\":5657:5668   */\n      add\n        /* \"#utility.yul\":5650:5689   */\n      mstore\n        /* \"#utility.yul\":5622:5624   */\n      0x20\n        /* \"#utility.yul\":5619:5620   */\n      dup2\n        /* \"#utility.yul\":5615:5625   */\n      add\n        /* \"#utility.yul\":5610:5625   */\n      swap1\n      pop\n        /* \"#utility.yul\":5586:5699   */\n      jump(tag_454)\n    tag_456:\n        /* \"#utility.yul\":5733:5734   */\n      0x00\n        /* \"#utility.yul\":5724:5730   */\n      dup5\n        /* \"#utility.yul\":5719:5722   */\n      dup5\n        /* \"#utility.yul\":5715:5731   */\n      add\n        /* \"#utility.yul\":5708:5735   */\n      mstore\n        /* \"#utility.yul\":5556:5742   */\n      pop\n        /* \"#utility.yul\":5494:5742   */\n      pop\n      pop\n      pop\n      jump\t// out\n        /* \"#utility.yul\":5748:6125   */\n    tag_361:\n        /* \"#utility.yul\":5836:5839   */\n      0x00\n        /* \"#utility.yul\":5864:5903   */\n      tag_458\n        /* \"#utility.yul\":5897:5902   */\n      dup3\n        /* \"#utility.yul\":5864:5903   */\n      tag_358\n      jump\t// in\n    tag_458:\n        /* \"#utility.yul\":5919:5990   */\n      tag_459\n        /* \"#utility.yul\":5983:5989   */\n      dup2\n        /* \"#utility.yul\":5978:5981   */\n      dup6\n        /* \"#utility.yul\":5919:5990   */\n      tag_359\n      jump\t// in\n    tag_459:\n        /* \"#utility.yul\":5912:5990   */\n      swap4\n      pop\n        /* \"#utility.yul\":5999:6064   */\n      tag_460\n        /* \"#utility.yul\":6057:6063   */\n      dup2\n        /* \"#utility.yul\":6052:6055   */\n      dup6\n        /* \"#utility.yul\":6045:6049   */\n      0x20\n        /* \"#utility.yul\":6038:6043   */\n      dup7\n        /* \"#utility.yul\":6034:6050   */\n      add\n        /* \"#utility.yul\":5999:6064   */\n      tag_360\n      jump\t// in\n    tag_460:\n        /* \"#utility.yul\":6089:6118   */\n      tag_461\n        /* \"#utility.yul\":6111:6117   */\n      dup2\n        /* \"#utility.yul\":6089:6118   */\n      tag_347\n      jump\t// in\n    tag_461:\n        /* \"#utility.yul\":6084:6087   */\n      dup5\n        /* \"#utility.yul\":6080:6119   */\n      add\n        /* \"#utility.yul\":6073:6119   */\n      swap2\n      pop\n        /* \"#utility.yul\":5840:6125   */\n      pop\n        /* \"#utility.yul\":5748:6125   */\n      swap3\n      swap2\n      pop\n      pop\n      jump\t// out\n        /* \"#utility.yul\":6131:6866   */\n    tag_41:\n        /* \"#utility.yul\":6348:6352   */\n      0x00\n        /* \"#utility.yul\":6386:6389   */\n      0x80\n        /* \"#utility.yul\":6375:6384   */\n      dup3\n        /* \"#utility.yul\":6371:6390   */\n      add\n        /* \"#utility.yul\":6363:6390   */\n      swap1\n      pop\n        /* \"#utility.yul\":6400:6471   */\n      tag_463\n        /* \"#utility.yul\":6468:6469   */\n      0x00\n        /* \"#utility.yul\":6457:6466   */\n      dup4\n        /* \"#utility.yul\":6453:6470   */\n      add\n        /* \"#utility.yul\":6444:6450   */\n      dup8\n        /* \"#utility.yul\":6400:6471   */\n      tag_357\n      jump\t// in\n    tag_463:\n        /* \"#utility.yul\":6481:6553   */\n      tag_464\n        /* \"#utility.yul\":6549:6551   */\n      0x20\n        /* \"#utility.yul\":6538:6547   */\n      dup4\n        /* \"#utility.yul\":6534:6552   */\n      add\n        /* \"#utility.yul\":6525:6531   */\n      dup7\n        /* \"#utility.yul\":6481:6553   */\n      tag_337\n      jump\t// in\n    tag_464:\n        /* \"#utility.yul\":6600:6609   */\n      dup2\n        /* \"#utility.yul\":6594:6598   */\n      dup2\n        /* \"#utility.yul\":6590:6610   */\n      sub\n        /* \"#utility.yul\":6585:6587   */\n      0x40\n        /* \"#utility.yul\":6574:6583   */\n      dup4\n        /* \"#utility.yul\":6570:6588   */\n      add\n        /* \"#utility.yul\":6563:6611   */\n      mstore\n        /* \"#utility.yul\":6628:6706   */\n      tag_465\n        /* \"#utility.yul\":6701:6705   */\n      dup2\n        /* \"#utility.yul\":6692:6698   */\n      dup6\n        /* \"#utility.yul\":6628:6706   */\n      tag_361\n      jump\t// in\n    tag_465:\n        /* \"#utility.yul\":6620:6706   */\n      swap1\n      pop\n        /* \"#utility.yul\":6753:6762   */\n      dup2\n        /* \"#utility.yul\":6747:6751   */\n      dup2\n        /* \"#utility.yul\":6743:6763   */\n      sub\n        /* \"#utility.yul\":6738:6740   */\n      0x60\n        /* \"#utility.yul\":6727:6736   */\n      dup4\n        /* \"#utility.yul\":6723:6741   */\n      add\n        /* \"#utility.yul\":6716:6764   */\n      mstore\n        /* \"#utility.yul\":6781:6859   */\n      tag_466\n        /* \"#utility.yul\":6854:6858   */\n      dup2\n        /* \"#utility.yul\":6845:6851   */\n      dup5\n        /* \"#utility.yul\":6781:6859   */\n      tag_361\n      jump\t// in\n    tag_466:\n        /* \"#utility.yul\":6773:6859   */\n      swap1\n      pop\n        /* \"#utility.yul\":6131:6866   */\n      swap6\n      swap5\n      pop\n      pop\n      pop\n      pop\n      pop\n      jump\t// out\n        /* \"#utility.yul\":6872:7052   */\n    tag_141:\n        /* \"#utility.yul\":6920:6997   */\n      0x4e487b7100000000000000000000000000000000000000000000000000000000\n        /* \"#utility.yul\":6917:6918   */\n      0x00\n        /* \"#utility.yul\":6910:6998   */\n      mstore\n        /* \"#utility.yul\":7017:7021   */\n      0x21\n        /* \"#utility.yul\":7014:7015   */\n      0x04\n        /* \"#utility.yul\":7007:7022   */\n      mstore\n        /* \"#utility.yul\":7041:7045   */\n      0x24\n        /* \"#utility.yul\":7038:7039   */\n      0x00\n        /* \"#utility.yul\":7031:7046   */\n      revert\n        /* \"#utility.yul\":7058:7171   */\n    tag_362:\n        /* \"#utility.yul\":7139:7140   */\n      0x06\n        /* \"#utility.yul\":7132:7137   */\n      dup2\n        /* \"#utility.yul\":7129:7141   */\n      lt\n        /* \"#utility.yul\":7119:7165   */\n      tag_469\n      jumpi\n        /* \"#utility.yul\":7145:7163   */\n      tag_470\n      tag_141\n      jump\t// in\n    tag_470:\n        /* \"#utility.yul\":7119:7165   */\n    tag_469:\n        /* \"#utility.yul\":7058:7171   */\n      pop\n      jump\t// out\n        /* \"#utility.yul\":7177:7304   */\n    tag_363:\n        /* \"#utility.yul\":7222:7229   */\n      0x00\n        /* \"#utility.yul\":7251:7256   */\n      dup2\n        /* \"#utility.yul\":7240:7256   */\n      swap1\n      pop\n        /* \"#utility.yul\":7257:7298   */\n      tag_472\n        /* \"#utility.yul\":7292:7297   */\n      dup3\n        /* \"#utility.yul\":7257:7298   */\n      tag_362\n      jump\t// in\n    tag_472:\n        /* \"#utility.yul\":7177:7304   */\n      swap2\n      swap1\n      pop\n      jump\t// out\n        /* \"#utility.yul\":7310:7437   */\n    tag_364:\n        /* \"#utility.yul\":7366:7375   */\n      0x00\n        /* \"#utility.yul\":7399:7431   */\n      tag_474\n        /* \"#utility.yul\":7425:7430   */\n      dup3\n        /* \"#utility.yul\":7399:7431   */\n      tag_363\n      jump\t// in\n    tag_474:\n        /* \"#utility.yul\":7386:7431   */\n      swap1\n      pop\n        /* \"#utility.yul\":7310:7437   */\n      swap2\n      swap1\n      pop\n      jump\t// out\n        /* \"#utility.yul\":7443:7586   */\n    tag_365:\n        /* \"#utility.yul\":7536:7579   */\n      tag_476\n        /* \"#utility.yul\":7573:7578   */\n      dup2\n        /* \"#utility.yul\":7536:7579   */\n      tag_364\n      jump\t// in\n    tag_476:\n        /* \"#utility.yul\":7531:7534   */\n      dup3\n        /* \"#utility.yul\":7524:7580   */\n      mstore\n        /* \"#utility.yul\":7443:7586   */\n      pop\n      pop\n      jump\t// out\n        /* \"#utility.yul\":7592:8783   */\n    tag_77:\n        /* \"#utility.yul\":7927:7931   */\n      0x00\n        /* \"#utility.yul\":7965:7968   */\n      0x0100\n        /* \"#utility.yul\":7954:7963   */\n      dup3\n        /* \"#utility.yul\":7950:7969   */\n      add\n        /* \"#utility.yul\":7942:7969   */\n      swap1\n      pop\n        /* \"#utility.yul\":7979:8050   */\n      tag_478\n        /* \"#utility.yul\":8047:8048   */\n      0x00\n        /* \"#utility.yul\":8036:8045   */\n      dup4\n        /* \"#utility.yul\":8032:8049   */\n      add\n        /* \"#utility.yul\":8023:8029   */\n      dup12\n        /* \"#utility.yul\":7979:8050   */\n      tag_337\n      jump\t// in\n    tag_478:\n        /* \"#utility.yul\":8097:8106   */\n      dup2\n        /* \"#utility.yul\":8091:8095   */\n      dup2\n        /* \"#utility.yul\":8087:8107   */\n      sub\n        /* \"#utility.yul\":8082:8084   */\n      0x20\n        /* \"#utility.yul\":8071:8080   */\n      dup4\n        /* \"#utility.yul\":8067:8085   */\n      add\n        /* \"#utility.yul\":8060:8108   */\n      mstore\n        /* \"#utility.yul\":8125:8203   */\n      tag_479\n        /* \"#utility.yul\":8198:8202   */\n      dup2\n        /* \"#utility.yul\":8189:8195   */\n      dup11\n        /* \"#utility.yul\":8125:8203   */\n      tag_361\n      jump\t// in\n    tag_479:\n        /* \"#utility.yul\":8117:8203   */\n      swap1\n      pop\n        /* \"#utility.yul\":8250:8259   */\n      dup2\n        /* \"#utility.yul\":8244:8248   */\n      dup2\n        /* \"#utility.yul\":8240:8260   */\n      sub\n        /* \"#utility.yul\":8235:8237   */\n      0x40\n        /* \"#utility.yul\":8224:8233   */\n      dup4\n        /* \"#utility.yul\":8220:8238   */\n      add\n        /* \"#utility.yul\":8213:8261   */\n      mstore\n        /* \"#utility.yul\":8278:8356   */\n      tag_480\n        /* \"#utility.yul\":8351:8355   */\n      dup2\n        /* \"#utility.yul\":8342:8348   */\n      dup10\n        /* \"#utility.yul\":8278:8356   */\n      tag_361\n      jump\t// in\n    tag_480:\n        /* \"#utility.yul\":8270:8356   */\n      swap1\n      pop\n        /* \"#utility.yul\":8366:8438   */\n      tag_481\n        /* \"#utility.yul\":8434:8436   */\n      0x60\n        /* \"#utility.yul\":8423:8432   */\n      dup4\n        /* \"#utility.yul\":8419:8437   */\n      add\n        /* \"#utility.yul\":8410:8416   */\n      dup9\n        /* \"#utility.yul\":8366:8438   */\n      tag_337\n      jump\t// in\n    tag_481:\n        /* \"#utility.yul\":8448:8521   */\n      tag_482\n        /* \"#utility.yul\":8516:8519   */\n      0x80\n        /* \"#utility.yul\":8505:8514   */\n      dup4\n        /* \"#utility.yul\":8501:8520   */\n      add\n        /* \"#utility.yul\":8492:8498   */\n      dup8\n        /* \"#utility.yul\":8448:8521   */\n      tag_337\n      jump\t// in\n    tag_482:\n        /* \"#utility.yul\":8531:8604   */\n      tag_483\n        /* \"#utility.yul\":8599:8602   */\n      0xa0\n        /* \"#utility.yul\":8588:8597   */\n      dup4\n        /* \"#utility.yul\":8584:8603   */\n      add\n        /* \"#utility.yul\":8575:8581   */\n      dup7\n        /* \"#utility.yul\":8531:8604   */\n      tag_337\n      jump\t// in\n    tag_483:\n        /* \"#utility.yul\":8614:8687   */\n      tag_484\n        /* \"#utility.yul\":8682:8685   */\n      0xc0\n        /* \"#utility.yul\":8671:8680   */\n      dup4\n        /* \"#utility.yul\":8667:8686   */\n      add\n        /* \"#utility.yul\":8658:8664   */\n      dup6\n        /* \"#utility.yul\":8614:8687   */\n      tag_337\n      jump\t// in\n    tag_484:\n        /* \"#utility.yul\":8697:8776   */\n      tag_485\n        /* \"#utility.yul\":8771:8774   */\n      0xe0\n        /* \"#utility.yul\":8760:8769   */\n      dup4\n        /* \"#utility.yul\":8756:8775   */\n      add\n        /* \"#utility.yul\":8747:8753   */\n      dup5\n        /* \"#utility.yul\":8697:8776   */\n      tag_365\n      jump\t// in\n    tag_485:\n        /* \"#utility.yul\":7592:8783   */\n      swap10\n      swap9\n      pop\n      pop\n      pop\n      pop\n      pop\n      pop\n      pop\n      pop\n      pop\n      jump\t// out\n        /* \"#utility.yul\":8789:9011   */\n    tag_87:\n        /* \"#utility.yul\":8882:8886   */\n      0x00\n        /* \"#utility.yul\":8920:8922   */\n      0x20\n        /* \"#utility.yul\":8909:8918   */\n      dup3\n        /* \"#utility.yul\":8905:8923   */\n      add\n        /* \"#utility.yul\":8897:8923   */\n      swap1\n      pop\n        /* \"#utility.yul\":8933:9004   */\n      tag_487\n        /* \"#utility.yul\":9001:9002   */\n      0x00\n        /* \"#utility.yul\":8990:8999   */\n      dup4\n        /* \"#utility.yul\":8986:9003   */\n      add\n        /* \"#utility.yul\":8977:8983   */\n      dup5\n        /* \"#utility.yul\":8933:9004   */\n      tag_357\n      jump\t// in\n    tag_487:\n        /* \"#utility.yul\":8789:9011   */\n      swap3\n      swap2\n      pop\n      pop\n      jump\t// out\n        /* \"#utility.yul\":9017:9851   */\n    tag_90:\n        /* \"#utility.yul\":9105:9111   */\n      0x00\n        /* \"#utility.yul\":9113:9119   */\n      dup1\n        /* \"#utility.yul\":9162:9164   */\n      0x40\n        /* \"#utility.yul\":9150:9159   */\n      dup4\n        /* \"#utility.yul\":9141:9148   */\n      dup6\n        /* \"#utility.yul\":9137:9160   */\n      sub\n        /* \"#utility.yul\":9133:9165   */\n      slt\n        /* \"#utility.yul\":9130:9249   */\n      iszero\n      tag_489\n      jumpi\n        /* \"#utility.yul\":9168:9247   */\n      tag_490\n      tag_339\n      jump\t// in\n    tag_490:\n        /* \"#utility.yul\":9130:9249   */\n    tag_489:\n        /* \"#utility.yul\":9316:9317   */\n      0x00\n        /* \"#utility.yul\":9305:9314   */\n      dup4\n        /* \"#utility.yul\":9301:9318   */\n      add\n        /* \"#utility.yul\":9288:9319   */\n      calldataload\n        /* \"#utility.yul\":9346:9364   */\n      0xffffffffffffffff\n        /* \"#utility.yul\":9338:9344   */\n      dup2\n        /* \"#utility.yul\":9335:9365   */\n      gt\n        /* \"#utility.yul\":9332:9449   */\n      iszero\n      tag_491\n      jumpi\n        /* \"#utility.yul\":9368:9447   */\n      tag_492\n      tag_340\n      jump\t// in\n    tag_492:\n        /* \"#utility.yul\":9332:9449   */\n    tag_491:\n        /* \"#utility.yul\":9473:9536   */\n      tag_493\n        /* \"#utility.yul\":9528:9535   */\n      dup6\n        /* \"#utility.yul\":9519:9525   */\n      dup3\n        /* \"#utility.yul\":9508:9517   */\n      dup7\n        /* \"#utility.yul\":9504:9526   */\n      add\n        /* \"#utility.yul\":9473:9536   */\n      tag_354\n      jump\t// in\n    tag_493:\n        /* \"#utility.yul\":9463:9536   */\n      swap3\n      pop\n        /* \"#utility.yul\":9259:9546   */\n      pop\n        /* \"#utility.yul\":9613:9615   */\n      0x20\n        /* \"#utility.yul\":9602:9611   */\n      dup4\n        /* \"#utility.yul\":9598:9616   */\n      add\n        /* \"#utility.yul\":9585:9617   */\n      calldataload\n        /* \"#utility.yul\":9644:9662   */\n      0xffffffffffffffff\n        /* \"#utility.yul\":9636:9642   */\n      dup2\n        /* \"#utility.yul\":9633:9663   */\n      gt\n        /* \"#utility.yul\":9630:9747   */\n      iszero\n      tag_494\n      jumpi\n        /* \"#utility.yul\":9666:9745   */\n      tag_495\n      tag_340\n      jump\t// in\n    tag_495:\n        /* \"#utility.yul\":9630:9747   */\n    tag_494:\n        /* \"#utility.yul\":9771:9834   */\n      tag_496\n        /* \"#utility.yul\":9826:9833   */\n      dup6\n        /* \"#utility.yul\":9817:9823   */\n      dup3\n        /* \"#utility.yul\":9806:9815   */\n      dup7\n        /* \"#utility.yul\":9802:9824   */\n      add\n        /* \"#utility.yul\":9771:9834   */\n      tag_354\n      jump\t// in\n    tag_496:\n        /* \"#utility.yul\":9761:9834   */\n      swap2\n      pop\n        /* \"#utility.yul\":9556:9844   */\n      pop\n        /* \"#utility.yul\":9017:9851   */\n      swap3\n      pop\n      swap3\n      swap1\n      pop\n      jump\t// out\n        /* \"#utility.yul\":9857:10170   */\n    tag_103:\n        /* \"#utility.yul\":9970:9974   */\n      0x00\n        /* \"#utility.yul\":10008:10010   */\n      0x20\n        /* \"#utility.yul\":9997:10006   */\n      dup3\n        /* \"#utility.yul\":9993:10011   */\n      add\n        /* \"#utility.yul\":9985:10011   */\n      swap1\n      pop\n        /* \"#utility.yul\":10057:10066   */\n      dup2\n        /* \"#utility.yul\":10051:10055   */\n      dup2\n        /* \"#utility.yul\":10047:10067   */\n      sub\n        /* \"#utility.yul\":10043:10044   */\n      0x00\n        /* \"#utility.yul\":10032:10041   */\n      dup4\n        /* \"#utility.yul\":10028:10045   */\n      add\n        /* \"#utility.yul\":10021:10068   */\n      mstore\n        /* \"#utility.yul\":10085:10163   */\n      tag_498\n        /* \"#utility.yul\":10158:10162   */\n      dup2\n        /* \"#utility.yul\":10149:10155   */\n      dup5\n        /* \"#utility.yul\":10085:10163   */\n      tag_361\n      jump\t// in\n    tag_498:\n        /* \"#utility.yul\":10077:10163   */\n      swap1\n      pop\n        /* \"#utility.yul\":9857:10170   */\n      swap3\n      swap2\n      pop\n      pop\n      jump\t// out\n        /* \"#utility.yul\":10176:10356   */\n    tag_366:\n        /* \"#utility.yul\":10224:10301   */\n      0x4e487b7100000000000000000000000000000000000000000000000000000000\n        /* \"#utility.yul\":10221:10222   */\n      0x00\n        /* \"#utility.yul\":10214:10302   */\n      mstore\n        /* \"#utility.yul\":10321:10325   */\n      0x11\n        /* \"#utility.yul\":10318:10319   */\n      0x04\n        /* \"#utility.yul\":10311:10326   */\n      mstore\n        /* \"#utility.yul\":10345:10349   */\n      0x24\n        /* \"#utility.yul\":10342:10343   */\n      0x00\n        /* \"#utility.yul\":10335:10350   */\n      revert\n        /* \"#utility.yul\":10362:10595   */\n    tag_112:\n        /* \"#utility.yul\":10401:10404   */\n      0x00\n        /* \"#utility.yul\":10424:10448   */\n      tag_501\n        /* \"#utility.yul\":10442:10447   */\n      dup3\n        /* \"#utility.yul\":10424:10448   */\n      tag_336\n      jump\t// in\n    tag_501:\n        /* \"#utility.yul\":10415:10448   */\n      swap2\n      pop\n        /* \"#utility.yul\":10470:10536   */\n      0xffffffffffffffffffffffffffffffffffffffffffffffffffffffffffffffff\n        /* \"#utility.yul\":10463:10468   */\n      dup3\n        /* \"#utility.yul\":10460:10537   */\n      sub\n        /* \"#utility.yul\":10457:10560   */\n      tag_502\n      jumpi\n        /* \"#utility.yul\":10540:10558   */\n      tag_503\n      tag_366\n      jump\t// in\n    tag_503:\n        /* \"#utility.yul\":10457:10560   */\n    tag_502:\n        /* \"#utility.yul\":10587:10588   */\n      0x01\n        /* \"#utility.yul\":10580:10585   */\n      dup3\n        /* \"#utility.yul\":10576:10589   */\n      add\n        /* \"#utility.yul\":10569:10589   */\n      swap1\n      pop\n        /* \"#utility.yul\":10362:10595   */\n      swap2\n      swap1\n      pop\n      jump\t// out\n        /* \"#utility.yul\":10601:10781   */\n    tag_367:\n        /* \"#utility.yul\":10649:10726   */\n      0x4e487b7100000000000000000000000000000000000000000000000000000000\n        /* \"#utility.yul\":10646:10647   */\n      0x00\n        /* \"#utility.yul\":10639:10727   */\n      mstore\n        /* \"#utility.yul\":10746:10750   */\n      0x22\n        /* \"#utility.yul\":10743:10744   */\n      0x04\n        /* \"#utility.yul\":10736:10751   */\n      mstore\n        /* \"#utility.yul\":10770:10774   */\n      0x24\n        /* \"#utility.yul\":10767:10768   */\n      0x00\n        /* \"#utility.yul\":10760:10775   */\n      revert\n        /* \"#utility.yul\":10787:11107   */\n    tag_117:\n        /* \"#utility.yul\":10831:10837   */\n      0x00\n        /* \"#utility.yul\":10868:10869   */\n      0x02\n        /* \"#utility.yul\":10862:10866   */\n      dup3\n        /* \"#utility.yul\":10858:10870   */\n      div\n        /* \"#utility.yul\":10848:10870   */\n      swap1\n      pop\n        /* \"#utility.yul\":10915:10916   */\n      0x01\n        /* \"#utility.yul\":10909:10913   */\n      dup3\n        /* \"#utility.yul\":10905:10917   */\n      and\n        /* \"#utility.yul\":10936:10954   */\n      dup1\n        /* \"#utility.yul\":10926:11007   */\n      tag_506\n      jumpi\n        /* \"#utility.yul\":10992:10996   */\n      0x7f\n        /* \"#utility.yul\":10984:10990   */\n      dup3\n        /* \"#utility.yul\":10980:10997   */\n      and\n        /* \"#utility.yul\":10970:10997   */\n      swap2\n      pop\n        /* \"#utility.yul\":10926:11007   */\n    tag_506:\n        /* \"#utility.yul\":11054:11056   */\n      0x20\n        /* \"#utility.yul\":11046:11052   */\n      dup3\n        /* \"#utility.yul\":11043:11057   */\n      lt\n        /* \"#utility.yul\":11023:11041   */\n      dup2\n        /* \"#utility.yul\":11020:11058   */\n      sub\n        /* \"#utility.yul\":11017:11101   */\n      tag_507\n      jumpi\n        /* \"#utility.yul\":11073:11091   */\n      tag_508\n      tag_367\n      jump\t// in\n    tag_508:\n        /* \"#utility.yul\":11017:11101   */\n    tag_507:\n        /* \"#utility.yul\":10838:11107   */\n      pop\n        /* \"#utility.yul\":10787:11107   */\n      swap2\n      swap1\n      pop\n      jump\t// out\n        /* \"#utility.yul\":11113:11254   */\n    tag_368:\n        /* \"#utility.yul\":11162:11166   */\n      0x00\n        /* \"#utility.yul\":11185:11188   */\n      dup2\n        /* \"#utility.yul\":11177:11188   */\n      swap1\n      pop\n        /* \"#utility.yul\":11208:11211   */\n      dup2\n        /* \"#utility.yul\":11205:11206   */\n      0x00\n        /* \"#utility.yul\":11198:11212   */\n      mstore\n        /* \"#utility.yul\":11242:11246   */\n      0x20\n        /* \"#utility.yul\":11239:11240   */\n      0x00\n        /* \"#utility.yul\":11229:11247   */\n      keccak256\n        /* \"#utility.yul\":11221:11247   */\n      swap1\n      pop\n        /* \"#utility.yul\":11113:11254   */\n      swap2\n      swap1\n      pop\n      jump\t// out\n        /* \"#utility.yul\":11260:11353   */\n    tag_369:\n        /* \"#utility.yul\":11297:11303   */\n      0x00\n        /* \"#utility.yul\":11344:11346   */\n      0x20\n        /* \"#utility.yul\":11339:11341   */\n      0x1f\n        /* \"#utility.yul\":11332:11337   */\n      dup4\n        /* \"#utility.yul\":11328:11342   */\n      add\n        /* \"#utility.yul\":11324:11347   */\n      div\n        /* \"#utility.yul\":11314:11347   */\n      swap1\n      pop\n        /* \"#utility.yul\":11260:11353   */\n      swap2\n      swap1\n      pop\n      jump\t// out\n        /* \"#utility.yul\":11359:11466   */\n    tag_370:\n        /* \"#utility.yul\":11403:11411   */\n      0x00\n        /* \"#utility.yul\":11453:11458   */\n      dup3\n        /* \"#utility.yul\":11447:11451   */\n      dup3\n        /* \"#utility.yul\":11443:11459   */\n      shl\n        /* \"#utility.yul\":11422:11459   */\n      swap1\n      pop\n        /* \"#utility.yul\":11359:11466   */\n      swap3\n      swap2\n      pop\n      pop\n      jump\t// out\n        /* \"#utility.yul\":11472:11865   */\n    tag_371:\n        /* \"#utility.yul\":11541:11547   */\n      0x00\n        /* \"#utility.yul\":11591:11592   */\n      0x08\n        /* \"#utility.yul\":11579:11589   */\n      dup4\n        /* \"#utility.yul\":11575:11593   */\n      mul\n        /* \"#utility.yul\":11614:11711   */\n      tag_513\n        /* \"#utility.yul\":11644:11710   */\n      0xffffffffffffffffffffffffffffffffffffffffffffffffffffffffffffffff\n        /* \"#utility.yul\":11633:11642   */\n      dup3\n        /* \"#utility.yul\":11614:11711   */\n      tag_370\n      jump\t// in\n    tag_513:\n        /* \"#utility.yul\":11732:11771   */\n      tag_514\n        /* \"#utility.yul\":11762:11770   */\n      dup7\n        /* \"#utility.yul\":11751:11760   */\n      dup4\n        /* \"#utility.yul\":11732:11771   */\n      tag_370\n      jump\t// in\n    tag_514:\n        /* \"#utility.yul\":11720:11771   */\n      swap6\n      pop\n        /* \"#utility.yul\":11804:11808   */\n      dup1\n        /* \"#utility.yul\":11800:11809   */\n      not\n        /* \"#utility.yul\":11793:11798   */\n      dup5\n        /* \"#utility.yul\":11789:11810   */\n      and\n        /* \"#utility.yul\":11780:11810   */\n      swap4\n      pop\n        /* \"#utility.yul\":11853:11857   */\n      dup1\n        /* \"#utility.yul\":11843:11851   */\n      dup7\n        /* \"#utility.yul\":11839:11858   */\n      and\n        /* \"#utility.yul\":11832:11837   */\n      dup5\n        /* \"#utility.yul\":11829:11859   */\n      or\n        /* \"#utility.yul\":11819:11859   */\n      swap3\n      pop\n        /* \"#utility.yul\":11548:11865   */\n      pop\n      pop\n        /* \"#utility.yul\":11472:11865   */\n      swap4\n      swap3\n      pop\n      pop\n      pop\n      jump\t// out\n        /* \"#utility.yul\":11871:11931   */\n    tag_372:\n        /* \"#utility.yul\":11899:11902   */\n      0x00\n        /* \"#utility.yul\":11920:11925   */\n      dup2\n        /* \"#utility.yul\":11913:11925   */\n      swap1\n      pop\n        /* \"#utility.yul\":11871:11931   */\n      swap2\n      swap1\n      pop\n      jump\t// out\n        /* \"#utility.yul\":11937:12079   */\n    tag_373:\n        /* \"#utility.yul\":11987:11996   */\n      0x00\n        /* \"#utility.yul\":12020:12073   */\n      tag_517\n        /* \"#utility.yul\":12038:12072   */\n      tag_518\n        /* \"#utility.yul\":12047:12071   */\n      tag_519\n        /* \"#utility.yul\":12065:12070   */\n      dup5\n        /* \"#utility.yul\":12047:12071   */\n      tag_336\n      jump\t// in\n    tag_519:\n        /* \"#utility.yul\":12038:12072   */\n      tag_372\n      jump\t// in\n    tag_518:\n        /* \"#utility.yul\":12020:12073   */\n      tag_336\n      jump\t// in\n    tag_517:\n        /* \"#utility.yul\":12007:12073   */\n      swap1\n      pop\n        /* \"#utility.yul\":11937:12079   */\n      swap2\n      swap1\n      pop\n      jump\t// out\n        /* \"#utility.yul\":12085:12160   */\n    tag_374:\n        /* \"#utility.yul\":12128:12131   */\n      0x00\n        /* \"#utility.yul\":12149:12154   */\n      dup2\n        /* \"#utility.yul\":12142:12154   */\n      swap1\n      pop\n        /* \"#utility.yul\":12085:12160   */\n      swap2\n      swap1\n      pop\n      jump\t// out\n        /* \"#utility.yul\":12166:12435   */\n    tag_375:\n        /* \"#utility.yul\":12276:12315   */\n      tag_522\n        /* \"#utility.yul\":12307:12314   */\n      dup4\n        /* \"#utility.yul\":12276:12315   */\n      tag_373\n      jump\t// in\n    tag_522:\n        /* \"#utility.yul\":12337:12428   */\n      tag_523\n        /* \"#utility.yul\":12386:12427   */\n      tag_524\n        /* \"#utility.yul\":12410:12426   */\n      dup3\n        /* \"#utility.yul\":12386:12427   */\n      tag_374\n      jump\t// in\n    tag_524:\n        /* \"#utility.yul\":12378:12384   */\n      dup5\n        /* \"#utility.yul\":12371:12375   */\n      dup5\n        /* \"#utility.yul\":12365:12376   */\n      sload\n        /* \"#utility.yul\":12337:12428   */\n      tag_371\n      jump\t// in\n    tag_523:\n        /* \"#utility.yul\":12331:12335   */\n      dup3\n        /* \"#utility.yul\":12324:12429   */\n      sstore\n        /* \"#utility.yul\":12242:12435   */\n      pop\n        /* \"#utility.yul\":12166:12435   */\n      pop\n      pop\n      pop\n      jump\t// out\n        /* \"#utility.yul\":12441:12514   */\n    tag_376:\n        /* \"#utility.yul\":12486:12489   */\n      0x00\n        /* \"#utility.yul\":12441:12514   */\n      swap1\n      jump\t// out\n        /* \"#utility.yul\":12520:12709   */\n    tag_377:\n        /* \"#utility.yul\":12597:12629   */\n      tag_527\n      tag_376\n      jump\t// in\n    tag_527:\n        /* \"#utility.yul\":12638:12703   */\n      tag_528\n        /* \"#utility.yul\":12696:12702   */\n      dup2\n        /* \"#utility.yul\":12688:12694   */\n      dup5\n        /* \"#utility.yul\":12682:12686   */\n      dup5\n        /* \"#utility.yul\":12638:12703   */\n      tag_375\n      jump\t// in\n    tag_528:\n        /* \"#utility.yul\":12573:12709   */\n      pop\n        /* \"#utility.yul\":12520:12709   */\n      pop\n      pop\n      jump\t// out\n        /* \"#utility.yul\":12715:12901   */\n    tag_378:\n        /* \"#utility.yul\":12775:12895   */\n    tag_530:\n        /* \"#utility.yul\":12792:12795   */\n      dup2\n        /* \"#utility.yul\":12785:12790   */\n      dup2\n        /* \"#utility.yul\":12782:12796   */\n      lt\n        /* \"#utility.yul\":12775:12895   */\n      iszero\n      tag_532\n      jumpi\n        /* \"#utility.yul\":12846:12885   */\n      tag_533\n        /* \"#utility.yul\":12883:12884   */\n      0x00\n        /* \"#utility.yul\":12876:12881   */\n      dup3\n        /* \"#utility.yul\":12846:12885   */\n      tag_377\n      jump\t// in\n    tag_533:\n        /* \"#utility.yul\":12819:12820   */\n      0x01\n        /* \"#utility.yul\":12812:12817   */\n      dup2\n        /* \"#utility.yul\":12808:12821   */\n      add\n        /* \"#utility.yul\":12799:12821   */\n      swap1\n      pop\n        /* \"#utility.yul\":12775:12895   */\n      jump(tag_530)\n    tag_532:\n        /* \"#utility.yul\":12715:12901   */\n      pop\n      pop\n      jump\t// out\n        /* \"#utility.yul\":12907:13450   */\n    tag_379:\n        /* \"#utility.yul\":13008:13010   */\n      0x1f\n        /* \"#utility.yul\":13003:13006   */\n      dup3\n        /* \"#utility.yul\":13000:13011   */\n      gt\n        /* \"#utility.yul\":12997:13443   */\n      iszero\n      tag_535\n      jumpi\n        /* \"#utility.yul\":13042:13080   */\n      tag_536\n        /* \"#utility.yul\":13074:13079   */\n      dup2\n        /* \"#utility.yul\":13042:13080   */\n      tag_368\n      jump\t// in\n    tag_536:\n        /* \"#utility.yul\":13126:13155   */\n      tag_537\n        /* \"#utility.yul\":13144:13154   */\n      dup5\n        /* \"#utility.yul\":13126:13155   */\n      tag_369\n      jump\t// in\n    tag_537:\n        /* \"#utility.yul\":13116:13124   */\n      dup2\n        /* \"#utility.yul\":13112:13156   */\n      add\n        /* \"#utility.yul\":13309:13311   */\n      0x20\n        /* \"#utility.yul\":13297:13307   */\n      dup6\n        /* \"#utility.yul\":13294:13312   */\n      lt\n        /* \"#utility.yul\":13291:13340   */\n      iszero\n      tag_538\n      jumpi\n        /* \"#utility.yul\":13330:13338   */\n      dup2\n        /* \"#utility.yul\":13315:13338   */\n      swap1\n      pop\n        /* \"#utility.yul\":13291:13340   */\n    tag_538:\n        /* \"#utility.yul\":13353:13433   */\n      tag_539\n        /* \"#utility.yul\":13409:13431   */\n      tag_540\n        /* \"#utility.yul\":13427:13430   */\n      dup6\n        /* \"#utility.yul\":13409:13431   */\n      tag_369\n      jump\t// in\n    tag_540:\n        /* \"#utility.yul\":13399:13407   */\n      dup4\n        /* \"#utility.yul\":13395:13432   */\n      add\n        /* \"#utility.yul\":13382:13393   */\n      dup3\n        /* \"#utility.yul\":13353:13433   */\n      tag_378\n      jump\t// in\n    tag_539:\n        /* \"#utility.yul\":13012:13443   */\n      pop\n      pop\n        /* \"#utility.yul\":12997:13443   */\n    tag_535:\n        /* \"#utility.yul\":12907:13450   */\n      pop\n      pop\n      pop\n      jump\t// out\n        /* \"#utility.yul\":13456:13573   */\n    tag_380:\n        /* \"#utility.yul\":13510:13518   */\n      0x00\n        /* \"#utility.yul\":13560:13565   */\n      dup3\n        /* \"#utility.yul\":13554:13558   */\n      dup3\n        /* \"#utility.yul\":13550:13566   */\n      shr\n        /* \"#utility.yul\":13529:13566   */\n      swap1\n      pop\n        /* \"#utility.yul\":13456:13573   */\n      swap3\n      swap2\n      pop\n      pop\n      jump\t// out\n        /* \"#utility.yul\":13579:13748   */\n    tag_381:\n        /* \"#utility.yul\":13623:13629   */\n      0x00\n        /* \"#utility.yul\":13656:13707   */\n      tag_543\n        /* \"#utility.yul\":13704:13705   */\n      0x00\n        /* \"#utility.yul\":13700:13706   */\n      not\n        /* \"#utility.yul\":13692:13697   */\n      dup5\n        /* \"#utility.yul\":13689:13690   */\n      0x08\n        /* \"#utility.yul\":13685:13698   */\n      mul\n        /* \"#utility.yul\":13656:13707   */\n      tag_380\n      jump\t// in\n    tag_543:\n        /* \"#utility.yul\":13652:13708   */\n      not\n        /* \"#utility.yul\":13737:13741   */\n      dup1\n        /* \"#utility.yul\":13731:13735   */\n      dup4\n        /* \"#utility.yul\":13727:13742   */\n      and\n        /* \"#utility.yul\":13717:13742   */\n      swap2\n      pop\n        /* \"#utility.yul\":13630:13748   */\n      pop\n        /* \"#utility.yul\":13579:13748   */\n      swap3\n      swap2\n      pop\n      pop\n      jump\t// out\n        /* \"#utility.yul\":13753:14048   */\n    tag_382:\n        /* \"#utility.yul\":13829:13833   */\n      0x00\n        /* \"#utility.yul\":13975:14004   */\n      tag_545\n        /* \"#utility.yul\":14000:14003   */\n      dup4\n        /* \"#utility.yul\":13994:13998   */\n      dup4\n        /* \"#utility.yul\":13975:14004   */\n      tag_381\n      jump\t// in\n    tag_545:\n        /* \"#utility.yul\":13967:14004   */\n      swap2\n      pop\n        /* \"#utility.yul\":14037:14040   */\n      dup3\n        /* \"#utility.yul\":14034:14035   */\n      0x02\n        /* \"#utility.yul\":14030:14041   */\n      mul\n        /* \"#utility.yul\":14024:14028   */\n      dup3\n        /* \"#utility.yul\":14021:14042   */\n      or\n        /* \"#utility.yul\":14013:14042   */\n      swap1\n      pop\n        /* \"#utility.yul\":13753:14048   */\n      swap3\n      swap2\n      pop\n      pop\n      jump\t// out\n        /* \"#utility.yul\":14053:15448   */\n    tag_114:\n        /* \"#utility.yul\":14170:14207   */\n      tag_547\n        /* \"#utility.yul\":14203:14206   */\n      dup3\n        /* \"#utility.yul\":14170:14207   */\n      tag_358\n      jump\t// in\n    tag_547:\n        /* \"#utility.yul\":14272:14290   */\n      0xffffffffffffffff\n        /* \"#utility.yul\":14264:14270   */\n      dup2\n        /* \"#utility.yul\":14261:14291   */\n      gt\n        /* \"#utility.yul\":14258:14314   */\n      iszero\n      tag_548\n      jumpi\n        /* \"#utility.yul\":14294:14312   */\n      tag_549\n      tag_348\n      jump\t// in\n    tag_549:\n        /* \"#utility.yul\":14258:14314   */\n    tag_548:\n        /* \"#utility.yul\":14338:14376   */\n      tag_550\n        /* \"#utility.yul\":14370:14374   */\n      dup3\n        /* \"#utility.yul\":14364:14375   */\n      sload\n        /* \"#utility.yul\":14338:14376   */\n      tag_117\n      jump\t// in\n    tag_550:\n        /* \"#utility.yul\":14423:14490   */\n      tag_551\n        /* \"#utility.yul\":14483:14489   */\n      dup3\n        /* \"#utility.yul\":14475:14481   */\n      dup3\n        /* \"#utility.yul\":14469:14473   */\n      dup6\n        /* \"#utility.yul\":14423:14490   */\n      tag_379\n      jump\t// in\n    tag_551:\n        /* \"#utility.yul\":14517:14518   */\n      0x00\n        /* \"#utility.yul\":14541:14545   */\n      0x20\n        /* \"#utility.yul\":14528:14545   */\n      swap1\n      pop\n        /* \"#utility.yul\":14573:14575   */\n      0x1f\n        /* \"#utility.yul\":14565:14571   */\n      dup4\n        /* \"#utility.yul\":14562:14576   */\n      gt\n        /* \"#utility.yul\":14590:14591   */\n      0x01\n        /* \"#utility.yul\":14585:15203   */\n      dup2\n      eq\n      tag_553\n      jumpi\n        /* \"#utility.yul\":15247:15248   */\n      0x00\n        /* \"#utility.yul\":15264:15270   */\n      dup5\n        /* \"#utility.yul\":15261:15338   */\n      iszero\n      tag_554\n      jumpi\n        /* \"#utility.yul\":15313:15322   */\n      dup3\n        /* \"#utility.yul\":15308:15311   */\n      dup8\n        /* \"#utility.yul\":15304:15323   */\n      add\n        /* \"#utility.yul\":15298:15324   */\n      mload\n        /* \"#utility.yul\":15289:15324   */\n      swap1\n      pop\n        /* \"#utility.yul\":15261:15338   */\n    tag_554:\n        /* \"#utility.yul\":15364:15431   */\n      tag_555\n        /* \"#utility.yul\":15424:15430   */\n      dup6\n        /* \"#utility.yul\":15417:15422   */\n      dup3\n        /* \"#utility.yul\":15364:15431   */\n      tag_382\n      jump\t// in\n    tag_555:\n        /* \"#utility.yul\":15358:15362   */\n      dup7\n        /* \"#utility.yul\":15351:15432   */\n      sstore\n        /* \"#utility.yul\":15220:15442   */\n      pop\n        /* \"#utility.yul\":14555:15442   */\n      jump(tag_552)\n        /* \"#utility.yul\":14585:15203   */\n    tag_553:\n        /* \"#utility.yul\":14637:14641   */\n      0x1f\n        /* \"#utility.yul\":14633:14642   */\n      not\n        /* \"#utility.yul\":14625:14631   */\n      dup5\n        /* \"#utility.yul\":14621:14643   */\n      and\n        /* \"#utility.yul\":14671:14708   */\n      tag_556\n        /* \"#utility.yul\":14703:14707   */\n      dup7\n        /* \"#utility.yul\":14671:14708   */\n      tag_368\n      jump\t// in\n    tag_556:\n        /* \"#utility.yul\":14730:14731   */\n      0x00\n        /* \"#utility.yul\":14744:14952   */\n    tag_557:\n        /* \"#utility.yul\":14758:14765   */\n      dup3\n        /* \"#utility.yul\":14755:14756   */\n      dup2\n        /* \"#utility.yul\":14752:14766   */\n      lt\n        /* \"#utility.yul\":14744:14952   */\n      iszero\n      tag_559\n      jumpi\n        /* \"#utility.yul\":14837:14846   */\n      dup5\n        /* \"#utility.yul\":14832:14835   */\n      dup10\n        /* \"#utility.yul\":14828:14847   */\n      add\n        /* \"#utility.yul\":14822:14848   */\n      mload\n        /* \"#utility.yul\":14814:14820   */\n      dup3\n        /* \"#utility.yul\":14807:14849   */\n      sstore\n        /* \"#utility.yul\":14888:14889   */\n      0x01\n        /* \"#utility.yul\":14880:14886   */\n      dup3\n        /* \"#utility.yul\":14876:14890   */\n      add\n        /* \"#utility.yul\":14866:14890   */\n      swap2\n      pop\n        /* \"#utility.yul\":14935:14937   */\n      0x20\n        /* \"#utility.yul\":14924:14933   */\n      dup6\n        /* \"#utility.yul\":14920:14938   */\n      add\n        /* \"#utility.yul\":14907:14938   */\n      swap5\n      pop\n        /* \"#utility.yul\":14781:14785   */\n      0x20\n        /* \"#utility.yul\":14778:14779   */\n      dup2\n        /* \"#utility.yul\":14774:14786   */\n      add\n        /* \"#utility.yul\":14769:14786   */\n      swap1\n      pop\n        /* \"#utility.yul\":14744:14952   */\n      jump(tag_557)\n    tag_559:\n        /* \"#utility.yul\":14980:14986   */\n      dup7\n        /* \"#utility.yul\":14971:14978   */\n      dup4\n        /* \"#utility.yul\":14968:14987   */\n      lt\n        /* \"#utility.yul\":14965:15144   */\n      iszero\n      tag_560\n      jumpi\n        /* \"#utility.yul\":15038:15047   */\n      dup5\n        /* \"#utility.yul\":15033:15036   */\n      dup10\n        /* \"#utility.yul\":15029:15048   */\n      add\n        /* \"#utility.yul\":15023:15049   */\n      mload\n        /* \"#utility.yul\":15081:15129   */\n      tag_561\n        /* \"#utility.yul\":15123:15127   */\n      0x1f\n        /* \"#utility.yul\":15115:15121   */\n      dup10\n        /* \"#utility.yul\":15111:15128   */\n      and\n        /* \"#utility.yul\":15100:15109   */\n      dup3\n        /* \"#utility.yul\":15081:15129   */\n      tag_381\n      jump\t// in\n    tag_561:\n        /* \"#utility.yul\":15073:15079   */\n      dup4\n        /* \"#utility.yul\":15066:15130   */\n      sstore\n        /* \"#utility.yul\":14988:15144   */\n      pop\n        /* \"#utility.yul\":14965:15144   */\n    tag_560:\n        /* \"#utility.yul\":15190:15191   */\n      0x01\n        /* \"#utility.yul\":15186:15187   */\n      0x02\n        /* \"#utility.yul\":15178:15184   */\n      dup9\n        /* \"#utility.yul\":15174:15188   */\n      mul\n        /* \"#utility.yul\":15170:15192   */\n      add\n        /* \"#utility.yul\":15164:15168   */\n      dup9\n        /* \"#utility.yul\":15157:15193   */\n      sstore\n        /* \"#utility.yul\":14592:15203   */\n      pop\n      pop\n      pop\n        /* \"#utility.yul\":14555:15442   */\n    tag_552:\n      pop\n        /* \"#utility.yul\":14145:15448   */\n      pop\n      pop\n      pop\n        /* \"#utility.yul\":14053:15448   */\n      pop\n      pop\n      jump\t// out\n        /* \"#utility.yul\":15454:15634   */\n    tag_383:\n        /* \"#utility.yul\":15594:15626   */\n      0x4e6f206167726963756c7475726520746f6f6c7320617661696c61626c650000\n        /* \"#utility.yul\":15590:15591   */\n      0x00\n        /* \"#utility.yul\":15582:15588   */\n      dup3\n        /* \"#utility.yul\":15578:15592   */\n      add\n        /* \"#utility.yul\":15571:15627   */\n      mstore\n        /* \"#utility.yul\":15454:15634   */\n      pop\n      jump\t// out\n        /* \"#utility.yul\":15640:16006   */\n    tag_384:\n        /* \"#utility.yul\":15782:15785   */\n      0x00\n        /* \"#utility.yul\":15803:15870   */\n      tag_564\n        /* \"#utility.yul\":15867:15869   */\n      0x1e\n        /* \"#utility.yul\":15862:15865   */\n      dup4\n        /* \"#utility.yul\":15803:15870   */\n      tag_359\n      jump\t// in\n    tag_564:\n        /* \"#utility.yul\":15796:15870   */\n      swap2\n      pop\n        /* \"#utility.yul\":15879:15972   */\n      tag_565\n        /* \"#utility.yul\":15968:15971   */\n      dup3\n        /* \"#utility.yul\":15879:15972   */\n      tag_383\n      jump\t// in\n    tag_565:\n        /* \"#utility.yul\":15997:15999   */\n      0x20\n        /* \"#utility.yul\":15992:15995   */\n      dup3\n        /* \"#utility.yul\":15988:16000   */\n      add\n        /* \"#utility.yul\":15981:16000   */\n      swap1\n      pop\n        /* \"#utility.yul\":15640:16006   */\n      swap2\n      swap1\n      pop\n      jump\t// out\n        /* \"#utility.yul\":16012:16431   */\n    tag_258:\n        /* \"#utility.yul\":16178:16182   */\n      0x00\n        /* \"#utility.yul\":16216:16218   */\n      0x20\n        /* \"#utility.yul\":16205:16214   */\n      dup3\n        /* \"#utility.yul\":16201:16219   */\n      add\n        /* \"#utility.yul\":16193:16219   */\n      swap1\n      pop\n        /* \"#utility.yul\":16265:16274   */\n      dup2\n        /* \"#utility.yul\":16259:16263   */\n      dup2\n        /* \"#utility.yul\":16255:16275   */\n      sub\n        /* \"#utility.yul\":16251:16252   */\n      0x00\n        /* \"#utility.yul\":16240:16249   */\n      dup4\n        /* \"#utility.yul\":16236:16253   */\n      add\n        /* \"#utility.yul\":16229:16276   */\n      mstore\n        /* \"#utility.yul\":16293:16424   */\n      tag_567\n        /* \"#utility.yul\":16419:16423   */\n      dup2\n        /* \"#utility.yul\":16293:16424   */\n      tag_384\n      jump\t// in\n    tag_567:\n        /* \"#utility.yul\":16285:16424   */\n      swap1\n      pop\n        /* \"#utility.yul\":16012:16431   */\n      swap2\n      swap1\n      pop\n      jump\t// out\n        /* \"#utility.yul\":16437:16609   */\n    tag_385:\n        /* \"#utility.yul\":16577:16601   */\n      0x496e76616c6964206167726963756c7475726520494400000000000000000000\n        /* \"#utility.yul\":16573:16574   */\n      0x00\n        /* \"#utility.yul\":16565:16571   */\n      dup3\n        /* \"#utility.yul\":16561:16575   */\n      add\n        /* \"#utility.yul\":16554:16602   */\n      mstore\n        /* \"#utility.yul\":16437:16609   */\n      pop\n      jump\t// out\n        /* \"#utility.yul\":16615:16981   */\n    tag_386:\n        /* \"#utility.yul\":16757:16760   */\n      0x00\n        /* \"#utility.yul\":16778:16845   */\n      tag_570\n        /* \"#utility.yul\":16842:16844   */\n      0x16\n        /* \"#utility.yul\":16837:16840   */\n      dup4\n        /* \"#utility.yul\":16778:16845   */\n      tag_359\n      jump\t// in\n    tag_570:\n        /* \"#utility.yul\":16771:16845   */\n      swap2\n      pop\n        /* \"#utility.yul\":16854:16947   */\n      tag_571\n        /* \"#utility.yul\":16943:16946   */\n      dup3\n        /* \"#utility.yul\":16854:16947   */\n      tag_385\n      jump\t// in\n    tag_571:\n        /* \"#utility.yul\":16972:16974   */\n      0x20\n        /* \"#utility.yul\":16967:16970   */\n      dup3\n        /* \"#utility.yul\":16963:16975   */\n      add\n        /* \"#utility.yul\":16956:16975   */\n      swap1\n      pop\n        /* \"#utility.yul\":16615:16981   */\n      swap2\n      swap1\n      pop\n      jump\t// out\n        /* \"#utility.yul\":16987:17406   */\n    tag_262:\n        /* \"#utility.yul\":17153:17157   */\n      0x00\n        /* \"#utility.yul\":17191:17193   */\n      0x20\n        /* \"#utility.yul\":17180:17189   */\n      dup3\n        /* \"#utility.yul\":17176:17194   */\n      add\n        /* \"#utility.yul\":17168:17194   */\n      swap1\n      pop\n        /* \"#utility.yul\":17240:17249   */\n      dup2\n        /* \"#utility.yul\":17234:17238   */\n      dup2\n        /* \"#utility.yul\":17230:17250   */\n      sub\n        /* \"#utility.yul\":17226:17227   */\n      0x00\n        /* \"#utility.yul\":17215:17224   */\n      dup4\n        /* \"#utility.yul\":17211:17228   */\n      add\n        /* \"#utility.yul\":17204:17251   */\n      mstore\n        /* \"#utility.yul\":17268:17399   */\n      tag_573\n        /* \"#utility.yul\":17394:17398   */\n      dup2\n        /* \"#utility.yul\":17268:17399   */\n      tag_386\n      jump\t// in\n    tag_573:\n        /* \"#utility.yul\":17260:17399   */\n      swap1\n      pop\n        /* \"#utility.yul\":16987:17406   */\n      swap2\n      swap1\n      pop\n      jump\t// out\n    stop\n    data_73844ee127f08613ebe37071089123d7a78eb5f8fbd91acdd219bfc40ebb7998 4167726963756c7475726520746f6f6c2f746563686e69717565204f726465726564\n\n    auxdata: 0xa264697066735822122041c368d04e95e5c94b578649b0fbf14f64df6fa9df2b550939a39eb3795f01d764736f6c634300081a0033\n}\n",
				"bytecode": {
					"linkReferences": {},
					"object": "608060405260006001556000600255600060035560006004556000600555348015602857600080fd5b50336000806101000a81548173ffffffffffffffffffffffffffffffffffffffff021916908373ffffffffffffffffffffffffffffffffffffffff1602179055506127af806100786000396000f3fe608060405234801561001057600080fd5b50600436106101425760003560e01c8063857ddb04116100b8578063b4a99a4e1161007c578063b4a99a4e14610358578063cc00487414610376578063cc40306914610392578063dd286398146103c5578063e101a2e0146103e3578063eef5cb401461041357610142565b8063857ddb04146102b157806386c18275146102cd5780639ba9f1bb146102e95780639c03facb14610320578063a48d335a1461033c57610142565b80633d753a1c1161010a5780633d753a1c146101ee578063438e9c4d1461020a5780634def474a1461022857806359bf286f146102445780636a992c9f146102775780637e43d94d1461029357610142565b8063102464ea146101475780632a4af440146101655780632b0187ac146101815780632b70b08d146101b45780632bdb2e6b146101d0575b600080fd5b61014f610446565b60405161015c9190611dda565b60405180910390f35b61017f600480360381019061017a9190611fad565b61044c565b005b61019b60048036038101906101969190612064565b61058f565b6040516101ab949392919061211f565b60405180910390f35b6101ce60048036038101906101c99190611fad565b6106ef565b005b6101d8610832565b6040516101e59190611dda565b60405180910390f35b61020860048036038101906102039190612064565b610838565b005b61021261091f565b60405161021f9190611dda565b60405180910390f35b610242600480360381019061023d9190612064565b610925565b005b61025e60048036038101906102599190612064565b610a0c565b60405161026e949392919061211f565b60405180910390f35b610291600480360381019061028c9190611fad565b610b6c565b005b61029b610caf565b6040516102a89190611dda565b60405180910390f35b6102cb60048036038101906102c69190611fad565b610cb5565b005b6102e760048036038101906102e29190612064565b610df8565b005b61030360048036038101906102fe9190612064565b610edf565b6040516103179897969594939291906121e9565b60405180910390f35b61033a60048036038101906103359190612064565b611044565b005b61035660048036038101906103519190612064565b611132565b005b610360611219565b60405161036d9190612275565b60405180910390f35b610390600480360381019061038b9190612290565b61123d565b005b6103ac60048036038101906103a79190612064565b6113e3565b6040516103bc949392919061211f565b60405180910390f35b6103cd611543565b6040516103da9190611dda565b60405180910390f35b6103fd60048036038101906103f89190612064565b611549565b60405161040a9190612308565b60405180910390f35b61042d60048036038101906104289190612064565b611949565b60405161043d949392919061211f565b60405180910390f35b60015481565b60008054906101000a900473ffffffffffffffffffffffffffffffffffffffff1673ffffffffffffffffffffffffffffffffffffffff163373ffffffffffffffffffffffffffffffffffffffff16146104a457600080fd5b600460008154809291906104b790612359565b919050555060405180608001604052808473ffffffffffffffffffffffffffffffffffffffff16815260200160045481526020018381526020018281525060096000600454815260200190815260200160002060008201518160000160006101000a81548173ffffffffffffffffffffffffffffffffffffffff021916908373ffffffffffffffffffffffffffffffffffffffff16021790555060208201518160010155604082015181600201908161057091906125ad565b50606082015181600301908161058691906125ad565b50905050505050565b60096020528060005260406000206000915090508060000160009054906101000a900473ffffffffffffffffffffffffffffffffffffffff16908060010154908060020180546105de906123d0565b80601f016020809104026020016040519081016040528092919081815260200182805461060a906123d0565b80156106575780601f1061062c57610100808354040283529160200191610657565b820191906000526020600020905b81548152906001019060200180831161063a57829003601f168201915b50505050509080600301805461066c906123d0565b80601f0160208091040260200160405190810160405280929190818152602001828054610698906123d0565b80156106e55780601f106106ba576101008083540402835291602001916106e5565b820191906000526020600020905b8154815290600101906020018083116106c857829003601f168201915b5050505050905084565b60008054906101000a900473ffffffffffffffffffffffffffffffffffffffff1673ffffffffffffffffffffffffffffffffffffffff163373ffffffffffffffffffffffffffffffffffffffff161461074757600080fd5b6002600081548092919061075a90612359565b919050555060405180608001604052808473ffffffffffffffffffffffffffffffffffffffff16815260200160025481526020018381526020018281525060076000600254815260200190815260200160002060008201518160000160006101000a81548173ffffffffffffffffffffffffffffffffffffffff021916908373ffffffffffffffffffffffffffffffffffffffff16021790555060208201518160010155604082015181600201908161081391906125ad565b50606082015181600301908161082991906125ad565b50905050505050565b60045481565b60008111801561084a57506001548111155b61085357600080fd5b600061085e33611aa9565b90506000811161086d57600080fd5b6003600581111561088157610880612172565b5b6006600084815260200190815260200160002060070160009054906101000a900460ff1660058111156108b7576108b6612172565b5b146108c157600080fd5b80600660008481526020019081526020016000206006018190555060046006600084815260200190815260200160002060070160006101000a81548160ff0219169083600581111561091657610915612172565b5b02179055505050565b60035481565b60008111801561093757506001548111155b61094057600080fd5b600061094b33611b6f565b90506000811161095a57600080fd5b6002600581111561096e5761096d612172565b5b6006600084815260200190815260200160002060070160009054906101000a900460ff1660058111156109a4576109a3612172565b5b146109ae57600080fd5b80600660008481526020019081526020016000206005018190555060036006600084815260200190815260200160002060070160006101000a81548160ff02191690836005811115610a0357610a02612172565b5b02179055505050565b600a6020528060005260406000206000915090508060000160009054906101000a900473ffffffffffffffffffffffffffffffffffffffff1690806001015490806002018054610a5b906123d0565b80601f0160208091040260200160405190810160405280929190818152602001828054610a87906123d0565b8015610ad45780601f10610aa957610100808354040283529160200191610ad4565b820191906000526020600020905b815481529060010190602001808311610ab757829003601f168201915b505050505090806003018054610ae9906123d0565b80601f0160208091040260200160405190810160405280929190818152602001828054610b15906123d0565b8015610b625780601f10610b3757610100808354040283529160200191610b62565b820191906000526020600020905b815481529060010190602001808311610b4557829003601f168201915b5050505050905084565b60008054906101000a900473ffffffffffffffffffffffffffffffffffffffff1673ffffffffffffffffffffffffffffffffffffffff163373ffffffffffffffffffffffffffffffffffffffff1614610bc457600080fd5b60036000815480929190610bd790612359565b919050555060405180608001604052808473ffffffffffffffffffffffffffffffffffffffff16815260200160035481526020018381526020018281525060086000600354815260200190815260200160002060008201518160000160006101000a81548173ffffffffffffffffffffffffffffffffffffffff021916908373ffffffffffffffffffffffffffffffffffffffff160217905550602082015181600101556040820151816002019081610c9091906125ad565b506060820151816003019081610ca691906125ad565b50905050505050565b60055481565b60008054906101000a900473ffffffffffffffffffffffffffffffffffffffff1673ffffffffffffffffffffffffffffffffffffffff163373ffffffffffffffffffffffffffffffffffffffff1614610d0d57600080fd5b60056000815480929190610d2090612359565b919050555060405180608001604052808473ffffffffffffffffffffffffffffffffffffffff168152602001600554815260200183815260200182815250600a6000600554815260200190815260200160002060008201518160000160006101000a81548173ffffffffffffffffffffffffffffffffffffffff021916908373ffffffffffffffffffffffffffffffffffffffff160217905550602082015181600101556040820151816002019081610dd991906125ad565b506060820151816003019081610def91906125ad565b50905050505050565b600081118015610e0a57506001548111155b610e1357600080fd5b6000610e1e33611c35565b905060008111610e2d57600080fd5b60006005811115610e4157610e40612172565b5b6006600084815260200190815260200160002060070160009054906101000a900460ff166005811115610e7757610e76612172565b5b14610e8157600080fd5b80600660008481526020019081526020016000206003018190555060016006600084815260200190815260200160002060070160006101000a81548160ff02191690836005811115610ed657610ed5612172565b5b02179055505050565b6006602052806000526040600020600091509050806000015490806001018054610f08906123d0565b80601f0160208091040260200160405190810160405280929190818152602001828054610f34906123d0565b8015610f815780601f10610f5657610100808354040283529160200191610f81565b820191906000526020600020905b815481529060010190602001808311610f6457829003601f168201915b505050505090806002018054610f96906123d0565b80601f0160208091040260200160405190810160405280929190818152602001828054610fc2906123d0565b801561100f5780601f10610fe45761010080835404028352916020019161100f565b820191906000526020600020905b815481529060010190602001808311610ff257829003601f168201915b5050505050908060030154908060040154908060050154908060060154908060070160009054906101000a900460ff16905088565b60008111801561105657506001548111155b61105f57600080fd5b600061106a33611aa9565b90506000811161107957600080fd5b6006600083815260200190815260200160002060060154811461109b57600080fd5b600460058111156110af576110ae612172565b5b6006600084815260200190815260200160002060070160009054906101000a900460ff1660058111156110e5576110e4612172565b5b146110ef57600080fd5b60056006600084815260200190815260200160002060070160006101000a81548160ff0219169083600581111561112957611128612172565b5b02179055505050565b60008111801561114457506001548111155b61114d57600080fd5b600061115833611cfb565b90506000811161116757600080fd5b6001600581111561117b5761117a612172565b5b6006600084815260200190815260200160002060070160009054906101000a900460ff1660058111156111b1576111b0612172565b5b146111bb57600080fd5b80600660008481526020019081526020016000206004018190555060026006600084815260200190815260200160002060070160006101000a81548160ff021916908360058111156112105761120f612172565b5b02179055505050565b60008054906101000a900473ffffffffffffffffffffffffffffffffffffffff1681565b60008054906101000a900473ffffffffffffffffffffffffffffffffffffffff1673ffffffffffffffffffffffffffffffffffffffff163373ffffffffffffffffffffffffffffffffffffffff161461129557600080fd5b60006002541180156112a957506000600354115b80156112b757506000600454115b80156112c557506000600554115b6112ce57600080fd5b600160008154809291906112e190612359565b91905055506040518061010001604052806001548152602001838152602001828152602001600081526020016000815260200160008152602001600081526020016000600581111561133657611335612172565b5b81525060066000600154815260200190815260200160002060008201518160000155602082015181600101908161136d91906125ad565b50604082015181600201908161138391906125ad565b50606082015181600301556080820151816004015560a0820151816005015560c0820151816006015560e08201518160070160006101000a81548160ff021916908360058111156113d7576113d6612172565b5b02179055509050505050565b60086020528060005260406000206000915090508060000160009054906101000a900473ffffffffffffffffffffffffffffffffffffffff1690806001015490806002018054611432906123d0565b80601f016020809104026020016040519081016040528092919081815260200182805461145e906123d0565b80156114ab5780601f10611480576101008083540402835291602001916114ab565b820191906000526020600020905b81548152906001019060200180831161148e57829003601f168201915b5050505050908060030180546114c0906123d0565b80601f01602080910402602001604051908101604052809291908181526020018280546114ec906123d0565b80156115395780601f1061150e57610100808354040283529160200191611539565b820191906000526020600020905b81548152906001019060200180831161151c57829003601f168201915b5050505050905084565b60025481565b6060600060015411611590576040517f08c379a0000000000000000000000000000000000000000000000000000000008152600401611587906126cb565b60405180910390fd5b6000821180156115a257506001548211155b6115e1576040517f08c379a00000000000000000000000000000000000000000000000000000000081526004016115d890612737565b60405180910390fd5b600060058111156115f5576115f4612172565b5b6006600084815260200190815260200160002060070160009054906101000a900460ff16600581111561162b5761162a612172565b5b0361165057604051806060016040528060228152602001612758602291399050611944565b6001600581111561166457611663612172565b5b6006600084815260200190815260200160002060070160009054906101000a900460ff16600581111561169a57611699612172565b5b036116dc576040518060400160405280601981526020017f526177204d6174657269616c20537570706c79205374616765000000000000008152509050611944565b600260058111156116f0576116ef612172565b5b6006600084815260200190815260200160002060070160009054906101000a900460ff16600581111561172657611725612172565b5b03611768576040518060400160405280601381526020017f4d616e75666163747572696e67205374616765000000000000000000000000008152509050611944565b6003600581111561177c5761177b612172565b5b6006600084815260200190815260200160002060070160009054906101000a900460ff1660058111156117b2576117b1612172565b5b036117f4576040518060400160405280601281526020017f446973747269627574696f6e20537461676500000000000000000000000000008152509050611944565b6004600581111561180857611807612172565b5b6006600084815260200190815260200160002060070160009054906101000a900460ff16600581111561183e5761183d612172565b5b03611880576040518060400160405280600c81526020017f52657461696c20537461676500000000000000000000000000000000000000008152509050611944565b60058081111561189357611892612172565b5b6006600084815260200190815260200160002060070160009054906101000a900460ff1660058111156118c9576118c8612172565b5b0361190b576040518060400160405280601f81526020017f4167726963756c7475726520746f6f6c2f746563686e6971756520536f6c64008152509050611944565b6040518060400160405280600f81526020017f5374616765206e6f7420666f756e64000000000000000000000000000000000081525090505b919050565b60076020528060005260406000206000915090508060000160009054906101000a900473ffffffffffffffffffffffffffffffffffffffff1690806001015490806002018054611998906123d0565b80601f01602080910402602001604051908101604052809291908181526020018280546119c4906123d0565b8015611a115780601f106119e657610100808354040283529160200191611a11565b820191906000526020600020905b8154815290600101906020018083116119f457829003601f168201915b505050505090806003018054611a26906123d0565b80601f0160208091040260200160405190810160405280929190818152602001828054611a52906123d0565b8015611a9f5780601f10611a7457610100808354040283529160200191611a9f565b820191906000526020600020905b815481529060010190602001808311611a8257829003601f168201915b5050505050905084565b60008060055411611ab957600080fd5b6000600190505b6005548111611b64578273ffffffffffffffffffffffffffffffffffffffff16600a600083815260200190815260200160002060000160009054906101000a900473ffffffffffffffffffffffffffffffffffffffff1673ffffffffffffffffffffffffffffffffffffffff1603611b5157600a600082815260200190815260200160002060010154915050611b6a565b8080611b5c90612359565b915050611ac0565b50600090505b919050565b60008060045411611b7f57600080fd5b6000600190505b6004548111611c2a578273ffffffffffffffffffffffffffffffffffffffff166009600083815260200190815260200160002060000160009054906101000a900473ffffffffffffffffffffffffffffffffffffffff1673ffffffffffffffffffffffffffffffffffffffff1603611c17576009600082815260200190815260200160002060010154915050611c30565b8080611c2290612359565b915050611b86565b50600090505b919050565b60008060025411611c4557600080fd5b6000600190505b6002548111611cf0578273ffffffffffffffffffffffffffffffffffffffff166007600083815260200190815260200160002060000160009054906101000a900473ffffffffffffffffffffffffffffffffffffffff1673ffffffffffffffffffffffffffffffffffffffff1603611cdd576007600082815260200190815260200160002060010154915050611cf6565b8080611ce890612359565b915050611c4c565b50600090505b919050565b60008060035411611d0b57600080fd5b6000600190505b6003548111611db6578273ffffffffffffffffffffffffffffffffffffffff166008600083815260200190815260200160002060000160009054906101000a900473ffffffffffffffffffffffffffffffffffffffff1673ffffffffffffffffffffffffffffffffffffffff1603611da3576008600082815260200190815260200160002060010154915050611dbc565b8080611dae90612359565b915050611d12565b50600090505b919050565b6000819050919050565b611dd481611dc1565b82525050565b6000602082019050611def6000830184611dcb565b92915050565b6000604051905090565b600080fd5b600080fd5b600073ffffffffffffffffffffffffffffffffffffffff82169050919050565b6000611e3482611e09565b9050919050565b611e4481611e29565b8114611e4f57600080fd5b50565b600081359050611e6181611e3b565b92915050565b600080fd5b600080fd5b6000601f19601f8301169050919050565b7f4e487b7100000000000000000000000000000000000000000000000000000000600052604160045260246000fd5b611eba82611e71565b810181811067ffffffffffffffff82111715611ed957611ed8611e82565b5b80604052505050565b6000611eec611df5565b9050611ef88282611eb1565b919050565b600067ffffffffffffffff821115611f1857611f17611e82565b5b611f2182611e71565b9050602081019050919050565b82818337600083830152505050565b6000611f50611f4b84611efd565b611ee2565b905082815260208101848484011115611f6c57611f6b611e6c565b5b611f77848285611f2e565b509392505050565b600082601f830112611f9457611f93611e67565b5b8135611fa4848260208601611f3d565b91505092915050565b600080600060608486031215611fc657611fc5611dff565b5b6000611fd486828701611e52565b935050602084013567ffffffffffffffff811115611ff557611ff4611e04565b5b61200186828701611f7f565b925050604084013567ffffffffffffffff81111561202257612021611e04565b5b61202e86828701611f7f565b9150509250925092565b61204181611dc1565b811461204c57600080fd5b50565b60008135905061205e81612038565b92915050565b60006020828403121561207a57612079611dff565b5b60006120888482850161204f565b91505092915050565b61209a81611e29565b82525050565b600081519050919050565b600082825260208201905092915050565b60005b838110156120da5780820151818401526020810190506120bf565b60008484015250505050565b60006120f1826120a0565b6120fb81856120ab565b935061210b8185602086016120bc565b61211481611e71565b840191505092915050565b60006080820190506121346000830187612091565b6121416020830186611dcb565b818103604083015261215381856120e6565b9050818103606083015261216781846120e6565b905095945050505050565b7f4e487b7100000000000000000000000000000000000000000000000000000000600052602160045260246000fd5b600681106121b2576121b1612172565b5b50565b60008190506121c3826121a1565b919050565b60006121d3826121b5565b9050919050565b6121e3816121c8565b82525050565b6000610100820190506121ff600083018b611dcb565b8181036020830152612211818a6120e6565b9050818103604083015261222581896120e6565b90506122346060830188611dcb565b6122416080830187611dcb565b61224e60a0830186611dcb565b61225b60c0830185611dcb565b61226860e08301846121da565b9998505050505050505050565b600060208201905061228a6000830184612091565b92915050565b600080604083850312156122a7576122a6611dff565b5b600083013567ffffffffffffffff8111156122c5576122c4611e04565b5b6122d185828601611f7f565b925050602083013567ffffffffffffffff8111156122f2576122f1611e04565b5b6122fe85828601611f7f565b9150509250929050565b6000602082019050818103600083015261232281846120e6565b905092915050565b7f4e487b7100000000000000000000000000000000000000000000000000000000600052601160045260246000fd5b600061236482611dc1565b91507fffffffffffffffffffffffffffffffffffffffffffffffffffffffffffffffff82036123965761239561232a565b5b600182019050919050565b7f4e487b7100000000000000000000000000000000000000000000000000000000600052602260045260246000fd5b600060028204905060018216806123e857607f821691505b6020821081036123fb576123fa6123a1565b5b50919050565b60008190508160005260206000209050919050565b60006020601f8301049050919050565b600082821b905092915050565b6000600883026124637fffffffffffffffffffffffffffffffffffffffffffffffffffffffffffffffff82612426565b61246d8683612426565b95508019841693508086168417925050509392505050565b6000819050919050565b60006124aa6124a56124a084611dc1565b612485565b611dc1565b9050919050565b6000819050919050565b6124c48361248f565b6124d86124d0826124b1565b848454612433565b825550505050565b600090565b6124ed6124e0565b6124f88184846124bb565b505050565b5b8181101561251c576125116000826124e5565b6001810190506124fe565b5050565b601f8211156125615761253281612401565b61253b84612416565b8101602085101561254a578190505b61255e61255685612416565b8301826124fd565b50505b505050565b600082821c905092915050565b600061258460001984600802612566565b1980831691505092915050565b600061259d8383612573565b9150826002028217905092915050565b6125b6826120a0565b67ffffffffffffffff8111156125cf576125ce611e82565b5b6125d982546123d0565b6125e4828285612520565b600060209050601f8311600181146126175760008415612605578287015190505b61260f8582612591565b865550612677565b601f19841661262586612401565b60005b8281101561264d57848901518255600182019150602085019450602081019050612628565b8683101561266a5784890151612666601f891682612573565b8355505b6001600288020188555050505b505050505050565b7f4e6f206167726963756c7475726520746f6f6c7320617661696c61626c650000600082015250565b60006126b5601e836120ab565b91506126c08261267f565b602082019050919050565b600060208201905081810360008301526126e4816126a8565b9050919050565b7f496e76616c6964206167726963756c7475726520494400000000000000000000600082015250565b60006127216016836120ab565b915061272c826126eb565b602082019050919050565b6000602082019050818103600083015261275081612714565b905091905056fe4167726963756c7475726520746f6f6c2f746563686e69717565204f726465726564a264697066735822122041c368d04e95e5c94b578649b0fbf14f64df6fa9df2b550939a39eb3795f01d764736f6c634300081a0033",
					"opcodes": "PUSH1 0x80 PUSH1 0x40 MSTORE PUSH1 0x0 PUSH1 0x1 SSTORE PUSH1 0x0 PUSH1 0x2 SSTORE PUSH1 0x0 PUSH1 0x3 SSTORE PUSH1 0x0 PUSH1 0x4 SSTORE PUSH1 0x0 PUSH1 0x5 SSTORE CALLVALUE DUP1 ISZERO PUSH1 0x28 JUMPI PUSH1 0x0 DUP1 REVERT JUMPDEST POP CALLER PUSH1 0x0 DUP1 PUSH2 0x100 EXP DUP2 SLOAD DUP2 PUSH20 0xFFFFFFFFFFFFFFFFFFFFFFFFFFFFFFFFFFFFFFFF MUL NOT AND SWAP1 DUP4 PUSH20 0xFFFFFFFFFFFFFFFFFFFFFFFFFFFFFFFFFFFFFFFF AND MUL OR SWAP1 SSTORE POP PUSH2 0x27AF DUP1 PUSH2 0x78 PUSH1 0x0 CODECOPY PUSH1 0x0 RETURN INVALID PUSH1 0x80 PUSH1 0x40 MSTORE CALLVALUE DUP1 ISZERO PUSH2 0x10 JUMPI PUSH1 0x0 DUP1 REVERT JUMPDEST POP PUSH1 0x4 CALLDATASIZE LT PUSH2 0x142 JUMPI PUSH1 0x0 CALLDATALOAD PUSH1 0xE0 SHR DUP1 PUSH4 0x857DDB04 GT PUSH2 0xB8 JUMPI DUP1 PUSH4 0xB4A99A4E GT PUSH2 0x7C JUMPI DUP1 PUSH4 0xB4A99A4E EQ PUSH2 0x358 JUMPI DUP1 PUSH4 0xCC004874 EQ PUSH2 0x376 JUMPI DUP1 PUSH4 0xCC403069 EQ PUSH2 0x392 JUMPI DUP1 PUSH4 0xDD286398 EQ PUSH2 0x3C5 JUMPI DUP1 PUSH4 0xE101A2E0 EQ PUSH2 0x3E3 JUMPI DUP1 PUSH4 0xEEF5CB40 EQ PUSH2 0x413 JUMPI PUSH2 0x142 JUMP JUMPDEST DUP1 PUSH4 0x857DDB04 EQ PUSH2 0x2B1 JUMPI DUP1 PUSH4 0x86C18275 EQ PUSH2 0x2CD JUMPI DUP1 PUSH4 0x9BA9F1BB EQ PUSH2 0x2E9 JUMPI DUP1 PUSH4 0x9C03FACB EQ PUSH2 0x320 JUMPI DUP1 PUSH4 0xA48D335A EQ PUSH2 0x33C JUMPI PUSH2 0x142 JUMP JUMPDEST DUP1 PUSH4 0x3D753A1C GT PUSH2 0x10A JUMPI DUP1 PUSH4 0x3D753A1C EQ PUSH2 0x1EE JUMPI DUP1 PUSH4 0x438E9C4D EQ PUSH2 0x20A JUMPI DUP1 PUSH4 0x4DEF474A EQ PUSH2 0x228 JUMPI DUP1 PUSH4 0x59BF286F EQ PUSH2 0x244 JUMPI DUP1 PUSH4 0x6A992C9F EQ PUSH2 0x277 JUMPI DUP1 PUSH4 0x7E43D94D EQ PUSH2 0x293 JUMPI PUSH2 0x142 JUMP JUMPDEST DUP1 PUSH4 0x102464EA EQ PUSH2 0x147 JUMPI DUP1 PUSH4 0x2A4AF440 EQ PUSH2 0x165 JUMPI DUP1 PUSH4 0x2B0187AC EQ PUSH2 0x181 JUMPI DUP1 PUSH4 0x2B70B08D EQ PUSH2 0x1B4 JUMPI DUP1 PUSH4 0x2BDB2E6B EQ PUSH2 0x1D0 JUMPI JUMPDEST PUSH1 0x0 DUP1 REVERT JUMPDEST PUSH2 0x14F PUSH2 0x446 JUMP JUMPDEST PUSH1 0x40 MLOAD PUSH2 0x15C SWAP2 SWAP1 PUSH2 0x1DDA JUMP JUMPDEST PUSH1 0x40 MLOAD DUP1 SWAP2 SUB SWAP1 RETURN JUMPDEST PUSH2 0x17F PUSH1 0x4 DUP1 CALLDATASIZE SUB DUP2 ADD SWAP1 PUSH2 0x17A SWAP2 SWAP1 PUSH2 0x1FAD JUMP JUMPDEST PUSH2 0x44C JUMP JUMPDEST STOP JUMPDEST PUSH2 0x19B PUSH1 0x4 DUP1 CALLDATASIZE SUB DUP2 ADD SWAP1 PUSH2 0x196 SWAP2 SWAP1 PUSH2 0x2064 JUMP JUMPDEST PUSH2 0x58F JUMP JUMPDEST PUSH1 0x40 MLOAD PUSH2 0x1AB SWAP5 SWAP4 SWAP3 SWAP2 SWAP1 PUSH2 0x211F JUMP JUMPDEST PUSH1 0x40 MLOAD DUP1 SWAP2 SUB SWAP1 RETURN JUMPDEST PUSH2 0x1CE PUSH1 0x4 DUP1 CALLDATASIZE SUB DUP2 ADD SWAP1 PUSH2 0x1C9 SWAP2 SWAP1 PUSH2 0x1FAD JUMP JUMPDEST PUSH2 0x6EF JUMP JUMPDEST STOP JUMPDEST PUSH2 0x1D8 PUSH2 0x832 JUMP JUMPDEST PUSH1 0x40 MLOAD PUSH2 0x1E5 SWAP2 SWAP1 PUSH2 0x1DDA JUMP JUMPDEST PUSH1 0x40 MLOAD DUP1 SWAP2 SUB SWAP1 RETURN JUMPDEST PUSH2 0x208 PUSH1 0x4 DUP1 CALLDATASIZE SUB DUP2 ADD SWAP1 PUSH2 0x203 SWAP2 SWAP1 PUSH2 0x2064 JUMP JUMPDEST PUSH2 0x838 JUMP JUMPDEST STOP JUMPDEST PUSH2 0x212 PUSH2 0x91F JUMP JUMPDEST PUSH1 0x40 MLOAD PUSH2 0x21F SWAP2 SWAP1 PUSH2 0x1DDA JUMP JUMPDEST PUSH1 0x40 MLOAD DUP1 SWAP2 SUB SWAP1 RETURN JUMPDEST PUSH2 0x242 PUSH1 0x4 DUP1 CALLDATASIZE SUB DUP2 ADD SWAP1 PUSH2 0x23D SWAP2 SWAP1 PUSH2 0x2064 JUMP JUMPDEST PUSH2 0x925 JUMP JUMPDEST STOP JUMPDEST PUSH2 0x25E PUSH1 0x4 DUP1 CALLDATASIZE SUB DUP2 ADD SWAP1 PUSH2 0x259 SWAP2 SWAP1 PUSH2 0x2064 JUMP JUMPDEST PUSH2 0xA0C JUMP JUMPDEST PUSH1 0x40 MLOAD PUSH2 0x26E SWAP5 SWAP4 SWAP3 SWAP2 SWAP1 PUSH2 0x211F JUMP JUMPDEST PUSH1 0x40 MLOAD DUP1 SWAP2 SUB SWAP1 RETURN JUMPDEST PUSH2 0x291 PUSH1 0x4 DUP1 CALLDATASIZE SUB DUP2 ADD SWAP1 PUSH2 0x28C SWAP2 SWAP1 PUSH2 0x1FAD JUMP JUMPDEST PUSH2 0xB6C JUMP JUMPDEST STOP JUMPDEST PUSH2 0x29B PUSH2 0xCAF JUMP JUMPDEST PUSH1 0x40 MLOAD PUSH2 0x2A8 SWAP2 SWAP1 PUSH2 0x1DDA JUMP JUMPDEST PUSH1 0x40 MLOAD DUP1 SWAP2 SUB SWAP1 RETURN JUMPDEST PUSH2 0x2CB PUSH1 0x4 DUP1 CALLDATASIZE SUB DUP2 ADD SWAP1 PUSH2 0x2C6 SWAP2 SWAP1 PUSH2 0x1FAD JUMP JUMPDEST PUSH2 0xCB5 JUMP JUMPDEST STOP JUMPDEST PUSH2 0x2E7 PUSH1 0x4 DUP1 CALLDATASIZE SUB DUP2 ADD SWAP1 PUSH2 0x2E2 SWAP2 SWAP1 PUSH2 0x2064 JUMP JUMPDEST PUSH2 0xDF8 JUMP JUMPDEST STOP JUMPDEST PUSH2 0x303 PUSH1 0x4 DUP1 CALLDATASIZE SUB DUP2 ADD SWAP1 PUSH2 0x2FE SWAP2 SWAP1 PUSH2 0x2064 JUMP JUMPDEST PUSH2 0xEDF JUMP JUMPDEST PUSH1 0x40 MLOAD PUSH2 0x317 SWAP9 SWAP8 SWAP7 SWAP6 SWAP5 SWAP4 SWAP3 SWAP2 SWAP1 PUSH2 0x21E9 JUMP JUMPDEST PUSH1 0x40 MLOAD DUP1 SWAP2 SUB SWAP1 RETURN JUMPDEST PUSH2 0x33A PUSH1 0x4 DUP1 CALLDATASIZE SUB DUP2 ADD SWAP1 PUSH2 0x335 SWAP2 SWAP1 PUSH2 0x2064 JUMP JUMPDEST PUSH2 0x1044 JUMP JUMPDEST STOP JUMPDEST PUSH2 0x356 PUSH1 0x4 DUP1 CALLDATASIZE SUB DUP2 ADD SWAP1 PUSH2 0x351 SWAP2 SWAP1 PUSH2 0x2064 JUMP JUMPDEST PUSH2 0x1132 JUMP JUMPDEST STOP JUMPDEST PUSH2 0x360 PUSH2 0x1219 JUMP JUMPDEST PUSH1 0x40 MLOAD PUSH2 0x36D SWAP2 SWAP1 PUSH2 0x2275 JUMP JUMPDEST PUSH1 0x40 MLOAD DUP1 SWAP2 SUB SWAP1 RETURN JUMPDEST PUSH2 0x390 PUSH1 0x4 DUP1 CALLDATASIZE SUB DUP2 ADD SWAP1 PUSH2 0x38B SWAP2 SWAP1 PUSH2 0x2290 JUMP JUMPDEST PUSH2 0x123D JUMP JUMPDEST STOP JUMPDEST PUSH2 0x3AC PUSH1 0x4 DUP1 CALLDATASIZE SUB DUP2 ADD SWAP1 PUSH2 0x3A7 SWAP2 SWAP1 PUSH2 0x2064 JUMP JUMPDEST PUSH2 0x13E3 JUMP JUMPDEST PUSH1 0x40 MLOAD PUSH2 0x3BC SWAP5 SWAP4 SWAP3 SWAP2 SWAP1 PUSH2 0x211F JUMP JUMPDEST PUSH1 0x40 MLOAD DUP1 SWAP2 SUB SWAP1 RETURN JUMPDEST PUSH2 0x3CD PUSH2 0x1543 JUMP JUMPDEST PUSH1 0x40 MLOAD PUSH2 0x3DA SWAP2 SWAP1 PUSH2 0x1DDA JUMP JUMPDEST PUSH1 0x40 MLOAD DUP1 SWAP2 SUB SWAP1 RETURN JUMPDEST PUSH2 0x3FD PUSH1 0x4 DUP1 CALLDATASIZE SUB DUP2 ADD SWAP1 PUSH2 0x3F8 SWAP2 SWAP1 PUSH2 0x2064 JUMP JUMPDEST PUSH2 0x1549 JUMP JUMPDEST PUSH1 0x40 MLOAD PUSH2 0x40A SWAP2 SWAP1 PUSH2 0x2308 JUMP JUMPDEST PUSH1 0x40 MLOAD DUP1 SWAP2 SUB SWAP1 RETURN JUMPDEST PUSH2 0x42D PUSH1 0x4 DUP1 CALLDATASIZE SUB DUP2 ADD SWAP1 PUSH2 0x428 SWAP2 SWAP1 PUSH2 0x2064 JUMP JUMPDEST PUSH2 0x1949 JUMP JUMPDEST PUSH1 0x40 MLOAD PUSH2 0x43D SWAP5 SWAP4 SWAP3 SWAP2 SWAP1 PUSH2 0x211F JUMP JUMPDEST PUSH1 0x40 MLOAD DUP1 SWAP2 SUB SWAP1 RETURN JUMPDEST PUSH1 0x1 SLOAD DUP2 JUMP JUMPDEST PUSH1 0x0 DUP1 SLOAD SWAP1 PUSH2 0x100 EXP SWAP1 DIV PUSH20 0xFFFFFFFFFFFFFFFFFFFFFFFFFFFFFFFFFFFFFFFF AND PUSH20 0xFFFFFFFFFFFFFFFFFFFFFFFFFFFFFFFFFFFFFFFF AND CALLER PUSH20 0xFFFFFFFFFFFFFFFFFFFFFFFFFFFFFFFFFFFFFFFF AND EQ PUSH2 0x4A4 JUMPI PUSH1 0x0 DUP1 REVERT JUMPDEST PUSH1 0x4 PUSH1 0x0 DUP2 SLOAD DUP1 SWAP3 SWAP2 SWAP1 PUSH2 0x4B7 SWAP1 PUSH2 0x2359 JUMP JUMPDEST SWAP2 SWAP1 POP SSTORE POP PUSH1 0x40 MLOAD DUP1 PUSH1 0x80 ADD PUSH1 0x40 MSTORE DUP1 DUP5 PUSH20 0xFFFFFFFFFFFFFFFFFFFFFFFFFFFFFFFFFFFFFFFF AND DUP2 MSTORE PUSH1 0x20 ADD PUSH1 0x4 SLOAD DUP2 MSTORE PUSH1 0x20 ADD DUP4 DUP2 MSTORE PUSH1 0x20 ADD DUP3 DUP2 MSTORE POP PUSH1 0x9 PUSH1 0x0 PUSH1 0x4 SLOAD DUP2 MSTORE PUSH1 0x20 ADD SWAP1 DUP2 MSTORE PUSH1 0x20 ADD PUSH1 0x0 KECCAK256 PUSH1 0x0 DUP3 ADD MLOAD DUP2 PUSH1 0x0 ADD PUSH1 0x0 PUSH2 0x100 EXP DUP2 SLOAD DUP2 PUSH20 0xFFFFFFFFFFFFFFFFFFFFFFFFFFFFFFFFFFFFFFFF MUL NOT AND SWAP1 DUP4 PUSH20 0xFFFFFFFFFFFFFFFFFFFFFFFFFFFFFFFFFFFFFFFF AND MUL OR SWAP1 SSTORE POP PUSH1 0x20 DUP3 ADD MLOAD DUP2 PUSH1 0x1 ADD SSTORE PUSH1 0x40 DUP3 ADD MLOAD DUP2 PUSH1 0x2 ADD SWAP1 DUP2 PUSH2 0x570 SWAP2 SWAP1 PUSH2 0x25AD JUMP JUMPDEST POP PUSH1 0x60 DUP3 ADD MLOAD DUP2 PUSH1 0x3 ADD SWAP1 DUP2 PUSH2 0x586 SWAP2 SWAP1 PUSH2 0x25AD JUMP JUMPDEST POP SWAP1 POP POP POP POP POP JUMP JUMPDEST PUSH1 0x9 PUSH1 0x20 MSTORE DUP1 PUSH1 0x0 MSTORE PUSH1 0x40 PUSH1 0x0 KECCAK256 PUSH1 0x0 SWAP2 POP SWAP1 POP DUP1 PUSH1 0x0 ADD PUSH1 0x0 SWAP1 SLOAD SWAP1 PUSH2 0x100 EXP SWAP1 DIV PUSH20 0xFFFFFFFFFFFFFFFFFFFFFFFFFFFFFFFFFFFFFFFF AND SWAP1 DUP1 PUSH1 0x1 ADD SLOAD SWAP1 DUP1 PUSH1 0x2 ADD DUP1 SLOAD PUSH2 0x5DE SWAP1 PUSH2 0x23D0 JUMP JUMPDEST DUP1 PUSH1 0x1F ADD PUSH1 0x20 DUP1 SWAP2 DIV MUL PUSH1 0x20 ADD PUSH1 0x40 MLOAD SWAP1 DUP2 ADD PUSH1 0x40 MSTORE DUP1 SWAP3 SWAP2 SWAP1 DUP2 DUP2 MSTORE PUSH1 0x20 ADD DUP3 DUP1 SLOAD PUSH2 0x60A SWAP1 PUSH2 0x23D0 JUMP JUMPDEST DUP1 ISZERO PUSH2 0x657 JUMPI DUP1 PUSH1 0x1F LT PUSH2 0x62C JUMPI PUSH2 0x100 DUP1 DUP4 SLOAD DIV MUL DUP4 MSTORE SWAP2 PUSH1 0x20 ADD SWAP2 PUSH2 0x657 JUMP JUMPDEST DUP3 ADD SWAP2 SWAP1 PUSH1 0x0 MSTORE PUSH1 0x20 PUSH1 0x0 KECCAK256 SWAP1 JUMPDEST DUP2 SLOAD DUP2 MSTORE SWAP1 PUSH1 0x1 ADD SWAP1 PUSH1 0x20 ADD DUP1 DUP4 GT PUSH2 0x63A JUMPI DUP3 SWAP1 SUB PUSH1 0x1F AND DUP3 ADD SWAP2 JUMPDEST POP POP POP POP POP SWAP1 DUP1 PUSH1 0x3 ADD DUP1 SLOAD PUSH2 0x66C SWAP1 PUSH2 0x23D0 JUMP JUMPDEST DUP1 PUSH1 0x1F ADD PUSH1 0x20 DUP1 SWAP2 DIV MUL PUSH1 0x20 ADD PUSH1 0x40 MLOAD SWAP1 DUP2 ADD PUSH1 0x40 MSTORE DUP1 SWAP3 SWAP2 SWAP1 DUP2 DUP2 MSTORE PUSH1 0x20 ADD DUP3 DUP1 SLOAD PUSH2 0x698 SWAP1 PUSH2 0x23D0 JUMP JUMPDEST DUP1 ISZERO PUSH2 0x6E5 JUMPI DUP1 PUSH1 0x1F LT PUSH2 0x6BA JUMPI PUSH2 0x100 DUP1 DUP4 SLOAD DIV MUL DUP4 MSTORE SWAP2 PUSH1 0x20 ADD SWAP2 PUSH2 0x6E5 JUMP JUMPDEST DUP3 ADD SWAP2 SWAP1 PUSH1 0x0 MSTORE PUSH1 0x20 PUSH1 0x0 KECCAK256 SWAP1 JUMPDEST DUP2 SLOAD DUP2 MSTORE SWAP1 PUSH1 0x1 ADD SWAP1 PUSH1 0x20 ADD DUP1 DUP4 GT PUSH2 0x6C8 JUMPI DUP3 SWAP1 SUB PUSH1 0x1F AND DUP3 ADD SWAP2 JUMPDEST POP POP POP POP POP SWAP1 POP DUP5 JUMP JUMPDEST PUSH1 0x0 DUP1 SLOAD SWAP1 PUSH2 0x100 EXP SWAP1 DIV PUSH20 0xFFFFFFFFFFFFFFFFFFFFFFFFFFFFFFFFFFFFFFFF AND PUSH20 0xFFFFFFFFFFFFFFFFFFFFFFFFFFFFFFFFFFFFFFFF AND CALLER PUSH20 0xFFFFFFFFFFFFFFFFFFFFFFFFFFFFFFFFFFFFFFFF AND EQ PUSH2 0x747 JUMPI PUSH1 0x0 DUP1 REVERT JUMPDEST PUSH1 0x2 PUSH1 0x0 DUP2 SLOAD DUP1 SWAP3 SWAP2 SWAP1 PUSH2 0x75A SWAP1 PUSH2 0x2359 JUMP JUMPDEST SWAP2 SWAP1 POP SSTORE POP PUSH1 0x40 MLOAD DUP1 PUSH1 0x80 ADD PUSH1 0x40 MSTORE DUP1 DUP5 PUSH20 0xFFFFFFFFFFFFFFFFFFFFFFFFFFFFFFFFFFFFFFFF AND DUP2 MSTORE PUSH1 0x20 ADD PUSH1 0x2 SLOAD DUP2 MSTORE PUSH1 0x20 ADD DUP4 DUP2 MSTORE PUSH1 0x20 ADD DUP3 DUP2 MSTORE POP PUSH1 0x7 PUSH1 0x0 PUSH1 0x2 SLOAD DUP2 MSTORE PUSH1 0x20 ADD SWAP1 DUP2 MSTORE PUSH1 0x20 ADD PUSH1 0x0 KECCAK256 PUSH1 0x0 DUP3 ADD MLOAD DUP2 PUSH1 0x0 ADD PUSH1 0x0 PUSH2 0x100 EXP DUP2 SLOAD DUP2 PUSH20 0xFFFFFFFFFFFFFFFFFFFFFFFFFFFFFFFFFFFFFFFF MUL NOT AND SWAP1 DUP4 PUSH20 0xFFFFFFFFFFFFFFFFFFFFFFFFFFFFFFFFFFFFFFFF AND MUL OR SWAP1 SSTORE POP PUSH1 0x20 DUP3 ADD MLOAD DUP2 PUSH1 0x1 ADD SSTORE PUSH1 0x40 DUP3 ADD MLOAD DUP2 PUSH1 0x2 ADD SWAP1 DUP2 PUSH2 0x813 SWAP2 SWAP1 PUSH2 0x25AD JUMP JUMPDEST POP PUSH1 0x60 DUP3 ADD MLOAD DUP2 PUSH1 0x3 ADD SWAP1 DUP2 PUSH2 0x829 SWAP2 SWAP1 PUSH2 0x25AD JUMP JUMPDEST POP SWAP1 POP POP POP POP POP JUMP JUMPDEST PUSH1 0x4 SLOAD DUP2 JUMP JUMPDEST PUSH1 0x0 DUP2 GT DUP1 ISZERO PUSH2 0x84A JUMPI POP PUSH1 0x1 SLOAD DUP2 GT ISZERO JUMPDEST PUSH2 0x853 JUMPI PUSH1 0x0 DUP1 REVERT JUMPDEST PUSH1 0x0 PUSH2 0x85E CALLER PUSH2 0x1AA9 JUMP JUMPDEST SWAP1 POP PUSH1 0x0 DUP2 GT PUSH2 0x86D JUMPI PUSH1 0x0 DUP1 REVERT JUMPDEST PUSH1 0x3 PUSH1 0x5 DUP2 GT ISZERO PUSH2 0x881 JUMPI PUSH2 0x880 PUSH2 0x2172 JUMP JUMPDEST JUMPDEST PUSH1 0x6 PUSH1 0x0 DUP5 DUP2 MSTORE PUSH1 0x20 ADD SWAP1 DUP2 MSTORE PUSH1 0x20 ADD PUSH1 0x0 KECCAK256 PUSH1 0x7 ADD PUSH1 0x0 SWAP1 SLOAD SWAP1 PUSH2 0x100 EXP SWAP1 DIV PUSH1 0xFF AND PUSH1 0x5 DUP2 GT ISZERO PUSH2 0x8B7 JUMPI PUSH2 0x8B6 PUSH2 0x2172 JUMP JUMPDEST JUMPDEST EQ PUSH2 0x8C1 JUMPI PUSH1 0x0 DUP1 REVERT JUMPDEST DUP1 PUSH1 0x6 PUSH1 0x0 DUP5 DUP2 MSTORE PUSH1 0x20 ADD SWAP1 DUP2 MSTORE PUSH1 0x20 ADD PUSH1 0x0 KECCAK256 PUSH1 0x6 ADD DUP2 SWAP1 SSTORE POP PUSH1 0x4 PUSH1 0x6 PUSH1 0x0 DUP5 DUP2 MSTORE PUSH1 0x20 ADD SWAP1 DUP2 MSTORE PUSH1 0x20 ADD PUSH1 0x0 KECCAK256 PUSH1 0x7 ADD PUSH1 0x0 PUSH2 0x100 EXP DUP2 SLOAD DUP2 PUSH1 0xFF MUL NOT AND SWAP1 DUP4 PUSH1 0x5 DUP2 GT ISZERO PUSH2 0x916 JUMPI PUSH2 0x915 PUSH2 0x2172 JUMP JUMPDEST JUMPDEST MUL OR SWAP1 SSTORE POP POP POP JUMP JUMPDEST PUSH1 0x3 SLOAD DUP2 JUMP JUMPDEST PUSH1 0x0 DUP2 GT DUP1 ISZERO PUSH2 0x937 JUMPI POP PUSH1 0x1 SLOAD DUP2 GT ISZERO JUMPDEST PUSH2 0x940 JUMPI PUSH1 0x0 DUP1 REVERT JUMPDEST PUSH1 0x0 PUSH2 0x94B CALLER PUSH2 0x1B6F JUMP JUMPDEST SWAP1 POP PUSH1 0x0 DUP2 GT PUSH2 0x95A JUMPI PUSH1 0x0 DUP1 REVERT JUMPDEST PUSH1 0x2 PUSH1 0x5 DUP2 GT ISZERO PUSH2 0x96E JUMPI PUSH2 0x96D PUSH2 0x2172 JUMP JUMPDEST JUMPDEST PUSH1 0x6 PUSH1 0x0 DUP5 DUP2 MSTORE PUSH1 0x20 ADD SWAP1 DUP2 MSTORE PUSH1 0x20 ADD PUSH1 0x0 KECCAK256 PUSH1 0x7 ADD PUSH1 0x0 SWAP1 SLOAD SWAP1 PUSH2 0x100 EXP SWAP1 DIV PUSH1 0xFF AND PUSH1 0x5 DUP2 GT ISZERO PUSH2 0x9A4 JUMPI PUSH2 0x9A3 PUSH2 0x2172 JUMP JUMPDEST JUMPDEST EQ PUSH2 0x9AE JUMPI PUSH1 0x0 DUP1 REVERT JUMPDEST DUP1 PUSH1 0x6 PUSH1 0x0 DUP5 DUP2 MSTORE PUSH1 0x20 ADD SWAP1 DUP2 MSTORE PUSH1 0x20 ADD PUSH1 0x0 KECCAK256 PUSH1 0x5 ADD DUP2 SWAP1 SSTORE POP PUSH1 0x3 PUSH1 0x6 PUSH1 0x0 DUP5 DUP2 MSTORE PUSH1 0x20 ADD SWAP1 DUP2 MSTORE PUSH1 0x20 ADD PUSH1 0x0 KECCAK256 PUSH1 0x7 ADD PUSH1 0x0 PUSH2 0x100 EXP DUP2 SLOAD DUP2 PUSH1 0xFF MUL NOT AND SWAP1 DUP4 PUSH1 0x5 DUP2 GT ISZERO PUSH2 0xA03 JUMPI PUSH2 0xA02 PUSH2 0x2172 JUMP JUMPDEST JUMPDEST MUL OR SWAP1 SSTORE POP POP POP JUMP JUMPDEST PUSH1 0xA PUSH1 0x20 MSTORE DUP1 PUSH1 0x0 MSTORE PUSH1 0x40 PUSH1 0x0 KECCAK256 PUSH1 0x0 SWAP2 POP SWAP1 POP DUP1 PUSH1 0x0 ADD PUSH1 0x0 SWAP1 SLOAD SWAP1 PUSH2 0x100 EXP SWAP1 DIV PUSH20 0xFFFFFFFFFFFFFFFFFFFFFFFFFFFFFFFFFFFFFFFF AND SWAP1 DUP1 PUSH1 0x1 ADD SLOAD SWAP1 DUP1 PUSH1 0x2 ADD DUP1 SLOAD PUSH2 0xA5B SWAP1 PUSH2 0x23D0 JUMP JUMPDEST DUP1 PUSH1 0x1F ADD PUSH1 0x20 DUP1 SWAP2 DIV MUL PUSH1 0x20 ADD PUSH1 0x40 MLOAD SWAP1 DUP2 ADD PUSH1 0x40 MSTORE DUP1 SWAP3 SWAP2 SWAP1 DUP2 DUP2 MSTORE PUSH1 0x20 ADD DUP3 DUP1 SLOAD PUSH2 0xA87 SWAP1 PUSH2 0x23D0 JUMP JUMPDEST DUP1 ISZERO PUSH2 0xAD4 JUMPI DUP1 PUSH1 0x1F LT PUSH2 0xAA9 JUMPI PUSH2 0x100 DUP1 DUP4 SLOAD DIV MUL DUP4 MSTORE SWAP2 PUSH1 0x20 ADD SWAP2 PUSH2 0xAD4 JUMP JUMPDEST DUP3 ADD SWAP2 SWAP1 PUSH1 0x0 MSTORE PUSH1 0x20 PUSH1 0x0 KECCAK256 SWAP1 JUMPDEST DUP2 SLOAD DUP2 MSTORE SWAP1 PUSH1 0x1 ADD SWAP1 PUSH1 0x20 ADD DUP1 DUP4 GT PUSH2 0xAB7 JUMPI DUP3 SWAP1 SUB PUSH1 0x1F AND DUP3 ADD SWAP2 JUMPDEST POP POP POP POP POP SWAP1 DUP1 PUSH1 0x3 ADD DUP1 SLOAD PUSH2 0xAE9 SWAP1 PUSH2 0x23D0 JUMP JUMPDEST DUP1 PUSH1 0x1F ADD PUSH1 0x20 DUP1 SWAP2 DIV MUL PUSH1 0x20 ADD PUSH1 0x40 MLOAD SWAP1 DUP2 ADD PUSH1 0x40 MSTORE DUP1 SWAP3 SWAP2 SWAP1 DUP2 DUP2 MSTORE PUSH1 0x20 ADD DUP3 DUP1 SLOAD PUSH2 0xB15 SWAP1 PUSH2 0x23D0 JUMP JUMPDEST DUP1 ISZERO PUSH2 0xB62 JUMPI DUP1 PUSH1 0x1F LT PUSH2 0xB37 JUMPI PUSH2 0x100 DUP1 DUP4 SLOAD DIV MUL DUP4 MSTORE SWAP2 PUSH1 0x20 ADD SWAP2 PUSH2 0xB62 JUMP JUMPDEST DUP3 ADD SWAP2 SWAP1 PUSH1 0x0 MSTORE PUSH1 0x20 PUSH1 0x0 KECCAK256 SWAP1 JUMPDEST DUP2 SLOAD DUP2 MSTORE SWAP1 PUSH1 0x1 ADD SWAP1 PUSH1 0x20 ADD DUP1 DUP4 GT PUSH2 0xB45 JUMPI DUP3 SWAP1 SUB PUSH1 0x1F AND DUP3 ADD SWAP2 JUMPDEST POP POP POP POP POP SWAP1 POP DUP5 JUMP JUMPDEST PUSH1 0x0 DUP1 SLOAD SWAP1 PUSH2 0x100 EXP SWAP1 DIV PUSH20 0xFFFFFFFFFFFFFFFFFFFFFFFFFFFFFFFFFFFFFFFF AND PUSH20 0xFFFFFFFFFFFFFFFFFFFFFFFFFFFFFFFFFFFFFFFF AND CALLER PUSH20 0xFFFFFFFFFFFFFFFFFFFFFFFFFFFFFFFFFFFFFFFF AND EQ PUSH2 0xBC4 JUMPI PUSH1 0x0 DUP1 REVERT JUMPDEST PUSH1 0x3 PUSH1 0x0 DUP2 SLOAD DUP1 SWAP3 SWAP2 SWAP1 PUSH2 0xBD7 SWAP1 PUSH2 0x2359 JUMP JUMPDEST SWAP2 SWAP1 POP SSTORE POP PUSH1 0x40 MLOAD DUP1 PUSH1 0x80 ADD PUSH1 0x40 MSTORE DUP1 DUP5 PUSH20 0xFFFFFFFFFFFFFFFFFFFFFFFFFFFFFFFFFFFFFFFF AND DUP2 MSTORE PUSH1 0x20 ADD PUSH1 0x3 SLOAD DUP2 MSTORE PUSH1 0x20 ADD DUP4 DUP2 MSTORE PUSH1 0x20 ADD DUP3 DUP2 MSTORE POP PUSH1 0x8 PUSH1 0x0 PUSH1 0x3 SLOAD DUP2 MSTORE PUSH1 0x20 ADD SWAP1 DUP2 MSTORE PUSH1 0x20 ADD PUSH1 0x0 KECCAK256 PUSH1 0x0 DUP3 ADD MLOAD DUP2 PUSH1 0x0 ADD PUSH1 0x0 PUSH2 0x100 EXP DUP2 SLOAD DUP2 PUSH20 0xFFFFFFFFFFFFFFFFFFFFFFFFFFFFFFFFFFFFFFFF MUL NOT AND SWAP1 DUP4 PUSH20 0xFFFFFFFFFFFFFFFFFFFFFFFFFFFFFFFFFFFFFFFF AND MUL OR SWAP1 SSTORE POP PUSH1 0x20 DUP3 ADD MLOAD DUP2 PUSH1 0x1 ADD SSTORE PUSH1 0x40 DUP3 ADD MLOAD DUP2 PUSH1 0x2 ADD SWAP1 DUP2 PUSH2 0xC90 SWAP2 SWAP1 PUSH2 0x25AD JUMP JUMPDEST POP PUSH1 0x60 DUP3 ADD MLOAD DUP2 PUSH1 0x3 ADD SWAP1 DUP2 PUSH2 0xCA6 SWAP2 SWAP1 PUSH2 0x25AD JUMP JUMPDEST POP SWAP1 POP POP POP POP POP JUMP JUMPDEST PUSH1 0x5 SLOAD DUP2 JUMP JUMPDEST PUSH1 0x0 DUP1 SLOAD SWAP1 PUSH2 0x100 EXP SWAP1 DIV PUSH20 0xFFFFFFFFFFFFFFFFFFFFFFFFFFFFFFFFFFFFFFFF AND PUSH20 0xFFFFFFFFFFFFFFFFFFFFFFFFFFFFFFFFFFFFFFFF AND CALLER PUSH20 0xFFFFFFFFFFFFFFFFFFFFFFFFFFFFFFFFFFFFFFFF AND EQ PUSH2 0xD0D JUMPI PUSH1 0x0 DUP1 REVERT JUMPDEST PUSH1 0x5 PUSH1 0x0 DUP2 SLOAD DUP1 SWAP3 SWAP2 SWAP1 PUSH2 0xD20 SWAP1 PUSH2 0x2359 JUMP JUMPDEST SWAP2 SWAP1 POP SSTORE POP PUSH1 0x40 MLOAD DUP1 PUSH1 0x80 ADD PUSH1 0x40 MSTORE DUP1 DUP5 PUSH20 0xFFFFFFFFFFFFFFFFFFFFFFFFFFFFFFFFFFFFFFFF AND DUP2 MSTORE PUSH1 0x20 ADD PUSH1 0x5 SLOAD DUP2 MSTORE PUSH1 0x20 ADD DUP4 DUP2 MSTORE PUSH1 0x20 ADD DUP3 DUP2 MSTORE POP PUSH1 0xA PUSH1 0x0 PUSH1 0x5 SLOAD DUP2 MSTORE PUSH1 0x20 ADD SWAP1 DUP2 MSTORE PUSH1 0x20 ADD PUSH1 0x0 KECCAK256 PUSH1 0x0 DUP3 ADD MLOAD DUP2 PUSH1 0x0 ADD PUSH1 0x0 PUSH2 0x100 EXP DUP2 SLOAD DUP2 PUSH20 0xFFFFFFFFFFFFFFFFFFFFFFFFFFFFFFFFFFFFFFFF MUL NOT AND SWAP1 DUP4 PUSH20 0xFFFFFFFFFFFFFFFFFFFFFFFFFFFFFFFFFFFFFFFF AND MUL OR SWAP1 SSTORE POP PUSH1 0x20 DUP3 ADD MLOAD DUP2 PUSH1 0x1 ADD SSTORE PUSH1 0x40 DUP3 ADD MLOAD DUP2 PUSH1 0x2 ADD SWAP1 DUP2 PUSH2 0xDD9 SWAP2 SWAP1 PUSH2 0x25AD JUMP JUMPDEST POP PUSH1 0x60 DUP3 ADD MLOAD DUP2 PUSH1 0x3 ADD SWAP1 DUP2 PUSH2 0xDEF SWAP2 SWAP1 PUSH2 0x25AD JUMP JUMPDEST POP SWAP1 POP POP POP POP POP JUMP JUMPDEST PUSH1 0x0 DUP2 GT DUP1 ISZERO PUSH2 0xE0A JUMPI POP PUSH1 0x1 SLOAD DUP2 GT ISZERO JUMPDEST PUSH2 0xE13 JUMPI PUSH1 0x0 DUP1 REVERT JUMPDEST PUSH1 0x0 PUSH2 0xE1E CALLER PUSH2 0x1C35 JUMP JUMPDEST SWAP1 POP PUSH1 0x0 DUP2 GT PUSH2 0xE2D JUMPI PUSH1 0x0 DUP1 REVERT JUMPDEST PUSH1 0x0 PUSH1 0x5 DUP2 GT ISZERO PUSH2 0xE41 JUMPI PUSH2 0xE40 PUSH2 0x2172 JUMP JUMPDEST JUMPDEST PUSH1 0x6 PUSH1 0x0 DUP5 DUP2 MSTORE PUSH1 0x20 ADD SWAP1 DUP2 MSTORE PUSH1 0x20 ADD PUSH1 0x0 KECCAK256 PUSH1 0x7 ADD PUSH1 0x0 SWAP1 SLOAD SWAP1 PUSH2 0x100 EXP SWAP1 DIV PUSH1 0xFF AND PUSH1 0x5 DUP2 GT ISZERO PUSH2 0xE77 JUMPI PUSH2 0xE76 PUSH2 0x2172 JUMP JUMPDEST JUMPDEST EQ PUSH2 0xE81 JUMPI PUSH1 0x0 DUP1 REVERT JUMPDEST DUP1 PUSH1 0x6 PUSH1 0x0 DUP5 DUP2 MSTORE PUSH1 0x20 ADD SWAP1 DUP2 MSTORE PUSH1 0x20 ADD PUSH1 0x0 KECCAK256 PUSH1 0x3 ADD DUP2 SWAP1 SSTORE POP PUSH1 0x1 PUSH1 0x6 PUSH1 0x0 DUP5 DUP2 MSTORE PUSH1 0x20 ADD SWAP1 DUP2 MSTORE PUSH1 0x20 ADD PUSH1 0x0 KECCAK256 PUSH1 0x7 ADD PUSH1 0x0 PUSH2 0x100 EXP DUP2 SLOAD DUP2 PUSH1 0xFF MUL NOT AND SWAP1 DUP4 PUSH1 0x5 DUP2 GT ISZERO PUSH2 0xED6 JUMPI PUSH2 0xED5 PUSH2 0x2172 JUMP JUMPDEST JUMPDEST MUL OR SWAP1 SSTORE POP POP POP JUMP JUMPDEST PUSH1 0x6 PUSH1 0x20 MSTORE DUP1 PUSH1 0x0 MSTORE PUSH1 0x40 PUSH1 0x0 KECCAK256 PUSH1 0x0 SWAP2 POP SWAP1 POP DUP1 PUSH1 0x0 ADD SLOAD SWAP1 DUP1 PUSH1 0x1 ADD DUP1 SLOAD PUSH2 0xF08 SWAP1 PUSH2 0x23D0 JUMP JUMPDEST DUP1 PUSH1 0x1F ADD PUSH1 0x20 DUP1 SWAP2 DIV MUL PUSH1 0x20 ADD PUSH1 0x40 MLOAD SWAP1 DUP2 ADD PUSH1 0x40 MSTORE DUP1 SWAP3 SWAP2 SWAP1 DUP2 DUP2 MSTORE PUSH1 0x20 ADD DUP3 DUP1 SLOAD PUSH2 0xF34 SWAP1 PUSH2 0x23D0 JUMP JUMPDEST DUP1 ISZERO PUSH2 0xF81 JUMPI DUP1 PUSH1 0x1F LT PUSH2 0xF56 JUMPI PUSH2 0x100 DUP1 DUP4 SLOAD DIV MUL DUP4 MSTORE SWAP2 PUSH1 0x20 ADD SWAP2 PUSH2 0xF81 JUMP JUMPDEST DUP3 ADD SWAP2 SWAP1 PUSH1 0x0 MSTORE PUSH1 0x20 PUSH1 0x0 KECCAK256 SWAP1 JUMPDEST DUP2 SLOAD DUP2 MSTORE SWAP1 PUSH1 0x1 ADD SWAP1 PUSH1 0x20 ADD DUP1 DUP4 GT PUSH2 0xF64 JUMPI DUP3 SWAP1 SUB PUSH1 0x1F AND DUP3 ADD SWAP2 JUMPDEST POP POP POP POP POP SWAP1 DUP1 PUSH1 0x2 ADD DUP1 SLOAD PUSH2 0xF96 SWAP1 PUSH2 0x23D0 JUMP JUMPDEST DUP1 PUSH1 0x1F ADD PUSH1 0x20 DUP1 SWAP2 DIV MUL PUSH1 0x20 ADD PUSH1 0x40 MLOAD SWAP1 DUP2 ADD PUSH1 0x40 MSTORE DUP1 SWAP3 SWAP2 SWAP1 DUP2 DUP2 MSTORE PUSH1 0x20 ADD DUP3 DUP1 SLOAD PUSH2 0xFC2 SWAP1 PUSH2 0x23D0 JUMP JUMPDEST DUP1 ISZERO PUSH2 0x100F JUMPI DUP1 PUSH1 0x1F LT PUSH2 0xFE4 JUMPI PUSH2 0x100 DUP1 DUP4 SLOAD DIV MUL DUP4 MSTORE SWAP2 PUSH1 0x20 ADD SWAP2 PUSH2 0x100F JUMP JUMPDEST DUP3 ADD SWAP2 SWAP1 PUSH1 0x0 MSTORE PUSH1 0x20 PUSH1 0x0 KECCAK256 SWAP1 JUMPDEST DUP2 SLOAD DUP2 MSTORE SWAP1 PUSH1 0x1 ADD SWAP1 PUSH1 0x20 ADD DUP1 DUP4 GT PUSH2 0xFF2 JUMPI DUP3 SWAP1 SUB PUSH1 0x1F AND DUP3 ADD SWAP2 JUMPDEST POP POP POP POP POP SWAP1 DUP1 PUSH1 0x3 ADD SLOAD SWAP1 DUP1 PUSH1 0x4 ADD SLOAD SWAP1 DUP1 PUSH1 0x5 ADD SLOAD SWAP1 DUP1 PUSH1 0x6 ADD SLOAD SWAP1 DUP1 PUSH1 0x7 ADD PUSH1 0x0 SWAP1 SLOAD SWAP1 PUSH2 0x100 EXP SWAP1 DIV PUSH1 0xFF AND SWAP1 POP DUP9 JUMP JUMPDEST PUSH1 0x0 DUP2 GT DUP1 ISZERO PUSH2 0x1056 JUMPI POP PUSH1 0x1 SLOAD DUP2 GT ISZERO JUMPDEST PUSH2 0x105F JUMPI PUSH1 0x0 DUP1 REVERT JUMPDEST PUSH1 0x0 PUSH2 0x106A CALLER PUSH2 0x1AA9 JUMP JUMPDEST SWAP1 POP PUSH1 0x0 DUP2 GT PUSH2 0x1079 JUMPI PUSH1 0x0 DUP1 REVERT JUMPDEST PUSH1 0x6 PUSH1 0x0 DUP4 DUP2 MSTORE PUSH1 0x20 ADD SWAP1 DUP2 MSTORE PUSH1 0x20 ADD PUSH1 0x0 KECCAK256 PUSH1 0x6 ADD SLOAD DUP2 EQ PUSH2 0x109B JUMPI PUSH1 0x0 DUP1 REVERT JUMPDEST PUSH1 0x4 PUSH1 0x5 DUP2 GT ISZERO PUSH2 0x10AF JUMPI PUSH2 0x10AE PUSH2 0x2172 JUMP JUMPDEST JUMPDEST PUSH1 0x6 PUSH1 0x0 DUP5 DUP2 MSTORE PUSH1 0x20 ADD SWAP1 DUP2 MSTORE PUSH1 0x20 ADD PUSH1 0x0 KECCAK256 PUSH1 0x7 ADD PUSH1 0x0 SWAP1 SLOAD SWAP1 PUSH2 0x100 EXP SWAP1 DIV PUSH1 0xFF AND PUSH1 0x5 DUP2 GT ISZERO PUSH2 0x10E5 JUMPI PUSH2 0x10E4 PUSH2 0x2172 JUMP JUMPDEST JUMPDEST EQ PUSH2 0x10EF JUMPI PUSH1 0x0 DUP1 REVERT JUMPDEST PUSH1 0x5 PUSH1 0x6 PUSH1 0x0 DUP5 DUP2 MSTORE PUSH1 0x20 ADD SWAP1 DUP2 MSTORE PUSH1 0x20 ADD PUSH1 0x0 KECCAK256 PUSH1 0x7 ADD PUSH1 0x0 PUSH2 0x100 EXP DUP2 SLOAD DUP2 PUSH1 0xFF MUL NOT AND SWAP1 DUP4 PUSH1 0x5 DUP2 GT ISZERO PUSH2 0x1129 JUMPI PUSH2 0x1128 PUSH2 0x2172 JUMP JUMPDEST JUMPDEST MUL OR SWAP1 SSTORE POP POP POP JUMP JUMPDEST PUSH1 0x0 DUP2 GT DUP1 ISZERO PUSH2 0x1144 JUMPI POP PUSH1 0x1 SLOAD DUP2 GT ISZERO JUMPDEST PUSH2 0x114D JUMPI PUSH1 0x0 DUP1 REVERT JUMPDEST PUSH1 0x0 PUSH2 0x1158 CALLER PUSH2 0x1CFB JUMP JUMPDEST SWAP1 POP PUSH1 0x0 DUP2 GT PUSH2 0x1167 JUMPI PUSH1 0x0 DUP1 REVERT JUMPDEST PUSH1 0x1 PUSH1 0x5 DUP2 GT ISZERO PUSH2 0x117B JUMPI PUSH2 0x117A PUSH2 0x2172 JUMP JUMPDEST JUMPDEST PUSH1 0x6 PUSH1 0x0 DUP5 DUP2 MSTORE PUSH1 0x20 ADD SWAP1 DUP2 MSTORE PUSH1 0x20 ADD PUSH1 0x0 KECCAK256 PUSH1 0x7 ADD PUSH1 0x0 SWAP1 SLOAD SWAP1 PUSH2 0x100 EXP SWAP1 DIV PUSH1 0xFF AND PUSH1 0x5 DUP2 GT ISZERO PUSH2 0x11B1 JUMPI PUSH2 0x11B0 PUSH2 0x2172 JUMP JUMPDEST JUMPDEST EQ PUSH2 0x11BB JUMPI PUSH1 0x0 DUP1 REVERT JUMPDEST DUP1 PUSH1 0x6 PUSH1 0x0 DUP5 DUP2 MSTORE PUSH1 0x20 ADD SWAP1 DUP2 MSTORE PUSH1 0x20 ADD PUSH1 0x0 KECCAK256 PUSH1 0x4 ADD DUP2 SWAP1 SSTORE POP PUSH1 0x2 PUSH1 0x6 PUSH1 0x0 DUP5 DUP2 MSTORE PUSH1 0x20 ADD SWAP1 DUP2 MSTORE PUSH1 0x20 ADD PUSH1 0x0 KECCAK256 PUSH1 0x7 ADD PUSH1 0x0 PUSH2 0x100 EXP DUP2 SLOAD DUP2 PUSH1 0xFF MUL NOT AND SWAP1 DUP4 PUSH1 0x5 DUP2 GT ISZERO PUSH2 0x1210 JUMPI PUSH2 0x120F PUSH2 0x2172 JUMP JUMPDEST JUMPDEST MUL OR SWAP1 SSTORE POP POP POP JUMP JUMPDEST PUSH1 0x0 DUP1 SLOAD SWAP1 PUSH2 0x100 EXP SWAP1 DIV PUSH20 0xFFFFFFFFFFFFFFFFFFFFFFFFFFFFFFFFFFFFFFFF AND DUP2 JUMP JUMPDEST PUSH1 0x0 DUP1 SLOAD SWAP1 PUSH2 0x100 EXP SWAP1 DIV PUSH20 0xFFFFFFFFFFFFFFFFFFFFFFFFFFFFFFFFFFFFFFFF AND PUSH20 0xFFFFFFFFFFFFFFFFFFFFFFFFFFFFFFFFFFFFFFFF AND CALLER PUSH20 0xFFFFFFFFFFFFFFFFFFFFFFFFFFFFFFFFFFFFFFFF AND EQ PUSH2 0x1295 JUMPI PUSH1 0x0 DUP1 REVERT JUMPDEST PUSH1 0x0 PUSH1 0x2 SLOAD GT DUP1 ISZERO PUSH2 0x12A9 JUMPI POP PUSH1 0x0 PUSH1 0x3 SLOAD GT JUMPDEST DUP1 ISZERO PUSH2 0x12B7 JUMPI POP PUSH1 0x0 PUSH1 0x4 SLOAD GT JUMPDEST DUP1 ISZERO PUSH2 0x12C5 JUMPI POP PUSH1 0x0 PUSH1 0x5 SLOAD GT JUMPDEST PUSH2 0x12CE JUMPI PUSH1 0x0 DUP1 REVERT JUMPDEST PUSH1 0x1 PUSH1 0x0 DUP2 SLOAD DUP1 SWAP3 SWAP2 SWAP1 PUSH2 0x12E1 SWAP1 PUSH2 0x2359 JUMP JUMPDEST SWAP2 SWAP1 POP SSTORE POP PUSH1 0x40 MLOAD DUP1 PUSH2 0x100 ADD PUSH1 0x40 MSTORE DUP1 PUSH1 0x1 SLOAD DUP2 MSTORE PUSH1 0x20 ADD DUP4 DUP2 MSTORE PUSH1 0x20 ADD DUP3 DUP2 MSTORE PUSH1 0x20 ADD PUSH1 0x0 DUP2 MSTORE PUSH1 0x20 ADD PUSH1 0x0 DUP2 MSTORE PUSH1 0x20 ADD PUSH1 0x0 DUP2 MSTORE PUSH1 0x20 ADD PUSH1 0x0 DUP2 MSTORE PUSH1 0x20 ADD PUSH1 0x0 PUSH1 0x5 DUP2 GT ISZERO PUSH2 0x1336 JUMPI PUSH2 0x1335 PUSH2 0x2172 JUMP JUMPDEST JUMPDEST DUP2 MSTORE POP PUSH1 0x6 PUSH1 0x0 PUSH1 0x1 SLOAD DUP2 MSTORE PUSH1 0x20 ADD SWAP1 DUP2 MSTORE PUSH1 0x20 ADD PUSH1 0x0 KECCAK256 PUSH1 0x0 DUP3 ADD MLOAD DUP2 PUSH1 0x0 ADD SSTORE PUSH1 0x20 DUP3 ADD MLOAD DUP2 PUSH1 0x1 ADD SWAP1 DUP2 PUSH2 0x136D SWAP2 SWAP1 PUSH2 0x25AD JUMP JUMPDEST POP PUSH1 0x40 DUP3 ADD MLOAD DUP2 PUSH1 0x2 ADD SWAP1 DUP2 PUSH2 0x1383 SWAP2 SWAP1 PUSH2 0x25AD JUMP JUMPDEST POP PUSH1 0x60 DUP3 ADD MLOAD DUP2 PUSH1 0x3 ADD SSTORE PUSH1 0x80 DUP3 ADD MLOAD DUP2 PUSH1 0x4 ADD SSTORE PUSH1 0xA0 DUP3 ADD MLOAD DUP2 PUSH1 0x5 ADD SSTORE PUSH1 0xC0 DUP3 ADD MLOAD DUP2 PUSH1 0x6 ADD SSTORE PUSH1 0xE0 DUP3 ADD MLOAD DUP2 PUSH1 0x7 ADD PUSH1 0x0 PUSH2 0x100 EXP DUP2 SLOAD DUP2 PUSH1 0xFF MUL NOT AND SWAP1 DUP4 PUSH1 0x5 DUP2 GT ISZERO PUSH2 0x13D7 JUMPI PUSH2 0x13D6 PUSH2 0x2172 JUMP JUMPDEST JUMPDEST MUL OR SWAP1 SSTORE POP SWAP1 POP POP POP POP JUMP JUMPDEST PUSH1 0x8 PUSH1 0x20 MSTORE DUP1 PUSH1 0x0 MSTORE PUSH1 0x40 PUSH1 0x0 KECCAK256 PUSH1 0x0 SWAP2 POP SWAP1 POP DUP1 PUSH1 0x0 ADD PUSH1 0x0 SWAP1 SLOAD SWAP1 PUSH2 0x100 EXP SWAP1 DIV PUSH20 0xFFFFFFFFFFFFFFFFFFFFFFFFFFFFFFFFFFFFFFFF AND SWAP1 DUP1 PUSH1 0x1 ADD SLOAD SWAP1 DUP1 PUSH1 0x2 ADD DUP1 SLOAD PUSH2 0x1432 SWAP1 PUSH2 0x23D0 JUMP JUMPDEST DUP1 PUSH1 0x1F ADD PUSH1 0x20 DUP1 SWAP2 DIV MUL PUSH1 0x20 ADD PUSH1 0x40 MLOAD SWAP1 DUP2 ADD PUSH1 0x40 MSTORE DUP1 SWAP3 SWAP2 SWAP1 DUP2 DUP2 MSTORE PUSH1 0x20 ADD DUP3 DUP1 SLOAD PUSH2 0x145E SWAP1 PUSH2 0x23D0 JUMP JUMPDEST DUP1 ISZERO PUSH2 0x14AB JUMPI DUP1 PUSH1 0x1F LT PUSH2 0x1480 JUMPI PUSH2 0x100 DUP1 DUP4 SLOAD DIV MUL DUP4 MSTORE SWAP2 PUSH1 0x20 ADD SWAP2 PUSH2 0x14AB JUMP JUMPDEST DUP3 ADD SWAP2 SWAP1 PUSH1 0x0 MSTORE PUSH1 0x20 PUSH1 0x0 KECCAK256 SWAP1 JUMPDEST DUP2 SLOAD DUP2 MSTORE SWAP1 PUSH1 0x1 ADD SWAP1 PUSH1 0x20 ADD DUP1 DUP4 GT PUSH2 0x148E JUMPI DUP3 SWAP1 SUB PUSH1 0x1F AND DUP3 ADD SWAP2 JUMPDEST POP POP POP POP POP SWAP1 DUP1 PUSH1 0x3 ADD DUP1 SLOAD PUSH2 0x14C0 SWAP1 PUSH2 0x23D0 JUMP JUMPDEST DUP1 PUSH1 0x1F ADD PUSH1 0x20 DUP1 SWAP2 DIV MUL PUSH1 0x20 ADD PUSH1 0x40 MLOAD SWAP1 DUP2 ADD PUSH1 0x40 MSTORE DUP1 SWAP3 SWAP2 SWAP1 DUP2 DUP2 MSTORE PUSH1 0x20 ADD DUP3 DUP1 SLOAD PUSH2 0x14EC SWAP1 PUSH2 0x23D0 JUMP JUMPDEST DUP1 ISZERO PUSH2 0x1539 JUMPI DUP1 PUSH1 0x1F LT PUSH2 0x150E JUMPI PUSH2 0x100 DUP1 DUP4 SLOAD DIV MUL DUP4 MSTORE SWAP2 PUSH1 0x20 ADD SWAP2 PUSH2 0x1539 JUMP JUMPDEST DUP3 ADD SWAP2 SWAP1 PUSH1 0x0 MSTORE PUSH1 0x20 PUSH1 0x0 KECCAK256 SWAP1 JUMPDEST DUP2 SLOAD DUP2 MSTORE SWAP1 PUSH1 0x1 ADD SWAP1 PUSH1 0x20 ADD DUP1 DUP4 GT PUSH2 0x151C JUMPI DUP3 SWAP1 SUB PUSH1 0x1F AND DUP3 ADD SWAP2 JUMPDEST POP POP POP POP POP SWAP1 POP DUP5 JUMP JUMPDEST PUSH1 0x2 SLOAD DUP2 JUMP JUMPDEST PUSH1 0x60 PUSH1 0x0 PUSH1 0x1 SLOAD GT PUSH2 0x1590 JUMPI PUSH1 0x40 MLOAD PUSH32 0x8C379A000000000000000000000000000000000000000000000000000000000 DUP2 MSTORE PUSH1 0x4 ADD PUSH2 0x1587 SWAP1 PUSH2 0x26CB JUMP JUMPDEST PUSH1 0x40 MLOAD DUP1 SWAP2 SUB SWAP1 REVERT JUMPDEST PUSH1 0x0 DUP3 GT DUP1 ISZERO PUSH2 0x15A2 JUMPI POP PUSH1 0x1 SLOAD DUP3 GT ISZERO JUMPDEST PUSH2 0x15E1 JUMPI PUSH1 0x40 MLOAD PUSH32 0x8C379A000000000000000000000000000000000000000000000000000000000 DUP2 MSTORE PUSH1 0x4 ADD PUSH2 0x15D8 SWAP1 PUSH2 0x2737 JUMP JUMPDEST PUSH1 0x40 MLOAD DUP1 SWAP2 SUB SWAP1 REVERT JUMPDEST PUSH1 0x0 PUSH1 0x5 DUP2 GT ISZERO PUSH2 0x15F5 JUMPI PUSH2 0x15F4 PUSH2 0x2172 JUMP JUMPDEST JUMPDEST PUSH1 0x6 PUSH1 0x0 DUP5 DUP2 MSTORE PUSH1 0x20 ADD SWAP1 DUP2 MSTORE PUSH1 0x20 ADD PUSH1 0x0 KECCAK256 PUSH1 0x7 ADD PUSH1 0x0 SWAP1 SLOAD SWAP1 PUSH2 0x100 EXP SWAP1 DIV PUSH1 0xFF AND PUSH1 0x5 DUP2 GT ISZERO PUSH2 0x162B JUMPI PUSH2 0x162A PUSH2 0x2172 JUMP JUMPDEST JUMPDEST SUB PUSH2 0x1650 JUMPI PUSH1 0x40 MLOAD DUP1 PUSH1 0x60 ADD PUSH1 0x40 MSTORE DUP1 PUSH1 0x22 DUP2 MSTORE PUSH1 0x20 ADD PUSH2 0x2758 PUSH1 0x22 SWAP2 CODECOPY SWAP1 POP PUSH2 0x1944 JUMP JUMPDEST PUSH1 0x1 PUSH1 0x5 DUP2 GT ISZERO PUSH2 0x1664 JUMPI PUSH2 0x1663 PUSH2 0x2172 JUMP JUMPDEST JUMPDEST PUSH1 0x6 PUSH1 0x0 DUP5 DUP2 MSTORE PUSH1 0x20 ADD SWAP1 DUP2 MSTORE PUSH1 0x20 ADD PUSH1 0x0 KECCAK256 PUSH1 0x7 ADD PUSH1 0x0 SWAP1 SLOAD SWAP1 PUSH2 0x100 EXP SWAP1 DIV PUSH1 0xFF AND PUSH1 0x5 DUP2 GT ISZERO PUSH2 0x169A JUMPI PUSH2 0x1699 PUSH2 0x2172 JUMP JUMPDEST JUMPDEST SUB PUSH2 0x16DC JUMPI PUSH1 0x40 MLOAD DUP1 PUSH1 0x40 ADD PUSH1 0x40 MSTORE DUP1 PUSH1 0x19 DUP2 MSTORE PUSH1 0x20 ADD PUSH32 0x526177204D6174657269616C20537570706C7920537461676500000000000000 DUP2 MSTORE POP SWAP1 POP PUSH2 0x1944 JUMP JUMPDEST PUSH1 0x2 PUSH1 0x5 DUP2 GT ISZERO PUSH2 0x16F0 JUMPI PUSH2 0x16EF PUSH2 0x2172 JUMP JUMPDEST JUMPDEST PUSH1 0x6 PUSH1 0x0 DUP5 DUP2 MSTORE PUSH1 0x20 ADD SWAP1 DUP2 MSTORE PUSH1 0x20 ADD PUSH1 0x0 KECCAK256 PUSH1 0x7 ADD PUSH1 0x0 SWAP1 SLOAD SWAP1 PUSH2 0x100 EXP SWAP1 DIV PUSH1 0xFF AND PUSH1 0x5 DUP2 GT ISZERO PUSH2 0x1726 JUMPI PUSH2 0x1725 PUSH2 0x2172 JUMP JUMPDEST JUMPDEST SUB PUSH2 0x1768 JUMPI PUSH1 0x40 MLOAD DUP1 PUSH1 0x40 ADD PUSH1 0x40 MSTORE DUP1 PUSH1 0x13 DUP2 MSTORE PUSH1 0x20 ADD PUSH32 0x4D616E75666163747572696E6720537461676500000000000000000000000000 DUP2 MSTORE POP SWAP1 POP PUSH2 0x1944 JUMP JUMPDEST PUSH1 0x3 PUSH1 0x5 DUP2 GT ISZERO PUSH2 0x177C JUMPI PUSH2 0x177B PUSH2 0x2172 JUMP JUMPDEST JUMPDEST PUSH1 0x6 PUSH1 0x0 DUP5 DUP2 MSTORE PUSH1 0x20 ADD SWAP1 DUP2 MSTORE PUSH1 0x20 ADD PUSH1 0x0 KECCAK256 PUSH1 0x7 ADD PUSH1 0x0 SWAP1 SLOAD SWAP1 PUSH2 0x100 EXP SWAP1 DIV PUSH1 0xFF AND PUSH1 0x5 DUP2 GT ISZERO PUSH2 0x17B2 JUMPI PUSH2 0x17B1 PUSH2 0x2172 JUMP JUMPDEST JUMPDEST SUB PUSH2 0x17F4 JUMPI PUSH1 0x40 MLOAD DUP1 PUSH1 0x40 ADD PUSH1 0x40 MSTORE DUP1 PUSH1 0x12 DUP2 MSTORE PUSH1 0x20 ADD PUSH32 0x446973747269627574696F6E2053746167650000000000000000000000000000 DUP2 MSTORE POP SWAP1 POP PUSH2 0x1944 JUMP JUMPDEST PUSH1 0x4 PUSH1 0x5 DUP2 GT ISZERO PUSH2 0x1808 JUMPI PUSH2 0x1807 PUSH2 0x2172 JUMP JUMPDEST JUMPDEST PUSH1 0x6 PUSH1 0x0 DUP5 DUP2 MSTORE PUSH1 0x20 ADD SWAP1 DUP2 MSTORE PUSH1 0x20 ADD PUSH1 0x0 KECCAK256 PUSH1 0x7 ADD PUSH1 0x0 SWAP1 SLOAD SWAP1 PUSH2 0x100 EXP SWAP1 DIV PUSH1 0xFF AND PUSH1 0x5 DUP2 GT ISZERO PUSH2 0x183E JUMPI PUSH2 0x183D PUSH2 0x2172 JUMP JUMPDEST JUMPDEST SUB PUSH2 0x1880 JUMPI PUSH1 0x40 MLOAD DUP1 PUSH1 0x40 ADD PUSH1 0x40 MSTORE DUP1 PUSH1 0xC DUP2 MSTORE PUSH1 0x20 ADD PUSH32 0x52657461696C2053746167650000000000000000000000000000000000000000 DUP2 MSTORE POP SWAP1 POP PUSH2 0x1944 JUMP JUMPDEST PUSH1 0x5 DUP1 DUP2 GT ISZERO PUSH2 0x1893 JUMPI PUSH2 0x1892 PUSH2 0x2172 JUMP JUMPDEST JUMPDEST PUSH1 0x6 PUSH1 0x0 DUP5 DUP2 MSTORE PUSH1 0x20 ADD SWAP1 DUP2 MSTORE PUSH1 0x20 ADD PUSH1 0x0 KECCAK256 PUSH1 0x7 ADD PUSH1 0x0 SWAP1 SLOAD SWAP1 PUSH2 0x100 EXP SWAP1 DIV PUSH1 0xFF AND PUSH1 0x5 DUP2 GT ISZERO PUSH2 0x18C9 JUMPI PUSH2 0x18C8 PUSH2 0x2172 JUMP JUMPDEST JUMPDEST SUB PUSH2 0x190B JUMPI PUSH1 0x40 MLOAD DUP1 PUSH1 0x40 ADD PUSH1 0x40 MSTORE DUP1 PUSH1 0x1F DUP2 MSTORE PUSH1 0x20 ADD PUSH32 0x4167726963756C7475726520746F6F6C2F746563686E6971756520536F6C6400 DUP2 MSTORE POP SWAP1 POP PUSH2 0x1944 JUMP JUMPDEST PUSH1 0x40 MLOAD DUP1 PUSH1 0x40 ADD PUSH1 0x40 MSTORE DUP1 PUSH1 0xF DUP2 MSTORE PUSH1 0x20 ADD PUSH32 0x5374616765206E6F7420666F756E640000000000000000000000000000000000 DUP2 MSTORE POP SWAP1 POP JUMPDEST SWAP2 SWAP1 POP JUMP JUMPDEST PUSH1 0x7 PUSH1 0x20 MSTORE DUP1 PUSH1 0x0 MSTORE PUSH1 0x40 PUSH1 0x0 KECCAK256 PUSH1 0x0 SWAP2 POP SWAP1 POP DUP1 PUSH1 0x0 ADD PUSH1 0x0 SWAP1 SLOAD SWAP1 PUSH2 0x100 EXP SWAP1 DIV PUSH20 0xFFFFFFFFFFFFFFFFFFFFFFFFFFFFFFFFFFFFFFFF AND SWAP1 DUP1 PUSH1 0x1 ADD SLOAD SWAP1 DUP1 PUSH1 0x2 ADD DUP1 SLOAD PUSH2 0x1998 SWAP1 PUSH2 0x23D0 JUMP JUMPDEST DUP1 PUSH1 0x1F ADD PUSH1 0x20 DUP1 SWAP2 DIV MUL PUSH1 0x20 ADD PUSH1 0x40 MLOAD SWAP1 DUP2 ADD PUSH1 0x40 MSTORE DUP1 SWAP3 SWAP2 SWAP1 DUP2 DUP2 MSTORE PUSH1 0x20 ADD DUP3 DUP1 SLOAD PUSH2 0x19C4 SWAP1 PUSH2 0x23D0 JUMP JUMPDEST DUP1 ISZERO PUSH2 0x1A11 JUMPI DUP1 PUSH1 0x1F LT PUSH2 0x19E6 JUMPI PUSH2 0x100 DUP1 DUP4 SLOAD DIV MUL DUP4 MSTORE SWAP2 PUSH1 0x20 ADD SWAP2 PUSH2 0x1A11 JUMP JUMPDEST DUP3 ADD SWAP2 SWAP1 PUSH1 0x0 MSTORE PUSH1 0x20 PUSH1 0x0 KECCAK256 SWAP1 JUMPDEST DUP2 SLOAD DUP2 MSTORE SWAP1 PUSH1 0x1 ADD SWAP1 PUSH1 0x20 ADD DUP1 DUP4 GT PUSH2 0x19F4 JUMPI DUP3 SWAP1 SUB PUSH1 0x1F AND DUP3 ADD SWAP2 JUMPDEST POP POP POP POP POP SWAP1 DUP1 PUSH1 0x3 ADD DUP1 SLOAD PUSH2 0x1A26 SWAP1 PUSH2 0x23D0 JUMP JUMPDEST DUP1 PUSH1 0x1F ADD PUSH1 0x20 DUP1 SWAP2 DIV MUL PUSH1 0x20 ADD PUSH1 0x40 MLOAD SWAP1 DUP2 ADD PUSH1 0x40 MSTORE DUP1 SWAP3 SWAP2 SWAP1 DUP2 DUP2 MSTORE PUSH1 0x20 ADD DUP3 DUP1 SLOAD PUSH2 0x1A52 SWAP1 PUSH2 0x23D0 JUMP JUMPDEST DUP1 ISZERO PUSH2 0x1A9F JUMPI DUP1 PUSH1 0x1F LT PUSH2 0x1A74 JUMPI PUSH2 0x100 DUP1 DUP4 SLOAD DIV MUL DUP4 MSTORE SWAP2 PUSH1 0x20 ADD SWAP2 PUSH2 0x1A9F JUMP JUMPDEST DUP3 ADD SWAP2 SWAP1 PUSH1 0x0 MSTORE PUSH1 0x20 PUSH1 0x0 KECCAK256 SWAP1 JUMPDEST DUP2 SLOAD DUP2 MSTORE SWAP1 PUSH1 0x1 ADD SWAP1 PUSH1 0x20 ADD DUP1 DUP4 GT PUSH2 0x1A82 JUMPI DUP3 SWAP1 SUB PUSH1 0x1F AND DUP3 ADD SWAP2 JUMPDEST POP POP POP POP POP SWAP1 POP DUP5 JUMP JUMPDEST PUSH1 0x0 DUP1 PUSH1 0x5 SLOAD GT PUSH2 0x1AB9 JUMPI PUSH1 0x0 DUP1 REVERT JUMPDEST PUSH1 0x0 PUSH1 0x1 SWAP1 POP JUMPDEST PUSH1 0x5 SLOAD DUP2 GT PUSH2 0x1B64 JUMPI DUP3 PUSH20 0xFFFFFFFFFFFFFFFFFFFFFFFFFFFFFFFFFFFFFFFF AND PUSH1 0xA PUSH1 0x0 DUP4 DUP2 MSTORE PUSH1 0x20 ADD SWAP1 DUP2 MSTORE PUSH1 0x20 ADD PUSH1 0x0 KECCAK256 PUSH1 0x0 ADD PUSH1 0x0 SWAP1 SLOAD SWAP1 PUSH2 0x100 EXP SWAP1 DIV PUSH20 0xFFFFFFFFFFFFFFFFFFFFFFFFFFFFFFFFFFFFFFFF AND PUSH20 0xFFFFFFFFFFFFFFFFFFFFFFFFFFFFFFFFFFFFFFFF AND SUB PUSH2 0x1B51 JUMPI PUSH1 0xA PUSH1 0x0 DUP3 DUP2 MSTORE PUSH1 0x20 ADD SWAP1 DUP2 MSTORE PUSH1 0x20 ADD PUSH1 0x0 KECCAK256 PUSH1 0x1 ADD SLOAD SWAP2 POP POP PUSH2 0x1B6A JUMP JUMPDEST DUP1 DUP1 PUSH2 0x1B5C SWAP1 PUSH2 0x2359 JUMP JUMPDEST SWAP2 POP POP PUSH2 0x1AC0 JUMP JUMPDEST POP PUSH1 0x0 SWAP1 POP JUMPDEST SWAP2 SWAP1 POP JUMP JUMPDEST PUSH1 0x0 DUP1 PUSH1 0x4 SLOAD GT PUSH2 0x1B7F JUMPI PUSH1 0x0 DUP1 REVERT JUMPDEST PUSH1 0x0 PUSH1 0x1 SWAP1 POP JUMPDEST PUSH1 0x4 SLOAD DUP2 GT PUSH2 0x1C2A JUMPI DUP3 PUSH20 0xFFFFFFFFFFFFFFFFFFFFFFFFFFFFFFFFFFFFFFFF AND PUSH1 0x9 PUSH1 0x0 DUP4 DUP2 MSTORE PUSH1 0x20 ADD SWAP1 DUP2 MSTORE PUSH1 0x20 ADD PUSH1 0x0 KECCAK256 PUSH1 0x0 ADD PUSH1 0x0 SWAP1 SLOAD SWAP1 PUSH2 0x100 EXP SWAP1 DIV PUSH20 0xFFFFFFFFFFFFFFFFFFFFFFFFFFFFFFFFFFFFFFFF AND PUSH20 0xFFFFFFFFFFFFFFFFFFFFFFFFFFFFFFFFFFFFFFFF AND SUB PUSH2 0x1C17 JUMPI PUSH1 0x9 PUSH1 0x0 DUP3 DUP2 MSTORE PUSH1 0x20 ADD SWAP1 DUP2 MSTORE PUSH1 0x20 ADD PUSH1 0x0 KECCAK256 PUSH1 0x1 ADD SLOAD SWAP2 POP POP PUSH2 0x1C30 JUMP JUMPDEST DUP1 DUP1 PUSH2 0x1C22 SWAP1 PUSH2 0x2359 JUMP JUMPDEST SWAP2 POP POP PUSH2 0x1B86 JUMP JUMPDEST POP PUSH1 0x0 SWAP1 POP JUMPDEST SWAP2 SWAP1 POP JUMP JUMPDEST PUSH1 0x0 DUP1 PUSH1 0x2 SLOAD GT PUSH2 0x1C45 JUMPI PUSH1 0x0 DUP1 REVERT JUMPDEST PUSH1 0x0 PUSH1 0x1 SWAP1 POP JUMPDEST PUSH1 0x2 SLOAD DUP2 GT PUSH2 0x1CF0 JUMPI DUP3 PUSH20 0xFFFFFFFFFFFFFFFFFFFFFFFFFFFFFFFFFFFFFFFF AND PUSH1 0x7 PUSH1 0x0 DUP4 DUP2 MSTORE PUSH1 0x20 ADD SWAP1 DUP2 MSTORE PUSH1 0x20 ADD PUSH1 0x0 KECCAK256 PUSH1 0x0 ADD PUSH1 0x0 SWAP1 SLOAD SWAP1 PUSH2 0x100 EXP SWAP1 DIV PUSH20 0xFFFFFFFFFFFFFFFFFFFFFFFFFFFFFFFFFFFFFFFF AND PUSH20 0xFFFFFFFFFFFFFFFFFFFFFFFFFFFFFFFFFFFFFFFF AND SUB PUSH2 0x1CDD JUMPI PUSH1 0x7 PUSH1 0x0 DUP3 DUP2 MSTORE PUSH1 0x20 ADD SWAP1 DUP2 MSTORE PUSH1 0x20 ADD PUSH1 0x0 KECCAK256 PUSH1 0x1 ADD SLOAD SWAP2 POP POP PUSH2 0x1CF6 JUMP JUMPDEST DUP1 DUP1 PUSH2 0x1CE8 SWAP1 PUSH2 0x2359 JUMP JUMPDEST SWAP2 POP POP PUSH2 0x1C4C JUMP JUMPDEST POP PUSH1 0x0 SWAP1 POP JUMPDEST SWAP2 SWAP1 POP JUMP JUMPDEST PUSH1 0x0 DUP1 PUSH1 0x3 SLOAD GT PUSH2 0x1D0B JUMPI PUSH1 0x0 DUP1 REVERT JUMPDEST PUSH1 0x0 PUSH1 0x1 SWAP1 POP JUMPDEST PUSH1 0x3 SLOAD DUP2 GT PUSH2 0x1DB6 JUMPI DUP3 PUSH20 0xFFFFFFFFFFFFFFFFFFFFFFFFFFFFFFFFFFFFFFFF AND PUSH1 0x8 PUSH1 0x0 DUP4 DUP2 MSTORE PUSH1 0x20 ADD SWAP1 DUP2 MSTORE PUSH1 0x20 ADD PUSH1 0x0 KECCAK256 PUSH1 0x0 ADD PUSH1 0x0 SWAP1 SLOAD SWAP1 PUSH2 0x100 EXP SWAP1 DIV PUSH20 0xFFFFFFFFFFFFFFFFFFFFFFFFFFFFFFFFFFFFFFFF AND PUSH20 0xFFFFFFFFFFFFFFFFFFFFFFFFFFFFFFFFFFFFFFFF AND SUB PUSH2 0x1DA3 JUMPI PUSH1 0x8 PUSH1 0x0 DUP3 DUP2 MSTORE PUSH1 0x20 ADD SWAP1 DUP2 MSTORE PUSH1 0x20 ADD PUSH1 0x0 KECCAK256 PUSH1 0x1 ADD SLOAD SWAP2 POP POP PUSH2 0x1DBC JUMP JUMPDEST DUP1 DUP1 PUSH2 0x1DAE SWAP1 PUSH2 0x2359 JUMP JUMPDEST SWAP2 POP POP PUSH2 0x1D12 JUMP JUMPDEST POP PUSH1 0x0 SWAP1 POP JUMPDEST SWAP2 SWAP1 POP JUMP JUMPDEST PUSH1 0x0 DUP2 SWAP1 POP SWAP2 SWAP1 POP JUMP JUMPDEST PUSH2 0x1DD4 DUP2 PUSH2 0x1DC1 JUMP JUMPDEST DUP3 MSTORE POP POP JUMP JUMPDEST PUSH1 0x0 PUSH1 0x20 DUP3 ADD SWAP1 POP PUSH2 0x1DEF PUSH1 0x0 DUP4 ADD DUP5 PUSH2 0x1DCB JUMP JUMPDEST SWAP3 SWAP2 POP POP JUMP JUMPDEST PUSH1 0x0 PUSH1 0x40 MLOAD SWAP1 POP SWAP1 JUMP JUMPDEST PUSH1 0x0 DUP1 REVERT JUMPDEST PUSH1 0x0 DUP1 REVERT JUMPDEST PUSH1 0x0 PUSH20 0xFFFFFFFFFFFFFFFFFFFFFFFFFFFFFFFFFFFFFFFF DUP3 AND SWAP1 POP SWAP2 SWAP1 POP JUMP JUMPDEST PUSH1 0x0 PUSH2 0x1E34 DUP3 PUSH2 0x1E09 JUMP JUMPDEST SWAP1 POP SWAP2 SWAP1 POP JUMP JUMPDEST PUSH2 0x1E44 DUP2 PUSH2 0x1E29 JUMP JUMPDEST DUP2 EQ PUSH2 0x1E4F JUMPI PUSH1 0x0 DUP1 REVERT JUMPDEST POP JUMP JUMPDEST PUSH1 0x0 DUP2 CALLDATALOAD SWAP1 POP PUSH2 0x1E61 DUP2 PUSH2 0x1E3B JUMP JUMPDEST SWAP3 SWAP2 POP POP JUMP JUMPDEST PUSH1 0x0 DUP1 REVERT JUMPDEST PUSH1 0x0 DUP1 REVERT JUMPDEST PUSH1 0x0 PUSH1 0x1F NOT PUSH1 0x1F DUP4 ADD AND SWAP1 POP SWAP2 SWAP1 POP JUMP JUMPDEST PUSH32 0x4E487B7100000000000000000000000000000000000000000000000000000000 PUSH1 0x0 MSTORE PUSH1 0x41 PUSH1 0x4 MSTORE PUSH1 0x24 PUSH1 0x0 REVERT JUMPDEST PUSH2 0x1EBA DUP3 PUSH2 0x1E71 JUMP JUMPDEST DUP2 ADD DUP2 DUP2 LT PUSH8 0xFFFFFFFFFFFFFFFF DUP3 GT OR ISZERO PUSH2 0x1ED9 JUMPI PUSH2 0x1ED8 PUSH2 0x1E82 JUMP JUMPDEST JUMPDEST DUP1 PUSH1 0x40 MSTORE POP POP POP JUMP JUMPDEST PUSH1 0x0 PUSH2 0x1EEC PUSH2 0x1DF5 JUMP JUMPDEST SWAP1 POP PUSH2 0x1EF8 DUP3 DUP3 PUSH2 0x1EB1 JUMP JUMPDEST SWAP2 SWAP1 POP JUMP JUMPDEST PUSH1 0x0 PUSH8 0xFFFFFFFFFFFFFFFF DUP3 GT ISZERO PUSH2 0x1F18 JUMPI PUSH2 0x1F17 PUSH2 0x1E82 JUMP JUMPDEST JUMPDEST PUSH2 0x1F21 DUP3 PUSH2 0x1E71 JUMP JUMPDEST SWAP1 POP PUSH1 0x20 DUP2 ADD SWAP1 POP SWAP2 SWAP1 POP JUMP JUMPDEST DUP3 DUP2 DUP4 CALLDATACOPY PUSH1 0x0 DUP4 DUP4 ADD MSTORE POP POP POP JUMP JUMPDEST PUSH1 0x0 PUSH2 0x1F50 PUSH2 0x1F4B DUP5 PUSH2 0x1EFD JUMP JUMPDEST PUSH2 0x1EE2 JUMP JUMPDEST SWAP1 POP DUP3 DUP2 MSTORE PUSH1 0x20 DUP2 ADD DUP5 DUP5 DUP5 ADD GT ISZERO PUSH2 0x1F6C JUMPI PUSH2 0x1F6B PUSH2 0x1E6C JUMP JUMPDEST JUMPDEST PUSH2 0x1F77 DUP5 DUP3 DUP6 PUSH2 0x1F2E JUMP JUMPDEST POP SWAP4 SWAP3 POP POP POP JUMP JUMPDEST PUSH1 0x0 DUP3 PUSH1 0x1F DUP4 ADD SLT PUSH2 0x1F94 JUMPI PUSH2 0x1F93 PUSH2 0x1E67 JUMP JUMPDEST JUMPDEST DUP2 CALLDATALOAD PUSH2 0x1FA4 DUP5 DUP3 PUSH1 0x20 DUP7 ADD PUSH2 0x1F3D JUMP JUMPDEST SWAP2 POP POP SWAP3 SWAP2 POP POP JUMP JUMPDEST PUSH1 0x0 DUP1 PUSH1 0x0 PUSH1 0x60 DUP5 DUP7 SUB SLT ISZERO PUSH2 0x1FC6 JUMPI PUSH2 0x1FC5 PUSH2 0x1DFF JUMP JUMPDEST JUMPDEST PUSH1 0x0 PUSH2 0x1FD4 DUP7 DUP3 DUP8 ADD PUSH2 0x1E52 JUMP JUMPDEST SWAP4 POP POP PUSH1 0x20 DUP5 ADD CALLDATALOAD PUSH8 0xFFFFFFFFFFFFFFFF DUP2 GT ISZERO PUSH2 0x1FF5 JUMPI PUSH2 0x1FF4 PUSH2 0x1E04 JUMP JUMPDEST JUMPDEST PUSH2 0x2001 DUP7 DUP3 DUP8 ADD PUSH2 0x1F7F JUMP JUMPDEST SWAP3 POP POP PUSH1 0x40 DUP5 ADD CALLDATALOAD PUSH8 0xFFFFFFFFFFFFFFFF DUP2 GT ISZERO PUSH2 0x2022 JUMPI PUSH2 0x2021 PUSH2 0x1E04 JUMP JUMPDEST JUMPDEST PUSH2 0x202E DUP7 DUP3 DUP8 ADD PUSH2 0x1F7F JUMP JUMPDEST SWAP2 POP POP SWAP3 POP SWAP3 POP SWAP3 JUMP JUMPDEST PUSH2 0x2041 DUP2 PUSH2 0x1DC1 JUMP JUMPDEST DUP2 EQ PUSH2 0x204C JUMPI PUSH1 0x0 DUP1 REVERT JUMPDEST POP JUMP JUMPDEST PUSH1 0x0 DUP2 CALLDATALOAD SWAP1 POP PUSH2 0x205E DUP2 PUSH2 0x2038 JUMP JUMPDEST SWAP3 SWAP2 POP POP JUMP JUMPDEST PUSH1 0x0 PUSH1 0x20 DUP3 DUP5 SUB SLT ISZERO PUSH2 0x207A JUMPI PUSH2 0x2079 PUSH2 0x1DFF JUMP JUMPDEST JUMPDEST PUSH1 0x0 PUSH2 0x2088 DUP5 DUP3 DUP6 ADD PUSH2 0x204F JUMP JUMPDEST SWAP2 POP POP SWAP3 SWAP2 POP POP JUMP JUMPDEST PUSH2 0x209A DUP2 PUSH2 0x1E29 JUMP JUMPDEST DUP3 MSTORE POP POP JUMP JUMPDEST PUSH1 0x0 DUP2 MLOAD SWAP1 POP SWAP2 SWAP1 POP JUMP JUMPDEST PUSH1 0x0 DUP3 DUP3 MSTORE PUSH1 0x20 DUP3 ADD SWAP1 POP SWAP3 SWAP2 POP POP JUMP JUMPDEST PUSH1 0x0 JUMPDEST DUP4 DUP2 LT ISZERO PUSH2 0x20DA JUMPI DUP1 DUP3 ADD MLOAD DUP2 DUP5 ADD MSTORE PUSH1 0x20 DUP2 ADD SWAP1 POP PUSH2 0x20BF JUMP JUMPDEST PUSH1 0x0 DUP5 DUP5 ADD MSTORE POP POP POP POP JUMP JUMPDEST PUSH1 0x0 PUSH2 0x20F1 DUP3 PUSH2 0x20A0 JUMP JUMPDEST PUSH2 0x20FB DUP2 DUP6 PUSH2 0x20AB JUMP JUMPDEST SWAP4 POP PUSH2 0x210B DUP2 DUP6 PUSH1 0x20 DUP7 ADD PUSH2 0x20BC JUMP JUMPDEST PUSH2 0x2114 DUP2 PUSH2 0x1E71 JUMP JUMPDEST DUP5 ADD SWAP2 POP POP SWAP3 SWAP2 POP POP JUMP JUMPDEST PUSH1 0x0 PUSH1 0x80 DUP3 ADD SWAP1 POP PUSH2 0x2134 PUSH1 0x0 DUP4 ADD DUP8 PUSH2 0x2091 JUMP JUMPDEST PUSH2 0x2141 PUSH1 0x20 DUP4 ADD DUP7 PUSH2 0x1DCB JUMP JUMPDEST DUP2 DUP2 SUB PUSH1 0x40 DUP4 ADD MSTORE PUSH2 0x2153 DUP2 DUP6 PUSH2 0x20E6 JUMP JUMPDEST SWAP1 POP DUP2 DUP2 SUB PUSH1 0x60 DUP4 ADD MSTORE PUSH2 0x2167 DUP2 DUP5 PUSH2 0x20E6 JUMP JUMPDEST SWAP1 POP SWAP6 SWAP5 POP POP POP POP POP JUMP JUMPDEST PUSH32 0x4E487B7100000000000000000000000000000000000000000000000000000000 PUSH1 0x0 MSTORE PUSH1 0x21 PUSH1 0x4 MSTORE PUSH1 0x24 PUSH1 0x0 REVERT JUMPDEST PUSH1 0x6 DUP2 LT PUSH2 0x21B2 JUMPI PUSH2 0x21B1 PUSH2 0x2172 JUMP JUMPDEST JUMPDEST POP JUMP JUMPDEST PUSH1 0x0 DUP2 SWAP1 POP PUSH2 0x21C3 DUP3 PUSH2 0x21A1 JUMP JUMPDEST SWAP2 SWAP1 POP JUMP JUMPDEST PUSH1 0x0 PUSH2 0x21D3 DUP3 PUSH2 0x21B5 JUMP JUMPDEST SWAP1 POP SWAP2 SWAP1 POP JUMP JUMPDEST PUSH2 0x21E3 DUP2 PUSH2 0x21C8 JUMP JUMPDEST DUP3 MSTORE POP POP JUMP JUMPDEST PUSH1 0x0 PUSH2 0x100 DUP3 ADD SWAP1 POP PUSH2 0x21FF PUSH1 0x0 DUP4 ADD DUP12 PUSH2 0x1DCB JUMP JUMPDEST DUP2 DUP2 SUB PUSH1 0x20 DUP4 ADD MSTORE PUSH2 0x2211 DUP2 DUP11 PUSH2 0x20E6 JUMP JUMPDEST SWAP1 POP DUP2 DUP2 SUB PUSH1 0x40 DUP4 ADD MSTORE PUSH2 0x2225 DUP2 DUP10 PUSH2 0x20E6 JUMP JUMPDEST SWAP1 POP PUSH2 0x2234 PUSH1 0x60 DUP4 ADD DUP9 PUSH2 0x1DCB JUMP JUMPDEST PUSH2 0x2241 PUSH1 0x80 DUP4 ADD DUP8 PUSH2 0x1DCB JUMP JUMPDEST PUSH2 0x224E PUSH1 0xA0 DUP4 ADD DUP7 PUSH2 0x1DCB JUMP JUMPDEST PUSH2 0x225B PUSH1 0xC0 DUP4 ADD DUP6 PUSH2 0x1DCB JUMP JUMPDEST PUSH2 0x2268 PUSH1 0xE0 DUP4 ADD DUP5 PUSH2 0x21DA JUMP JUMPDEST SWAP10 SWAP9 POP POP POP POP POP POP POP POP POP JUMP JUMPDEST PUSH1 0x0 PUSH1 0x20 DUP3 ADD SWAP1 POP PUSH2 0x228A PUSH1 0x0 DUP4 ADD DUP5 PUSH2 0x2091 JUMP JUMPDEST SWAP3 SWAP2 POP POP JUMP JUMPDEST PUSH1 0x0 DUP1 PUSH1 0x40 DUP4 DUP6 SUB SLT ISZERO PUSH2 0x22A7 JUMPI PUSH2 0x22A6 PUSH2 0x1DFF JUMP JUMPDEST JUMPDEST PUSH1 0x0 DUP4 ADD CALLDATALOAD PUSH8 0xFFFFFFFFFFFFFFFF DUP2 GT ISZERO PUSH2 0x22C5 JUMPI PUSH2 0x22C4 PUSH2 0x1E04 JUMP JUMPDEST JUMPDEST PUSH2 0x22D1 DUP6 DUP3 DUP7 ADD PUSH2 0x1F7F JUMP JUMPDEST SWAP3 POP POP PUSH1 0x20 DUP4 ADD CALLDATALOAD PUSH8 0xFFFFFFFFFFFFFFFF DUP2 GT ISZERO PUSH2 0x22F2 JUMPI PUSH2 0x22F1 PUSH2 0x1E04 JUMP JUMPDEST JUMPDEST PUSH2 0x22FE DUP6 DUP3 DUP7 ADD PUSH2 0x1F7F JUMP JUMPDEST SWAP2 POP POP SWAP3 POP SWAP3 SWAP1 POP JUMP JUMPDEST PUSH1 0x0 PUSH1 0x20 DUP3 ADD SWAP1 POP DUP2 DUP2 SUB PUSH1 0x0 DUP4 ADD MSTORE PUSH2 0x2322 DUP2 DUP5 PUSH2 0x20E6 JUMP JUMPDEST SWAP1 POP SWAP3 SWAP2 POP POP JUMP JUMPDEST PUSH32 0x4E487B7100000000000000000000000000000000000000000000000000000000 PUSH1 0x0 MSTORE PUSH1 0x11 PUSH1 0x4 MSTORE PUSH1 0x24 PUSH1 0x0 REVERT JUMPDEST PUSH1 0x0 PUSH2 0x2364 DUP3 PUSH2 0x1DC1 JUMP JUMPDEST SWAP2 POP PUSH32 0xFFFFFFFFFFFFFFFFFFFFFFFFFFFFFFFFFFFFFFFFFFFFFFFFFFFFFFFFFFFFFFFF DUP3 SUB PUSH2 0x2396 JUMPI PUSH2 0x2395 PUSH2 0x232A JUMP JUMPDEST JUMPDEST PUSH1 0x1 DUP3 ADD SWAP1 POP SWAP2 SWAP1 POP JUMP JUMPDEST PUSH32 0x4E487B7100000000000000000000000000000000000000000000000000000000 PUSH1 0x0 MSTORE PUSH1 0x22 PUSH1 0x4 MSTORE PUSH1 0x24 PUSH1 0x0 REVERT JUMPDEST PUSH1 0x0 PUSH1 0x2 DUP3 DIV SWAP1 POP PUSH1 0x1 DUP3 AND DUP1 PUSH2 0x23E8 JUMPI PUSH1 0x7F DUP3 AND SWAP2 POP JUMPDEST PUSH1 0x20 DUP3 LT DUP2 SUB PUSH2 0x23FB JUMPI PUSH2 0x23FA PUSH2 0x23A1 JUMP JUMPDEST JUMPDEST POP SWAP2 SWAP1 POP JUMP JUMPDEST PUSH1 0x0 DUP2 SWAP1 POP DUP2 PUSH1 0x0 MSTORE PUSH1 0x20 PUSH1 0x0 KECCAK256 SWAP1 POP SWAP2 SWAP1 POP JUMP JUMPDEST PUSH1 0x0 PUSH1 0x20 PUSH1 0x1F DUP4 ADD DIV SWAP1 POP SWAP2 SWAP1 POP JUMP JUMPDEST PUSH1 0x0 DUP3 DUP3 SHL SWAP1 POP SWAP3 SWAP2 POP POP JUMP JUMPDEST PUSH1 0x0 PUSH1 0x8 DUP4 MUL PUSH2 0x2463 PUSH32 0xFFFFFFFFFFFFFFFFFFFFFFFFFFFFFFFFFFFFFFFFFFFFFFFFFFFFFFFFFFFFFFFF DUP3 PUSH2 0x2426 JUMP JUMPDEST PUSH2 0x246D DUP7 DUP4 PUSH2 0x2426 JUMP JUMPDEST SWAP6 POP DUP1 NOT DUP5 AND SWAP4 POP DUP1 DUP7 AND DUP5 OR SWAP3 POP POP POP SWAP4 SWAP3 POP POP POP JUMP JUMPDEST PUSH1 0x0 DUP2 SWAP1 POP SWAP2 SWAP1 POP JUMP JUMPDEST PUSH1 0x0 PUSH2 0x24AA PUSH2 0x24A5 PUSH2 0x24A0 DUP5 PUSH2 0x1DC1 JUMP JUMPDEST PUSH2 0x2485 JUMP JUMPDEST PUSH2 0x1DC1 JUMP JUMPDEST SWAP1 POP SWAP2 SWAP1 POP JUMP JUMPDEST PUSH1 0x0 DUP2 SWAP1 POP SWAP2 SWAP1 POP JUMP JUMPDEST PUSH2 0x24C4 DUP4 PUSH2 0x248F JUMP JUMPDEST PUSH2 0x24D8 PUSH2 0x24D0 DUP3 PUSH2 0x24B1 JUMP JUMPDEST DUP5 DUP5 SLOAD PUSH2 0x2433 JUMP JUMPDEST DUP3 SSTORE POP POP POP POP JUMP JUMPDEST PUSH1 0x0 SWAP1 JUMP JUMPDEST PUSH2 0x24ED PUSH2 0x24E0 JUMP JUMPDEST PUSH2 0x24F8 DUP2 DUP5 DUP5 PUSH2 0x24BB JUMP JUMPDEST POP POP POP JUMP JUMPDEST JUMPDEST DUP2 DUP2 LT ISZERO PUSH2 0x251C JUMPI PUSH2 0x2511 PUSH1 0x0 DUP3 PUSH2 0x24E5 JUMP JUMPDEST PUSH1 0x1 DUP2 ADD SWAP1 POP PUSH2 0x24FE JUMP JUMPDEST POP POP JUMP JUMPDEST PUSH1 0x1F DUP3 GT ISZERO PUSH2 0x2561 JUMPI PUSH2 0x2532 DUP2 PUSH2 0x2401 JUMP JUMPDEST PUSH2 0x253B DUP5 PUSH2 0x2416 JUMP JUMPDEST DUP2 ADD PUSH1 0x20 DUP6 LT ISZERO PUSH2 0x254A JUMPI DUP2 SWAP1 POP JUMPDEST PUSH2 0x255E PUSH2 0x2556 DUP6 PUSH2 0x2416 JUMP JUMPDEST DUP4 ADD DUP3 PUSH2 0x24FD JUMP JUMPDEST POP POP JUMPDEST POP POP POP JUMP JUMPDEST PUSH1 0x0 DUP3 DUP3 SHR SWAP1 POP SWAP3 SWAP2 POP POP JUMP JUMPDEST PUSH1 0x0 PUSH2 0x2584 PUSH1 0x0 NOT DUP5 PUSH1 0x8 MUL PUSH2 0x2566 JUMP JUMPDEST NOT DUP1 DUP4 AND SWAP2 POP POP SWAP3 SWAP2 POP POP JUMP JUMPDEST PUSH1 0x0 PUSH2 0x259D DUP4 DUP4 PUSH2 0x2573 JUMP JUMPDEST SWAP2 POP DUP3 PUSH1 0x2 MUL DUP3 OR SWAP1 POP SWAP3 SWAP2 POP POP JUMP JUMPDEST PUSH2 0x25B6 DUP3 PUSH2 0x20A0 JUMP JUMPDEST PUSH8 0xFFFFFFFFFFFFFFFF DUP2 GT ISZERO PUSH2 0x25CF JUMPI PUSH2 0x25CE PUSH2 0x1E82 JUMP JUMPDEST JUMPDEST PUSH2 0x25D9 DUP3 SLOAD PUSH2 0x23D0 JUMP JUMPDEST PUSH2 0x25E4 DUP3 DUP3 DUP6 PUSH2 0x2520 JUMP JUMPDEST PUSH1 0x0 PUSH1 0x20 SWAP1 POP PUSH1 0x1F DUP4 GT PUSH1 0x1 DUP2 EQ PUSH2 0x2617 JUMPI PUSH1 0x0 DUP5 ISZERO PUSH2 0x2605 JUMPI DUP3 DUP8 ADD MLOAD SWAP1 POP JUMPDEST PUSH2 0x260F DUP6 DUP3 PUSH2 0x2591 JUMP JUMPDEST DUP7 SSTORE POP PUSH2 0x2677 JUMP JUMPDEST PUSH1 0x1F NOT DUP5 AND PUSH2 0x2625 DUP7 PUSH2 0x2401 JUMP JUMPDEST PUSH1 0x0 JUMPDEST DUP3 DUP2 LT ISZERO PUSH2 0x264D JUMPI DUP5 DUP10 ADD MLOAD DUP3 SSTORE PUSH1 0x1 DUP3 ADD SWAP2 POP PUSH1 0x20 DUP6 ADD SWAP5 POP PUSH1 0x20 DUP2 ADD SWAP1 POP PUSH2 0x2628 JUMP JUMPDEST DUP7 DUP4 LT ISZERO PUSH2 0x266A JUMPI DUP5 DUP10 ADD MLOAD PUSH2 0x2666 PUSH1 0x1F DUP10 AND DUP3 PUSH2 0x2573 JUMP JUMPDEST DUP4 SSTORE POP JUMPDEST PUSH1 0x1 PUSH1 0x2 DUP9 MUL ADD DUP9 SSTORE POP POP POP JUMPDEST POP POP POP POP POP POP JUMP JUMPDEST PUSH32 0x4E6F206167726963756C7475726520746F6F6C7320617661696C61626C650000 PUSH1 0x0 DUP3 ADD MSTORE POP JUMP JUMPDEST PUSH1 0x0 PUSH2 0x26B5 PUSH1 0x1E DUP4 PUSH2 0x20AB JUMP JUMPDEST SWAP2 POP PUSH2 0x26C0 DUP3 PUSH2 0x267F JUMP JUMPDEST PUSH1 0x20 DUP3 ADD SWAP1 POP SWAP2 SWAP1 POP JUMP JUMPDEST PUSH1 0x0 PUSH1 0x20 DUP3 ADD SWAP1 POP DUP2 DUP2 SUB PUSH1 0x0 DUP4 ADD MSTORE PUSH2 0x26E4 DUP2 PUSH2 0x26A8 JUMP JUMPDEST SWAP1 POP SWAP2 SWAP1 POP JUMP JUMPDEST PUSH32 0x496E76616C6964206167726963756C7475726520494400000000000000000000 PUSH1 0x0 DUP3 ADD MSTORE POP JUMP JUMPDEST PUSH1 0x0 PUSH2 0x2721 PUSH1 0x16 DUP4 PUSH2 0x20AB JUMP JUMPDEST SWAP2 POP PUSH2 0x272C DUP3 PUSH2 0x26EB JUMP JUMPDEST PUSH1 0x20 DUP3 ADD SWAP1 POP SWAP2 SWAP1 POP JUMP JUMPDEST PUSH1 0x0 PUSH1 0x20 DUP3 ADD SWAP1 POP DUP2 DUP2 SUB PUSH1 0x0 DUP4 ADD MSTORE PUSH2 0x2750 DUP2 PUSH2 0x2714 JUMP JUMPDEST SWAP1 POP SWAP2 SWAP1 POP JUMP INVALID COINBASE PUSH8 0x726963756C747572 PUSH6 0x20746F6F6C2F PUSH21 0x6563686E69717565204F726465726564A264697066 PUSH20 0x5822122041C368D04E95E5C94B578649B0FBF14F PUSH5 0xDF6FA9DF2B SSTORE MULMOD CODECOPY LOG3 SWAP15 0xB3 PUSH26 0x5F01D764736F6C634300081A0033000000000000000000000000 "
				},
				"gasEstimates": {
					"creation": {
						"codeDepositCost": "2031800",
						"executionCost": "51452",
						"totalCost": "2083252"
					},
					"external": {
						"AgricultureStock(uint256)": "infinite",
						"DIS(uint256)": "infinite",
						"Distribute(uint256)": "infinite",
						"MAN(uint256)": "infinite",
						"Manufacturing(uint256)": "infinite",
						"Owner()": "2533",
						"RET(uint256)": "infinite",
						"RMS(uint256)": "infinite",
						"RMSsupply(uint256)": "infinite",
						"Retail(uint256)": "infinite",
						"addAgriculture(string,string)": "infinite",
						"addDistributor(address,string,string)": "infinite",
						"addManufacturer(address,string,string)": "infinite",
						"addRMS(address,string,string)": "infinite",
						"addRetailer(address,string,string)": "infinite",
						"agricultureCtr()": "2453",
						"disCtr()": "2541",
						"manCtr()": "2474",
						"retCtr()": "2562",
						"rmsCtr()": "2517",
						"showStage(uint256)": "infinite",
						"sold(uint256)": "infinite"
					},
					"internal": {
						"findDIS(address)": "infinite",
						"findMAN(address)": "infinite",
						"findRET(address)": "infinite",
						"findRMS(address)": "infinite"
					}
				},
				"methodIdentifiers": {
					"AgricultureStock(uint256)": "9ba9f1bb",
					"DIS(uint256)": "2b0187ac",
					"Distribute(uint256)": "4def474a",
					"MAN(uint256)": "cc403069",
					"Manufacturing(uint256)": "a48d335a",
					"Owner()": "b4a99a4e",
					"RET(uint256)": "59bf286f",
					"RMS(uint256)": "eef5cb40",
					"RMSsupply(uint256)": "86c18275",
					"Retail(uint256)": "3d753a1c",
					"addAgriculture(string,string)": "cc004874",
					"addDistributor(address,string,string)": "2a4af440",
					"addManufacturer(address,string,string)": "6a992c9f",
					"addRMS(address,string,string)": "2b70b08d",
					"addRetailer(address,string,string)": "857ddb04",
					"agricultureCtr()": "102464ea",
					"disCtr()": "2bdb2e6b",
					"manCtr()": "438e9c4d",
					"retCtr()": "7e43d94d",
					"rmsCtr()": "dd286398",
					"showStage(uint256)": "e101a2e0",
					"sold(uint256)": "9c03facb"
				}
			},
			"storageLayout": {
				"storage": [
					{
						"astId": 3,
						"contract": "contracts/SupplyChain.sol:SupplyChain",
						"label": "Owner",
						"offset": 0,
						"slot": "0",
						"type": "t_address"
					},
					{
						"astId": 33,
						"contract": "contracts/SupplyChain.sol:SupplyChain",
						"label": "agricultureCtr",
						"offset": 0,
						"slot": "1",
						"type": "t_uint256"
					},
					{
						"astId": 36,
						"contract": "contracts/SupplyChain.sol:SupplyChain",
						"label": "rmsCtr",
						"offset": 0,
						"slot": "2",
						"type": "t_uint256"
					},
					{
						"astId": 39,
						"contract": "contracts/SupplyChain.sol:SupplyChain",
						"label": "manCtr",
						"offset": 0,
						"slot": "3",
						"type": "t_uint256"
					},
					{
						"astId": 42,
						"contract": "contracts/SupplyChain.sol:SupplyChain",
						"label": "disCtr",
						"offset": 0,
						"slot": "4",
						"type": "t_uint256"
					},
					{
						"astId": 45,
						"contract": "contracts/SupplyChain.sol:SupplyChain",
						"label": "retCtr",
						"offset": 0,
						"slot": "5",
						"type": "t_uint256"
					},
					{
						"astId": 68,
						"contract": "contracts/SupplyChain.sol:SupplyChain",
						"label": "AgricultureStock",
						"offset": 0,
						"slot": "6",
						"type": "t_mapping(t_uint256,t_struct(agriculture)63_storage)"
					},
					{
						"astId": 170,
						"contract": "contracts/SupplyChain.sol:SupplyChain",
						"label": "RMS",
						"offset": 0,
						"slot": "7",
						"type": "t_mapping(t_uint256,t_struct(rawMaterialSupplier)165_storage)"
					},
					{
						"astId": 184,
						"contract": "contracts/SupplyChain.sol:SupplyChain",
						"label": "MAN",
						"offset": 0,
						"slot": "8",
						"type": "t_mapping(t_uint256,t_struct(manufacturer)179_storage)"
					},
					{
						"astId": 198,
						"contract": "contracts/SupplyChain.sol:SupplyChain",
						"label": "DIS",
						"offset": 0,
						"slot": "9",
						"type": "t_mapping(t_uint256,t_struct(distributor)193_storage)"
					},
					{
						"astId": 212,
						"contract": "contracts/SupplyChain.sol:SupplyChain",
						"label": "RET",
						"offset": 0,
						"slot": "10",
						"type": "t_mapping(t_uint256,t_struct(retailer)207_storage)"
					}
				],
				"types": {
					"t_address": {
						"encoding": "inplace",
						"label": "address",
						"numberOfBytes": "20"
					},
					"t_enum(STAGE)30": {
						"encoding": "inplace",
						"label": "enum SupplyChain.STAGE",
						"numberOfBytes": "1"
					},
					"t_mapping(t_uint256,t_struct(agriculture)63_storage)": {
						"encoding": "mapping",
						"key": "t_uint256",
						"label": "mapping(uint256 => struct SupplyChain.agriculture)",
						"numberOfBytes": "32",
						"value": "t_struct(agriculture)63_storage"
					},
					"t_mapping(t_uint256,t_struct(distributor)193_storage)": {
						"encoding": "mapping",
						"key": "t_uint256",
						"label": "mapping(uint256 => struct SupplyChain.distributor)",
						"numberOfBytes": "32",
						"value": "t_struct(distributor)193_storage"
					},
					"t_mapping(t_uint256,t_struct(manufacturer)179_storage)": {
						"encoding": "mapping",
						"key": "t_uint256",
						"label": "mapping(uint256 => struct SupplyChain.manufacturer)",
						"numberOfBytes": "32",
						"value": "t_struct(manufacturer)179_storage"
					},
					"t_mapping(t_uint256,t_struct(rawMaterialSupplier)165_storage)": {
						"encoding": "mapping",
						"key": "t_uint256",
						"label": "mapping(uint256 => struct SupplyChain.rawMaterialSupplier)",
						"numberOfBytes": "32",
						"value": "t_struct(rawMaterialSupplier)165_storage"
					},
					"t_mapping(t_uint256,t_struct(retailer)207_storage)": {
						"encoding": "mapping",
						"key": "t_uint256",
						"label": "mapping(uint256 => struct SupplyChain.retailer)",
						"numberOfBytes": "32",
						"value": "t_struct(retailer)207_storage"
					},
					"t_string_storage": {
						"encoding": "bytes",
						"label": "string",
						"numberOfBytes": "32"
					},
					"t_struct(agriculture)63_storage": {
						"encoding": "inplace",
						"label": "struct SupplyChain.agriculture",
						"members": [
							{
								"astId": 47,
								"contract": "contracts/SupplyChain.sol:SupplyChain",
								"label": "id",
								"offset": 0,
								"slot": "0",
								"type": "t_uint256"
							},
							{
								"astId": 49,
								"contract": "contracts/SupplyChain.sol:SupplyChain",
								"label": "name",
								"offset": 0,
								"slot": "1",
								"type": "t_string_storage"
							},
							{
								"astId": 51,
								"contract": "contracts/SupplyChain.sol:SupplyChain",
								"label": "description",
								"offset": 0,
								"slot": "2",
								"type": "t_string_storage"
							},
							{
								"astId": 53,
								"contract": "contracts/SupplyChain.sol:SupplyChain",
								"label": "RMSid",
								"offset": 0,
								"slot": "3",
								"type": "t_uint256"
							},
							{
								"astId": 55,
								"contract": "contracts/SupplyChain.sol:SupplyChain",
								"label": "MANid",
								"offset": 0,
								"slot": "4",
								"type": "t_uint256"
							},
							{
								"astId": 57,
								"contract": "contracts/SupplyChain.sol:SupplyChain",
								"label": "DISid",
								"offset": 0,
								"slot": "5",
								"type": "t_uint256"
							},
							{
								"astId": 59,
								"contract": "contracts/SupplyChain.sol:SupplyChain",
								"label": "RETid",
								"offset": 0,
								"slot": "6",
								"type": "t_uint256"
							},
							{
								"astId": 62,
								"contract": "contracts/SupplyChain.sol:SupplyChain",
								"label": "stage",
								"offset": 0,
								"slot": "7",
								"type": "t_enum(STAGE)30"
							}
						],
						"numberOfBytes": "256"
					},
					"t_struct(distributor)193_storage": {
						"encoding": "inplace",
						"label": "struct SupplyChain.distributor",
						"members": [
							{
								"astId": 186,
								"contract": "contracts/SupplyChain.sol:SupplyChain",
								"label": "addr",
								"offset": 0,
								"slot": "0",
								"type": "t_address"
							},
							{
								"astId": 188,
								"contract": "contracts/SupplyChain.sol:SupplyChain",
								"label": "id",
								"offset": 0,
								"slot": "1",
								"type": "t_uint256"
							},
							{
								"astId": 190,
								"contract": "contracts/SupplyChain.sol:SupplyChain",
								"label": "name",
								"offset": 0,
								"slot": "2",
								"type": "t_string_storage"
							},
							{
								"astId": 192,
								"contract": "contracts/SupplyChain.sol:SupplyChain",
								"label": "place",
								"offset": 0,
								"slot": "3",
								"type": "t_string_storage"
							}
						],
						"numberOfBytes": "128"
					},
					"t_struct(manufacturer)179_storage": {
						"encoding": "inplace",
						"label": "struct SupplyChain.manufacturer",
						"members": [
							{
								"astId": 172,
								"contract": "contracts/SupplyChain.sol:SupplyChain",
								"label": "addr",
								"offset": 0,
								"slot": "0",
								"type": "t_address"
							},
							{
								"astId": 174,
								"contract": "contracts/SupplyChain.sol:SupplyChain",
								"label": "id",
								"offset": 0,
								"slot": "1",
								"type": "t_uint256"
							},
							{
								"astId": 176,
								"contract": "contracts/SupplyChain.sol:SupplyChain",
								"label": "name",
								"offset": 0,
								"slot": "2",
								"type": "t_string_storage"
							},
							{
								"astId": 178,
								"contract": "contracts/SupplyChain.sol:SupplyChain",
								"label": "place",
								"offset": 0,
								"slot": "3",
								"type": "t_string_storage"
							}
						],
						"numberOfBytes": "128"
					},
					"t_struct(rawMaterialSupplier)165_storage": {
						"encoding": "inplace",
						"label": "struct SupplyChain.rawMaterialSupplier",
						"members": [
							{
								"astId": 158,
								"contract": "contracts/SupplyChain.sol:SupplyChain",
								"label": "addr",
								"offset": 0,
								"slot": "0",
								"type": "t_address"
							},
							{
								"astId": 160,
								"contract": "contracts/SupplyChain.sol:SupplyChain",
								"label": "id",
								"offset": 0,
								"slot": "1",
								"type": "t_uint256"
							},
							{
								"astId": 162,
								"contract": "contracts/SupplyChain.sol:SupplyChain",
								"label": "name",
								"offset": 0,
								"slot": "2",
								"type": "t_string_storage"
							},
							{
								"astId": 164,
								"contract": "contracts/SupplyChain.sol:SupplyChain",
								"label": "place",
								"offset": 0,
								"slot": "3",
								"type": "t_string_storage"
							}
						],
						"numberOfBytes": "128"
					},
					"t_struct(retailer)207_storage": {
						"encoding": "inplace",
						"label": "struct SupplyChain.retailer",
						"members": [
							{
								"astId": 200,
								"contract": "contracts/SupplyChain.sol:SupplyChain",
								"label": "addr",
								"offset": 0,
								"slot": "0",
								"type": "t_address"
							},
							{
								"astId": 202,
								"contract": "contracts/SupplyChain.sol:SupplyChain",
								"label": "id",
								"offset": 0,
								"slot": "1",
								"type": "t_uint256"
							},
							{
								"astId": 204,
								"contract": "contracts/SupplyChain.sol:SupplyChain",
								"label": "name",
								"offset": 0,
								"slot": "2",
								"type": "t_string_storage"
							},
							{
								"astId": 206,
								"contract": "contracts/SupplyChain.sol:SupplyChain",
								"label": "place",
								"offset": 0,
								"slot": "3",
								"type": "t_string_storage"
							}
						],
						"numberOfBytes": "128"
					},
					"t_uint256": {
						"encoding": "inplace",
						"label": "uint256",
						"numberOfBytes": "32"
					}
				}
			},
			"userdoc": {
				"kind": "user",
				"methods": {},
				"version": 1
			}
		}
	}
}