{
	"contracts/SupplyChain.sol": {
		"SupplyChain": {
			"abi": [
				{
					"inputs": [],
					"stateMutability": "nonpayable",
					"type": "constructor"
				},
				{
					"inputs": [
						{
							"internalType": "uint256",
							"name": "",
							"type": "uint256"
						}
					],
					"name": "AgricultureStock",
					"outputs": [
						{
							"internalType": "uint256",
							"name": "id",
							"type": "uint256"
						},
						{
							"internalType": "string",
							"name": "name",
							"type": "string"
						},
						{
							"internalType": "string",
							"name": "description",
							"type": "string"
						},
						{
							"internalType": "uint256",
							"name": "RMSid",
							"type": "uint256"
						},
						{
							"internalType": "uint256",
							"name": "MANid",
							"type": "uint256"
						},
						{
							"internalType": "uint256",
							"name": "DISid",
							"type": "uint256"
						},
						{
							"internalType": "uint256",
							"name": "RETid",
							"type": "uint256"
						},
						{
							"internalType": "enum SupplyChain.STAGE",
							"name": "stage",
							"type": "uint8"
						}
					],
					"stateMutability": "view",
					"type": "function"
				},
				{
					"inputs": [
						{
							"internalType": "uint256",
							"name": "",
							"type": "uint256"
						}
					],
					"name": "DIS",
					"outputs": [
						{
							"internalType": "address",
							"name": "addr",
							"type": "address"
						},
						{
							"internalType": "uint256",
							"name": "id",
							"type": "uint256"
						},
						{
							"internalType": "string",
							"name": "name",
							"type": "string"
						},
						{
							"internalType": "string",
							"name": "place",
							"type": "string"
						}
					],
					"stateMutability": "view",
					"type": "function"
				},
				{
					"inputs": [
						{
							"internalType": "uint256",
							"name": "_agricultureID",
							"type": "uint256"
						}
					],
					"name": "Distribute",
					"outputs": [],
					"stateMutability": "nonpayable",
					"type": "function"
				},
				{
					"inputs": [
						{
							"internalType": "uint256",
							"name": "",
							"type": "uint256"
						}
					],
					"name": "MAN",
					"outputs": [
						{
							"internalType": "address",
							"name": "addr",
							"type": "address"
						},
						{
							"internalType": "uint256",
							"name": "id",
							"type": "uint256"
						},
						{
							"internalType": "string",
							"name": "name",
							"type": "string"
						},
						{
							"internalType": "string",
							"name": "place",
							"type": "string"
						}
					],
					"stateMutability": "view",
					"type": "function"
				},
				{
					"inputs": [
						{
							"internalType": "uint256",
							"name": "_agricultureID",
							"type": "uint256"
						}
					],
					"name": "Manufacturing",
					"outputs": [],
					"stateMutability": "nonpayable",
					"type": "function"
				},
				{
					"inputs": [],
					"name": "Owner",
					"outputs": [
						{
							"internalType": "address",
							"name": "",
							"type": "address"
						}
					],
					"stateMutability": "view",
					"type": "function"
				},
				{
					"inputs": [
						{
							"internalType": "uint256",
							"name": "",
							"type": "uint256"
						}
					],
					"name": "RET",
					"outputs": [
						{
							"internalType": "address",
							"name": "addr",
							"type": "address"
						},
						{
							"internalType": "uint256",
							"name": "id",
							"type": "uint256"
						},
						{
							"internalType": "string",
							"name": "name",
							"type": "string"
						},
						{
							"internalType": "string",
							"name": "place",
							"type": "string"
						}
					],
					"stateMutability": "view",
					"type": "function"
				},
				{
					"inputs": [
						{
							"internalType": "uint256",
							"name": "",
							"type": "uint256"
						}
					],
					"name": "RMS",
					"outputs": [
						{
							"internalType": "address",
							"name": "addr",
							"type": "address"
						},
						{
							"internalType": "uint256",
							"name": "id",
							"type": "uint256"
						},
						{
							"internalType": "string",
							"name": "name",
							"type": "string"
						},
						{
							"internalType": "string",
							"name": "place",
							"type": "string"
						}
					],
					"stateMutability": "view",
					"type": "function"
				},
				{
					"inputs": [
						{
							"internalType": "uint256",
							"name": "_agricultureID",
							"type": "uint256"
						}
					],
					"name": "RMSsupply",
					"outputs": [],
					"stateMutability": "nonpayable",
					"type": "function"
				},
				{
					"inputs": [
						{
							"internalType": "uint256",
							"name": "_agricultureID",
							"type": "uint256"
						}
					],
					"name": "Retail",
					"outputs": [],
					"stateMutability": "nonpayable",
					"type": "function"
				},
				{
					"inputs": [
						{
							"internalType": "string",
							"name": "_name",
							"type": "string"
						},
						{
							"internalType": "string",
							"name": "_description",
							"type": "string"
						}
					],
					"name": "addAgriculture",
					"outputs": [],
					"stateMutability": "nonpayable",
					"type": "function"
				},
				{
					"inputs": [
						{
							"internalType": "address",
							"name": "_address",
							"type": "address"
						},
						{
							"internalType": "string",
							"name": "_name",
							"type": "string"
						},
						{
							"internalType": "string",
							"name": "_place",
							"type": "string"
						}
					],
					"name": "addDistributor",
					"outputs": [],
					"stateMutability": "nonpayable",
					"type": "function"
				},
				{
					"inputs": [
						{
							"internalType": "address",
							"name": "_address",
							"type": "address"
						},
						{
							"internalType": "string",
							"name": "_name",
							"type": "string"
						},
						{
							"internalType": "string",
							"name": "_place",
							"type": "string"
						}
					],
					"name": "addManufacturer",
					"outputs": [],
					"stateMutability": "nonpayable",
					"type": "function"
				},
				{
					"inputs": [
						{
							"internalType": "address",
							"name": "_address",
							"type": "address"
						},
						{
							"internalType": "string",
							"name": "_name",
							"type": "string"
						},
						{
							"internalType": "string",
							"name": "_place",
							"type": "string"
						}
					],
					"name": "addRMS",
					"outputs": [],
					"stateMutability": "nonpayable",
					"type": "function"
				},
				{
					"inputs": [
						{
							"internalType": "address",
							"name": "_address",
							"type": "address"
						},
						{
							"internalType": "string",
							"name": "_name",
							"type": "string"
						},
						{
							"internalType": "string",
							"name": "_place",
							"type": "string"
						}
					],
					"name": "addRetailer",
					"outputs": [],
					"stateMutability": "nonpayable",
					"type": "function"
				},
				{
					"inputs": [],
					"name": "agricultureCtr",
					"outputs": [
						{
							"internalType": "uint256",
							"name": "",
							"type": "uint256"
						}
					],
					"stateMutability": "view",
					"type": "function"
				},
				{
					"inputs": [],
					"name": "disCtr",
					"outputs": [
						{
							"internalType": "uint256",
							"name": "",
							"type": "uint256"
						}
					],
					"stateMutability": "view",
					"type": "function"
				},
				{
					"inputs": [],
					"name": "manCtr",
					"outputs": [
						{
							"internalType": "uint256",
							"name": "",
							"type": "uint256"
						}
					],
					"stateMutability": "view",
					"type": "function"
				},
				{
					"inputs": [],
					"name": "retCtr",
					"outputs": [
						{
							"internalType": "uint256",
							"name": "",
							"type": "uint256"
						}
					],
					"stateMutability": "view",
					"type": "function"
				},
				{
					"inputs": [],
					"name": "rmsCtr",
					"outputs": [
						{
							"internalType": "uint256",
							"name": "",
							"type": "uint256"
						}
					],
					"stateMutability": "view",
					"type": "function"
				},
				{
					"inputs": [
						{
							"internalType": "uint256",
							"name": "_agricultureID",
							"type": "uint256"
						}
					],
					"name": "showStage",
					"outputs": [
						{
							"internalType": "string",
							"name": "",
							"type": "string"
						}
					],
					"stateMutability": "view",
					"type": "function"
				},
				{
					"inputs": [
						{
							"internalType": "uint256",
							"name": "_agricultureID",
							"type": "uint256"
						}
					],
					"name": "sold",
					"outputs": [],
					"stateMutability": "nonpayable",
					"type": "function"
				}
			],
			"devdoc": {
				"kind": "dev",
				"methods": {},
				"version": 1
			},
			"evm": {
				"assembly": "    /* \"contracts/SupplyChain.sol\":69:10270  contract SupplyChain {... */\n  mstore(0x40, 0x80)\n    /* \"contracts/SupplyChain.sol\":1286:1287  0 */\n  0x00\n    /* \"contracts/SupplyChain.sol\":1254:1287  uint256 public agricultureCtr = 0 */\n  0x01\n  sstore\n    /* \"contracts/SupplyChain.sol\":1353:1354  0 */\n  0x00\n    /* \"contracts/SupplyChain.sol\":1329:1354  uint256 public rmsCtr = 0 */\n  0x02\n  sstore\n    /* \"contracts/SupplyChain.sol\":1411:1412  0 */\n  0x00\n    /* \"contracts/SupplyChain.sol\":1387:1412  uint256 public manCtr = 0 */\n  0x03\n  sstore\n    /* \"contracts/SupplyChain.sol\":1468:1469  0 */\n  0x00\n    /* \"contracts/SupplyChain.sol\":1444:1469  uint256 public disCtr = 0 */\n  0x04\n  sstore\n    /* \"contracts/SupplyChain.sol\":1522:1523  0 */\n  0x00\n    /* \"contracts/SupplyChain.sol\":1498:1523  uint256 public retCtr = 0 */\n  0x05\n  sstore\n    /* \"contracts/SupplyChain.sol\":360:418  constructor() public {... */\n  callvalue\n  dup1\n  iszero\n  tag_1\n  jumpi\n  0x00\n  dup1\n  revert\ntag_1:\n  pop\n    /* \"contracts/SupplyChain.sol\":400:410  msg.sender */\n  caller\n    /* \"contracts/SupplyChain.sol\":392:397  Owner */\n  0x00\n  dup1\n    /* \"contracts/SupplyChain.sol\":392:410  Owner = msg.sender */\n  0x0100\n  exp\n  dup2\n  sload\n  dup2\n  0xffffffffffffffffffffffffffffffffffffffff\n  mul\n  not\n  and\n  swap1\n  dup4\n  0xffffffffffffffffffffffffffffffffffffffff\n  and\n  mul\n  or\n  swap1\n  sstore\n  pop\n    /* \"contracts/SupplyChain.sol\":69:10270  contract SupplyChain {... */\n  dataSize(sub_0)\n  dup1\n  dataOffset(sub_0)\n  0x00\n  codecopy\n  0x00\n  return\nstop\n\nsub_0: assembly {\n        /* \"contracts/SupplyChain.sol\":69:10270  contract SupplyChain {... */\n      mstore(0x40, 0x80)\n      callvalue\n      dup1\n      iszero\n      tag_1\n      jumpi\n      0x00\n      dup1\n      revert\n    tag_1:\n      pop\n      jumpi(tag_2, lt(calldatasize, 0x04))\n      shr(0xe0, calldataload(0x00))\n      dup1\n      0x857ddb04\n      gt\n      tag_25\n      jumpi\n      dup1\n      0xb4a99a4e\n      gt\n      tag_26\n      jumpi\n      dup1\n      0xb4a99a4e\n      eq\n      tag_19\n      jumpi\n      dup1\n      0xcc004874\n      eq\n      tag_20\n      jumpi\n      dup1\n      0xcc403069\n      eq\n      tag_21\n      jumpi\n      dup1\n      0xdd286398\n      eq\n      tag_22\n      jumpi\n      dup1\n      0xe101a2e0\n      eq\n      tag_23\n      jumpi\n      dup1\n      0xeef5cb40\n      eq\n      tag_24\n      jumpi\n      jump(tag_2)\n    tag_26:\n      dup1\n      0x857ddb04\n      eq\n      tag_14\n      jumpi\n      dup1\n      0x86c18275\n      eq\n      tag_15\n      jumpi\n      dup1\n      0x9ba9f1bb\n      eq\n      tag_16\n      jumpi\n      dup1\n      0x9c03facb\n      eq\n      tag_17\n      jumpi\n      dup1\n      0xa48d335a\n      eq\n      tag_18\n      jumpi\n      jump(tag_2)\n    tag_25:\n      dup1\n      0x3d753a1c\n      gt\n      tag_27\n      jumpi\n      dup1\n      0x3d753a1c\n      eq\n      tag_8\n      jumpi\n      dup1\n      0x438e9c4d\n      eq\n      tag_9\n      jumpi\n      dup1\n      0x4def474a\n      eq\n      tag_10\n      jumpi\n      dup1\n      0x59bf286f\n      eq\n      tag_11\n      jumpi\n      dup1\n      0x6a992c9f\n      eq\n      tag_12\n      jumpi\n      dup1\n      0x7e43d94d\n      eq\n      tag_13\n      jumpi\n      jump(tag_2)\n    tag_27:\n      dup1\n      0x102464ea\n      eq\n      tag_3\n      jumpi\n      dup1\n      0x2a4af440\n      eq\n      tag_4\n      jumpi\n      dup1\n      0x2b0187ac\n      eq\n      tag_5\n      jumpi\n      dup1\n      0x2b70b08d\n      eq\n      tag_6\n      jumpi\n      dup1\n      0x2bdb2e6b\n      eq\n      tag_7\n      jumpi\n    tag_2:\n      0x00\n      dup1\n      revert\n        /* \"contracts/SupplyChain.sol\":1254:1287  uint256 public agricultureCtr = 0 */\n    tag_3:\n      tag_28\n      tag_29\n      jump\t// in\n    tag_28:\n      mload(0x40)\n      tag_30\n      swap2\n      swap1\n      tag_31\n      jump\t// in\n    tag_30:\n      mload(0x40)\n      dup1\n      swap2\n      sub\n      swap1\n      return\n        /* \"contracts/SupplyChain.sol\":5467:5703  function addDistributor(... */\n    tag_4:\n      tag_32\n      0x04\n      dup1\n      calldatasize\n      sub\n      dup2\n      add\n      swap1\n      tag_33\n      swap2\n      swap1\n      tag_34\n      jump\t// in\n    tag_33:\n      tag_35\n      jump\t// in\n    tag_32:\n      stop\n        /* \"contracts/SupplyChain.sol\":4350:4392  mapping(uint256 => distributor) public DIS */\n    tag_5:\n      tag_36\n      0x04\n      dup1\n      calldatasize\n      sub\n      dup2\n      add\n      swap1\n      tag_37\n      swap2\n      swap1\n      tag_38\n      jump\t// in\n    tag_37:\n      tag_39\n      jump\t// in\n    tag_36:\n      mload(0x40)\n      tag_40\n      swap5\n      swap4\n      swap3\n      swap2\n      swap1\n      tag_41\n      jump\t// in\n    tag_40:\n      mload(0x40)\n      dup1\n      swap2\n      sub\n      swap1\n      return\n        /* \"contracts/SupplyChain.sol\":4829:5065  function addRMS(... */\n    tag_6:\n      tag_42\n      0x04\n      dup1\n      calldatasize\n      sub\n      dup2\n      add\n      swap1\n      tag_43\n      swap2\n      swap1\n      tag_34\n      jump\t// in\n    tag_43:\n      tag_44\n      jump\t// in\n    tag_42:\n      stop\n        /* \"contracts/SupplyChain.sol\":1444:1469  uint256 public disCtr = 0 */\n    tag_7:\n      tag_45\n      tag_46\n      jump\t// in\n    tag_45:\n      mload(0x40)\n      tag_47\n      swap2\n      swap1\n      tag_31\n      jump\t// in\n    tag_47:\n      mload(0x40)\n      dup1\n      swap2\n      sub\n      swap1\n      return\n        /* \"contracts/SupplyChain.sol\":8475:8874  function Retail(uint256 _agricultureID) public {... */\n    tag_8:\n      tag_48\n      0x04\n      dup1\n      calldatasize\n      sub\n      dup2\n      add\n      swap1\n      tag_49\n      swap2\n      swap1\n      tag_38\n      jump\t// in\n    tag_49:\n      tag_50\n      jump\t// in\n    tag_48:\n      stop\n        /* \"contracts/SupplyChain.sol\":1387:1412  uint256 public manCtr = 0 */\n    tag_9:\n      tag_51\n      tag_52\n      jump\t// in\n    tag_51:\n      mload(0x40)\n      tag_53\n      swap2\n      swap1\n      tag_31\n      jump\t// in\n    tag_53:\n      mload(0x40)\n      dup1\n      swap2\n      sub\n      swap1\n      return\n        /* \"contracts/SupplyChain.sol\":7671:8079  function Distribute(uint256 _agricultureID) public {... */\n    tag_10:\n      tag_54\n      0x04\n      dup1\n      calldatasize\n      sub\n      dup2\n      add\n      swap1\n      tag_55\n      swap2\n      swap1\n      tag_38\n      jump\t// in\n    tag_55:\n      tag_56\n      jump\t// in\n    tag_54:\n      stop\n        /* \"contracts/SupplyChain.sol\":4687:4726  mapping(uint256 => retailer) public RET */\n    tag_11:\n      tag_57\n      0x04\n      dup1\n      calldatasize\n      sub\n      dup2\n      add\n      swap1\n      tag_58\n      swap2\n      swap1\n      tag_38\n      jump\t// in\n    tag_58:\n      tag_59\n      jump\t// in\n    tag_57:\n      mload(0x40)\n      tag_60\n      swap5\n      swap4\n      swap3\n      swap2\n      swap1\n      tag_41\n      jump\t// in\n    tag_60:\n      mload(0x40)\n      dup1\n      swap2\n      sub\n      swap1\n      return\n        /* \"contracts/SupplyChain.sol\":5148:5386  function addManufacturer(... */\n    tag_12:\n      tag_61\n      0x04\n      dup1\n      calldatasize\n      sub\n      dup2\n      add\n      swap1\n      tag_62\n      swap2\n      swap1\n      tag_34\n      jump\t// in\n    tag_62:\n      tag_63\n      jump\t// in\n    tag_61:\n      stop\n        /* \"contracts/SupplyChain.sol\":1498:1523  uint256 public retCtr = 0 */\n    tag_13:\n      tag_64\n      tag_65\n      jump\t// in\n    tag_64:\n      mload(0x40)\n      tag_66\n      swap2\n      swap1\n      tag_31\n      jump\t// in\n    tag_66:\n      mload(0x40)\n      dup1\n      swap2\n      sub\n      swap1\n      return\n        /* \"contracts/SupplyChain.sol\":5778:6008  function addRetailer(... */\n    tag_14:\n      tag_67\n      0x04\n      dup1\n      calldatasize\n      sub\n      dup2\n      add\n      swap1\n      tag_68\n      swap2\n      swap1\n      tag_34\n      jump\t// in\n    tag_68:\n      tag_69\n      jump\t// in\n    tag_67:\n      stop\n        /* \"contracts/SupplyChain.sol\":6085:6490  function RMSsupply(uint256 _agricultureID) public {... */\n    tag_15:\n      tag_70\n      0x04\n      dup1\n      calldatasize\n      sub\n      dup2\n      add\n      swap1\n      tag_71\n      swap2\n      swap1\n      tag_38\n      jump\t// in\n    tag_71:\n      tag_72\n      jump\t// in\n    tag_70:\n      stop\n        /* \"contracts/SupplyChain.sol\":2262:2317  mapping(uint256 => agriculture) public AgricultureStock */\n    tag_16:\n      tag_73\n      0x04\n      dup1\n      calldatasize\n      sub\n      dup2\n      add\n      swap1\n      tag_74\n      swap2\n      swap1\n      tag_38\n      jump\t// in\n    tag_74:\n      tag_75\n      jump\t// in\n    tag_73:\n      mload(0x40)\n      tag_76\n      swap9\n      swap8\n      swap7\n      swap6\n      swap5\n      swap4\n      swap3\n      swap2\n      swap1\n      tag_77\n      jump\t// in\n    tag_76:\n      mload(0x40)\n      dup1\n      swap2\n      sub\n      swap1\n      return\n        /* \"contracts/SupplyChain.sol\":9262:9731  function sold(uint256 _agricultureID) public {... */\n    tag_17:\n      tag_78\n      0x04\n      dup1\n      calldatasize\n      sub\n      dup2\n      add\n      swap1\n      tag_79\n      swap2\n      swap1\n      tag_38\n      jump\t// in\n    tag_79:\n      tag_80\n      jump\t// in\n    tag_78:\n      stop\n        /* \"contracts/SupplyChain.sol\":6854:7270  function Manufacturing(uint256 _agricultureID) public {... */\n    tag_18:\n      tag_81\n      0x04\n      dup1\n      calldatasize\n      sub\n      dup2\n      add\n      swap1\n      tag_82\n      swap2\n      swap1\n      tag_38\n      jump\t// in\n    tag_82:\n      tag_83\n      jump\t// in\n    tag_81:\n      stop\n        /* \"contracts/SupplyChain.sol\":236:256  address public Owner */\n    tag_19:\n      tag_84\n      tag_85\n      jump\t// in\n    tag_84:\n      mload(0x40)\n      tag_86\n      swap2\n      swap1\n      tag_87\n      jump\t// in\n    tag_86:\n      mload(0x40)\n      dup1\n      swap2\n      sub\n      swap1\n      return\n        /* \"contracts/SupplyChain.sol\":9800:10265  function addAgriculture(string memory _name, string memory _description)... */\n    tag_20:\n      tag_88\n      0x04\n      dup1\n      calldatasize\n      sub\n      dup2\n      add\n      swap1\n      tag_89\n      swap2\n      swap1\n      tag_90\n      jump\t// in\n    tag_89:\n      tag_91\n      jump\t// in\n    tag_88:\n      stop\n        /* \"contracts/SupplyChain.sol\":3994:4037  mapping(uint256 => manufacturer) public MAN */\n    tag_21:\n      tag_92\n      0x04\n      dup1\n      calldatasize\n      sub\n      dup2\n      add\n      swap1\n      tag_93\n      swap2\n      swap1\n      tag_38\n      jump\t// in\n    tag_93:\n      tag_94\n      jump\t// in\n    tag_92:\n      mload(0x40)\n      tag_95\n      swap5\n      swap4\n      swap3\n      swap2\n      swap1\n      tag_41\n      jump\t// in\n    tag_95:\n      mload(0x40)\n      dup1\n      swap2\n      sub\n      swap1\n      return\n        /* \"contracts/SupplyChain.sol\":1329:1354  uint256 public rmsCtr = 0 */\n    tag_22:\n      tag_96\n      tag_97\n      jump\t// in\n    tag_96:\n      mload(0x40)\n      tag_98\n      swap2\n      swap1\n      tag_31\n      jump\t// in\n    tag_98:\n      mload(0x40)\n      dup1\n      swap2\n      sub\n      swap1\n      return\n        /* \"contracts/SupplyChain.sol\":2371:3268  function showStage(uint256 _agricultureID)... */\n    tag_23:\n      tag_99\n      0x04\n      dup1\n      calldatasize\n      sub\n      dup2\n      add\n      swap1\n      tag_100\n      swap2\n      swap1\n      tag_38\n      jump\t// in\n    tag_100:\n      tag_101\n      jump\t// in\n    tag_99:\n      mload(0x40)\n      tag_102\n      swap2\n      swap1\n      tag_103\n      jump\t// in\n    tag_102:\n      mload(0x40)\n      dup1\n      swap2\n      sub\n      swap1\n      return\n        /* \"contracts/SupplyChain.sol\":3625:3675  mapping(uint256 => rawMaterialSupplier) public RMS */\n    tag_24:\n      tag_104\n      0x04\n      dup1\n      calldatasize\n      sub\n      dup2\n      add\n      swap1\n      tag_105\n      swap2\n      swap1\n      tag_38\n      jump\t// in\n    tag_105:\n      tag_106\n      jump\t// in\n    tag_104:\n      mload(0x40)\n      tag_107\n      swap5\n      swap4\n      swap3\n      swap2\n      swap1\n      tag_41\n      jump\t// in\n    tag_107:\n      mload(0x40)\n      dup1\n      swap2\n      sub\n      swap1\n      return\n        /* \"contracts/SupplyChain.sol\":1254:1287  uint256 public agricultureCtr = 0 */\n    tag_29:\n      sload(0x01)\n      dup2\n      jump\t// out\n        /* \"contracts/SupplyChain.sol\":5467:5703  function addDistributor(... */\n    tag_35:\n        /* \"contracts/SupplyChain.sol\":942:947  Owner */\n      0x00\n      dup1\n      sload\n      swap1\n      0x0100\n      exp\n      swap1\n      div\n      0xffffffffffffffffffffffffffffffffffffffff\n      and\n        /* \"contracts/SupplyChain.sol\":928:947  msg.sender == Owner */\n      0xffffffffffffffffffffffffffffffffffffffff\n      and\n        /* \"contracts/SupplyChain.sol\":928:938  msg.sender */\n      caller\n        /* \"contracts/SupplyChain.sol\":928:947  msg.sender == Owner */\n      0xffffffffffffffffffffffffffffffffffffffff\n      and\n      eq\n        /* \"contracts/SupplyChain.sol\":920:948  require(msg.sender == Owner) */\n      tag_109\n      jumpi\n      0x00\n      dup1\n      revert\n    tag_109:\n        /* \"contracts/SupplyChain.sol\":5618:5624  disCtr */\n      0x04\n      0x00\n        /* \"contracts/SupplyChain.sol\":5618:5626  disCtr++ */\n      dup2\n      sload\n      dup1\n      swap3\n      swap2\n      swap1\n      tag_111\n      swap1\n      tag_112\n      jump\t// in\n    tag_111:\n      swap2\n      swap1\n      pop\n      sstore\n      pop\n        /* \"contracts/SupplyChain.sol\":5651:5695  distributor(_address, disCtr, _name, _place) */\n      mload(0x40)\n      dup1\n      0x80\n      add\n      0x40\n      mstore\n      dup1\n        /* \"contracts/SupplyChain.sol\":5663:5671  _address */\n      dup5\n        /* \"contracts/SupplyChain.sol\":5651:5695  distributor(_address, disCtr, _name, _place) */\n      0xffffffffffffffffffffffffffffffffffffffff\n      and\n      dup2\n      mstore\n      0x20\n      add\n        /* \"contracts/SupplyChain.sol\":5673:5679  disCtr */\n      sload(0x04)\n        /* \"contracts/SupplyChain.sol\":5651:5695  distributor(_address, disCtr, _name, _place) */\n      dup2\n      mstore\n      0x20\n      add\n        /* \"contracts/SupplyChain.sol\":5681:5686  _name */\n      dup4\n        /* \"contracts/SupplyChain.sol\":5651:5695  distributor(_address, disCtr, _name, _place) */\n      dup2\n      mstore\n      0x20\n      add\n        /* \"contracts/SupplyChain.sol\":5688:5694  _place */\n      dup3\n        /* \"contracts/SupplyChain.sol\":5651:5695  distributor(_address, disCtr, _name, _place) */\n      dup2\n      mstore\n      pop\n        /* \"contracts/SupplyChain.sol\":5637:5640  DIS */\n      0x09\n        /* \"contracts/SupplyChain.sol\":5637:5648  DIS[disCtr] */\n      0x00\n        /* \"contracts/SupplyChain.sol\":5641:5647  disCtr */\n      sload(0x04)\n        /* \"contracts/SupplyChain.sol\":5637:5648  DIS[disCtr] */\n      dup2\n      mstore\n      0x20\n      add\n      swap1\n      dup2\n      mstore\n      0x20\n      add\n      0x00\n      keccak256\n        /* \"contracts/SupplyChain.sol\":5637:5695  DIS[disCtr] = distributor(_address, disCtr, _name, _place) */\n      0x00\n      dup3\n      add\n      mload\n      dup2\n      0x00\n      add\n      exp(0x0100, 0x00)\n      dup2\n      sload\n      dup2\n      0xffffffffffffffffffffffffffffffffffffffff\n      mul\n      not\n      and\n      swap1\n      dup4\n      0xffffffffffffffffffffffffffffffffffffffff\n      and\n      mul\n      or\n      swap1\n      sstore\n      pop\n      0x20\n      dup3\n      add\n      mload\n      dup2\n      0x01\n      add\n      sstore\n      0x40\n      dup3\n      add\n      mload\n      dup2\n      0x02\n      add\n      swap1\n      dup2\n      tag_113\n      swap2\n      swap1\n      tag_114\n      jump\t// in\n    tag_113:\n      pop\n      0x60\n      dup3\n      add\n      mload\n      dup2\n      0x03\n      add\n      swap1\n      dup2\n      tag_115\n      swap2\n      swap1\n      tag_114\n      jump\t// in\n    tag_115:\n      pop\n      swap1\n      pop\n      pop\n        /* \"contracts/SupplyChain.sol\":5467:5703  function addDistributor(... */\n      pop\n      pop\n      pop\n      jump\t// out\n        /* \"contracts/SupplyChain.sol\":4350:4392  mapping(uint256 => distributor) public DIS */\n    tag_39:\n      mstore(0x20, 0x09)\n      dup1\n      0x00\n      mstore\n      keccak256(0x00, 0x40)\n      0x00\n      swap2\n      pop\n      swap1\n      pop\n      dup1\n      0x00\n      add\n      0x00\n      swap1\n      sload\n      swap1\n      0x0100\n      exp\n      swap1\n      div\n      0xffffffffffffffffffffffffffffffffffffffff\n      and\n      swap1\n      dup1\n      0x01\n      add\n      sload\n      swap1\n      dup1\n      0x02\n      add\n      dup1\n      sload\n      tag_116\n      swap1\n      tag_117\n      jump\t// in\n    tag_116:\n      dup1\n      0x1f\n      add\n      0x20\n      dup1\n      swap2\n      div\n      mul\n      0x20\n      add\n      mload(0x40)\n      swap1\n      dup2\n      add\n      0x40\n      mstore\n      dup1\n      swap3\n      swap2\n      swap1\n      dup2\n      dup2\n      mstore\n      0x20\n      add\n      dup3\n      dup1\n      sload\n      tag_118\n      swap1\n      tag_117\n      jump\t// in\n    tag_118:\n      dup1\n      iszero\n      tag_119\n      jumpi\n      dup1\n      0x1f\n      lt\n      tag_120\n      jumpi\n      0x0100\n      dup1\n      dup4\n      sload\n      div\n      mul\n      dup4\n      mstore\n      swap2\n      0x20\n      add\n      swap2\n      jump(tag_119)\n    tag_120:\n      dup3\n      add\n      swap2\n      swap1\n      0x00\n      mstore\n      keccak256(0x00, 0x20)\n      swap1\n    tag_121:\n      dup2\n      sload\n      dup2\n      mstore\n      swap1\n      0x01\n      add\n      swap1\n      0x20\n      add\n      dup1\n      dup4\n      gt\n      tag_121\n      jumpi\n      dup3\n      swap1\n      sub\n      0x1f\n      and\n      dup3\n      add\n      swap2\n    tag_119:\n      pop\n      pop\n      pop\n      pop\n      pop\n      swap1\n      dup1\n      0x03\n      add\n      dup1\n      sload\n      tag_122\n      swap1\n      tag_117\n      jump\t// in\n    tag_122:\n      dup1\n      0x1f\n      add\n      0x20\n      dup1\n      swap2\n      div\n      mul\n      0x20\n      add\n      mload(0x40)\n      swap1\n      dup2\n      add\n      0x40\n      mstore\n      dup1\n      swap3\n      swap2\n      swap1\n      dup2\n      dup2\n      mstore\n      0x20\n      add\n      dup3\n      dup1\n      sload\n      tag_123\n      swap1\n      tag_117\n      jump\t// in\n    tag_123:\n      dup1\n      iszero\n      tag_124\n      jumpi\n      dup1\n      0x1f\n      lt\n      tag_125\n      jumpi\n      0x0100\n      dup1\n      dup4\n      sload\n      div\n      mul\n      dup4\n      mstore\n      swap2\n      0x20\n      add\n      swap2\n      jump(tag_124)\n    tag_125:\n      dup3\n      add\n      swap2\n      swap1\n      0x00\n      mstore\n      keccak256(0x00, 0x20)\n      swap1\n    tag_126:\n      dup2\n      sload\n      dup2\n      mstore\n      swap1\n      0x01\n      add\n      swap1\n      0x20\n      add\n      dup1\n      dup4\n      gt\n      tag_126\n      jumpi\n      dup3\n      swap1\n      sub\n      0x1f\n      and\n      dup3\n      add\n      swap2\n    tag_124:\n      pop\n      pop\n      pop\n      pop\n      pop\n      swap1\n      pop\n      dup5\n      jump\t// out\n        /* \"contracts/SupplyChain.sol\":4829:5065  function addRMS(... */\n    tag_44:\n        /* \"contracts/SupplyChain.sol\":942:947  Owner */\n      0x00\n      dup1\n      sload\n      swap1\n      0x0100\n      exp\n      swap1\n      div\n      0xffffffffffffffffffffffffffffffffffffffff\n      and\n        /* \"contracts/SupplyChain.sol\":928:947  msg.sender == Owner */\n      0xffffffffffffffffffffffffffffffffffffffff\n      and\n        /* \"contracts/SupplyChain.sol\":928:938  msg.sender */\n      caller\n        /* \"contracts/SupplyChain.sol\":928:947  msg.sender == Owner */\n      0xffffffffffffffffffffffffffffffffffffffff\n      and\n      eq\n        /* \"contracts/SupplyChain.sol\":920:948  require(msg.sender == Owner) */\n      tag_128\n      jumpi\n      0x00\n      dup1\n      revert\n    tag_128:\n        /* \"contracts/SupplyChain.sol\":4972:4978  rmsCtr */\n      0x02\n      0x00\n        /* \"contracts/SupplyChain.sol\":4972:4980  rmsCtr++ */\n      dup2\n      sload\n      dup1\n      swap3\n      swap2\n      swap1\n      tag_130\n      swap1\n      tag_112\n      jump\t// in\n    tag_130:\n      swap2\n      swap1\n      pop\n      sstore\n      pop\n        /* \"contracts/SupplyChain.sol\":5005:5057  rawMaterialSupplier(_address, rmsCtr, _name, _place) */\n      mload(0x40)\n      dup1\n      0x80\n      add\n      0x40\n      mstore\n      dup1\n        /* \"contracts/SupplyChain.sol\":5025:5033  _address */\n      dup5\n        /* \"contracts/SupplyChain.sol\":5005:5057  rawMaterialSupplier(_address, rmsCtr, _name, _place) */\n      0xffffffffffffffffffffffffffffffffffffffff\n      and\n      dup2\n      mstore\n      0x20\n      add\n        /* \"contracts/SupplyChain.sol\":5035:5041  rmsCtr */\n      sload(0x02)\n        /* \"contracts/SupplyChain.sol\":5005:5057  rawMaterialSupplier(_address, rmsCtr, _name, _place) */\n      dup2\n      mstore\n      0x20\n      add\n        /* \"contracts/SupplyChain.sol\":5043:5048  _name */\n      dup4\n        /* \"contracts/SupplyChain.sol\":5005:5057  rawMaterialSupplier(_address, rmsCtr, _name, _place) */\n      dup2\n      mstore\n      0x20\n      add\n        /* \"contracts/SupplyChain.sol\":5050:5056  _place */\n      dup3\n        /* \"contracts/SupplyChain.sol\":5005:5057  rawMaterialSupplier(_address, rmsCtr, _name, _place) */\n      dup2\n      mstore\n      pop\n        /* \"contracts/SupplyChain.sol\":4991:4994  RMS */\n      0x07\n        /* \"contracts/SupplyChain.sol\":4991:5002  RMS[rmsCtr] */\n      0x00\n        /* \"contracts/SupplyChain.sol\":4995:5001  rmsCtr */\n      sload(0x02)\n        /* \"contracts/SupplyChain.sol\":4991:5002  RMS[rmsCtr] */\n      dup2\n      mstore\n      0x20\n      add\n      swap1\n      dup2\n      mstore\n      0x20\n      add\n      0x00\n      keccak256\n        /* \"contracts/SupplyChain.sol\":4991:5057  RMS[rmsCtr] = rawMaterialSupplier(_address, rmsCtr, _name, _place) */\n      0x00\n      dup3\n      add\n      mload\n      dup2\n      0x00\n      add\n      exp(0x0100, 0x00)\n      dup2\n      sload\n      dup2\n      0xffffffffffffffffffffffffffffffffffffffff\n      mul\n      not\n      and\n      swap1\n      dup4\n      0xffffffffffffffffffffffffffffffffffffffff\n      and\n      mul\n      or\n      swap1\n      sstore\n      pop\n      0x20\n      dup3\n      add\n      mload\n      dup2\n      0x01\n      add\n      sstore\n      0x40\n      dup3\n      add\n      mload\n      dup2\n      0x02\n      add\n      swap1\n      dup2\n      tag_131\n      swap2\n      swap1\n      tag_114\n      jump\t// in\n    tag_131:\n      pop\n      0x60\n      dup3\n      add\n      mload\n      dup2\n      0x03\n      add\n      swap1\n      dup2\n      tag_132\n      swap2\n      swap1\n      tag_114\n      jump\t// in\n    tag_132:\n      pop\n      swap1\n      pop\n      pop\n        /* \"contracts/SupplyChain.sol\":4829:5065  function addRMS(... */\n      pop\n      pop\n      pop\n      jump\t// out\n        /* \"contracts/SupplyChain.sol\":1444:1469  uint256 public disCtr = 0 */\n    tag_46:\n      sload(0x04)\n      dup2\n      jump\t// out\n        /* \"contracts/SupplyChain.sol\":8475:8874  function Retail(uint256 _agricultureID) public {... */\n    tag_50:\n        /* \"contracts/SupplyChain.sol\":8558:8559  0 */\n      0x00\n        /* \"contracts/SupplyChain.sol\":8541:8555  _agricultureID */\n      dup2\n        /* \"contracts/SupplyChain.sol\":8541:8559  _agricultureID > 0 */\n      gt\n        /* \"contracts/SupplyChain.sol\":8541:8595  _agricultureID > 0 && _agricultureID <= agricultureCtr */\n      dup1\n      iszero\n      tag_134\n      jumpi\n      pop\n        /* \"contracts/SupplyChain.sol\":8581:8595  agricultureCtr */\n      sload(0x01)\n        /* \"contracts/SupplyChain.sol\":8563:8577  _agricultureID */\n      dup2\n        /* \"contracts/SupplyChain.sol\":8563:8595  _agricultureID <= agricultureCtr */\n      gt\n      iszero\n        /* \"contracts/SupplyChain.sol\":8541:8595  _agricultureID > 0 && _agricultureID <= agricultureCtr */\n    tag_134:\n        /* \"contracts/SupplyChain.sol\":8533:8596  require(_agricultureID > 0 && _agricultureID <= agricultureCtr) */\n      tag_135\n      jumpi\n      0x00\n      dup1\n      revert\n    tag_135:\n        /* \"contracts/SupplyChain.sol\":8607:8618  uint256 _id */\n      0x00\n        /* \"contracts/SupplyChain.sol\":8621:8640  findRET(msg.sender) */\n      tag_136\n        /* \"contracts/SupplyChain.sol\":8629:8639  msg.sender */\n      caller\n        /* \"contracts/SupplyChain.sol\":8621:8628  findRET */\n      tag_137\n        /* \"contracts/SupplyChain.sol\":8621:8640  findRET(msg.sender) */\n      jump\t// in\n    tag_136:\n        /* \"contracts/SupplyChain.sol\":8607:8640  uint256 _id = findRET(msg.sender) */\n      swap1\n      pop\n        /* \"contracts/SupplyChain.sol\":8665:8666  0 */\n      0x00\n        /* \"contracts/SupplyChain.sol\":8659:8662  _id */\n      dup2\n        /* \"contracts/SupplyChain.sol\":8659:8666  _id > 0 */\n      gt\n        /* \"contracts/SupplyChain.sol\":8651:8667  require(_id > 0) */\n      tag_138\n      jumpi\n      0x00\n      dup1\n      revert\n    tag_138:\n        /* \"contracts/SupplyChain.sol\":8728:8746  STAGE.Distribution */\n      0x03\n        /* \"contracts/SupplyChain.sol\":8686:8746  AgricultureStock[_agricultureID].stage == STAGE.Distribution */\n      0x05\n      dup2\n      gt\n      iszero\n      tag_139\n      jumpi\n      tag_140\n      tag_141\n      jump\t// in\n    tag_140:\n    tag_139:\n        /* \"contracts/SupplyChain.sol\":8686:8702  AgricultureStock */\n      0x06\n        /* \"contracts/SupplyChain.sol\":8686:8718  AgricultureStock[_agricultureID] */\n      0x00\n        /* \"contracts/SupplyChain.sol\":8703:8717  _agricultureID */\n      dup5\n        /* \"contracts/SupplyChain.sol\":8686:8718  AgricultureStock[_agricultureID] */\n      dup2\n      mstore\n      0x20\n      add\n      swap1\n      dup2\n      mstore\n      0x20\n      add\n      0x00\n      keccak256\n        /* \"contracts/SupplyChain.sol\":8686:8724  AgricultureStock[_agricultureID].stage */\n      0x07\n      add\n      0x00\n      swap1\n      sload\n      swap1\n      0x0100\n      exp\n      swap1\n      div\n      0xff\n      and\n        /* \"contracts/SupplyChain.sol\":8686:8746  AgricultureStock[_agricultureID].stage == STAGE.Distribution */\n      0x05\n      dup2\n      gt\n      iszero\n      tag_142\n      jumpi\n      tag_143\n      tag_141\n      jump\t// in\n    tag_143:\n    tag_142:\n      eq\n        /* \"contracts/SupplyChain.sol\":8678:8747  require(AgricultureStock[_agricultureID].stage == STAGE.Distribution) */\n      tag_144\n      jumpi\n      0x00\n      dup1\n      revert\n    tag_144:\n        /* \"contracts/SupplyChain.sol\":8799:8802  _id */\n      dup1\n        /* \"contracts/SupplyChain.sol\":8758:8774  AgricultureStock */\n      0x06\n        /* \"contracts/SupplyChain.sol\":8758:8790  AgricultureStock[_agricultureID] */\n      0x00\n        /* \"contracts/SupplyChain.sol\":8775:8789  _agricultureID */\n      dup5\n        /* \"contracts/SupplyChain.sol\":8758:8790  AgricultureStock[_agricultureID] */\n      dup2\n      mstore\n      0x20\n      add\n      swap1\n      dup2\n      mstore\n      0x20\n      add\n      0x00\n      keccak256\n        /* \"contracts/SupplyChain.sol\":8758:8796  AgricultureStock[_agricultureID].RETid */\n      0x06\n      add\n        /* \"contracts/SupplyChain.sol\":8758:8802  AgricultureStock[_agricultureID].RETid = _id */\n      dup2\n      swap1\n      sstore\n      pop\n        /* \"contracts/SupplyChain.sol\":8854:8866  STAGE.Retail */\n      0x04\n        /* \"contracts/SupplyChain.sol\":8813:8829  AgricultureStock */\n      0x06\n        /* \"contracts/SupplyChain.sol\":8813:8845  AgricultureStock[_agricultureID] */\n      0x00\n        /* \"contracts/SupplyChain.sol\":8830:8844  _agricultureID */\n      dup5\n        /* \"contracts/SupplyChain.sol\":8813:8845  AgricultureStock[_agricultureID] */\n      dup2\n      mstore\n      0x20\n      add\n      swap1\n      dup2\n      mstore\n      0x20\n      add\n      0x00\n      keccak256\n        /* \"contracts/SupplyChain.sol\":8813:8851  AgricultureStock[_agricultureID].stage */\n      0x07\n      add\n      0x00\n        /* \"contracts/SupplyChain.sol\":8813:8866  AgricultureStock[_agricultureID].stage = STAGE.Retail */\n      0x0100\n      exp\n      dup2\n      sload\n      dup2\n      0xff\n      mul\n      not\n      and\n      swap1\n      dup4\n      0x05\n      dup2\n      gt\n      iszero\n      tag_145\n      jumpi\n      tag_146\n      tag_141\n      jump\t// in\n    tag_146:\n    tag_145:\n      mul\n      or\n      swap1\n      sstore\n      pop\n        /* \"contracts/SupplyChain.sol\":8522:8874  {... */\n      pop\n        /* \"contracts/SupplyChain.sol\":8475:8874  function Retail(uint256 _agricultureID) public {... */\n      pop\n      jump\t// out\n        /* \"contracts/SupplyChain.sol\":1387:1412  uint256 public manCtr = 0 */\n    tag_52:\n      sload(0x03)\n      dup2\n      jump\t// out\n        /* \"contracts/SupplyChain.sol\":7671:8079  function Distribute(uint256 _agricultureID) public {... */\n    tag_56:\n        /* \"contracts/SupplyChain.sol\":7758:7759  0 */\n      0x00\n        /* \"contracts/SupplyChain.sol\":7741:7755  _agricultureID */\n      dup2\n        /* \"contracts/SupplyChain.sol\":7741:7759  _agricultureID > 0 */\n      gt\n        /* \"contracts/SupplyChain.sol\":7741:7795  _agricultureID > 0 && _agricultureID <= agricultureCtr */\n      dup1\n      iszero\n      tag_148\n      jumpi\n      pop\n        /* \"contracts/SupplyChain.sol\":7781:7795  agricultureCtr */\n      sload(0x01)\n        /* \"contracts/SupplyChain.sol\":7763:7777  _agricultureID */\n      dup2\n        /* \"contracts/SupplyChain.sol\":7763:7795  _agricultureID <= agricultureCtr */\n      gt\n      iszero\n        /* \"contracts/SupplyChain.sol\":7741:7795  _agricultureID > 0 && _agricultureID <= agricultureCtr */\n    tag_148:\n        /* \"contracts/SupplyChain.sol\":7733:7796  require(_agricultureID > 0 && _agricultureID <= agricultureCtr) */\n      tag_149\n      jumpi\n      0x00\n      dup1\n      revert\n    tag_149:\n        /* \"contracts/SupplyChain.sol\":7807:7818  uint256 _id */\n      0x00\n        /* \"contracts/SupplyChain.sol\":7821:7840  findDIS(msg.sender) */\n      tag_150\n        /* \"contracts/SupplyChain.sol\":7829:7839  msg.sender */\n      caller\n        /* \"contracts/SupplyChain.sol\":7821:7828  findDIS */\n      tag_151\n        /* \"contracts/SupplyChain.sol\":7821:7840  findDIS(msg.sender) */\n      jump\t// in\n    tag_150:\n        /* \"contracts/SupplyChain.sol\":7807:7840  uint256 _id = findDIS(msg.sender) */\n      swap1\n      pop\n        /* \"contracts/SupplyChain.sol\":7865:7866  0 */\n      0x00\n        /* \"contracts/SupplyChain.sol\":7859:7862  _id */\n      dup2\n        /* \"contracts/SupplyChain.sol\":7859:7866  _id > 0 */\n      gt\n        /* \"contracts/SupplyChain.sol\":7851:7867  require(_id > 0) */\n      tag_152\n      jumpi\n      0x00\n      dup1\n      revert\n    tag_152:\n        /* \"contracts/SupplyChain.sol\":7928:7945  STAGE.Manufacture */\n      0x02\n        /* \"contracts/SupplyChain.sol\":7886:7945  AgricultureStock[_agricultureID].stage == STAGE.Manufacture */\n      0x05\n      dup2\n      gt\n      iszero\n      tag_153\n      jumpi\n      tag_154\n      tag_141\n      jump\t// in\n    tag_154:\n    tag_153:\n        /* \"contracts/SupplyChain.sol\":7886:7902  AgricultureStock */\n      0x06\n        /* \"contracts/SupplyChain.sol\":7886:7918  AgricultureStock[_agricultureID] */\n      0x00\n        /* \"contracts/SupplyChain.sol\":7903:7917  _agricultureID */\n      dup5\n        /* \"contracts/SupplyChain.sol\":7886:7918  AgricultureStock[_agricultureID] */\n      dup2\n      mstore\n      0x20\n      add\n      swap1\n      dup2\n      mstore\n      0x20\n      add\n      0x00\n      keccak256\n        /* \"contracts/SupplyChain.sol\":7886:7924  AgricultureStock[_agricultureID].stage */\n      0x07\n      add\n      0x00\n      swap1\n      sload\n      swap1\n      0x0100\n      exp\n      swap1\n      div\n      0xff\n      and\n        /* \"contracts/SupplyChain.sol\":7886:7945  AgricultureStock[_agricultureID].stage == STAGE.Manufacture */\n      0x05\n      dup2\n      gt\n      iszero\n      tag_155\n      jumpi\n      tag_156\n      tag_141\n      jump\t// in\n    tag_156:\n    tag_155:\n      eq\n        /* \"contracts/SupplyChain.sol\":7878:7946  require(AgricultureStock[_agricultureID].stage == STAGE.Manufacture) */\n      tag_157\n      jumpi\n      0x00\n      dup1\n      revert\n    tag_157:\n        /* \"contracts/SupplyChain.sol\":7998:8001  _id */\n      dup1\n        /* \"contracts/SupplyChain.sol\":7957:7973  AgricultureStock */\n      0x06\n        /* \"contracts/SupplyChain.sol\":7957:7989  AgricultureStock[_agricultureID] */\n      0x00\n        /* \"contracts/SupplyChain.sol\":7974:7988  _agricultureID */\n      dup5\n        /* \"contracts/SupplyChain.sol\":7957:7989  AgricultureStock[_agricultureID] */\n      dup2\n      mstore\n      0x20\n      add\n      swap1\n      dup2\n      mstore\n      0x20\n      add\n      0x00\n      keccak256\n        /* \"contracts/SupplyChain.sol\":7957:7995  AgricultureStock[_agricultureID].DISid */\n      0x05\n      add\n        /* \"contracts/SupplyChain.sol\":7957:8001  AgricultureStock[_agricultureID].DISid = _id */\n      dup2\n      swap1\n      sstore\n      pop\n        /* \"contracts/SupplyChain.sol\":8053:8071  STAGE.Distribution */\n      0x03\n        /* \"contracts/SupplyChain.sol\":8012:8028  AgricultureStock */\n      0x06\n        /* \"contracts/SupplyChain.sol\":8012:8044  AgricultureStock[_agricultureID] */\n      0x00\n        /* \"contracts/SupplyChain.sol\":8029:8043  _agricultureID */\n      dup5\n        /* \"contracts/SupplyChain.sol\":8012:8044  AgricultureStock[_agricultureID] */\n      dup2\n      mstore\n      0x20\n      add\n      swap1\n      dup2\n      mstore\n      0x20\n      add\n      0x00\n      keccak256\n        /* \"contracts/SupplyChain.sol\":8012:8050  AgricultureStock[_agricultureID].stage */\n      0x07\n      add\n      0x00\n        /* \"contracts/SupplyChain.sol\":8012:8071  AgricultureStock[_agricultureID].stage = STAGE.Distribution */\n      0x0100\n      exp\n      dup2\n      sload\n      dup2\n      0xff\n      mul\n      not\n      and\n      swap1\n      dup4\n      0x05\n      dup2\n      gt\n      iszero\n      tag_158\n      jumpi\n      tag_159\n      tag_141\n      jump\t// in\n    tag_159:\n    tag_158:\n      mul\n      or\n      swap1\n      sstore\n      pop\n        /* \"contracts/SupplyChain.sol\":7722:8079  {... */\n      pop\n        /* \"contracts/SupplyChain.sol\":7671:8079  function Distribute(uint256 _agricultureID) public {... */\n      pop\n      jump\t// out\n        /* \"contracts/SupplyChain.sol\":4687:4726  mapping(uint256 => retailer) public RET */\n    tag_59:\n      mstore(0x20, 0x0a)\n      dup1\n      0x00\n      mstore\n      keccak256(0x00, 0x40)\n      0x00\n      swap2\n      pop\n      swap1\n      pop\n      dup1\n      0x00\n      add\n      0x00\n      swap1\n      sload\n      swap1\n      0x0100\n      exp\n      swap1\n      div\n      0xffffffffffffffffffffffffffffffffffffffff\n      and\n      swap1\n      dup1\n      0x01\n      add\n      sload\n      swap1\n      dup1\n      0x02\n      add\n      dup1\n      sload\n      tag_160\n      swap1\n      tag_117\n      jump\t// in\n    tag_160:\n      dup1\n      0x1f\n      add\n      0x20\n      dup1\n      swap2\n      div\n      mul\n      0x20\n      add\n      mload(0x40)\n      swap1\n      dup2\n      add\n      0x40\n      mstore\n      dup1\n      swap3\n      swap2\n      swap1\n      dup2\n      dup2\n      mstore\n      0x20\n      add\n      dup3\n      dup1\n      sload\n      tag_161\n      swap1\n      tag_117\n      jump\t// in\n    tag_161:\n      dup1\n      iszero\n      tag_162\n      jumpi\n      dup1\n      0x1f\n      lt\n      tag_163\n      jumpi\n      0x0100\n      dup1\n      dup4\n      sload\n      div\n      mul\n      dup4\n      mstore\n      swap2\n      0x20\n      add\n      swap2\n      jump(tag_162)\n    tag_163:\n      dup3\n      add\n      swap2\n      swap1\n      0x00\n      mstore\n      keccak256(0x00, 0x20)\n      swap1\n    tag_164:\n      dup2\n      sload\n      dup2\n      mstore\n      swap1\n      0x01\n      add\n      swap1\n      0x20\n      add\n      dup1\n      dup4\n      gt\n      tag_164\n      jumpi\n      dup3\n      swap1\n      sub\n      0x1f\n      and\n      dup3\n      add\n      swap2\n    tag_162:\n      pop\n      pop\n      pop\n      pop\n      pop\n      swap1\n      dup1\n      0x03\n      add\n      dup1\n      sload\n      tag_165\n      swap1\n      tag_117\n      jump\t// in\n    tag_165:\n      dup1\n      0x1f\n      add\n      0x20\n      dup1\n      swap2\n      div\n      mul\n      0x20\n      add\n      mload(0x40)\n      swap1\n      dup2\n      add\n      0x40\n      mstore\n      dup1\n      swap3\n      swap2\n      swap1\n      dup2\n      dup2\n      mstore\n      0x20\n      add\n      dup3\n      dup1\n      sload\n      tag_166\n      swap1\n      tag_117\n      jump\t// in\n    tag_166:\n      dup1\n      iszero\n      tag_167\n      jumpi\n      dup1\n      0x1f\n      lt\n      tag_168\n      jumpi\n      0x0100\n      dup1\n      dup4\n      sload\n      div\n      mul\n      dup4\n      mstore\n      swap2\n      0x20\n      add\n      swap2\n      jump(tag_167)\n    tag_168:\n      dup3\n      add\n      swap2\n      swap1\n      0x00\n      mstore\n      keccak256(0x00, 0x20)\n      swap1\n    tag_169:\n      dup2\n      sload\n      dup2\n      mstore\n      swap1\n      0x01\n      add\n      swap1\n      0x20\n      add\n      dup1\n      dup4\n      gt\n      tag_169\n      jumpi\n      dup3\n      swap1\n      sub\n      0x1f\n      and\n      dup3\n      add\n      swap2\n    tag_167:\n      pop\n      pop\n      pop\n      pop\n      pop\n      swap1\n      pop\n      dup5\n      jump\t// out\n        /* \"contracts/SupplyChain.sol\":5148:5386  function addManufacturer(... */\n    tag_63:\n        /* \"contracts/SupplyChain.sol\":942:947  Owner */\n      0x00\n      dup1\n      sload\n      swap1\n      0x0100\n      exp\n      swap1\n      div\n      0xffffffffffffffffffffffffffffffffffffffff\n      and\n        /* \"contracts/SupplyChain.sol\":928:947  msg.sender == Owner */\n      0xffffffffffffffffffffffffffffffffffffffff\n      and\n        /* \"contracts/SupplyChain.sol\":928:938  msg.sender */\n      caller\n        /* \"contracts/SupplyChain.sol\":928:947  msg.sender == Owner */\n      0xffffffffffffffffffffffffffffffffffffffff\n      and\n      eq\n        /* \"contracts/SupplyChain.sol\":920:948  require(msg.sender == Owner) */\n      tag_171\n      jumpi\n      0x00\n      dup1\n      revert\n    tag_171:\n        /* \"contracts/SupplyChain.sol\":5300:5306  manCtr */\n      0x03\n      0x00\n        /* \"contracts/SupplyChain.sol\":5300:5308  manCtr++ */\n      dup2\n      sload\n      dup1\n      swap3\n      swap2\n      swap1\n      tag_173\n      swap1\n      tag_112\n      jump\t// in\n    tag_173:\n      swap2\n      swap1\n      pop\n      sstore\n      pop\n        /* \"contracts/SupplyChain.sol\":5333:5378  manufacturer(_address, manCtr, _name, _place) */\n      mload(0x40)\n      dup1\n      0x80\n      add\n      0x40\n      mstore\n      dup1\n        /* \"contracts/SupplyChain.sol\":5346:5354  _address */\n      dup5\n        /* \"contracts/SupplyChain.sol\":5333:5378  manufacturer(_address, manCtr, _name, _place) */\n      0xffffffffffffffffffffffffffffffffffffffff\n      and\n      dup2\n      mstore\n      0x20\n      add\n        /* \"contracts/SupplyChain.sol\":5356:5362  manCtr */\n      sload(0x03)\n        /* \"contracts/SupplyChain.sol\":5333:5378  manufacturer(_address, manCtr, _name, _place) */\n      dup2\n      mstore\n      0x20\n      add\n        /* \"contracts/SupplyChain.sol\":5364:5369  _name */\n      dup4\n        /* \"contracts/SupplyChain.sol\":5333:5378  manufacturer(_address, manCtr, _name, _place) */\n      dup2\n      mstore\n      0x20\n      add\n        /* \"contracts/SupplyChain.sol\":5371:5377  _place */\n      dup3\n        /* \"contracts/SupplyChain.sol\":5333:5378  manufacturer(_address, manCtr, _name, _place) */\n      dup2\n      mstore\n      pop\n        /* \"contracts/SupplyChain.sol\":5319:5322  MAN */\n      0x08\n        /* \"contracts/SupplyChain.sol\":5319:5330  MAN[manCtr] */\n      0x00\n        /* \"contracts/SupplyChain.sol\":5323:5329  manCtr */\n      sload(0x03)\n        /* \"contracts/SupplyChain.sol\":5319:5330  MAN[manCtr] */\n      dup2\n      mstore\n      0x20\n      add\n      swap1\n      dup2\n      mstore\n      0x20\n      add\n      0x00\n      keccak256\n        /* \"contracts/SupplyChain.sol\":5319:5378  MAN[manCtr] = manufacturer(_address, manCtr, _name, _place) */\n      0x00\n      dup3\n      add\n      mload\n      dup2\n      0x00\n      add\n      exp(0x0100, 0x00)\n      dup2\n      sload\n      dup2\n      0xffffffffffffffffffffffffffffffffffffffff\n      mul\n      not\n      and\n      swap1\n      dup4\n      0xffffffffffffffffffffffffffffffffffffffff\n      and\n      mul\n      or\n      swap1\n      sstore\n      pop\n      0x20\n      dup3\n      add\n      mload\n      dup2\n      0x01\n      add\n      sstore\n      0x40\n      dup3\n      add\n      mload\n      dup2\n      0x02\n      add\n      swap1\n      dup2\n      tag_174\n      swap2\n      swap1\n      tag_114\n      jump\t// in\n    tag_174:\n      pop\n      0x60\n      dup3\n      add\n      mload\n      dup2\n      0x03\n      add\n      swap1\n      dup2\n      tag_175\n      swap2\n      swap1\n      tag_114\n      jump\t// in\n    tag_175:\n      pop\n      swap1\n      pop\n      pop\n        /* \"contracts/SupplyChain.sol\":5148:5386  function addManufacturer(... */\n      pop\n      pop\n      pop\n      jump\t// out\n        /* \"contracts/SupplyChain.sol\":1498:1523  uint256 public retCtr = 0 */\n    tag_65:\n      sload(0x05)\n      dup2\n      jump\t// out\n        /* \"contracts/SupplyChain.sol\":5778:6008  function addRetailer(... */\n    tag_69:\n        /* \"contracts/SupplyChain.sol\":942:947  Owner */\n      0x00\n      dup1\n      sload\n      swap1\n      0x0100\n      exp\n      swap1\n      div\n      0xffffffffffffffffffffffffffffffffffffffff\n      and\n        /* \"contracts/SupplyChain.sol\":928:947  msg.sender == Owner */\n      0xffffffffffffffffffffffffffffffffffffffff\n      and\n        /* \"contracts/SupplyChain.sol\":928:938  msg.sender */\n      caller\n        /* \"contracts/SupplyChain.sol\":928:947  msg.sender == Owner */\n      0xffffffffffffffffffffffffffffffffffffffff\n      and\n      eq\n        /* \"contracts/SupplyChain.sol\":920:948  require(msg.sender == Owner) */\n      tag_177\n      jumpi\n      0x00\n      dup1\n      revert\n    tag_177:\n        /* \"contracts/SupplyChain.sol\":5926:5932  retCtr */\n      0x05\n      0x00\n        /* \"contracts/SupplyChain.sol\":5926:5934  retCtr++ */\n      dup2\n      sload\n      dup1\n      swap3\n      swap2\n      swap1\n      tag_179\n      swap1\n      tag_112\n      jump\t// in\n    tag_179:\n      swap2\n      swap1\n      pop\n      sstore\n      pop\n        /* \"contracts/SupplyChain.sol\":5959:6000  retailer(_address, retCtr, _name, _place) */\n      mload(0x40)\n      dup1\n      0x80\n      add\n      0x40\n      mstore\n      dup1\n        /* \"contracts/SupplyChain.sol\":5968:5976  _address */\n      dup5\n        /* \"contracts/SupplyChain.sol\":5959:6000  retailer(_address, retCtr, _name, _place) */\n      0xffffffffffffffffffffffffffffffffffffffff\n      and\n      dup2\n      mstore\n      0x20\n      add\n        /* \"contracts/SupplyChain.sol\":5978:5984  retCtr */\n      sload(0x05)\n        /* \"contracts/SupplyChain.sol\":5959:6000  retailer(_address, retCtr, _name, _place) */\n      dup2\n      mstore\n      0x20\n      add\n        /* \"contracts/SupplyChain.sol\":5986:5991  _name */\n      dup4\n        /* \"contracts/SupplyChain.sol\":5959:6000  retailer(_address, retCtr, _name, _place) */\n      dup2\n      mstore\n      0x20\n      add\n        /* \"contracts/SupplyChain.sol\":5993:5999  _place */\n      dup3\n        /* \"contracts/SupplyChain.sol\":5959:6000  retailer(_address, retCtr, _name, _place) */\n      dup2\n      mstore\n      pop\n        /* \"contracts/SupplyChain.sol\":5945:5948  RET */\n      0x0a\n        /* \"contracts/SupplyChain.sol\":5945:5956  RET[retCtr] */\n      0x00\n        /* \"contracts/SupplyChain.sol\":5949:5955  retCtr */\n      sload(0x05)\n        /* \"contracts/SupplyChain.sol\":5945:5956  RET[retCtr] */\n      dup2\n      mstore\n      0x20\n      add\n      swap1\n      dup2\n      mstore\n      0x20\n      add\n      0x00\n      keccak256\n        /* \"contracts/SupplyChain.sol\":5945:6000  RET[retCtr] = retailer(_address, retCtr, _name, _place) */\n      0x00\n      dup3\n      add\n      mload\n      dup2\n      0x00\n      add\n      exp(0x0100, 0x00)\n      dup2\n      sload\n      dup2\n      0xffffffffffffffffffffffffffffffffffffffff\n      mul\n      not\n      and\n      swap1\n      dup4\n      0xffffffffffffffffffffffffffffffffffffffff\n      and\n      mul\n      or\n      swap1\n      sstore\n      pop\n      0x20\n      dup3\n      add\n      mload\n      dup2\n      0x01\n      add\n      sstore\n      0x40\n      dup3\n      add\n      mload\n      dup2\n      0x02\n      add\n      swap1\n      dup2\n      tag_180\n      swap2\n      swap1\n      tag_114\n      jump\t// in\n    tag_180:\n      pop\n      0x60\n      dup3\n      add\n      mload\n      dup2\n      0x03\n      add\n      swap1\n      dup2\n      tag_181\n      swap2\n      swap1\n      tag_114\n      jump\t// in\n    tag_181:\n      pop\n      swap1\n      pop\n      pop\n        /* \"contracts/SupplyChain.sol\":5778:6008  function addRetailer(... */\n      pop\n      pop\n      pop\n      jump\t// out\n        /* \"contracts/SupplyChain.sol\":6085:6490  function RMSsupply(uint256 _agricultureID) public {... */\n    tag_72:\n        /* \"contracts/SupplyChain.sol\":6171:6172  0 */\n      0x00\n        /* \"contracts/SupplyChain.sol\":6154:6168  _agricultureID */\n      dup2\n        /* \"contracts/SupplyChain.sol\":6154:6172  _agricultureID > 0 */\n      gt\n        /* \"contracts/SupplyChain.sol\":6154:6208  _agricultureID > 0 && _agricultureID <= agricultureCtr */\n      dup1\n      iszero\n      tag_183\n      jumpi\n      pop\n        /* \"contracts/SupplyChain.sol\":6194:6208  agricultureCtr */\n      sload(0x01)\n        /* \"contracts/SupplyChain.sol\":6176:6190  _agricultureID */\n      dup2\n        /* \"contracts/SupplyChain.sol\":6176:6208  _agricultureID <= agricultureCtr */\n      gt\n      iszero\n        /* \"contracts/SupplyChain.sol\":6154:6208  _agricultureID > 0 && _agricultureID <= agricultureCtr */\n    tag_183:\n        /* \"contracts/SupplyChain.sol\":6146:6209  require(_agricultureID > 0 && _agricultureID <= agricultureCtr) */\n      tag_184\n      jumpi\n      0x00\n      dup1\n      revert\n    tag_184:\n        /* \"contracts/SupplyChain.sol\":6220:6231  uint256 _id */\n      0x00\n        /* \"contracts/SupplyChain.sol\":6234:6253  findRMS(msg.sender) */\n      tag_185\n        /* \"contracts/SupplyChain.sol\":6242:6252  msg.sender */\n      caller\n        /* \"contracts/SupplyChain.sol\":6234:6241  findRMS */\n      tag_186\n        /* \"contracts/SupplyChain.sol\":6234:6253  findRMS(msg.sender) */\n      jump\t// in\n    tag_185:\n        /* \"contracts/SupplyChain.sol\":6220:6253  uint256 _id = findRMS(msg.sender) */\n      swap1\n      pop\n        /* \"contracts/SupplyChain.sol\":6278:6279  0 */\n      0x00\n        /* \"contracts/SupplyChain.sol\":6272:6275  _id */\n      dup2\n        /* \"contracts/SupplyChain.sol\":6272:6279  _id > 0 */\n      gt\n        /* \"contracts/SupplyChain.sol\":6264:6280  require(_id > 0) */\n      tag_187\n      jumpi\n      0x00\n      dup1\n      revert\n    tag_187:\n        /* \"contracts/SupplyChain.sol\":6341:6351  STAGE.Init */\n      0x00\n        /* \"contracts/SupplyChain.sol\":6299:6351  AgricultureStock[_agricultureID].stage == STAGE.Init */\n      0x05\n      dup2\n      gt\n      iszero\n      tag_188\n      jumpi\n      tag_189\n      tag_141\n      jump\t// in\n    tag_189:\n    tag_188:\n        /* \"contracts/SupplyChain.sol\":6299:6315  AgricultureStock */\n      0x06\n        /* \"contracts/SupplyChain.sol\":6299:6331  AgricultureStock[_agricultureID] */\n      0x00\n        /* \"contracts/SupplyChain.sol\":6316:6330  _agricultureID */\n      dup5\n        /* \"contracts/SupplyChain.sol\":6299:6331  AgricultureStock[_agricultureID] */\n      dup2\n      mstore\n      0x20\n      add\n      swap1\n      dup2\n      mstore\n      0x20\n      add\n      0x00\n      keccak256\n        /* \"contracts/SupplyChain.sol\":6299:6337  AgricultureStock[_agricultureID].stage */\n      0x07\n      add\n      0x00\n      swap1\n      sload\n      swap1\n      0x0100\n      exp\n      swap1\n      div\n      0xff\n      and\n        /* \"contracts/SupplyChain.sol\":6299:6351  AgricultureStock[_agricultureID].stage == STAGE.Init */\n      0x05\n      dup2\n      gt\n      iszero\n      tag_190\n      jumpi\n      tag_191\n      tag_141\n      jump\t// in\n    tag_191:\n    tag_190:\n      eq\n        /* \"contracts/SupplyChain.sol\":6291:6352  require(AgricultureStock[_agricultureID].stage == STAGE.Init) */\n      tag_192\n      jumpi\n      0x00\n      dup1\n      revert\n    tag_192:\n        /* \"contracts/SupplyChain.sol\":6404:6407  _id */\n      dup1\n        /* \"contracts/SupplyChain.sol\":6363:6379  AgricultureStock */\n      0x06\n        /* \"contracts/SupplyChain.sol\":6363:6395  AgricultureStock[_agricultureID] */\n      0x00\n        /* \"contracts/SupplyChain.sol\":6380:6394  _agricultureID */\n      dup5\n        /* \"contracts/SupplyChain.sol\":6363:6395  AgricultureStock[_agricultureID] */\n      dup2\n      mstore\n      0x20\n      add\n      swap1\n      dup2\n      mstore\n      0x20\n      add\n      0x00\n      keccak256\n        /* \"contracts/SupplyChain.sol\":6363:6401  AgricultureStock[_agricultureID].RMSid */\n      0x03\n      add\n        /* \"contracts/SupplyChain.sol\":6363:6407  AgricultureStock[_agricultureID].RMSid = _id */\n      dup2\n      swap1\n      sstore\n      pop\n        /* \"contracts/SupplyChain.sol\":6459:6482  STAGE.RawMaterialSupply */\n      0x01\n        /* \"contracts/SupplyChain.sol\":6418:6434  AgricultureStock */\n      0x06\n        /* \"contracts/SupplyChain.sol\":6418:6450  AgricultureStock[_agricultureID] */\n      0x00\n        /* \"contracts/SupplyChain.sol\":6435:6449  _agricultureID */\n      dup5\n        /* \"contracts/SupplyChain.sol\":6418:6450  AgricultureStock[_agricultureID] */\n      dup2\n      mstore\n      0x20\n      add\n      swap1\n      dup2\n      mstore\n      0x20\n      add\n      0x00\n      keccak256\n        /* \"contracts/SupplyChain.sol\":6418:6456  AgricultureStock[_agricultureID].stage */\n      0x07\n      add\n      0x00\n        /* \"contracts/SupplyChain.sol\":6418:6482  AgricultureStock[_agricultureID].stage = STAGE.RawMaterialSupply */\n      0x0100\n      exp\n      dup2\n      sload\n      dup2\n      0xff\n      mul\n      not\n      and\n      swap1\n      dup4\n      0x05\n      dup2\n      gt\n      iszero\n      tag_193\n      jumpi\n      tag_194\n      tag_141\n      jump\t// in\n    tag_194:\n    tag_193:\n      mul\n      or\n      swap1\n      sstore\n      pop\n        /* \"contracts/SupplyChain.sol\":6135:6490  {... */\n      pop\n        /* \"contracts/SupplyChain.sol\":6085:6490  function RMSsupply(uint256 _agricultureID) public {... */\n      pop\n      jump\t// out\n        /* \"contracts/SupplyChain.sol\":2262:2317  mapping(uint256 => agriculture) public AgricultureStock */\n    tag_75:\n      mstore(0x20, 0x06)\n      dup1\n      0x00\n      mstore\n      keccak256(0x00, 0x40)\n      0x00\n      swap2\n      pop\n      swap1\n      pop\n      dup1\n      0x00\n      add\n      sload\n      swap1\n      dup1\n      0x01\n      add\n      dup1\n      sload\n      tag_195\n      swap1\n      tag_117\n      jump\t// in\n    tag_195:\n      dup1\n      0x1f\n      add\n      0x20\n      dup1\n      swap2\n      div\n      mul\n      0x20\n      add\n      mload(0x40)\n      swap1\n      dup2\n      add\n      0x40\n      mstore\n      dup1\n      swap3\n      swap2\n      swap1\n      dup2\n      dup2\n      mstore\n      0x20\n      add\n      dup3\n      dup1\n      sload\n      tag_196\n      swap1\n      tag_117\n      jump\t// in\n    tag_196:\n      dup1\n      iszero\n      tag_197\n      jumpi\n      dup1\n      0x1f\n      lt\n      tag_198\n      jumpi\n      0x0100\n      dup1\n      dup4\n      sload\n      div\n      mul\n      dup4\n      mstore\n      swap2\n      0x20\n      add\n      swap2\n      jump(tag_197)\n    tag_198:\n      dup3\n      add\n      swap2\n      swap1\n      0x00\n      mstore\n      keccak256(0x00, 0x20)\n      swap1\n    tag_199:\n      dup2\n      sload\n      dup2\n      mstore\n      swap1\n      0x01\n      add\n      swap1\n      0x20\n      add\n      dup1\n      dup4\n      gt\n      tag_199\n      jumpi\n      dup3\n      swap1\n      sub\n      0x1f\n      and\n      dup3\n      add\n      swap2\n    tag_197:\n      pop\n      pop\n      pop\n      pop\n      pop\n      swap1\n      dup1\n      0x02\n      add\n      dup1\n      sload\n      tag_200\n      swap1\n      tag_117\n      jump\t// in\n    tag_200:\n      dup1\n      0x1f\n      add\n      0x20\n      dup1\n      swap2\n      div\n      mul\n      0x20\n      add\n      mload(0x40)\n      swap1\n      dup2\n      add\n      0x40\n      mstore\n      dup1\n      swap3\n      swap2\n      swap1\n      dup2\n      dup2\n      mstore\n      0x20\n      add\n      dup3\n      dup1\n      sload\n      tag_201\n      swap1\n      tag_117\n      jump\t// in\n    tag_201:\n      dup1\n      iszero\n      tag_202\n      jumpi\n      dup1\n      0x1f\n      lt\n      tag_203\n      jumpi\n      0x0100\n      dup1\n      dup4\n      sload\n      div\n      mul\n      dup4\n      mstore\n      swap2\n      0x20\n      add\n      swap2\n      jump(tag_202)\n    tag_203:\n      dup3\n      add\n      swap2\n      swap1\n      0x00\n      mstore\n      keccak256(0x00, 0x20)\n      swap1\n    tag_204:\n      dup2\n      sload\n      dup2\n      mstore\n      swap1\n      0x01\n      add\n      swap1\n      0x20\n      add\n      dup1\n      dup4\n      gt\n      tag_204\n      jumpi\n      dup3\n      swap1\n      sub\n      0x1f\n      and\n      dup3\n      add\n      swap2\n    tag_202:\n      pop\n      pop\n      pop\n      pop\n      pop\n      swap1\n      dup1\n      0x03\n      add\n      sload\n      swap1\n      dup1\n      0x04\n      add\n      sload\n      swap1\n      dup1\n      0x05\n      add\n      sload\n      swap1\n      dup1\n      0x06\n      add\n      sload\n      swap1\n      dup1\n      0x07\n      add\n      0x00\n      swap1\n      sload\n      swap1\n      0x0100\n      exp\n      swap1\n      div\n      0xff\n      and\n      swap1\n      pop\n      dup9\n      jump\t// out\n        /* \"contracts/SupplyChain.sol\":9262:9731  function sold(uint256 _agricultureID) public {... */\n    tag_80:\n        /* \"contracts/SupplyChain.sol\":9343:9344  0 */\n      0x00\n        /* \"contracts/SupplyChain.sol\":9326:9340  _agricultureID */\n      dup2\n        /* \"contracts/SupplyChain.sol\":9326:9344  _agricultureID > 0 */\n      gt\n        /* \"contracts/SupplyChain.sol\":9326:9380  _agricultureID > 0 && _agricultureID <= agricultureCtr */\n      dup1\n      iszero\n      tag_206\n      jumpi\n      pop\n        /* \"contracts/SupplyChain.sol\":9366:9380  agricultureCtr */\n      sload(0x01)\n        /* \"contracts/SupplyChain.sol\":9348:9362  _agricultureID */\n      dup2\n        /* \"contracts/SupplyChain.sol\":9348:9380  _agricultureID <= agricultureCtr */\n      gt\n      iszero\n        /* \"contracts/SupplyChain.sol\":9326:9380  _agricultureID > 0 && _agricultureID <= agricultureCtr */\n    tag_206:\n        /* \"contracts/SupplyChain.sol\":9318:9381  require(_agricultureID > 0 && _agricultureID <= agricultureCtr) */\n      tag_207\n      jumpi\n      0x00\n      dup1\n      revert\n    tag_207:\n        /* \"contracts/SupplyChain.sol\":9392:9403  uint256 _id */\n      0x00\n        /* \"contracts/SupplyChain.sol\":9406:9425  findRET(msg.sender) */\n      tag_208\n        /* \"contracts/SupplyChain.sol\":9414:9424  msg.sender */\n      caller\n        /* \"contracts/SupplyChain.sol\":9406:9413  findRET */\n      tag_137\n        /* \"contracts/SupplyChain.sol\":9406:9425  findRET(msg.sender) */\n      jump\t// in\n    tag_208:\n        /* \"contracts/SupplyChain.sol\":9392:9425  uint256 _id = findRET(msg.sender) */\n      swap1\n      pop\n        /* \"contracts/SupplyChain.sol\":9450:9451  0 */\n      0x00\n        /* \"contracts/SupplyChain.sol\":9444:9447  _id */\n      dup2\n        /* \"contracts/SupplyChain.sol\":9444:9451  _id > 0 */\n      gt\n        /* \"contracts/SupplyChain.sol\":9436:9452  require(_id > 0) */\n      tag_209\n      jumpi\n      0x00\n      dup1\n      revert\n    tag_209:\n        /* \"contracts/SupplyChain.sol\":9478:9494  AgricultureStock */\n      0x06\n        /* \"contracts/SupplyChain.sol\":9478:9510  AgricultureStock[_agricultureID] */\n      0x00\n        /* \"contracts/SupplyChain.sol\":9495:9509  _agricultureID */\n      dup4\n        /* \"contracts/SupplyChain.sol\":9478:9510  AgricultureStock[_agricultureID] */\n      dup2\n      mstore\n      0x20\n      add\n      swap1\n      dup2\n      mstore\n      0x20\n      add\n      0x00\n      keccak256\n        /* \"contracts/SupplyChain.sol\":9478:9516  AgricultureStock[_agricultureID].RETid */\n      0x06\n      add\n      sload\n        /* \"contracts/SupplyChain.sol\":9471:9474  _id */\n      dup2\n        /* \"contracts/SupplyChain.sol\":9471:9516  _id == AgricultureStock[_agricultureID].RETid */\n      eq\n        /* \"contracts/SupplyChain.sol\":9463:9517  require(_id == AgricultureStock[_agricultureID].RETid) */\n      tag_210\n      jumpi\n      0x00\n      dup1\n      revert\n    tag_210:\n        /* \"contracts/SupplyChain.sol\":9648:9660  STAGE.Retail */\n      0x04\n        /* \"contracts/SupplyChain.sol\":9606:9660  AgricultureStock[_agricultureID].stage == STAGE.Retail */\n      0x05\n      dup2\n      gt\n      iszero\n      tag_211\n      jumpi\n      tag_212\n      tag_141\n      jump\t// in\n    tag_212:\n    tag_211:\n        /* \"contracts/SupplyChain.sol\":9606:9622  AgricultureStock */\n      0x06\n        /* \"contracts/SupplyChain.sol\":9606:9638  AgricultureStock[_agricultureID] */\n      0x00\n        /* \"contracts/SupplyChain.sol\":9623:9637  _agricultureID */\n      dup5\n        /* \"contracts/SupplyChain.sol\":9606:9638  AgricultureStock[_agricultureID] */\n      dup2\n      mstore\n      0x20\n      add\n      swap1\n      dup2\n      mstore\n      0x20\n      add\n      0x00\n      keccak256\n        /* \"contracts/SupplyChain.sol\":9606:9644  AgricultureStock[_agricultureID].stage */\n      0x07\n      add\n      0x00\n      swap1\n      sload\n      swap1\n      0x0100\n      exp\n      swap1\n      div\n      0xff\n      and\n        /* \"contracts/SupplyChain.sol\":9606:9660  AgricultureStock[_agricultureID].stage == STAGE.Retail */\n      0x05\n      dup2\n      gt\n      iszero\n      tag_213\n      jumpi\n      tag_214\n      tag_141\n      jump\t// in\n    tag_214:\n    tag_213:\n      eq\n        /* \"contracts/SupplyChain.sol\":9598:9661  require(AgricultureStock[_agricultureID].stage == STAGE.Retail) */\n      tag_215\n      jumpi\n      0x00\n      dup1\n      revert\n    tag_215:\n        /* \"contracts/SupplyChain.sol\":9713:9723  STAGE.Sold */\n      0x05\n        /* \"contracts/SupplyChain.sol\":9672:9688  AgricultureStock */\n      0x06\n        /* \"contracts/SupplyChain.sol\":9672:9704  AgricultureStock[_agricultureID] */\n      0x00\n        /* \"contracts/SupplyChain.sol\":9689:9703  _agricultureID */\n      dup5\n        /* \"contracts/SupplyChain.sol\":9672:9704  AgricultureStock[_agricultureID] */\n      dup2\n      mstore\n      0x20\n      add\n      swap1\n      dup2\n      mstore\n      0x20\n      add\n      0x00\n      keccak256\n        /* \"contracts/SupplyChain.sol\":9672:9710  AgricultureStock[_agricultureID].stage */\n      0x07\n      add\n      0x00\n        /* \"contracts/SupplyChain.sol\":9672:9723  AgricultureStock[_agricultureID].stage = STAGE.Sold */\n      0x0100\n      exp\n      dup2\n      sload\n      dup2\n      0xff\n      mul\n      not\n      and\n      swap1\n      dup4\n      0x05\n      dup2\n      gt\n      iszero\n      tag_216\n      jumpi\n      tag_217\n      tag_141\n      jump\t// in\n    tag_217:\n    tag_216:\n      mul\n      or\n      swap1\n      sstore\n      pop\n        /* \"contracts/SupplyChain.sol\":9307:9731  {... */\n      pop\n        /* \"contracts/SupplyChain.sol\":9262:9731  function sold(uint256 _agricultureID) public {... */\n      pop\n      jump\t// out\n        /* \"contracts/SupplyChain.sol\":6854:7270  function Manufacturing(uint256 _agricultureID) public {... */\n    tag_83:\n        /* \"contracts/SupplyChain.sol\":6944:6945  0 */\n      0x00\n        /* \"contracts/SupplyChain.sol\":6927:6941  _agricultureID */\n      dup2\n        /* \"contracts/SupplyChain.sol\":6927:6945  _agricultureID > 0 */\n      gt\n        /* \"contracts/SupplyChain.sol\":6927:6981  _agricultureID > 0 && _agricultureID <= agricultureCtr */\n      dup1\n      iszero\n      tag_219\n      jumpi\n      pop\n        /* \"contracts/SupplyChain.sol\":6967:6981  agricultureCtr */\n      sload(0x01)\n        /* \"contracts/SupplyChain.sol\":6949:6963  _agricultureID */\n      dup2\n        /* \"contracts/SupplyChain.sol\":6949:6981  _agricultureID <= agricultureCtr */\n      gt\n      iszero\n        /* \"contracts/SupplyChain.sol\":6927:6981  _agricultureID > 0 && _agricultureID <= agricultureCtr */\n    tag_219:\n        /* \"contracts/SupplyChain.sol\":6919:6982  require(_agricultureID > 0 && _agricultureID <= agricultureCtr) */\n      tag_220\n      jumpi\n      0x00\n      dup1\n      revert\n    tag_220:\n        /* \"contracts/SupplyChain.sol\":6993:7004  uint256 _id */\n      0x00\n        /* \"contracts/SupplyChain.sol\":7007:7026  findMAN(msg.sender) */\n      tag_221\n        /* \"contracts/SupplyChain.sol\":7015:7025  msg.sender */\n      caller\n        /* \"contracts/SupplyChain.sol\":7007:7014  findMAN */\n      tag_222\n        /* \"contracts/SupplyChain.sol\":7007:7026  findMAN(msg.sender) */\n      jump\t// in\n    tag_221:\n        /* \"contracts/SupplyChain.sol\":6993:7026  uint256 _id = findMAN(msg.sender) */\n      swap1\n      pop\n        /* \"contracts/SupplyChain.sol\":7051:7052  0 */\n      0x00\n        /* \"contracts/SupplyChain.sol\":7045:7048  _id */\n      dup2\n        /* \"contracts/SupplyChain.sol\":7045:7052  _id > 0 */\n      gt\n        /* \"contracts/SupplyChain.sol\":7037:7053  require(_id > 0) */\n      tag_223\n      jumpi\n      0x00\n      dup1\n      revert\n    tag_223:\n        /* \"contracts/SupplyChain.sol\":7114:7137  STAGE.RawMaterialSupply */\n      0x01\n        /* \"contracts/SupplyChain.sol\":7072:7137  AgricultureStock[_agricultureID].stage == STAGE.RawMaterialSupply */\n      0x05\n      dup2\n      gt\n      iszero\n      tag_224\n      jumpi\n      tag_225\n      tag_141\n      jump\t// in\n    tag_225:\n    tag_224:\n        /* \"contracts/SupplyChain.sol\":7072:7088  AgricultureStock */\n      0x06\n        /* \"contracts/SupplyChain.sol\":7072:7104  AgricultureStock[_agricultureID] */\n      0x00\n        /* \"contracts/SupplyChain.sol\":7089:7103  _agricultureID */\n      dup5\n        /* \"contracts/SupplyChain.sol\":7072:7104  AgricultureStock[_agricultureID] */\n      dup2\n      mstore\n      0x20\n      add\n      swap1\n      dup2\n      mstore\n      0x20\n      add\n      0x00\n      keccak256\n        /* \"contracts/SupplyChain.sol\":7072:7110  AgricultureStock[_agricultureID].stage */\n      0x07\n      add\n      0x00\n      swap1\n      sload\n      swap1\n      0x0100\n      exp\n      swap1\n      div\n      0xff\n      and\n        /* \"contracts/SupplyChain.sol\":7072:7137  AgricultureStock[_agricultureID].stage == STAGE.RawMaterialSupply */\n      0x05\n      dup2\n      gt\n      iszero\n      tag_226\n      jumpi\n      tag_227\n      tag_141\n      jump\t// in\n    tag_227:\n    tag_226:\n      eq\n        /* \"contracts/SupplyChain.sol\":7064:7138  require(AgricultureStock[_agricultureID].stage == STAGE.RawMaterialSupply) */\n      tag_228\n      jumpi\n      0x00\n      dup1\n      revert\n    tag_228:\n        /* \"contracts/SupplyChain.sol\":7190:7193  _id */\n      dup1\n        /* \"contracts/SupplyChain.sol\":7149:7165  AgricultureStock */\n      0x06\n        /* \"contracts/SupplyChain.sol\":7149:7181  AgricultureStock[_agricultureID] */\n      0x00\n        /* \"contracts/SupplyChain.sol\":7166:7180  _agricultureID */\n      dup5\n        /* \"contracts/SupplyChain.sol\":7149:7181  AgricultureStock[_agricultureID] */\n      dup2\n      mstore\n      0x20\n      add\n      swap1\n      dup2\n      mstore\n      0x20\n      add\n      0x00\n      keccak256\n        /* \"contracts/SupplyChain.sol\":7149:7187  AgricultureStock[_agricultureID].MANid */\n      0x04\n      add\n        /* \"contracts/SupplyChain.sol\":7149:7193  AgricultureStock[_agricultureID].MANid = _id */\n      dup2\n      swap1\n      sstore\n      pop\n        /* \"contracts/SupplyChain.sol\":7245:7262  STAGE.Manufacture */\n      0x02\n        /* \"contracts/SupplyChain.sol\":7204:7220  AgricultureStock */\n      0x06\n        /* \"contracts/SupplyChain.sol\":7204:7236  AgricultureStock[_agricultureID] */\n      0x00\n        /* \"contracts/SupplyChain.sol\":7221:7235  _agricultureID */\n      dup5\n        /* \"contracts/SupplyChain.sol\":7204:7236  AgricultureStock[_agricultureID] */\n      dup2\n      mstore\n      0x20\n      add\n      swap1\n      dup2\n      mstore\n      0x20\n      add\n      0x00\n      keccak256\n        /* \"contracts/SupplyChain.sol\":7204:7242  AgricultureStock[_agricultureID].stage */\n      0x07\n      add\n      0x00\n        /* \"contracts/SupplyChain.sol\":7204:7262  AgricultureStock[_agricultureID].stage = STAGE.Manufacture */\n      0x0100\n      exp\n      dup2\n      sload\n      dup2\n      0xff\n      mul\n      not\n      and\n      swap1\n      dup4\n      0x05\n      dup2\n      gt\n      iszero\n      tag_229\n      jumpi\n      tag_230\n      tag_141\n      jump\t// in\n    tag_230:\n    tag_229:\n      mul\n      or\n      swap1\n      sstore\n      pop\n        /* \"contracts/SupplyChain.sol\":6908:7270  {... */\n      pop\n        /* \"contracts/SupplyChain.sol\":6854:7270  function Manufacturing(uint256 _agricultureID) public {... */\n      pop\n      jump\t// out\n        /* \"contracts/SupplyChain.sol\":236:256  address public Owner */\n    tag_85:\n      0x00\n      dup1\n      sload\n      swap1\n      0x0100\n      exp\n      swap1\n      div\n      0xffffffffffffffffffffffffffffffffffffffff\n      and\n      dup2\n      jump\t// out\n        /* \"contracts/SupplyChain.sol\":9800:10265  function addAgriculture(string memory _name, string memory _description)... */\n    tag_91:\n        /* \"contracts/SupplyChain.sol\":942:947  Owner */\n      0x00\n      dup1\n      sload\n      swap1\n      0x0100\n      exp\n      swap1\n      div\n      0xffffffffffffffffffffffffffffffffffffffff\n      and\n        /* \"contracts/SupplyChain.sol\":928:947  msg.sender == Owner */\n      0xffffffffffffffffffffffffffffffffffffffff\n      and\n        /* \"contracts/SupplyChain.sol\":928:938  msg.sender */\n      caller\n        /* \"contracts/SupplyChain.sol\":928:947  msg.sender == Owner */\n      0xffffffffffffffffffffffffffffffffffffffff\n      and\n      eq\n        /* \"contracts/SupplyChain.sol\":920:948  require(msg.sender == Owner) */\n      tag_232\n      jumpi\n      0x00\n      dup1\n      revert\n    tag_232:\n        /* \"contracts/SupplyChain.sol\":9946:9947  0 */\n      0x00\n        /* \"contracts/SupplyChain.sol\":9937:9943  rmsCtr */\n      sload(0x02)\n        /* \"contracts/SupplyChain.sol\":9937:9947  rmsCtr > 0 */\n      gt\n        /* \"contracts/SupplyChain.sol\":9936:9964  (rmsCtr > 0) && (manCtr > 0) */\n      dup1\n      iszero\n      tag_234\n      jumpi\n      pop\n        /* \"contracts/SupplyChain.sol\":9962:9963  0 */\n      0x00\n        /* \"contracts/SupplyChain.sol\":9953:9959  manCtr */\n      sload(0x03)\n        /* \"contracts/SupplyChain.sol\":9953:9963  manCtr > 0 */\n      gt\n        /* \"contracts/SupplyChain.sol\":9936:9964  (rmsCtr > 0) && (manCtr > 0) */\n    tag_234:\n        /* \"contracts/SupplyChain.sol\":9936:9980  (rmsCtr > 0) && (manCtr > 0) && (disCtr > 0) */\n      dup1\n      iszero\n      tag_235\n      jumpi\n      pop\n        /* \"contracts/SupplyChain.sol\":9978:9979  0 */\n      0x00\n        /* \"contracts/SupplyChain.sol\":9969:9975  disCtr */\n      sload(0x04)\n        /* \"contracts/SupplyChain.sol\":9969:9979  disCtr > 0 */\n      gt\n        /* \"contracts/SupplyChain.sol\":9936:9980  (rmsCtr > 0) && (manCtr > 0) && (disCtr > 0) */\n    tag_235:\n        /* \"contracts/SupplyChain.sol\":9936:9996  (rmsCtr > 0) && (manCtr > 0) && (disCtr > 0) && (retCtr > 0) */\n      dup1\n      iszero\n      tag_236\n      jumpi\n      pop\n        /* \"contracts/SupplyChain.sol\":9994:9995  0 */\n      0x00\n        /* \"contracts/SupplyChain.sol\":9985:9991  retCtr */\n      sload(0x05)\n        /* \"contracts/SupplyChain.sol\":9985:9995  retCtr > 0 */\n      gt\n        /* \"contracts/SupplyChain.sol\":9936:9996  (rmsCtr > 0) && (manCtr > 0) && (disCtr > 0) && (retCtr > 0) */\n    tag_236:\n        /* \"contracts/SupplyChain.sol\":9928:9997  require((rmsCtr > 0) && (manCtr > 0) && (disCtr > 0) && (retCtr > 0)) */\n      tag_237\n      jumpi\n      0x00\n      dup1\n      revert\n    tag_237:\n        /* \"contracts/SupplyChain.sol\":10008:10022  agricultureCtr */\n      0x01\n      0x00\n        /* \"contracts/SupplyChain.sol\":10008:10024  agricultureCtr++ */\n      dup2\n      sload\n      dup1\n      swap3\n      swap2\n      swap1\n      tag_238\n      swap1\n      tag_112\n      jump\t// in\n    tag_238:\n      swap2\n      swap1\n      pop\n      sstore\n      pop\n        /* \"contracts/SupplyChain.sol\":10070:10257  agriculture(... */\n      mload(0x40)\n      dup1\n      0x0100\n      add\n      0x40\n      mstore\n      dup1\n        /* \"contracts/SupplyChain.sol\":10096:10110  agricultureCtr */\n      sload(0x01)\n        /* \"contracts/SupplyChain.sol\":10070:10257  agriculture(... */\n      dup2\n      mstore\n      0x20\n      add\n        /* \"contracts/SupplyChain.sol\":10125:10130  _name */\n      dup4\n        /* \"contracts/SupplyChain.sol\":10070:10257  agriculture(... */\n      dup2\n      mstore\n      0x20\n      add\n        /* \"contracts/SupplyChain.sol\":10145:10157  _description */\n      dup3\n        /* \"contracts/SupplyChain.sol\":10070:10257  agriculture(... */\n      dup2\n      mstore\n      0x20\n      add\n        /* \"contracts/SupplyChain.sol\":10172:10173  0 */\n      0x00\n        /* \"contracts/SupplyChain.sol\":10070:10257  agriculture(... */\n      dup2\n      mstore\n      0x20\n      add\n        /* \"contracts/SupplyChain.sol\":10188:10189  0 */\n      0x00\n        /* \"contracts/SupplyChain.sol\":10070:10257  agriculture(... */\n      dup2\n      mstore\n      0x20\n      add\n        /* \"contracts/SupplyChain.sol\":10204:10205  0 */\n      0x00\n        /* \"contracts/SupplyChain.sol\":10070:10257  agriculture(... */\n      dup2\n      mstore\n      0x20\n      add\n        /* \"contracts/SupplyChain.sol\":10220:10221  0 */\n      0x00\n        /* \"contracts/SupplyChain.sol\":10070:10257  agriculture(... */\n      dup2\n      mstore\n      0x20\n      add\n        /* \"contracts/SupplyChain.sol\":10236:10246  STAGE.Init */\n      0x00\n        /* \"contracts/SupplyChain.sol\":10070:10257  agriculture(... */\n      0x05\n      dup2\n      gt\n      iszero\n      tag_239\n      jumpi\n      tag_240\n      tag_141\n      jump\t// in\n    tag_240:\n    tag_239:\n      dup2\n      mstore\n      pop\n        /* \"contracts/SupplyChain.sol\":10035:10051  AgricultureStock */\n      0x06\n        /* \"contracts/SupplyChain.sol\":10035:10067  AgricultureStock[agricultureCtr] */\n      0x00\n        /* \"contracts/SupplyChain.sol\":10052:10066  agricultureCtr */\n      sload(0x01)\n        /* \"contracts/SupplyChain.sol\":10035:10067  AgricultureStock[agricultureCtr] */\n      dup2\n      mstore\n      0x20\n      add\n      swap1\n      dup2\n      mstore\n      0x20\n      add\n      0x00\n      keccak256\n        /* \"contracts/SupplyChain.sol\":10035:10257  AgricultureStock[agricultureCtr] = agriculture(... */\n      0x00\n      dup3\n      add\n      mload\n      dup2\n      0x00\n      add\n      sstore\n      0x20\n      dup3\n      add\n      mload\n      dup2\n      0x01\n      add\n      swap1\n      dup2\n      tag_241\n      swap2\n      swap1\n      tag_114\n      jump\t// in\n    tag_241:\n      pop\n      0x40\n      dup3\n      add\n      mload\n      dup2\n      0x02\n      add\n      swap1\n      dup2\n      tag_242\n      swap2\n      swap1\n      tag_114\n      jump\t// in\n    tag_242:\n      pop\n      0x60\n      dup3\n      add\n      mload\n      dup2\n      0x03\n      add\n      sstore\n      0x80\n      dup3\n      add\n      mload\n      dup2\n      0x04\n      add\n      sstore\n      0xa0\n      dup3\n      add\n      mload\n      dup2\n      0x05\n      add\n      sstore\n      0xc0\n      dup3\n      add\n      mload\n      dup2\n      0x06\n      add\n      sstore\n      0xe0\n      dup3\n      add\n      mload\n      dup2\n      0x07\n      add\n      exp(0x0100, 0x00)\n      dup2\n      sload\n      dup2\n      0xff\n      mul\n      not\n      and\n      swap1\n      dup4\n      0x05\n      dup2\n      gt\n      iszero\n      tag_243\n      jumpi\n      tag_244\n      tag_141\n      jump\t// in\n    tag_244:\n    tag_243:\n      mul\n      or\n      swap1\n      sstore\n      pop\n      swap1\n      pop\n      pop\n        /* \"contracts/SupplyChain.sol\":9800:10265  function addAgriculture(string memory _name, string memory _description)... */\n      pop\n      pop\n      jump\t// out\n        /* \"contracts/SupplyChain.sol\":3994:4037  mapping(uint256 => manufacturer) public MAN */\n    tag_94:\n      mstore(0x20, 0x08)\n      dup1\n      0x00\n      mstore\n      keccak256(0x00, 0x40)\n      0x00\n      swap2\n      pop\n      swap1\n      pop\n      dup1\n      0x00\n      add\n      0x00\n      swap1\n      sload\n      swap1\n      0x0100\n      exp\n      swap1\n      div\n      0xffffffffffffffffffffffffffffffffffffffff\n      and\n      swap1\n      dup1\n      0x01\n      add\n      sload\n      swap1\n      dup1\n      0x02\n      add\n      dup1\n      sload\n      tag_245\n      swap1\n      tag_117\n      jump\t// in\n    tag_245:\n      dup1\n      0x1f\n      add\n      0x20\n      dup1\n      swap2\n      div\n      mul\n      0x20\n      add\n      mload(0x40)\n      swap1\n      dup2\n      add\n      0x40\n      mstore\n      dup1\n      swap3\n      swap2\n      swap1\n      dup2\n      dup2\n      mstore\n      0x20\n      add\n      dup3\n      dup1\n      sload\n      tag_246\n      swap1\n      tag_117\n      jump\t// in\n    tag_246:\n      dup1\n      iszero\n      tag_247\n      jumpi\n      dup1\n      0x1f\n      lt\n      tag_248\n      jumpi\n      0x0100\n      dup1\n      dup4\n      sload\n      div\n      mul\n      dup4\n      mstore\n      swap2\n      0x20\n      add\n      swap2\n      jump(tag_247)\n    tag_248:\n      dup3\n      add\n      swap2\n      swap1\n      0x00\n      mstore\n      keccak256(0x00, 0x20)\n      swap1\n    tag_249:\n      dup2\n      sload\n      dup2\n      mstore\n      swap1\n      0x01\n      add\n      swap1\n      0x20\n      add\n      dup1\n      dup4\n      gt\n      tag_249\n      jumpi\n      dup3\n      swap1\n      sub\n      0x1f\n      and\n      dup3\n      add\n      swap2\n    tag_247:\n      pop\n      pop\n      pop\n      pop\n      pop\n      swap1\n      dup1\n      0x03\n      add\n      dup1\n      sload\n      tag_250\n      swap1\n      tag_117\n      jump\t// in\n    tag_250:\n      dup1\n      0x1f\n      add\n      0x20\n      dup1\n      swap2\n      div\n      mul\n      0x20\n      add\n      mload(0x40)\n      swap1\n      dup2\n      add\n      0x40\n      mstore\n      dup1\n      swap3\n      swap2\n      swap1\n      dup2\n      dup2\n      mstore\n      0x20\n      add\n      dup3\n      dup1\n      sload\n      tag_251\n      swap1\n      tag_117\n      jump\t// in\n    tag_251:\n      dup1\n      iszero\n      tag_252\n      jumpi\n      dup1\n      0x1f\n      lt\n      tag_253\n      jumpi\n      0x0100\n      dup1\n      dup4\n      sload\n      div\n      mul\n      dup4\n      mstore\n      swap2\n      0x20\n      add\n      swap2\n      jump(tag_252)\n    tag_253:\n      dup3\n      add\n      swap2\n      swap1\n      0x00\n      mstore\n      keccak256(0x00, 0x20)\n      swap1\n    tag_254:\n      dup2\n      sload\n      dup2\n      mstore\n      swap1\n      0x01\n      add\n      swap1\n      0x20\n      add\n      dup1\n      dup4\n      gt\n      tag_254\n      jumpi\n      dup3\n      swap1\n      sub\n      0x1f\n      and\n      dup3\n      add\n      swap2\n    tag_252:\n      pop\n      pop\n      pop\n      pop\n      pop\n      swap1\n      pop\n      dup5\n      jump\t// out\n        /* \"contracts/SupplyChain.sol\":1329:1354  uint256 public rmsCtr = 0 */\n    tag_97:\n      sload(0x02)\n      dup2\n      jump\t// out\n        /* \"contracts/SupplyChain.sol\":2371:3268  function showStage(uint256 _agricultureID)... */\n    tag_101:\n        /* \"contracts/SupplyChain.sol\":2462:2475  string memory */\n      0x60\n        /* \"contracts/SupplyChain.sol\":2518:2519  0 */\n      0x00\n        /* \"contracts/SupplyChain.sol\":2501:2515  agricultureCtr */\n      sload(0x01)\n        /* \"contracts/SupplyChain.sol\":2501:2519  agricultureCtr > 0 */\n      gt\n        /* \"contracts/SupplyChain.sol\":2493:2520  require(agricultureCtr > 0) */\n      tag_256\n      jumpi\n      0x00\n      dup1\n      revert\n    tag_256:\n        /* \"contracts/SupplyChain.sol\":2577:2587  STAGE.Init */\n      0x00\n        /* \"contracts/SupplyChain.sol\":2535:2587  AgricultureStock[_agricultureID].stage == STAGE.Init */\n      0x05\n      dup2\n      gt\n      iszero\n      tag_257\n      jumpi\n      tag_258\n      tag_141\n      jump\t// in\n    tag_258:\n    tag_257:\n        /* \"contracts/SupplyChain.sol\":2535:2551  AgricultureStock */\n      0x06\n        /* \"contracts/SupplyChain.sol\":2535:2567  AgricultureStock[_agricultureID] */\n      0x00\n        /* \"contracts/SupplyChain.sol\":2552:2566  _agricultureID */\n      dup5\n        /* \"contracts/SupplyChain.sol\":2535:2567  AgricultureStock[_agricultureID] */\n      dup2\n      mstore\n      0x20\n      add\n      swap1\n      dup2\n      mstore\n      0x20\n      add\n      0x00\n      keccak256\n        /* \"contracts/SupplyChain.sol\":2535:2573  AgricultureStock[_agricultureID].stage */\n      0x07\n      add\n      0x00\n      swap1\n      sload\n      swap1\n      0x0100\n      exp\n      swap1\n      div\n      0xff\n      and\n        /* \"contracts/SupplyChain.sol\":2535:2587  AgricultureStock[_agricultureID].stage == STAGE.Init */\n      0x05\n      dup2\n      gt\n      iszero\n      tag_259\n      jumpi\n      tag_260\n      tag_141\n      jump\t// in\n    tag_260:\n    tag_259:\n      sub\n        /* \"contracts/SupplyChain.sol\":2531:3260  if (AgricultureStock[_agricultureID].stage == STAGE.Init)... */\n      tag_261\n      jumpi\n        /* \"contracts/SupplyChain.sol\":2602:2645  return \"Agriculture tool/technique Ordered\" */\n      mload(0x40)\n      dup1\n      0x60\n      add\n      0x40\n      mstore\n      dup1\n      0x22\n      dup2\n      mstore\n      0x20\n      add\n      data_73844ee127f08613ebe37071089123d7a78eb5f8fbd91acdd219bfc40ebb7998\n      0x22\n      swap2\n      codecopy\n      swap1\n      pop\n      jump(tag_255)\n        /* \"contracts/SupplyChain.sol\":2531:3260  if (AgricultureStock[_agricultureID].stage == STAGE.Init)... */\n    tag_261:\n        /* \"contracts/SupplyChain.sol\":2707:2730  STAGE.RawMaterialSupply */\n      0x01\n        /* \"contracts/SupplyChain.sol\":2665:2730  AgricultureStock[_agricultureID].stage == STAGE.RawMaterialSupply */\n      0x05\n      dup2\n      gt\n      iszero\n      tag_263\n      jumpi\n      tag_264\n      tag_141\n      jump\t// in\n    tag_264:\n    tag_263:\n        /* \"contracts/SupplyChain.sol\":2665:2681  AgricultureStock */\n      0x06\n        /* \"contracts/SupplyChain.sol\":2665:2697  AgricultureStock[_agricultureID] */\n      0x00\n        /* \"contracts/SupplyChain.sol\":2682:2696  _agricultureID */\n      dup5\n        /* \"contracts/SupplyChain.sol\":2665:2697  AgricultureStock[_agricultureID] */\n      dup2\n      mstore\n      0x20\n      add\n      swap1\n      dup2\n      mstore\n      0x20\n      add\n      0x00\n      keccak256\n        /* \"contracts/SupplyChain.sol\":2665:2703  AgricultureStock[_agricultureID].stage */\n      0x07\n      add\n      0x00\n      swap1\n      sload\n      swap1\n      0x0100\n      exp\n      swap1\n      div\n      0xff\n      and\n        /* \"contracts/SupplyChain.sol\":2665:2730  AgricultureStock[_agricultureID].stage == STAGE.RawMaterialSupply */\n      0x05\n      dup2\n      gt\n      iszero\n      tag_265\n      jumpi\n      tag_266\n      tag_141\n      jump\t// in\n    tag_266:\n    tag_265:\n      sub\n        /* \"contracts/SupplyChain.sol\":2661:3260  if (AgricultureStock[_agricultureID].stage == STAGE.RawMaterialSupply)... */\n      tag_267\n      jumpi\n        /* \"contracts/SupplyChain.sol\":2745:2779  return \"Raw Material Supply Stage\" */\n      mload(0x40)\n      dup1\n      0x40\n      add\n      0x40\n      mstore\n      dup1\n      0x19\n      dup2\n      mstore\n      0x20\n      add\n      0x526177204d6174657269616c20537570706c7920537461676500000000000000\n      dup2\n      mstore\n      pop\n      swap1\n      pop\n      jump(tag_255)\n        /* \"contracts/SupplyChain.sol\":2661:3260  if (AgricultureStock[_agricultureID].stage == STAGE.RawMaterialSupply)... */\n    tag_267:\n        /* \"contracts/SupplyChain.sol\":2841:2858  STAGE.Manufacture */\n      0x02\n        /* \"contracts/SupplyChain.sol\":2799:2858  AgricultureStock[_agricultureID].stage == STAGE.Manufacture */\n      0x05\n      dup2\n      gt\n      iszero\n      tag_269\n      jumpi\n      tag_270\n      tag_141\n      jump\t// in\n    tag_270:\n    tag_269:\n        /* \"contracts/SupplyChain.sol\":2799:2815  AgricultureStock */\n      0x06\n        /* \"contracts/SupplyChain.sol\":2799:2831  AgricultureStock[_agricultureID] */\n      0x00\n        /* \"contracts/SupplyChain.sol\":2816:2830  _agricultureID */\n      dup5\n        /* \"contracts/SupplyChain.sol\":2799:2831  AgricultureStock[_agricultureID] */\n      dup2\n      mstore\n      0x20\n      add\n      swap1\n      dup2\n      mstore\n      0x20\n      add\n      0x00\n      keccak256\n        /* \"contracts/SupplyChain.sol\":2799:2837  AgricultureStock[_agricultureID].stage */\n      0x07\n      add\n      0x00\n      swap1\n      sload\n      swap1\n      0x0100\n      exp\n      swap1\n      div\n      0xff\n      and\n        /* \"contracts/SupplyChain.sol\":2799:2858  AgricultureStock[_agricultureID].stage == STAGE.Manufacture */\n      0x05\n      dup2\n      gt\n      iszero\n      tag_271\n      jumpi\n      tag_272\n      tag_141\n      jump\t// in\n    tag_272:\n    tag_271:\n      sub\n        /* \"contracts/SupplyChain.sol\":2795:3260  if (AgricultureStock[_agricultureID].stage == STAGE.Manufacture)... */\n      tag_273\n      jumpi\n        /* \"contracts/SupplyChain.sol\":2873:2901  return \"Manufacturing Stage\" */\n      mload(0x40)\n      dup1\n      0x40\n      add\n      0x40\n      mstore\n      dup1\n      0x13\n      dup2\n      mstore\n      0x20\n      add\n      0x4d616e75666163747572696e6720537461676500000000000000000000000000\n      dup2\n      mstore\n      pop\n      swap1\n      pop\n      jump(tag_255)\n        /* \"contracts/SupplyChain.sol\":2795:3260  if (AgricultureStock[_agricultureID].stage == STAGE.Manufacture)... */\n    tag_273:\n        /* \"contracts/SupplyChain.sol\":2963:2981  STAGE.Distribution */\n      0x03\n        /* \"contracts/SupplyChain.sol\":2921:2981  AgricultureStock[_agricultureID].stage == STAGE.Distribution */\n      0x05\n      dup2\n      gt\n      iszero\n      tag_275\n      jumpi\n      tag_276\n      tag_141\n      jump\t// in\n    tag_276:\n    tag_275:\n        /* \"contracts/SupplyChain.sol\":2921:2937  AgricultureStock */\n      0x06\n        /* \"contracts/SupplyChain.sol\":2921:2953  AgricultureStock[_agricultureID] */\n      0x00\n        /* \"contracts/SupplyChain.sol\":2938:2952  _agricultureID */\n      dup5\n        /* \"contracts/SupplyChain.sol\":2921:2953  AgricultureStock[_agricultureID] */\n      dup2\n      mstore\n      0x20\n      add\n      swap1\n      dup2\n      mstore\n      0x20\n      add\n      0x00\n      keccak256\n        /* \"contracts/SupplyChain.sol\":2921:2959  AgricultureStock[_agricultureID].stage */\n      0x07\n      add\n      0x00\n      swap1\n      sload\n      swap1\n      0x0100\n      exp\n      swap1\n      div\n      0xff\n      and\n        /* \"contracts/SupplyChain.sol\":2921:2981  AgricultureStock[_agricultureID].stage == STAGE.Distribution */\n      0x05\n      dup2\n      gt\n      iszero\n      tag_277\n      jumpi\n      tag_278\n      tag_141\n      jump\t// in\n    tag_278:\n    tag_277:\n      sub\n        /* \"contracts/SupplyChain.sol\":2917:3260  if (AgricultureStock[_agricultureID].stage == STAGE.Distribution)... */\n      tag_279\n      jumpi\n        /* \"contracts/SupplyChain.sol\":2996:3023  return \"Distribution Stage\" */\n      mload(0x40)\n      dup1\n      0x40\n      add\n      0x40\n      mstore\n      dup1\n      0x12\n      dup2\n      mstore\n      0x20\n      add\n      0x446973747269627574696f6e2053746167650000000000000000000000000000\n      dup2\n      mstore\n      pop\n      swap1\n      pop\n      jump(tag_255)\n        /* \"contracts/SupplyChain.sol\":2917:3260  if (AgricultureStock[_agricultureID].stage == STAGE.Distribution)... */\n    tag_279:\n        /* \"contracts/SupplyChain.sol\":3085:3097  STAGE.Retail */\n      0x04\n        /* \"contracts/SupplyChain.sol\":3043:3097  AgricultureStock[_agricultureID].stage == STAGE.Retail */\n      0x05\n      dup2\n      gt\n      iszero\n      tag_281\n      jumpi\n      tag_282\n      tag_141\n      jump\t// in\n    tag_282:\n    tag_281:\n        /* \"contracts/SupplyChain.sol\":3043:3059  AgricultureStock */\n      0x06\n        /* \"contracts/SupplyChain.sol\":3043:3075  AgricultureStock[_agricultureID] */\n      0x00\n        /* \"contracts/SupplyChain.sol\":3060:3074  _agricultureID */\n      dup5\n        /* \"contracts/SupplyChain.sol\":3043:3075  AgricultureStock[_agricultureID] */\n      dup2\n      mstore\n      0x20\n      add\n      swap1\n      dup2\n      mstore\n      0x20\n      add\n      0x00\n      keccak256\n        /* \"contracts/SupplyChain.sol\":3043:3081  AgricultureStock[_agricultureID].stage */\n      0x07\n      add\n      0x00\n      swap1\n      sload\n      swap1\n      0x0100\n      exp\n      swap1\n      div\n      0xff\n      and\n        /* \"contracts/SupplyChain.sol\":3043:3097  AgricultureStock[_agricultureID].stage == STAGE.Retail */\n      0x05\n      dup2\n      gt\n      iszero\n      tag_283\n      jumpi\n      tag_284\n      tag_141\n      jump\t// in\n    tag_284:\n    tag_283:\n      sub\n        /* \"contracts/SupplyChain.sol\":3039:3260  if (AgricultureStock[_agricultureID].stage == STAGE.Retail)... */\n      tag_285\n      jumpi\n        /* \"contracts/SupplyChain.sol\":3112:3133  return \"Retail Stage\" */\n      mload(0x40)\n      dup1\n      0x40\n      add\n      0x40\n      mstore\n      dup1\n      0x0c\n      dup2\n      mstore\n      0x20\n      add\n      0x52657461696c2053746167650000000000000000000000000000000000000000\n      dup2\n      mstore\n      pop\n      swap1\n      pop\n      jump(tag_255)\n        /* \"contracts/SupplyChain.sol\":3039:3260  if (AgricultureStock[_agricultureID].stage == STAGE.Retail)... */\n    tag_285:\n        /* \"contracts/SupplyChain.sol\":3195:3205  STAGE.Sold */\n      0x05\n        /* \"contracts/SupplyChain.sol\":3153:3205  AgricultureStock[_agricultureID].stage == STAGE.Sold */\n      dup1\n      dup2\n      gt\n      iszero\n      tag_287\n      jumpi\n      tag_288\n      tag_141\n      jump\t// in\n    tag_288:\n    tag_287:\n        /* \"contracts/SupplyChain.sol\":3153:3169  AgricultureStock */\n      0x06\n        /* \"contracts/SupplyChain.sol\":3153:3185  AgricultureStock[_agricultureID] */\n      0x00\n        /* \"contracts/SupplyChain.sol\":3170:3184  _agricultureID */\n      dup5\n        /* \"contracts/SupplyChain.sol\":3153:3185  AgricultureStock[_agricultureID] */\n      dup2\n      mstore\n      0x20\n      add\n      swap1\n      dup2\n      mstore\n      0x20\n      add\n      0x00\n      keccak256\n        /* \"contracts/SupplyChain.sol\":3153:3191  AgricultureStock[_agricultureID].stage */\n      0x07\n      add\n      0x00\n      swap1\n      sload\n      swap1\n      0x0100\n      exp\n      swap1\n      div\n      0xff\n      and\n        /* \"contracts/SupplyChain.sol\":3153:3205  AgricultureStock[_agricultureID].stage == STAGE.Sold */\n      0x05\n      dup2\n      gt\n      iszero\n      tag_289\n      jumpi\n      tag_290\n      tag_141\n      jump\t// in\n    tag_290:\n    tag_289:\n      sub\n        /* \"contracts/SupplyChain.sol\":3149:3260  if (AgricultureStock[_agricultureID].stage == STAGE.Sold)... */\n      tag_291\n      jumpi\n        /* \"contracts/SupplyChain.sol\":3220:3260  return \"Agriculture tool/technique Sold\" */\n      mload(0x40)\n      dup1\n      0x40\n      add\n      0x40\n      mstore\n      dup1\n      0x1f\n      dup2\n      mstore\n      0x20\n      add\n      0x4167726963756c7475726520746f6f6c2f746563686e6971756520536f6c6400\n      dup2\n      mstore\n      pop\n      swap1\n      pop\n      jump(tag_255)\n        /* \"contracts/SupplyChain.sol\":3149:3260  if (AgricultureStock[_agricultureID].stage == STAGE.Sold)... */\n    tag_291:\n        /* \"contracts/SupplyChain.sol\":2371:3268  function showStage(uint256 _agricultureID)... */\n    tag_255:\n      swap2\n      swap1\n      pop\n      jump\t// out\n        /* \"contracts/SupplyChain.sol\":3625:3675  mapping(uint256 => rawMaterialSupplier) public RMS */\n    tag_106:\n      mstore(0x20, 0x07)\n      dup1\n      0x00\n      mstore\n      keccak256(0x00, 0x40)\n      0x00\n      swap2\n      pop\n      swap1\n      pop\n      dup1\n      0x00\n      add\n      0x00\n      swap1\n      sload\n      swap1\n      0x0100\n      exp\n      swap1\n      div\n      0xffffffffffffffffffffffffffffffffffffffff\n      and\n      swap1\n      dup1\n      0x01\n      add\n      sload\n      swap1\n      dup1\n      0x02\n      add\n      dup1\n      sload\n      tag_292\n      swap1\n      tag_117\n      jump\t// in\n    tag_292:\n      dup1\n      0x1f\n      add\n      0x20\n      dup1\n      swap2\n      div\n      mul\n      0x20\n      add\n      mload(0x40)\n      swap1\n      dup2\n      add\n      0x40\n      mstore\n      dup1\n      swap3\n      swap2\n      swap1\n      dup2\n      dup2\n      mstore\n      0x20\n      add\n      dup3\n      dup1\n      sload\n      tag_293\n      swap1\n      tag_117\n      jump\t// in\n    tag_293:\n      dup1\n      iszero\n      tag_294\n      jumpi\n      dup1\n      0x1f\n      lt\n      tag_295\n      jumpi\n      0x0100\n      dup1\n      dup4\n      sload\n      div\n      mul\n      dup4\n      mstore\n      swap2\n      0x20\n      add\n      swap2\n      jump(tag_294)\n    tag_295:\n      dup3\n      add\n      swap2\n      swap1\n      0x00\n      mstore\n      keccak256(0x00, 0x20)\n      swap1\n    tag_296:\n      dup2\n      sload\n      dup2\n      mstore\n      swap1\n      0x01\n      add\n      swap1\n      0x20\n      add\n      dup1\n      dup4\n      gt\n      tag_296\n      jumpi\n      dup3\n      swap1\n      sub\n      0x1f\n      and\n      dup3\n      add\n      swap2\n    tag_294:\n      pop\n      pop\n      pop\n      pop\n      pop\n      swap1\n      dup1\n      0x03\n      add\n      dup1\n      sload\n      tag_297\n      swap1\n      tag_117\n      jump\t// in\n    tag_297:\n      dup1\n      0x1f\n      add\n      0x20\n      dup1\n      swap2\n      div\n      mul\n      0x20\n      add\n      mload(0x40)\n      swap1\n      dup2\n      add\n      0x40\n      mstore\n      dup1\n      swap3\n      swap2\n      swap1\n      dup2\n      dup2\n      mstore\n      0x20\n      add\n      dup3\n      dup1\n      sload\n      tag_298\n      swap1\n      tag_117\n      jump\t// in\n    tag_298:\n      dup1\n      iszero\n      tag_299\n      jumpi\n      dup1\n      0x1f\n      lt\n      tag_300\n      jumpi\n      0x0100\n      dup1\n      dup4\n      sload\n      div\n      mul\n      dup4\n      mstore\n      swap2\n      0x20\n      add\n      swap2\n      jump(tag_299)\n    tag_300:\n      dup3\n      add\n      swap2\n      swap1\n      0x00\n      mstore\n      keccak256(0x00, 0x20)\n      swap1\n    tag_301:\n      dup2\n      sload\n      dup2\n      mstore\n      swap1\n      0x01\n      add\n      swap1\n      0x20\n      add\n      dup1\n      dup4\n      gt\n      tag_301\n      jumpi\n      dup3\n      swap1\n      sub\n      0x1f\n      and\n      dup3\n      add\n      swap2\n    tag_299:\n      pop\n      pop\n      pop\n      pop\n      pop\n      swap1\n      pop\n      dup5\n      jump\t// out\n        /* \"contracts/SupplyChain.sol\":8941:9184  function findRET(address _address) private view returns (uint256) {... */\n    tag_137:\n        /* \"contracts/SupplyChain.sol\":8998:9005  uint256 */\n      0x00\n        /* \"contracts/SupplyChain.sol\":9035:9036  0 */\n      dup1\n        /* \"contracts/SupplyChain.sol\":9026:9032  retCtr */\n      sload(0x05)\n        /* \"contracts/SupplyChain.sol\":9026:9036  retCtr > 0 */\n      gt\n        /* \"contracts/SupplyChain.sol\":9018:9037  require(retCtr > 0) */\n      tag_303\n      jumpi\n      0x00\n      dup1\n      revert\n    tag_303:\n        /* \"contracts/SupplyChain.sol\":9053:9062  uint256 i */\n      0x00\n        /* \"contracts/SupplyChain.sol\":9065:9066  1 */\n      0x01\n        /* \"contracts/SupplyChain.sol\":9053:9066  uint256 i = 1 */\n      swap1\n      pop\n        /* \"contracts/SupplyChain.sol\":9048:9158  for (uint256 i = 1; i <= retCtr; i++) {... */\n    tag_304:\n        /* \"contracts/SupplyChain.sol\":9073:9079  retCtr */\n      sload(0x05)\n        /* \"contracts/SupplyChain.sol\":9068:9069  i */\n      dup2\n        /* \"contracts/SupplyChain.sol\":9068:9079  i <= retCtr */\n      gt\n        /* \"contracts/SupplyChain.sol\":9048:9158  for (uint256 i = 1; i <= retCtr; i++) {... */\n      tag_305\n      jumpi\n        /* \"contracts/SupplyChain.sol\":9120:9128  _address */\n      dup3\n        /* \"contracts/SupplyChain.sol\":9105:9128  RET[i].addr == _address */\n      0xffffffffffffffffffffffffffffffffffffffff\n      and\n        /* \"contracts/SupplyChain.sol\":9105:9108  RET */\n      0x0a\n        /* \"contracts/SupplyChain.sol\":9105:9111  RET[i] */\n      0x00\n        /* \"contracts/SupplyChain.sol\":9109:9110  i */\n      dup4\n        /* \"contracts/SupplyChain.sol\":9105:9111  RET[i] */\n      dup2\n      mstore\n      0x20\n      add\n      swap1\n      dup2\n      mstore\n      0x20\n      add\n      0x00\n      keccak256\n        /* \"contracts/SupplyChain.sol\":9105:9116  RET[i].addr */\n      0x00\n      add\n      0x00\n      swap1\n      sload\n      swap1\n      0x0100\n      exp\n      swap1\n      div\n      0xffffffffffffffffffffffffffffffffffffffff\n      and\n        /* \"contracts/SupplyChain.sol\":9105:9128  RET[i].addr == _address */\n      0xffffffffffffffffffffffffffffffffffffffff\n      and\n      sub\n        /* \"contracts/SupplyChain.sol\":9101:9146  if (RET[i].addr == _address) return RET[i].id */\n      tag_307\n      jumpi\n        /* \"contracts/SupplyChain.sol\":9137:9140  RET */\n      0x0a\n        /* \"contracts/SupplyChain.sol\":9137:9143  RET[i] */\n      0x00\n        /* \"contracts/SupplyChain.sol\":9141:9142  i */\n      dup3\n        /* \"contracts/SupplyChain.sol\":9137:9143  RET[i] */\n      dup2\n      mstore\n      0x20\n      add\n      swap1\n      dup2\n      mstore\n      0x20\n      add\n      0x00\n      keccak256\n        /* \"contracts/SupplyChain.sol\":9137:9146  RET[i].id */\n      0x01\n      add\n      sload\n        /* \"contracts/SupplyChain.sol\":9130:9146  return RET[i].id */\n      swap2\n      pop\n      pop\n      jump(tag_302)\n        /* \"contracts/SupplyChain.sol\":9101:9146  if (RET[i].addr == _address) return RET[i].id */\n    tag_307:\n        /* \"contracts/SupplyChain.sol\":9081:9084  i++ */\n      dup1\n      dup1\n      tag_308\n      swap1\n      tag_112\n      jump\t// in\n    tag_308:\n      swap2\n      pop\n      pop\n        /* \"contracts/SupplyChain.sol\":9048:9158  for (uint256 i = 1; i <= retCtr; i++) {... */\n      jump(tag_304)\n    tag_305:\n      pop\n        /* \"contracts/SupplyChain.sol\":9175:9176  0 */\n      0x00\n        /* \"contracts/SupplyChain.sol\":9168:9176  return 0 */\n      swap1\n      pop\n        /* \"contracts/SupplyChain.sol\":8941:9184  function findRET(address _address) private view returns (uint256) {... */\n    tag_302:\n      swap2\n      swap1\n      pop\n      jump\t// out\n        /* \"contracts/SupplyChain.sol\":8149:8392  function findDIS(address _address) private view returns (uint256) {... */\n    tag_151:\n        /* \"contracts/SupplyChain.sol\":8206:8213  uint256 */\n      0x00\n        /* \"contracts/SupplyChain.sol\":8243:8244  0 */\n      dup1\n        /* \"contracts/SupplyChain.sol\":8234:8240  disCtr */\n      sload(0x04)\n        /* \"contracts/SupplyChain.sol\":8234:8244  disCtr > 0 */\n      gt\n        /* \"contracts/SupplyChain.sol\":8226:8245  require(disCtr > 0) */\n      tag_310\n      jumpi\n      0x00\n      dup1\n      revert\n    tag_310:\n        /* \"contracts/SupplyChain.sol\":8261:8270  uint256 i */\n      0x00\n        /* \"contracts/SupplyChain.sol\":8273:8274  1 */\n      0x01\n        /* \"contracts/SupplyChain.sol\":8261:8274  uint256 i = 1 */\n      swap1\n      pop\n        /* \"contracts/SupplyChain.sol\":8256:8366  for (uint256 i = 1; i <= disCtr; i++) {... */\n    tag_311:\n        /* \"contracts/SupplyChain.sol\":8281:8287  disCtr */\n      sload(0x04)\n        /* \"contracts/SupplyChain.sol\":8276:8277  i */\n      dup2\n        /* \"contracts/SupplyChain.sol\":8276:8287  i <= disCtr */\n      gt\n        /* \"contracts/SupplyChain.sol\":8256:8366  for (uint256 i = 1; i <= disCtr; i++) {... */\n      tag_312\n      jumpi\n        /* \"contracts/SupplyChain.sol\":8328:8336  _address */\n      dup3\n        /* \"contracts/SupplyChain.sol\":8313:8336  DIS[i].addr == _address */\n      0xffffffffffffffffffffffffffffffffffffffff\n      and\n        /* \"contracts/SupplyChain.sol\":8313:8316  DIS */\n      0x09\n        /* \"contracts/SupplyChain.sol\":8313:8319  DIS[i] */\n      0x00\n        /* \"contracts/SupplyChain.sol\":8317:8318  i */\n      dup4\n        /* \"contracts/SupplyChain.sol\":8313:8319  DIS[i] */\n      dup2\n      mstore\n      0x20\n      add\n      swap1\n      dup2\n      mstore\n      0x20\n      add\n      0x00\n      keccak256\n        /* \"contracts/SupplyChain.sol\":8313:8324  DIS[i].addr */\n      0x00\n      add\n      0x00\n      swap1\n      sload\n      swap1\n      0x0100\n      exp\n      swap1\n      div\n      0xffffffffffffffffffffffffffffffffffffffff\n      and\n        /* \"contracts/SupplyChain.sol\":8313:8336  DIS[i].addr == _address */\n      0xffffffffffffffffffffffffffffffffffffffff\n      and\n      sub\n        /* \"contracts/SupplyChain.sol\":8309:8354  if (DIS[i].addr == _address) return DIS[i].id */\n      tag_314\n      jumpi\n        /* \"contracts/SupplyChain.sol\":8345:8348  DIS */\n      0x09\n        /* \"contracts/SupplyChain.sol\":8345:8351  DIS[i] */\n      0x00\n        /* \"contracts/SupplyChain.sol\":8349:8350  i */\n      dup3\n        /* \"contracts/SupplyChain.sol\":8345:8351  DIS[i] */\n      dup2\n      mstore\n      0x20\n      add\n      swap1\n      dup2\n      mstore\n      0x20\n      add\n      0x00\n      keccak256\n        /* \"contracts/SupplyChain.sol\":8345:8354  DIS[i].id */\n      0x01\n      add\n      sload\n        /* \"contracts/SupplyChain.sol\":8338:8354  return DIS[i].id */\n      swap2\n      pop\n      pop\n      jump(tag_309)\n        /* \"contracts/SupplyChain.sol\":8309:8354  if (DIS[i].addr == _address) return DIS[i].id */\n    tag_314:\n        /* \"contracts/SupplyChain.sol\":8289:8292  i++ */\n      dup1\n      dup1\n      tag_315\n      swap1\n      tag_112\n      jump\t// in\n    tag_315:\n      swap2\n      pop\n      pop\n        /* \"contracts/SupplyChain.sol\":8256:8366  for (uint256 i = 1; i <= disCtr; i++) {... */\n      jump(tag_311)\n    tag_312:\n      pop\n        /* \"contracts/SupplyChain.sol\":8383:8384  0 */\n      0x00\n        /* \"contracts/SupplyChain.sol\":8376:8384  return 0 */\n      swap1\n      pop\n        /* \"contracts/SupplyChain.sol\":8149:8392  function findDIS(address _address) private view returns (uint256) {... */\n    tag_309:\n      swap2\n      swap1\n      pop\n      jump\t// out\n        /* \"contracts/SupplyChain.sol\":6552:6795  function findRMS(address _address) private view returns (uint256) {... */\n    tag_186:\n        /* \"contracts/SupplyChain.sol\":6609:6616  uint256 */\n      0x00\n        /* \"contracts/SupplyChain.sol\":6646:6647  0 */\n      dup1\n        /* \"contracts/SupplyChain.sol\":6637:6643  rmsCtr */\n      sload(0x02)\n        /* \"contracts/SupplyChain.sol\":6637:6647  rmsCtr > 0 */\n      gt\n        /* \"contracts/SupplyChain.sol\":6629:6648  require(rmsCtr > 0) */\n      tag_317\n      jumpi\n      0x00\n      dup1\n      revert\n    tag_317:\n        /* \"contracts/SupplyChain.sol\":6664:6673  uint256 i */\n      0x00\n        /* \"contracts/SupplyChain.sol\":6676:6677  1 */\n      0x01\n        /* \"contracts/SupplyChain.sol\":6664:6677  uint256 i = 1 */\n      swap1\n      pop\n        /* \"contracts/SupplyChain.sol\":6659:6769  for (uint256 i = 1; i <= rmsCtr; i++) {... */\n    tag_318:\n        /* \"contracts/SupplyChain.sol\":6684:6690  rmsCtr */\n      sload(0x02)\n        /* \"contracts/SupplyChain.sol\":6679:6680  i */\n      dup2\n        /* \"contracts/SupplyChain.sol\":6679:6690  i <= rmsCtr */\n      gt\n        /* \"contracts/SupplyChain.sol\":6659:6769  for (uint256 i = 1; i <= rmsCtr; i++) {... */\n      tag_319\n      jumpi\n        /* \"contracts/SupplyChain.sol\":6731:6739  _address */\n      dup3\n        /* \"contracts/SupplyChain.sol\":6716:6739  RMS[i].addr == _address */\n      0xffffffffffffffffffffffffffffffffffffffff\n      and\n        /* \"contracts/SupplyChain.sol\":6716:6719  RMS */\n      0x07\n        /* \"contracts/SupplyChain.sol\":6716:6722  RMS[i] */\n      0x00\n        /* \"contracts/SupplyChain.sol\":6720:6721  i */\n      dup4\n        /* \"contracts/SupplyChain.sol\":6716:6722  RMS[i] */\n      dup2\n      mstore\n      0x20\n      add\n      swap1\n      dup2\n      mstore\n      0x20\n      add\n      0x00\n      keccak256\n        /* \"contracts/SupplyChain.sol\":6716:6727  RMS[i].addr */\n      0x00\n      add\n      0x00\n      swap1\n      sload\n      swap1\n      0x0100\n      exp\n      swap1\n      div\n      0xffffffffffffffffffffffffffffffffffffffff\n      and\n        /* \"contracts/SupplyChain.sol\":6716:6739  RMS[i].addr == _address */\n      0xffffffffffffffffffffffffffffffffffffffff\n      and\n      sub\n        /* \"contracts/SupplyChain.sol\":6712:6757  if (RMS[i].addr == _address) return RMS[i].id */\n      tag_321\n      jumpi\n        /* \"contracts/SupplyChain.sol\":6748:6751  RMS */\n      0x07\n        /* \"contracts/SupplyChain.sol\":6748:6754  RMS[i] */\n      0x00\n        /* \"contracts/SupplyChain.sol\":6752:6753  i */\n      dup3\n        /* \"contracts/SupplyChain.sol\":6748:6754  RMS[i] */\n      dup2\n      mstore\n      0x20\n      add\n      swap1\n      dup2\n      mstore\n      0x20\n      add\n      0x00\n      keccak256\n        /* \"contracts/SupplyChain.sol\":6748:6757  RMS[i].id */\n      0x01\n      add\n      sload\n        /* \"contracts/SupplyChain.sol\":6741:6757  return RMS[i].id */\n      swap2\n      pop\n      pop\n      jump(tag_316)\n        /* \"contracts/SupplyChain.sol\":6712:6757  if (RMS[i].addr == _address) return RMS[i].id */\n    tag_321:\n        /* \"contracts/SupplyChain.sol\":6692:6695  i++ */\n      dup1\n      dup1\n      tag_322\n      swap1\n      tag_112\n      jump\t// in\n    tag_322:\n      swap2\n      pop\n      pop\n        /* \"contracts/SupplyChain.sol\":6659:6769  for (uint256 i = 1; i <= rmsCtr; i++) {... */\n      jump(tag_318)\n    tag_319:\n      pop\n        /* \"contracts/SupplyChain.sol\":6786:6787  0 */\n      0x00\n        /* \"contracts/SupplyChain.sol\":6779:6787  return 0 */\n      swap1\n      pop\n        /* \"contracts/SupplyChain.sol\":6552:6795  function findRMS(address _address) private view returns (uint256) {... */\n    tag_316:\n      swap2\n      swap1\n      pop\n      jump\t// out\n        /* \"contracts/SupplyChain.sol\":7341:7584  function findMAN(address _address) private view returns (uint256) {... */\n    tag_222:\n        /* \"contracts/SupplyChain.sol\":7398:7405  uint256 */\n      0x00\n        /* \"contracts/SupplyChain.sol\":7435:7436  0 */\n      dup1\n        /* \"contracts/SupplyChain.sol\":7426:7432  manCtr */\n      sload(0x03)\n        /* \"contracts/SupplyChain.sol\":7426:7436  manCtr > 0 */\n      gt\n        /* \"contracts/SupplyChain.sol\":7418:7437  require(manCtr > 0) */\n      tag_324\n      jumpi\n      0x00\n      dup1\n      revert\n    tag_324:\n        /* \"contracts/SupplyChain.sol\":7453:7462  uint256 i */\n      0x00\n        /* \"contracts/SupplyChain.sol\":7465:7466  1 */\n      0x01\n        /* \"contracts/SupplyChain.sol\":7453:7466  uint256 i = 1 */\n      swap1\n      pop\n        /* \"contracts/SupplyChain.sol\":7448:7558  for (uint256 i = 1; i <= manCtr; i++) {... */\n    tag_325:\n        /* \"contracts/SupplyChain.sol\":7473:7479  manCtr */\n      sload(0x03)\n        /* \"contracts/SupplyChain.sol\":7468:7469  i */\n      dup2\n        /* \"contracts/SupplyChain.sol\":7468:7479  i <= manCtr */\n      gt\n        /* \"contracts/SupplyChain.sol\":7448:7558  for (uint256 i = 1; i <= manCtr; i++) {... */\n      tag_326\n      jumpi\n        /* \"contracts/SupplyChain.sol\":7520:7528  _address */\n      dup3\n        /* \"contracts/SupplyChain.sol\":7505:7528  MAN[i].addr == _address */\n      0xffffffffffffffffffffffffffffffffffffffff\n      and\n        /* \"contracts/SupplyChain.sol\":7505:7508  MAN */\n      0x08\n        /* \"contracts/SupplyChain.sol\":7505:7511  MAN[i] */\n      0x00\n        /* \"contracts/SupplyChain.sol\":7509:7510  i */\n      dup4\n        /* \"contracts/SupplyChain.sol\":7505:7511  MAN[i] */\n      dup2\n      mstore\n      0x20\n      add\n      swap1\n      dup2\n      mstore\n      0x20\n      add\n      0x00\n      keccak256\n        /* \"contracts/SupplyChain.sol\":7505:7516  MAN[i].addr */\n      0x00\n      add\n      0x00\n      swap1\n      sload\n      swap1\n      0x0100\n      exp\n      swap1\n      div\n      0xffffffffffffffffffffffffffffffffffffffff\n      and\n        /* \"contracts/SupplyChain.sol\":7505:7528  MAN[i].addr == _address */\n      0xffffffffffffffffffffffffffffffffffffffff\n      and\n      sub\n        /* \"contracts/SupplyChain.sol\":7501:7546  if (MAN[i].addr == _address) return MAN[i].id */\n      tag_328\n      jumpi\n        /* \"contracts/SupplyChain.sol\":7537:7540  MAN */\n      0x08\n        /* \"contracts/SupplyChain.sol\":7537:7543  MAN[i] */\n      0x00\n        /* \"contracts/SupplyChain.sol\":7541:7542  i */\n      dup3\n        /* \"contracts/SupplyChain.sol\":7537:7543  MAN[i] */\n      dup2\n      mstore\n      0x20\n      add\n      swap1\n      dup2\n      mstore\n      0x20\n      add\n      0x00\n      keccak256\n        /* \"contracts/SupplyChain.sol\":7537:7546  MAN[i].id */\n      0x01\n      add\n      sload\n        /* \"contracts/SupplyChain.sol\":7530:7546  return MAN[i].id */\n      swap2\n      pop\n      pop\n      jump(tag_323)\n        /* \"contracts/SupplyChain.sol\":7501:7546  if (MAN[i].addr == _address) return MAN[i].id */\n    tag_328:\n        /* \"contracts/SupplyChain.sol\":7481:7484  i++ */\n      dup1\n      dup1\n      tag_329\n      swap1\n      tag_112\n      jump\t// in\n    tag_329:\n      swap2\n      pop\n      pop\n        /* \"contracts/SupplyChain.sol\":7448:7558  for (uint256 i = 1; i <= manCtr; i++) {... */\n      jump(tag_325)\n    tag_326:\n      pop\n        /* \"contracts/SupplyChain.sol\":7575:7576  0 */\n      0x00\n        /* \"contracts/SupplyChain.sol\":7568:7576  return 0 */\n      swap1\n      pop\n        /* \"contracts/SupplyChain.sol\":7341:7584  function findMAN(address _address) private view returns (uint256) {... */\n    tag_323:\n      swap2\n      swap1\n      pop\n      jump\t// out\n        /* \"#utility.yul\":7:84   */\n    tag_330:\n        /* \"#utility.yul\":44:51   */\n      0x00\n        /* \"#utility.yul\":73:78   */\n      dup2\n        /* \"#utility.yul\":62:78   */\n      swap1\n      pop\n        /* \"#utility.yul\":7:84   */\n      swap2\n      swap1\n      pop\n      jump\t// out\n        /* \"#utility.yul\":90:208   */\n    tag_331:\n        /* \"#utility.yul\":177:201   */\n      tag_380\n        /* \"#utility.yul\":195:200   */\n      dup2\n        /* \"#utility.yul\":177:201   */\n      tag_330\n      jump\t// in\n    tag_380:\n        /* \"#utility.yul\":172:175   */\n      dup3\n        /* \"#utility.yul\":165:202   */\n      mstore\n        /* \"#utility.yul\":90:208   */\n      pop\n      pop\n      jump\t// out\n        /* \"#utility.yul\":214:436   */\n    tag_31:\n        /* \"#utility.yul\":307:311   */\n      0x00\n        /* \"#utility.yul\":345:347   */\n      0x20\n        /* \"#utility.yul\":334:343   */\n      dup3\n        /* \"#utility.yul\":330:348   */\n      add\n        /* \"#utility.yul\":322:348   */\n      swap1\n      pop\n        /* \"#utility.yul\":358:429   */\n      tag_382\n        /* \"#utility.yul\":426:427   */\n      0x00\n        /* \"#utility.yul\":415:424   */\n      dup4\n        /* \"#utility.yul\":411:428   */\n      add\n        /* \"#utility.yul\":402:408   */\n      dup5\n        /* \"#utility.yul\":358:429   */\n      tag_331\n      jump\t// in\n    tag_382:\n        /* \"#utility.yul\":214:436   */\n      swap3\n      swap2\n      pop\n      pop\n      jump\t// out\n        /* \"#utility.yul\":442:517   */\n    tag_332:\n        /* \"#utility.yul\":475:481   */\n      0x00\n        /* \"#utility.yul\":508:510   */\n      0x40\n        /* \"#utility.yul\":502:511   */\n      mload\n        /* \"#utility.yul\":492:511   */\n      swap1\n      pop\n        /* \"#utility.yul\":442:517   */\n      swap1\n      jump\t// out\n        /* \"#utility.yul\":523:640   */\n    tag_333:\n        /* \"#utility.yul\":632:633   */\n      0x00\n        /* \"#utility.yul\":629:630   */\n      dup1\n        /* \"#utility.yul\":622:634   */\n      revert\n        /* \"#utility.yul\":646:763   */\n    tag_334:\n        /* \"#utility.yul\":755:756   */\n      0x00\n        /* \"#utility.yul\":752:753   */\n      dup1\n        /* \"#utility.yul\":745:757   */\n      revert\n        /* \"#utility.yul\":769:895   */\n    tag_335:\n        /* \"#utility.yul\":806:813   */\n      0x00\n        /* \"#utility.yul\":846:888   */\n      0xffffffffffffffffffffffffffffffffffffffff\n        /* \"#utility.yul\":839:844   */\n      dup3\n        /* \"#utility.yul\":835:889   */\n      and\n        /* \"#utility.yul\":824:889   */\n      swap1\n      pop\n        /* \"#utility.yul\":769:895   */\n      swap2\n      swap1\n      pop\n      jump\t// out\n        /* \"#utility.yul\":901:997   */\n    tag_336:\n        /* \"#utility.yul\":938:945   */\n      0x00\n        /* \"#utility.yul\":967:991   */\n      tag_388\n        /* \"#utility.yul\":985:990   */\n      dup3\n        /* \"#utility.yul\":967:991   */\n      tag_335\n      jump\t// in\n    tag_388:\n        /* \"#utility.yul\":956:991   */\n      swap1\n      pop\n        /* \"#utility.yul\":901:997   */\n      swap2\n      swap1\n      pop\n      jump\t// out\n        /* \"#utility.yul\":1003:1125   */\n    tag_337:\n        /* \"#utility.yul\":1076:1100   */\n      tag_390\n        /* \"#utility.yul\":1094:1099   */\n      dup2\n        /* \"#utility.yul\":1076:1100   */\n      tag_336\n      jump\t// in\n    tag_390:\n        /* \"#utility.yul\":1069:1074   */\n      dup2\n        /* \"#utility.yul\":1066:1101   */\n      eq\n        /* \"#utility.yul\":1056:1119   */\n      tag_391\n      jumpi\n        /* \"#utility.yul\":1115:1116   */\n      0x00\n        /* \"#utility.yul\":1112:1113   */\n      dup1\n        /* \"#utility.yul\":1105:1117   */\n      revert\n        /* \"#utility.yul\":1056:1119   */\n    tag_391:\n        /* \"#utility.yul\":1003:1125   */\n      pop\n      jump\t// out\n        /* \"#utility.yul\":1131:1270   */\n    tag_338:\n        /* \"#utility.yul\":1177:1182   */\n      0x00\n        /* \"#utility.yul\":1215:1221   */\n      dup2\n        /* \"#utility.yul\":1202:1222   */\n      calldataload\n        /* \"#utility.yul\":1193:1222   */\n      swap1\n      pop\n        /* \"#utility.yul\":1231:1264   */\n      tag_393\n        /* \"#utility.yul\":1258:1263   */\n      dup2\n        /* \"#utility.yul\":1231:1264   */\n      tag_337\n      jump\t// in\n    tag_393:\n        /* \"#utility.yul\":1131:1270   */\n      swap3\n      swap2\n      pop\n      pop\n      jump\t// out\n        /* \"#utility.yul\":1276:1393   */\n    tag_339:\n        /* \"#utility.yul\":1385:1386   */\n      0x00\n        /* \"#utility.yul\":1382:1383   */\n      dup1\n        /* \"#utility.yul\":1375:1387   */\n      revert\n        /* \"#utility.yul\":1399:1516   */\n    tag_340:\n        /* \"#utility.yul\":1508:1509   */\n      0x00\n        /* \"#utility.yul\":1505:1506   */\n      dup1\n        /* \"#utility.yul\":1498:1510   */\n      revert\n        /* \"#utility.yul\":1522:1624   */\n    tag_341:\n        /* \"#utility.yul\":1563:1569   */\n      0x00\n        /* \"#utility.yul\":1614:1616   */\n      0x1f\n        /* \"#utility.yul\":1610:1617   */\n      not\n        /* \"#utility.yul\":1605:1607   */\n      0x1f\n        /* \"#utility.yul\":1598:1603   */\n      dup4\n        /* \"#utility.yul\":1594:1608   */\n      add\n        /* \"#utility.yul\":1590:1618   */\n      and\n        /* \"#utility.yul\":1580:1618   */\n      swap1\n      pop\n        /* \"#utility.yul\":1522:1624   */\n      swap2\n      swap1\n      pop\n      jump\t// out\n        /* \"#utility.yul\":1630:1810   */\n    tag_342:\n        /* \"#utility.yul\":1678:1755   */\n      0x4e487b7100000000000000000000000000000000000000000000000000000000\n        /* \"#utility.yul\":1675:1676   */\n      0x00\n        /* \"#utility.yul\":1668:1756   */\n      mstore\n        /* \"#utility.yul\":1775:1779   */\n      0x41\n        /* \"#utility.yul\":1772:1773   */\n      0x04\n        /* \"#utility.yul\":1765:1780   */\n      mstore\n        /* \"#utility.yul\":1799:1803   */\n      0x24\n        /* \"#utility.yul\":1796:1797   */\n      0x00\n        /* \"#utility.yul\":1789:1804   */\n      revert\n        /* \"#utility.yul\":1816:2097   */\n    tag_343:\n        /* \"#utility.yul\":1899:1926   */\n      tag_399\n        /* \"#utility.yul\":1921:1925   */\n      dup3\n        /* \"#utility.yul\":1899:1926   */\n      tag_341\n      jump\t// in\n    tag_399:\n        /* \"#utility.yul\":1891:1897   */\n      dup2\n        /* \"#utility.yul\":1887:1927   */\n      add\n        /* \"#utility.yul\":2029:2035   */\n      dup2\n        /* \"#utility.yul\":2017:2027   */\n      dup2\n        /* \"#utility.yul\":2014:2036   */\n      lt\n        /* \"#utility.yul\":1993:2011   */\n      0xffffffffffffffff\n        /* \"#utility.yul\":1981:1991   */\n      dup3\n        /* \"#utility.yul\":1978:2012   */\n      gt\n        /* \"#utility.yul\":1975:2037   */\n      or\n        /* \"#utility.yul\":1972:2060   */\n      iszero\n      tag_400\n      jumpi\n        /* \"#utility.yul\":2040:2058   */\n      tag_401\n      tag_342\n      jump\t// in\n    tag_401:\n        /* \"#utility.yul\":1972:2060   */\n    tag_400:\n        /* \"#utility.yul\":2080:2090   */\n      dup1\n        /* \"#utility.yul\":2076:2078   */\n      0x40\n        /* \"#utility.yul\":2069:2091   */\n      mstore\n        /* \"#utility.yul\":1859:2097   */\n      pop\n        /* \"#utility.yul\":1816:2097   */\n      pop\n      pop\n      jump\t// out\n        /* \"#utility.yul\":2103:2232   */\n    tag_344:\n        /* \"#utility.yul\":2137:2143   */\n      0x00\n        /* \"#utility.yul\":2164:2184   */\n      tag_403\n      tag_332\n      jump\t// in\n    tag_403:\n        /* \"#utility.yul\":2154:2184   */\n      swap1\n      pop\n        /* \"#utility.yul\":2193:2226   */\n      tag_404\n        /* \"#utility.yul\":2221:2225   */\n      dup3\n        /* \"#utility.yul\":2213:2219   */\n      dup3\n        /* \"#utility.yul\":2193:2226   */\n      tag_343\n      jump\t// in\n    tag_404:\n        /* \"#utility.yul\":2103:2232   */\n      swap2\n      swap1\n      pop\n      jump\t// out\n        /* \"#utility.yul\":2238:2546   */\n    tag_345:\n        /* \"#utility.yul\":2300:2304   */\n      0x00\n        /* \"#utility.yul\":2390:2408   */\n      0xffffffffffffffff\n        /* \"#utility.yul\":2382:2388   */\n      dup3\n        /* \"#utility.yul\":2379:2409   */\n      gt\n        /* \"#utility.yul\":2376:2432   */\n      iszero\n      tag_406\n      jumpi\n        /* \"#utility.yul\":2412:2430   */\n      tag_407\n      tag_342\n      jump\t// in\n    tag_407:\n        /* \"#utility.yul\":2376:2432   */\n    tag_406:\n        /* \"#utility.yul\":2450:2479   */\n      tag_408\n        /* \"#utility.yul\":2472:2478   */\n      dup3\n        /* \"#utility.yul\":2450:2479   */\n      tag_341\n      jump\t// in\n    tag_408:\n        /* \"#utility.yul\":2442:2479   */\n      swap1\n      pop\n        /* \"#utility.yul\":2534:2538   */\n      0x20\n        /* \"#utility.yul\":2528:2532   */\n      dup2\n        /* \"#utility.yul\":2524:2539   */\n      add\n        /* \"#utility.yul\":2516:2539   */\n      swap1\n      pop\n        /* \"#utility.yul\":2238:2546   */\n      swap2\n      swap1\n      pop\n      jump\t// out\n        /* \"#utility.yul\":2552:2700   */\n    tag_346:\n        /* \"#utility.yul\":2650:2656   */\n      dup3\n        /* \"#utility.yul\":2645:2648   */\n      dup2\n        /* \"#utility.yul\":2640:2643   */\n      dup4\n        /* \"#utility.yul\":2627:2657   */\n      calldatacopy\n        /* \"#utility.yul\":2691:2692   */\n      0x00\n        /* \"#utility.yul\":2682:2688   */\n      dup4\n        /* \"#utility.yul\":2677:2680   */\n      dup4\n        /* \"#utility.yul\":2673:2689   */\n      add\n        /* \"#utility.yul\":2666:2693   */\n      mstore\n        /* \"#utility.yul\":2552:2700   */\n      pop\n      pop\n      pop\n      jump\t// out\n        /* \"#utility.yul\":2706:3131   */\n    tag_347:\n        /* \"#utility.yul\":2784:2789   */\n      0x00\n        /* \"#utility.yul\":2809:2875   */\n      tag_411\n        /* \"#utility.yul\":2825:2874   */\n      tag_412\n        /* \"#utility.yul\":2867:2873   */\n      dup5\n        /* \"#utility.yul\":2825:2874   */\n      tag_345\n      jump\t// in\n    tag_412:\n        /* \"#utility.yul\":2809:2875   */\n      tag_344\n      jump\t// in\n    tag_411:\n        /* \"#utility.yul\":2800:2875   */\n      swap1\n      pop\n        /* \"#utility.yul\":2898:2904   */\n      dup3\n        /* \"#utility.yul\":2891:2896   */\n      dup2\n        /* \"#utility.yul\":2884:2905   */\n      mstore\n        /* \"#utility.yul\":2936:2940   */\n      0x20\n        /* \"#utility.yul\":2929:2934   */\n      dup2\n        /* \"#utility.yul\":2925:2941   */\n      add\n        /* \"#utility.yul\":2974:2977   */\n      dup5\n        /* \"#utility.yul\":2965:2971   */\n      dup5\n        /* \"#utility.yul\":2960:2963   */\n      dup5\n        /* \"#utility.yul\":2956:2972   */\n      add\n        /* \"#utility.yul\":2953:2978   */\n      gt\n        /* \"#utility.yul\":2950:3062   */\n      iszero\n      tag_413\n      jumpi\n        /* \"#utility.yul\":2981:3060   */\n      tag_414\n      tag_340\n      jump\t// in\n    tag_414:\n        /* \"#utility.yul\":2950:3062   */\n    tag_413:\n        /* \"#utility.yul\":3071:3125   */\n      tag_415\n        /* \"#utility.yul\":3118:3124   */\n      dup5\n        /* \"#utility.yul\":3113:3116   */\n      dup3\n        /* \"#utility.yul\":3108:3111   */\n      dup6\n        /* \"#utility.yul\":3071:3125   */\n      tag_346\n      jump\t// in\n    tag_415:\n        /* \"#utility.yul\":2790:3131   */\n      pop\n        /* \"#utility.yul\":2706:3131   */\n      swap4\n      swap3\n      pop\n      pop\n      pop\n      jump\t// out\n        /* \"#utility.yul\":3151:3491   */\n    tag_348:\n        /* \"#utility.yul\":3207:3212   */\n      0x00\n        /* \"#utility.yul\":3256:3259   */\n      dup3\n        /* \"#utility.yul\":3249:3253   */\n      0x1f\n        /* \"#utility.yul\":3241:3247   */\n      dup4\n        /* \"#utility.yul\":3237:3254   */\n      add\n        /* \"#utility.yul\":3233:3260   */\n      slt\n        /* \"#utility.yul\":3223:3345   */\n      tag_417\n      jumpi\n        /* \"#utility.yul\":3264:3343   */\n      tag_418\n      tag_339\n      jump\t// in\n    tag_418:\n        /* \"#utility.yul\":3223:3345   */\n    tag_417:\n        /* \"#utility.yul\":3381:3387   */\n      dup2\n        /* \"#utility.yul\":3368:3388   */\n      calldataload\n        /* \"#utility.yul\":3406:3485   */\n      tag_419\n        /* \"#utility.yul\":3481:3484   */\n      dup5\n        /* \"#utility.yul\":3473:3479   */\n      dup3\n        /* \"#utility.yul\":3466:3470   */\n      0x20\n        /* \"#utility.yul\":3458:3464   */\n      dup7\n        /* \"#utility.yul\":3454:3471   */\n      add\n        /* \"#utility.yul\":3406:3485   */\n      tag_347\n      jump\t// in\n    tag_419:\n        /* \"#utility.yul\":3397:3485   */\n      swap2\n      pop\n        /* \"#utility.yul\":3213:3491   */\n      pop\n        /* \"#utility.yul\":3151:3491   */\n      swap3\n      swap2\n      pop\n      pop\n      jump\t// out\n        /* \"#utility.yul\":3497:4476   */\n    tag_34:\n        /* \"#utility.yul\":3594:3600   */\n      0x00\n        /* \"#utility.yul\":3602:3608   */\n      dup1\n        /* \"#utility.yul\":3610:3616   */\n      0x00\n        /* \"#utility.yul\":3659:3661   */\n      0x60\n        /* \"#utility.yul\":3647:3656   */\n      dup5\n        /* \"#utility.yul\":3638:3645   */\n      dup7\n        /* \"#utility.yul\":3634:3657   */\n      sub\n        /* \"#utility.yul\":3630:3662   */\n      slt\n        /* \"#utility.yul\":3627:3746   */\n      iszero\n      tag_421\n      jumpi\n        /* \"#utility.yul\":3665:3744   */\n      tag_422\n      tag_333\n      jump\t// in\n    tag_422:\n        /* \"#utility.yul\":3627:3746   */\n    tag_421:\n        /* \"#utility.yul\":3785:3786   */\n      0x00\n        /* \"#utility.yul\":3810:3863   */\n      tag_423\n        /* \"#utility.yul\":3855:3862   */\n      dup7\n        /* \"#utility.yul\":3846:3852   */\n      dup3\n        /* \"#utility.yul\":3835:3844   */\n      dup8\n        /* \"#utility.yul\":3831:3853   */\n      add\n        /* \"#utility.yul\":3810:3863   */\n      tag_338\n      jump\t// in\n    tag_423:\n        /* \"#utility.yul\":3800:3863   */\n      swap4\n      pop\n        /* \"#utility.yul\":3756:3873   */\n      pop\n        /* \"#utility.yul\":3940:3942   */\n      0x20\n        /* \"#utility.yul\":3929:3938   */\n      dup5\n        /* \"#utility.yul\":3925:3943   */\n      add\n        /* \"#utility.yul\":3912:3944   */\n      calldataload\n        /* \"#utility.yul\":3971:3989   */\n      0xffffffffffffffff\n        /* \"#utility.yul\":3963:3969   */\n      dup2\n        /* \"#utility.yul\":3960:3990   */\n      gt\n        /* \"#utility.yul\":3957:4074   */\n      iszero\n      tag_424\n      jumpi\n        /* \"#utility.yul\":3993:4072   */\n      tag_425\n      tag_334\n      jump\t// in\n    tag_425:\n        /* \"#utility.yul\":3957:4074   */\n    tag_424:\n        /* \"#utility.yul\":4098:4161   */\n      tag_426\n        /* \"#utility.yul\":4153:4160   */\n      dup7\n        /* \"#utility.yul\":4144:4150   */\n      dup3\n        /* \"#utility.yul\":4133:4142   */\n      dup8\n        /* \"#utility.yul\":4129:4151   */\n      add\n        /* \"#utility.yul\":4098:4161   */\n      tag_348\n      jump\t// in\n    tag_426:\n        /* \"#utility.yul\":4088:4161   */\n      swap3\n      pop\n        /* \"#utility.yul\":3883:4171   */\n      pop\n        /* \"#utility.yul\":4238:4240   */\n      0x40\n        /* \"#utility.yul\":4227:4236   */\n      dup5\n        /* \"#utility.yul\":4223:4241   */\n      add\n        /* \"#utility.yul\":4210:4242   */\n      calldataload\n        /* \"#utility.yul\":4269:4287   */\n      0xffffffffffffffff\n        /* \"#utility.yul\":4261:4267   */\n      dup2\n        /* \"#utility.yul\":4258:4288   */\n      gt\n        /* \"#utility.yul\":4255:4372   */\n      iszero\n      tag_427\n      jumpi\n        /* \"#utility.yul\":4291:4370   */\n      tag_428\n      tag_334\n      jump\t// in\n    tag_428:\n        /* \"#utility.yul\":4255:4372   */\n    tag_427:\n        /* \"#utility.yul\":4396:4459   */\n      tag_429\n        /* \"#utility.yul\":4451:4458   */\n      dup7\n        /* \"#utility.yul\":4442:4448   */\n      dup3\n        /* \"#utility.yul\":4431:4440   */\n      dup8\n        /* \"#utility.yul\":4427:4449   */\n      add\n        /* \"#utility.yul\":4396:4459   */\n      tag_348\n      jump\t// in\n    tag_429:\n        /* \"#utility.yul\":4386:4459   */\n      swap2\n      pop\n        /* \"#utility.yul\":4181:4469   */\n      pop\n        /* \"#utility.yul\":3497:4476   */\n      swap3\n      pop\n      swap3\n      pop\n      swap3\n      jump\t// out\n        /* \"#utility.yul\":4482:4604   */\n    tag_349:\n        /* \"#utility.yul\":4555:4579   */\n      tag_431\n        /* \"#utility.yul\":4573:4578   */\n      dup2\n        /* \"#utility.yul\":4555:4579   */\n      tag_330\n      jump\t// in\n    tag_431:\n        /* \"#utility.yul\":4548:4553   */\n      dup2\n        /* \"#utility.yul\":4545:4580   */\n      eq\n        /* \"#utility.yul\":4535:4598   */\n      tag_432\n      jumpi\n        /* \"#utility.yul\":4594:4595   */\n      0x00\n        /* \"#utility.yul\":4591:4592   */\n      dup1\n        /* \"#utility.yul\":4584:4596   */\n      revert\n        /* \"#utility.yul\":4535:4598   */\n    tag_432:\n        /* \"#utility.yul\":4482:4604   */\n      pop\n      jump\t// out\n        /* \"#utility.yul\":4610:4749   */\n    tag_350:\n        /* \"#utility.yul\":4656:4661   */\n      0x00\n        /* \"#utility.yul\":4694:4700   */\n      dup2\n        /* \"#utility.yul\":4681:4701   */\n      calldataload\n        /* \"#utility.yul\":4672:4701   */\n      swap1\n      pop\n        /* \"#utility.yul\":4710:4743   */\n      tag_434\n        /* \"#utility.yul\":4737:4742   */\n      dup2\n        /* \"#utility.yul\":4710:4743   */\n      tag_349\n      jump\t// in\n    tag_434:\n        /* \"#utility.yul\":4610:4749   */\n      swap3\n      swap2\n      pop\n      pop\n      jump\t// out\n        /* \"#utility.yul\":4755:5084   */\n    tag_38:\n        /* \"#utility.yul\":4814:4820   */\n      0x00\n        /* \"#utility.yul\":4863:4865   */\n      0x20\n        /* \"#utility.yul\":4851:4860   */\n      dup3\n        /* \"#utility.yul\":4842:4849   */\n      dup5\n        /* \"#utility.yul\":4838:4861   */\n      sub\n        /* \"#utility.yul\":4834:4866   */\n      slt\n        /* \"#utility.yul\":4831:4950   */\n      iszero\n      tag_436\n      jumpi\n        /* \"#utility.yul\":4869:4948   */\n      tag_437\n      tag_333\n      jump\t// in\n    tag_437:\n        /* \"#utility.yul\":4831:4950   */\n    tag_436:\n        /* \"#utility.yul\":4989:4990   */\n      0x00\n        /* \"#utility.yul\":5014:5067   */\n      tag_438\n        /* \"#utility.yul\":5059:5066   */\n      dup5\n        /* \"#utility.yul\":5050:5056   */\n      dup3\n        /* \"#utility.yul\":5039:5048   */\n      dup6\n        /* \"#utility.yul\":5035:5057   */\n      add\n        /* \"#utility.yul\":5014:5067   */\n      tag_350\n      jump\t// in\n    tag_438:\n        /* \"#utility.yul\":5004:5067   */\n      swap2\n      pop\n        /* \"#utility.yul\":4960:5077   */\n      pop\n        /* \"#utility.yul\":4755:5084   */\n      swap3\n      swap2\n      pop\n      pop\n      jump\t// out\n        /* \"#utility.yul\":5090:5208   */\n    tag_351:\n        /* \"#utility.yul\":5177:5201   */\n      tag_440\n        /* \"#utility.yul\":5195:5200   */\n      dup2\n        /* \"#utility.yul\":5177:5201   */\n      tag_336\n      jump\t// in\n    tag_440:\n        /* \"#utility.yul\":5172:5175   */\n      dup3\n        /* \"#utility.yul\":5165:5202   */\n      mstore\n        /* \"#utility.yul\":5090:5208   */\n      pop\n      pop\n      jump\t// out\n        /* \"#utility.yul\":5214:5313   */\n    tag_352:\n        /* \"#utility.yul\":5266:5272   */\n      0x00\n        /* \"#utility.yul\":5300:5305   */\n      dup2\n        /* \"#utility.yul\":5294:5306   */\n      mload\n        /* \"#utility.yul\":5284:5306   */\n      swap1\n      pop\n        /* \"#utility.yul\":5214:5313   */\n      swap2\n      swap1\n      pop\n      jump\t// out\n        /* \"#utility.yul\":5319:5488   */\n    tag_353:\n        /* \"#utility.yul\":5403:5414   */\n      0x00\n        /* \"#utility.yul\":5437:5443   */\n      dup3\n        /* \"#utility.yul\":5432:5435   */\n      dup3\n        /* \"#utility.yul\":5425:5444   */\n      mstore\n        /* \"#utility.yul\":5477:5481   */\n      0x20\n        /* \"#utility.yul\":5472:5475   */\n      dup3\n        /* \"#utility.yul\":5468:5482   */\n      add\n        /* \"#utility.yul\":5453:5482   */\n      swap1\n      pop\n        /* \"#utility.yul\":5319:5488   */\n      swap3\n      swap2\n      pop\n      pop\n      jump\t// out\n        /* \"#utility.yul\":5494:5633   */\n    tag_354:\n        /* \"#utility.yul\":5583:5589   */\n      dup3\n        /* \"#utility.yul\":5578:5581   */\n      dup2\n        /* \"#utility.yul\":5573:5576   */\n      dup4\n        /* \"#utility.yul\":5567:5590   */\n      mcopy\n        /* \"#utility.yul\":5624:5625   */\n      0x00\n        /* \"#utility.yul\":5615:5621   */\n      dup4\n        /* \"#utility.yul\":5610:5613   */\n      dup4\n        /* \"#utility.yul\":5606:5622   */\n      add\n        /* \"#utility.yul\":5599:5626   */\n      mstore\n        /* \"#utility.yul\":5494:5633   */\n      pop\n      pop\n      pop\n      jump\t// out\n        /* \"#utility.yul\":5639:6016   */\n    tag_355:\n        /* \"#utility.yul\":5727:5730   */\n      0x00\n        /* \"#utility.yul\":5755:5794   */\n      tag_445\n        /* \"#utility.yul\":5788:5793   */\n      dup3\n        /* \"#utility.yul\":5755:5794   */\n      tag_352\n      jump\t// in\n    tag_445:\n        /* \"#utility.yul\":5810:5881   */\n      tag_446\n        /* \"#utility.yul\":5874:5880   */\n      dup2\n        /* \"#utility.yul\":5869:5872   */\n      dup6\n        /* \"#utility.yul\":5810:5881   */\n      tag_353\n      jump\t// in\n    tag_446:\n        /* \"#utility.yul\":5803:5881   */\n      swap4\n      pop\n        /* \"#utility.yul\":5890:5955   */\n      tag_447\n        /* \"#utility.yul\":5948:5954   */\n      dup2\n        /* \"#utility.yul\":5943:5946   */\n      dup6\n        /* \"#utility.yul\":5936:5940   */\n      0x20\n        /* \"#utility.yul\":5929:5934   */\n      dup7\n        /* \"#utility.yul\":5925:5941   */\n      add\n        /* \"#utility.yul\":5890:5955   */\n      tag_354\n      jump\t// in\n    tag_447:\n        /* \"#utility.yul\":5980:6009   */\n      tag_448\n        /* \"#utility.yul\":6002:6008   */\n      dup2\n        /* \"#utility.yul\":5980:6009   */\n      tag_341\n      jump\t// in\n    tag_448:\n        /* \"#utility.yul\":5975:5978   */\n      dup5\n        /* \"#utility.yul\":5971:6010   */\n      add\n        /* \"#utility.yul\":5964:6010   */\n      swap2\n      pop\n        /* \"#utility.yul\":5731:6016   */\n      pop\n        /* \"#utility.yul\":5639:6016   */\n      swap3\n      swap2\n      pop\n      pop\n      jump\t// out\n        /* \"#utility.yul\":6022:6757   */\n    tag_41:\n        /* \"#utility.yul\":6239:6243   */\n      0x00\n        /* \"#utility.yul\":6277:6280   */\n      0x80\n        /* \"#utility.yul\":6266:6275   */\n      dup3\n        /* \"#utility.yul\":6262:6281   */\n      add\n        /* \"#utility.yul\":6254:6281   */\n      swap1\n      pop\n        /* \"#utility.yul\":6291:6362   */\n      tag_450\n        /* \"#utility.yul\":6359:6360   */\n      0x00\n        /* \"#utility.yul\":6348:6357   */\n      dup4\n        /* \"#utility.yul\":6344:6361   */\n      add\n        /* \"#utility.yul\":6335:6341   */\n      dup8\n        /* \"#utility.yul\":6291:6362   */\n      tag_351\n      jump\t// in\n    tag_450:\n        /* \"#utility.yul\":6372:6444   */\n      tag_451\n        /* \"#utility.yul\":6440:6442   */\n      0x20\n        /* \"#utility.yul\":6429:6438   */\n      dup4\n        /* \"#utility.yul\":6425:6443   */\n      add\n        /* \"#utility.yul\":6416:6422   */\n      dup7\n        /* \"#utility.yul\":6372:6444   */\n      tag_331\n      jump\t// in\n    tag_451:\n        /* \"#utility.yul\":6491:6500   */\n      dup2\n        /* \"#utility.yul\":6485:6489   */\n      dup2\n        /* \"#utility.yul\":6481:6501   */\n      sub\n        /* \"#utility.yul\":6476:6478   */\n      0x40\n        /* \"#utility.yul\":6465:6474   */\n      dup4\n        /* \"#utility.yul\":6461:6479   */\n      add\n        /* \"#utility.yul\":6454:6502   */\n      mstore\n        /* \"#utility.yul\":6519:6597   */\n      tag_452\n        /* \"#utility.yul\":6592:6596   */\n      dup2\n        /* \"#utility.yul\":6583:6589   */\n      dup6\n        /* \"#utility.yul\":6519:6597   */\n      tag_355\n      jump\t// in\n    tag_452:\n        /* \"#utility.yul\":6511:6597   */\n      swap1\n      pop\n        /* \"#utility.yul\":6644:6653   */\n      dup2\n        /* \"#utility.yul\":6638:6642   */\n      dup2\n        /* \"#utility.yul\":6634:6654   */\n      sub\n        /* \"#utility.yul\":6629:6631   */\n      0x60\n        /* \"#utility.yul\":6618:6627   */\n      dup4\n        /* \"#utility.yul\":6614:6632   */\n      add\n        /* \"#utility.yul\":6607:6655   */\n      mstore\n        /* \"#utility.yul\":6672:6750   */\n      tag_453\n        /* \"#utility.yul\":6745:6749   */\n      dup2\n        /* \"#utility.yul\":6736:6742   */\n      dup5\n        /* \"#utility.yul\":6672:6750   */\n      tag_355\n      jump\t// in\n    tag_453:\n        /* \"#utility.yul\":6664:6750   */\n      swap1\n      pop\n        /* \"#utility.yul\":6022:6757   */\n      swap6\n      swap5\n      pop\n      pop\n      pop\n      pop\n      pop\n      jump\t// out\n        /* \"#utility.yul\":6763:6943   */\n    tag_141:\n        /* \"#utility.yul\":6811:6888   */\n      0x4e487b7100000000000000000000000000000000000000000000000000000000\n        /* \"#utility.yul\":6808:6809   */\n      0x00\n        /* \"#utility.yul\":6801:6889   */\n      mstore\n        /* \"#utility.yul\":6908:6912   */\n      0x21\n        /* \"#utility.yul\":6905:6906   */\n      0x04\n        /* \"#utility.yul\":6898:6913   */\n      mstore\n        /* \"#utility.yul\":6932:6936   */\n      0x24\n        /* \"#utility.yul\":6929:6930   */\n      0x00\n        /* \"#utility.yul\":6922:6937   */\n      revert\n        /* \"#utility.yul\":6949:7062   */\n    tag_356:\n        /* \"#utility.yul\":7030:7031   */\n      0x06\n        /* \"#utility.yul\":7023:7028   */\n      dup2\n        /* \"#utility.yul\":7020:7032   */\n      lt\n        /* \"#utility.yul\":7010:7056   */\n      tag_456\n      jumpi\n        /* \"#utility.yul\":7036:7054   */\n      tag_457\n      tag_141\n      jump\t// in\n    tag_457:\n        /* \"#utility.yul\":7010:7056   */\n    tag_456:\n        /* \"#utility.yul\":6949:7062   */\n      pop\n      jump\t// out\n        /* \"#utility.yul\":7068:7195   */\n    tag_357:\n        /* \"#utility.yul\":7113:7120   */\n      0x00\n        /* \"#utility.yul\":7142:7147   */\n      dup2\n        /* \"#utility.yul\":7131:7147   */\n      swap1\n      pop\n        /* \"#utility.yul\":7148:7189   */\n      tag_459\n        /* \"#utility.yul\":7183:7188   */\n      dup3\n        /* \"#utility.yul\":7148:7189   */\n      tag_356\n      jump\t// in\n    tag_459:\n        /* \"#utility.yul\":7068:7195   */\n      swap2\n      swap1\n      pop\n      jump\t// out\n        /* \"#utility.yul\":7201:7328   */\n    tag_358:\n        /* \"#utility.yul\":7257:7266   */\n      0x00\n        /* \"#utility.yul\":7290:7322   */\n      tag_461\n        /* \"#utility.yul\":7316:7321   */\n      dup3\n        /* \"#utility.yul\":7290:7322   */\n      tag_357\n      jump\t// in\n    tag_461:\n        /* \"#utility.yul\":7277:7322   */\n      swap1\n      pop\n        /* \"#utility.yul\":7201:7328   */\n      swap2\n      swap1\n      pop\n      jump\t// out\n        /* \"#utility.yul\":7334:7477   */\n    tag_359:\n        /* \"#utility.yul\":7427:7470   */\n      tag_463\n        /* \"#utility.yul\":7464:7469   */\n      dup2\n        /* \"#utility.yul\":7427:7470   */\n      tag_358\n      jump\t// in\n    tag_463:\n        /* \"#utility.yul\":7422:7425   */\n      dup3\n        /* \"#utility.yul\":7415:7471   */\n      mstore\n        /* \"#utility.yul\":7334:7477   */\n      pop\n      pop\n      jump\t// out\n        /* \"#utility.yul\":7483:8674   */\n    tag_77:\n        /* \"#utility.yul\":7818:7822   */\n      0x00\n        /* \"#utility.yul\":7856:7859   */\n      0x0100\n        /* \"#utility.yul\":7845:7854   */\n      dup3\n        /* \"#utility.yul\":7841:7860   */\n      add\n        /* \"#utility.yul\":7833:7860   */\n      swap1\n      pop\n        /* \"#utility.yul\":7870:7941   */\n      tag_465\n        /* \"#utility.yul\":7938:7939   */\n      0x00\n        /* \"#utility.yul\":7927:7936   */\n      dup4\n        /* \"#utility.yul\":7923:7940   */\n      add\n        /* \"#utility.yul\":7914:7920   */\n      dup12\n        /* \"#utility.yul\":7870:7941   */\n      tag_331\n      jump\t// in\n    tag_465:\n        /* \"#utility.yul\":7988:7997   */\n      dup2\n        /* \"#utility.yul\":7982:7986   */\n      dup2\n        /* \"#utility.yul\":7978:7998   */\n      sub\n        /* \"#utility.yul\":7973:7975   */\n      0x20\n        /* \"#utility.yul\":7962:7971   */\n      dup4\n        /* \"#utility.yul\":7958:7976   */\n      add\n        /* \"#utility.yul\":7951:7999   */\n      mstore\n        /* \"#utility.yul\":8016:8094   */\n      tag_466\n        /* \"#utility.yul\":8089:8093   */\n      dup2\n        /* \"#utility.yul\":8080:8086   */\n      dup11\n        /* \"#utility.yul\":8016:8094   */\n      tag_355\n      jump\t// in\n    tag_466:\n        /* \"#utility.yul\":8008:8094   */\n      swap1\n      pop\n        /* \"#utility.yul\":8141:8150   */\n      dup2\n        /* \"#utility.yul\":8135:8139   */\n      dup2\n        /* \"#utility.yul\":8131:8151   */\n      sub\n        /* \"#utility.yul\":8126:8128   */\n      0x40\n        /* \"#utility.yul\":8115:8124   */\n      dup4\n        /* \"#utility.yul\":8111:8129   */\n      add\n        /* \"#utility.yul\":8104:8152   */\n      mstore\n        /* \"#utility.yul\":8169:8247   */\n      tag_467\n        /* \"#utility.yul\":8242:8246   */\n      dup2\n        /* \"#utility.yul\":8233:8239   */\n      dup10\n        /* \"#utility.yul\":8169:8247   */\n      tag_355\n      jump\t// in\n    tag_467:\n        /* \"#utility.yul\":8161:8247   */\n      swap1\n      pop\n        /* \"#utility.yul\":8257:8329   */\n      tag_468\n        /* \"#utility.yul\":8325:8327   */\n      0x60\n        /* \"#utility.yul\":8314:8323   */\n      dup4\n        /* \"#utility.yul\":8310:8328   */\n      add\n        /* \"#utility.yul\":8301:8307   */\n      dup9\n        /* \"#utility.yul\":8257:8329   */\n      tag_331\n      jump\t// in\n    tag_468:\n        /* \"#utility.yul\":8339:8412   */\n      tag_469\n        /* \"#utility.yul\":8407:8410   */\n      0x80\n        /* \"#utility.yul\":8396:8405   */\n      dup4\n        /* \"#utility.yul\":8392:8411   */\n      add\n        /* \"#utility.yul\":8383:8389   */\n      dup8\n        /* \"#utility.yul\":8339:8412   */\n      tag_331\n      jump\t// in\n    tag_469:\n        /* \"#utility.yul\":8422:8495   */\n      tag_470\n        /* \"#utility.yul\":8490:8493   */\n      0xa0\n        /* \"#utility.yul\":8479:8488   */\n      dup4\n        /* \"#utility.yul\":8475:8494   */\n      add\n        /* \"#utility.yul\":8466:8472   */\n      dup7\n        /* \"#utility.yul\":8422:8495   */\n      tag_331\n      jump\t// in\n    tag_470:\n        /* \"#utility.yul\":8505:8578   */\n      tag_471\n        /* \"#utility.yul\":8573:8576   */\n      0xc0\n        /* \"#utility.yul\":8562:8571   */\n      dup4\n        /* \"#utility.yul\":8558:8577   */\n      add\n        /* \"#utility.yul\":8549:8555   */\n      dup6\n        /* \"#utility.yul\":8505:8578   */\n      tag_331\n      jump\t// in\n    tag_471:\n        /* \"#utility.yul\":8588:8667   */\n      tag_472\n        /* \"#utility.yul\":8662:8665   */\n      0xe0\n        /* \"#utility.yul\":8651:8660   */\n      dup4\n        /* \"#utility.yul\":8647:8666   */\n      add\n        /* \"#utility.yul\":8638:8644   */\n      dup5\n        /* \"#utility.yul\":8588:8667   */\n      tag_359\n      jump\t// in\n    tag_472:\n        /* \"#utility.yul\":7483:8674   */\n      swap10\n      swap9\n      pop\n      pop\n      pop\n      pop\n      pop\n      pop\n      pop\n      pop\n      pop\n      jump\t// out\n        /* \"#utility.yul\":8680:8902   */\n    tag_87:\n        /* \"#utility.yul\":8773:8777   */\n      0x00\n        /* \"#utility.yul\":8811:8813   */\n      0x20\n        /* \"#utility.yul\":8800:8809   */\n      dup3\n        /* \"#utility.yul\":8796:8814   */\n      add\n        /* \"#utility.yul\":8788:8814   */\n      swap1\n      pop\n        /* \"#utility.yul\":8824:8895   */\n      tag_474\n        /* \"#utility.yul\":8892:8893   */\n      0x00\n        /* \"#utility.yul\":8881:8890   */\n      dup4\n        /* \"#utility.yul\":8877:8894   */\n      add\n        /* \"#utility.yul\":8868:8874   */\n      dup5\n        /* \"#utility.yul\":8824:8895   */\n      tag_351\n      jump\t// in\n    tag_474:\n        /* \"#utility.yul\":8680:8902   */\n      swap3\n      swap2\n      pop\n      pop\n      jump\t// out\n        /* \"#utility.yul\":8908:9742   */\n    tag_90:\n        /* \"#utility.yul\":8996:9002   */\n      0x00\n        /* \"#utility.yul\":9004:9010   */\n      dup1\n        /* \"#utility.yul\":9053:9055   */\n      0x40\n        /* \"#utility.yul\":9041:9050   */\n      dup4\n        /* \"#utility.yul\":9032:9039   */\n      dup6\n        /* \"#utility.yul\":9028:9051   */\n      sub\n        /* \"#utility.yul\":9024:9056   */\n      slt\n        /* \"#utility.yul\":9021:9140   */\n      iszero\n      tag_476\n      jumpi\n        /* \"#utility.yul\":9059:9138   */\n      tag_477\n      tag_333\n      jump\t// in\n    tag_477:\n        /* \"#utility.yul\":9021:9140   */\n    tag_476:\n        /* \"#utility.yul\":9207:9208   */\n      0x00\n        /* \"#utility.yul\":9196:9205   */\n      dup4\n        /* \"#utility.yul\":9192:9209   */\n      add\n        /* \"#utility.yul\":9179:9210   */\n      calldataload\n        /* \"#utility.yul\":9237:9255   */\n      0xffffffffffffffff\n        /* \"#utility.yul\":9229:9235   */\n      dup2\n        /* \"#utility.yul\":9226:9256   */\n      gt\n        /* \"#utility.yul\":9223:9340   */\n      iszero\n      tag_478\n      jumpi\n        /* \"#utility.yul\":9259:9338   */\n      tag_479\n      tag_334\n      jump\t// in\n    tag_479:\n        /* \"#utility.yul\":9223:9340   */\n    tag_478:\n        /* \"#utility.yul\":9364:9427   */\n      tag_480\n        /* \"#utility.yul\":9419:9426   */\n      dup6\n        /* \"#utility.yul\":9410:9416   */\n      dup3\n        /* \"#utility.yul\":9399:9408   */\n      dup7\n        /* \"#utility.yul\":9395:9417   */\n      add\n        /* \"#utility.yul\":9364:9427   */\n      tag_348\n      jump\t// in\n    tag_480:\n        /* \"#utility.yul\":9354:9427   */\n      swap3\n      pop\n        /* \"#utility.yul\":9150:9437   */\n      pop\n        /* \"#utility.yul\":9504:9506   */\n      0x20\n        /* \"#utility.yul\":9493:9502   */\n      dup4\n        /* \"#utility.yul\":9489:9507   */\n      add\n        /* \"#utility.yul\":9476:9508   */\n      calldataload\n        /* \"#utility.yul\":9535:9553   */\n      0xffffffffffffffff\n        /* \"#utility.yul\":9527:9533   */\n      dup2\n        /* \"#utility.yul\":9524:9554   */\n      gt\n        /* \"#utility.yul\":9521:9638   */\n      iszero\n      tag_481\n      jumpi\n        /* \"#utility.yul\":9557:9636   */\n      tag_482\n      tag_334\n      jump\t// in\n    tag_482:\n        /* \"#utility.yul\":9521:9638   */\n    tag_481:\n        /* \"#utility.yul\":9662:9725   */\n      tag_483\n        /* \"#utility.yul\":9717:9724   */\n      dup6\n        /* \"#utility.yul\":9708:9714   */\n      dup3\n        /* \"#utility.yul\":9697:9706   */\n      dup7\n        /* \"#utility.yul\":9693:9715   */\n      add\n        /* \"#utility.yul\":9662:9725   */\n      tag_348\n      jump\t// in\n    tag_483:\n        /* \"#utility.yul\":9652:9725   */\n      swap2\n      pop\n        /* \"#utility.yul\":9447:9735   */\n      pop\n        /* \"#utility.yul\":8908:9742   */\n      swap3\n      pop\n      swap3\n      swap1\n      pop\n      jump\t// out\n        /* \"#utility.yul\":9748:10061   */\n    tag_103:\n        /* \"#utility.yul\":9861:9865   */\n      0x00\n        /* \"#utility.yul\":9899:9901   */\n      0x20\n        /* \"#utility.yul\":9888:9897   */\n      dup3\n        /* \"#utility.yul\":9884:9902   */\n      add\n        /* \"#utility.yul\":9876:9902   */\n      swap1\n      pop\n        /* \"#utility.yul\":9948:9957   */\n      dup2\n        /* \"#utility.yul\":9942:9946   */\n      dup2\n        /* \"#utility.yul\":9938:9958   */\n      sub\n        /* \"#utility.yul\":9934:9935   */\n      0x00\n        /* \"#utility.yul\":9923:9932   */\n      dup4\n        /* \"#utility.yul\":9919:9936   */\n      add\n        /* \"#utility.yul\":9912:9959   */\n      mstore\n        /* \"#utility.yul\":9976:10054   */\n      tag_485\n        /* \"#utility.yul\":10049:10053   */\n      dup2\n        /* \"#utility.yul\":10040:10046   */\n      dup5\n        /* \"#utility.yul\":9976:10054   */\n      tag_355\n      jump\t// in\n    tag_485:\n        /* \"#utility.yul\":9968:10054   */\n      swap1\n      pop\n        /* \"#utility.yul\":9748:10061   */\n      swap3\n      swap2\n      pop\n      pop\n      jump\t// out\n        /* \"#utility.yul\":10067:10247   */\n    tag_360:\n        /* \"#utility.yul\":10115:10192   */\n      0x4e487b7100000000000000000000000000000000000000000000000000000000\n        /* \"#utility.yul\":10112:10113   */\n      0x00\n        /* \"#utility.yul\":10105:10193   */\n      mstore\n        /* \"#utility.yul\":10212:10216   */\n      0x11\n        /* \"#utility.yul\":10209:10210   */\n      0x04\n        /* \"#utility.yul\":10202:10217   */\n      mstore\n        /* \"#utility.yul\":10236:10240   */\n      0x24\n        /* \"#utility.yul\":10233:10234   */\n      0x00\n        /* \"#utility.yul\":10226:10241   */\n      revert\n        /* \"#utility.yul\":10253:10486   */\n    tag_112:\n        /* \"#utility.yul\":10292:10295   */\n      0x00\n        /* \"#utility.yul\":10315:10339   */\n      tag_488\n        /* \"#utility.yul\":10333:10338   */\n      dup3\n        /* \"#utility.yul\":10315:10339   */\n      tag_330\n      jump\t// in\n    tag_488:\n        /* \"#utility.yul\":10306:10339   */\n      swap2\n      pop\n        /* \"#utility.yul\":10361:10427   */\n      0xffffffffffffffffffffffffffffffffffffffffffffffffffffffffffffffff\n        /* \"#utility.yul\":10354:10359   */\n      dup3\n        /* \"#utility.yul\":10351:10428   */\n      sub\n        /* \"#utility.yul\":10348:10451   */\n      tag_489\n      jumpi\n        /* \"#utility.yul\":10431:10449   */\n      tag_490\n      tag_360\n      jump\t// in\n    tag_490:\n        /* \"#utility.yul\":10348:10451   */\n    tag_489:\n        /* \"#utility.yul\":10478:10479   */\n      0x01\n        /* \"#utility.yul\":10471:10476   */\n      dup3\n        /* \"#utility.yul\":10467:10480   */\n      add\n        /* \"#utility.yul\":10460:10480   */\n      swap1\n      pop\n        /* \"#utility.yul\":10253:10486   */\n      swap2\n      swap1\n      pop\n      jump\t// out\n        /* \"#utility.yul\":10492:10672   */\n    tag_361:\n        /* \"#utility.yul\":10540:10617   */\n      0x4e487b7100000000000000000000000000000000000000000000000000000000\n        /* \"#utility.yul\":10537:10538   */\n      0x00\n        /* \"#utility.yul\":10530:10618   */\n      mstore\n        /* \"#utility.yul\":10637:10641   */\n      0x22\n        /* \"#utility.yul\":10634:10635   */\n      0x04\n        /* \"#utility.yul\":10627:10642   */\n      mstore\n        /* \"#utility.yul\":10661:10665   */\n      0x24\n        /* \"#utility.yul\":10658:10659   */\n      0x00\n        /* \"#utility.yul\":10651:10666   */\n      revert\n        /* \"#utility.yul\":10678:10998   */\n    tag_117:\n        /* \"#utility.yul\":10722:10728   */\n      0x00\n        /* \"#utility.yul\":10759:10760   */\n      0x02\n        /* \"#utility.yul\":10753:10757   */\n      dup3\n        /* \"#utility.yul\":10749:10761   */\n      div\n        /* \"#utility.yul\":10739:10761   */\n      swap1\n      pop\n        /* \"#utility.yul\":10806:10807   */\n      0x01\n        /* \"#utility.yul\":10800:10804   */\n      dup3\n        /* \"#utility.yul\":10796:10808   */\n      and\n        /* \"#utility.yul\":10827:10845   */\n      dup1\n        /* \"#utility.yul\":10817:10898   */\n      tag_493\n      jumpi\n        /* \"#utility.yul\":10883:10887   */\n      0x7f\n        /* \"#utility.yul\":10875:10881   */\n      dup3\n        /* \"#utility.yul\":10871:10888   */\n      and\n        /* \"#utility.yul\":10861:10888   */\n      swap2\n      pop\n        /* \"#utility.yul\":10817:10898   */\n    tag_493:\n        /* \"#utility.yul\":10945:10947   */\n      0x20\n        /* \"#utility.yul\":10937:10943   */\n      dup3\n        /* \"#utility.yul\":10934:10948   */\n      lt\n        /* \"#utility.yul\":10914:10932   */\n      dup2\n        /* \"#utility.yul\":10911:10949   */\n      sub\n        /* \"#utility.yul\":10908:10992   */\n      tag_494\n      jumpi\n        /* \"#utility.yul\":10964:10982   */\n      tag_495\n      tag_361\n      jump\t// in\n    tag_495:\n        /* \"#utility.yul\":10908:10992   */\n    tag_494:\n        /* \"#utility.yul\":10729:10998   */\n      pop\n        /* \"#utility.yul\":10678:10998   */\n      swap2\n      swap1\n      pop\n      jump\t// out\n        /* \"#utility.yul\":11004:11145   */\n    tag_362:\n        /* \"#utility.yul\":11053:11057   */\n      0x00\n        /* \"#utility.yul\":11076:11079   */\n      dup2\n        /* \"#utility.yul\":11068:11079   */\n      swap1\n      pop\n        /* \"#utility.yul\":11099:11102   */\n      dup2\n        /* \"#utility.yul\":11096:11097   */\n      0x00\n        /* \"#utility.yul\":11089:11103   */\n      mstore\n        /* \"#utility.yul\":11133:11137   */\n      0x20\n        /* \"#utility.yul\":11130:11131   */\n      0x00\n        /* \"#utility.yul\":11120:11138   */\n      keccak256\n        /* \"#utility.yul\":11112:11138   */\n      swap1\n      pop\n        /* \"#utility.yul\":11004:11145   */\n      swap2\n      swap1\n      pop\n      jump\t// out\n        /* \"#utility.yul\":11151:11244   */\n    tag_363:\n        /* \"#utility.yul\":11188:11194   */\n      0x00\n        /* \"#utility.yul\":11235:11237   */\n      0x20\n        /* \"#utility.yul\":11230:11232   */\n      0x1f\n        /* \"#utility.yul\":11223:11228   */\n      dup4\n        /* \"#utility.yul\":11219:11233   */\n      add\n        /* \"#utility.yul\":11215:11238   */\n      div\n        /* \"#utility.yul\":11205:11238   */\n      swap1\n      pop\n        /* \"#utility.yul\":11151:11244   */\n      swap2\n      swap1\n      pop\n      jump\t// out\n        /* \"#utility.yul\":11250:11357   */\n    tag_364:\n        /* \"#utility.yul\":11294:11302   */\n      0x00\n        /* \"#utility.yul\":11344:11349   */\n      dup3\n        /* \"#utility.yul\":11338:11342   */\n      dup3\n        /* \"#utility.yul\":11334:11350   */\n      shl\n        /* \"#utility.yul\":11313:11350   */\n      swap1\n      pop\n        /* \"#utility.yul\":11250:11357   */\n      swap3\n      swap2\n      pop\n      pop\n      jump\t// out\n        /* \"#utility.yul\":11363:11756   */\n    tag_365:\n        /* \"#utility.yul\":11432:11438   */\n      0x00\n        /* \"#utility.yul\":11482:11483   */\n      0x08\n        /* \"#utility.yul\":11470:11480   */\n      dup4\n        /* \"#utility.yul\":11466:11484   */\n      mul\n        /* \"#utility.yul\":11505:11602   */\n      tag_500\n        /* \"#utility.yul\":11535:11601   */\n      0xffffffffffffffffffffffffffffffffffffffffffffffffffffffffffffffff\n        /* \"#utility.yul\":11524:11533   */\n      dup3\n        /* \"#utility.yul\":11505:11602   */\n      tag_364\n      jump\t// in\n    tag_500:\n        /* \"#utility.yul\":11623:11662   */\n      tag_501\n        /* \"#utility.yul\":11653:11661   */\n      dup7\n        /* \"#utility.yul\":11642:11651   */\n      dup4\n        /* \"#utility.yul\":11623:11662   */\n      tag_364\n      jump\t// in\n    tag_501:\n        /* \"#utility.yul\":11611:11662   */\n      swap6\n      pop\n        /* \"#utility.yul\":11695:11699   */\n      dup1\n        /* \"#utility.yul\":11691:11700   */\n      not\n        /* \"#utility.yul\":11684:11689   */\n      dup5\n        /* \"#utility.yul\":11680:11701   */\n      and\n        /* \"#utility.yul\":11671:11701   */\n      swap4\n      pop\n        /* \"#utility.yul\":11744:11748   */\n      dup1\n        /* \"#utility.yul\":11734:11742   */\n      dup7\n        /* \"#utility.yul\":11730:11749   */\n      and\n        /* \"#utility.yul\":11723:11728   */\n      dup5\n        /* \"#utility.yul\":11720:11750   */\n      or\n        /* \"#utility.yul\":11710:11750   */\n      swap3\n      pop\n        /* \"#utility.yul\":11439:11756   */\n      pop\n      pop\n        /* \"#utility.yul\":11363:11756   */\n      swap4\n      swap3\n      pop\n      pop\n      pop\n      jump\t// out\n        /* \"#utility.yul\":11762:11822   */\n    tag_366:\n        /* \"#utility.yul\":11790:11793   */\n      0x00\n        /* \"#utility.yul\":11811:11816   */\n      dup2\n        /* \"#utility.yul\":11804:11816   */\n      swap1\n      pop\n        /* \"#utility.yul\":11762:11822   */\n      swap2\n      swap1\n      pop\n      jump\t// out\n        /* \"#utility.yul\":11828:11970   */\n    tag_367:\n        /* \"#utility.yul\":11878:11887   */\n      0x00\n        /* \"#utility.yul\":11911:11964   */\n      tag_504\n        /* \"#utility.yul\":11929:11963   */\n      tag_505\n        /* \"#utility.yul\":11938:11962   */\n      tag_506\n        /* \"#utility.yul\":11956:11961   */\n      dup5\n        /* \"#utility.yul\":11938:11962   */\n      tag_330\n      jump\t// in\n    tag_506:\n        /* \"#utility.yul\":11929:11963   */\n      tag_366\n      jump\t// in\n    tag_505:\n        /* \"#utility.yul\":11911:11964   */\n      tag_330\n      jump\t// in\n    tag_504:\n        /* \"#utility.yul\":11898:11964   */\n      swap1\n      pop\n        /* \"#utility.yul\":11828:11970   */\n      swap2\n      swap1\n      pop\n      jump\t// out\n        /* \"#utility.yul\":11976:12051   */\n    tag_368:\n        /* \"#utility.yul\":12019:12022   */\n      0x00\n        /* \"#utility.yul\":12040:12045   */\n      dup2\n        /* \"#utility.yul\":12033:12045   */\n      swap1\n      pop\n        /* \"#utility.yul\":11976:12051   */\n      swap2\n      swap1\n      pop\n      jump\t// out\n        /* \"#utility.yul\":12057:12326   */\n    tag_369:\n        /* \"#utility.yul\":12167:12206   */\n      tag_509\n        /* \"#utility.yul\":12198:12205   */\n      dup4\n        /* \"#utility.yul\":12167:12206   */\n      tag_367\n      jump\t// in\n    tag_509:\n        /* \"#utility.yul\":12228:12319   */\n      tag_510\n        /* \"#utility.yul\":12277:12318   */\n      tag_511\n        /* \"#utility.yul\":12301:12317   */\n      dup3\n        /* \"#utility.yul\":12277:12318   */\n      tag_368\n      jump\t// in\n    tag_511:\n        /* \"#utility.yul\":12269:12275   */\n      dup5\n        /* \"#utility.yul\":12262:12266   */\n      dup5\n        /* \"#utility.yul\":12256:12267   */\n      sload\n        /* \"#utility.yul\":12228:12319   */\n      tag_365\n      jump\t// in\n    tag_510:\n        /* \"#utility.yul\":12222:12226   */\n      dup3\n        /* \"#utility.yul\":12215:12320   */\n      sstore\n        /* \"#utility.yul\":12133:12326   */\n      pop\n        /* \"#utility.yul\":12057:12326   */\n      pop\n      pop\n      pop\n      jump\t// out\n        /* \"#utility.yul\":12332:12405   */\n    tag_370:\n        /* \"#utility.yul\":12377:12380   */\n      0x00\n        /* \"#utility.yul\":12332:12405   */\n      swap1\n      jump\t// out\n        /* \"#utility.yul\":12411:12600   */\n    tag_371:\n        /* \"#utility.yul\":12488:12520   */\n      tag_514\n      tag_370\n      jump\t// in\n    tag_514:\n        /* \"#utility.yul\":12529:12594   */\n      tag_515\n        /* \"#utility.yul\":12587:12593   */\n      dup2\n        /* \"#utility.yul\":12579:12585   */\n      dup5\n        /* \"#utility.yul\":12573:12577   */\n      dup5\n        /* \"#utility.yul\":12529:12594   */\n      tag_369\n      jump\t// in\n    tag_515:\n        /* \"#utility.yul\":12464:12600   */\n      pop\n        /* \"#utility.yul\":12411:12600   */\n      pop\n      pop\n      jump\t// out\n        /* \"#utility.yul\":12606:12792   */\n    tag_372:\n        /* \"#utility.yul\":12666:12786   */\n    tag_517:\n        /* \"#utility.yul\":12683:12686   */\n      dup2\n        /* \"#utility.yul\":12676:12681   */\n      dup2\n        /* \"#utility.yul\":12673:12687   */\n      lt\n        /* \"#utility.yul\":12666:12786   */\n      iszero\n      tag_519\n      jumpi\n        /* \"#utility.yul\":12737:12776   */\n      tag_520\n        /* \"#utility.yul\":12774:12775   */\n      0x00\n        /* \"#utility.yul\":12767:12772   */\n      dup3\n        /* \"#utility.yul\":12737:12776   */\n      tag_371\n      jump\t// in\n    tag_520:\n        /* \"#utility.yul\":12710:12711   */\n      0x01\n        /* \"#utility.yul\":12703:12708   */\n      dup2\n        /* \"#utility.yul\":12699:12712   */\n      add\n        /* \"#utility.yul\":12690:12712   */\n      swap1\n      pop\n        /* \"#utility.yul\":12666:12786   */\n      jump(tag_517)\n    tag_519:\n        /* \"#utility.yul\":12606:12792   */\n      pop\n      pop\n      jump\t// out\n        /* \"#utility.yul\":12798:13341   */\n    tag_373:\n        /* \"#utility.yul\":12899:12901   */\n      0x1f\n        /* \"#utility.yul\":12894:12897   */\n      dup3\n        /* \"#utility.yul\":12891:12902   */\n      gt\n        /* \"#utility.yul\":12888:13334   */\n      iszero\n      tag_522\n      jumpi\n        /* \"#utility.yul\":12933:12971   */\n      tag_523\n        /* \"#utility.yul\":12965:12970   */\n      dup2\n        /* \"#utility.yul\":12933:12971   */\n      tag_362\n      jump\t// in\n    tag_523:\n        /* \"#utility.yul\":13017:13046   */\n      tag_524\n        /* \"#utility.yul\":13035:13045   */\n      dup5\n        /* \"#utility.yul\":13017:13046   */\n      tag_363\n      jump\t// in\n    tag_524:\n        /* \"#utility.yul\":13007:13015   */\n      dup2\n        /* \"#utility.yul\":13003:13047   */\n      add\n        /* \"#utility.yul\":13200:13202   */\n      0x20\n        /* \"#utility.yul\":13188:13198   */\n      dup6\n        /* \"#utility.yul\":13185:13203   */\n      lt\n        /* \"#utility.yul\":13182:13231   */\n      iszero\n      tag_525\n      jumpi\n        /* \"#utility.yul\":13221:13229   */\n      dup2\n        /* \"#utility.yul\":13206:13229   */\n      swap1\n      pop\n        /* \"#utility.yul\":13182:13231   */\n    tag_525:\n        /* \"#utility.yul\":13244:13324   */\n      tag_526\n        /* \"#utility.yul\":13300:13322   */\n      tag_527\n        /* \"#utility.yul\":13318:13321   */\n      dup6\n        /* \"#utility.yul\":13300:13322   */\n      tag_363\n      jump\t// in\n    tag_527:\n        /* \"#utility.yul\":13290:13298   */\n      dup4\n        /* \"#utility.yul\":13286:13323   */\n      add\n        /* \"#utility.yul\":13273:13284   */\n      dup3\n        /* \"#utility.yul\":13244:13324   */\n      tag_372\n      jump\t// in\n    tag_526:\n        /* \"#utility.yul\":12903:13334   */\n      pop\n      pop\n        /* \"#utility.yul\":12888:13334   */\n    tag_522:\n        /* \"#utility.yul\":12798:13341   */\n      pop\n      pop\n      pop\n      jump\t// out\n        /* \"#utility.yul\":13347:13464   */\n    tag_374:\n        /* \"#utility.yul\":13401:13409   */\n      0x00\n        /* \"#utility.yul\":13451:13456   */\n      dup3\n        /* \"#utility.yul\":13445:13449   */\n      dup3\n        /* \"#utility.yul\":13441:13457   */\n      shr\n        /* \"#utility.yul\":13420:13457   */\n      swap1\n      pop\n        /* \"#utility.yul\":13347:13464   */\n      swap3\n      swap2\n      pop\n      pop\n      jump\t// out\n        /* \"#utility.yul\":13470:13639   */\n    tag_375:\n        /* \"#utility.yul\":13514:13520   */\n      0x00\n        /* \"#utility.yul\":13547:13598   */\n      tag_530\n        /* \"#utility.yul\":13595:13596   */\n      0x00\n        /* \"#utility.yul\":13591:13597   */\n      not\n        /* \"#utility.yul\":13583:13588   */\n      dup5\n        /* \"#utility.yul\":13580:13581   */\n      0x08\n        /* \"#utility.yul\":13576:13589   */\n      mul\n        /* \"#utility.yul\":13547:13598   */\n      tag_374\n      jump\t// in\n    tag_530:\n        /* \"#utility.yul\":13543:13599   */\n      not\n        /* \"#utility.yul\":13628:13632   */\n      dup1\n        /* \"#utility.yul\":13622:13626   */\n      dup4\n        /* \"#utility.yul\":13618:13633   */\n      and\n        /* \"#utility.yul\":13608:13633   */\n      swap2\n      pop\n        /* \"#utility.yul\":13521:13639   */\n      pop\n        /* \"#utility.yul\":13470:13639   */\n      swap3\n      swap2\n      pop\n      pop\n      jump\t// out\n        /* \"#utility.yul\":13644:13939   */\n    tag_376:\n        /* \"#utility.yul\":13720:13724   */\n      0x00\n        /* \"#utility.yul\":13866:13895   */\n      tag_532\n        /* \"#utility.yul\":13891:13894   */\n      dup4\n        /* \"#utility.yul\":13885:13889   */\n      dup4\n        /* \"#utility.yul\":13866:13895   */\n      tag_375\n      jump\t// in\n    tag_532:\n        /* \"#utility.yul\":13858:13895   */\n      swap2\n      pop\n        /* \"#utility.yul\":13928:13931   */\n      dup3\n        /* \"#utility.yul\":13925:13926   */\n      0x02\n        /* \"#utility.yul\":13921:13932   */\n      mul\n        /* \"#utility.yul\":13915:13919   */\n      dup3\n        /* \"#utility.yul\":13912:13933   */\n      or\n        /* \"#utility.yul\":13904:13933   */\n      swap1\n      pop\n        /* \"#utility.yul\":13644:13939   */\n      swap3\n      swap2\n      pop\n      pop\n      jump\t// out\n        /* \"#utility.yul\":13944:15339   */\n    tag_114:\n        /* \"#utility.yul\":14061:14098   */\n      tag_534\n        /* \"#utility.yul\":14094:14097   */\n      dup3\n        /* \"#utility.yul\":14061:14098   */\n      tag_352\n      jump\t// in\n    tag_534:\n        /* \"#utility.yul\":14163:14181   */\n      0xffffffffffffffff\n        /* \"#utility.yul\":14155:14161   */\n      dup2\n        /* \"#utility.yul\":14152:14182   */\n      gt\n        /* \"#utility.yul\":14149:14205   */\n      iszero\n      tag_535\n      jumpi\n        /* \"#utility.yul\":14185:14203   */\n      tag_536\n      tag_342\n      jump\t// in\n    tag_536:\n        /* \"#utility.yul\":14149:14205   */\n    tag_535:\n        /* \"#utility.yul\":14229:14267   */\n      tag_537\n        /* \"#utility.yul\":14261:14265   */\n      dup3\n        /* \"#utility.yul\":14255:14266   */\n      sload\n        /* \"#utility.yul\":14229:14267   */\n      tag_117\n      jump\t// in\n    tag_537:\n        /* \"#utility.yul\":14314:14381   */\n      tag_538\n        /* \"#utility.yul\":14374:14380   */\n      dup3\n        /* \"#utility.yul\":14366:14372   */\n      dup3\n        /* \"#utility.yul\":14360:14364   */\n      dup6\n        /* \"#utility.yul\":14314:14381   */\n      tag_373\n      jump\t// in\n    tag_538:\n        /* \"#utility.yul\":14408:14409   */\n      0x00\n        /* \"#utility.yul\":14432:14436   */\n      0x20\n        /* \"#utility.yul\":14419:14436   */\n      swap1\n      pop\n        /* \"#utility.yul\":14464:14466   */\n      0x1f\n        /* \"#utility.yul\":14456:14462   */\n      dup4\n        /* \"#utility.yul\":14453:14467   */\n      gt\n        /* \"#utility.yul\":14481:14482   */\n      0x01\n        /* \"#utility.yul\":14476:15094   */\n      dup2\n      eq\n      tag_540\n      jumpi\n        /* \"#utility.yul\":15138:15139   */\n      0x00\n        /* \"#utility.yul\":15155:15161   */\n      dup5\n        /* \"#utility.yul\":15152:15229   */\n      iszero\n      tag_541\n      jumpi\n        /* \"#utility.yul\":15204:15213   */\n      dup3\n        /* \"#utility.yul\":15199:15202   */\n      dup8\n        /* \"#utility.yul\":15195:15214   */\n      add\n        /* \"#utility.yul\":15189:15215   */\n      mload\n        /* \"#utility.yul\":15180:15215   */\n      swap1\n      pop\n        /* \"#utility.yul\":15152:15229   */\n    tag_541:\n        /* \"#utility.yul\":15255:15322   */\n      tag_542\n        /* \"#utility.yul\":15315:15321   */\n      dup6\n        /* \"#utility.yul\":15308:15313   */\n      dup3\n        /* \"#utility.yul\":15255:15322   */\n      tag_376\n      jump\t// in\n    tag_542:\n        /* \"#utility.yul\":15249:15253   */\n      dup7\n        /* \"#utility.yul\":15242:15323   */\n      sstore\n        /* \"#utility.yul\":15111:15333   */\n      pop\n        /* \"#utility.yul\":14446:15333   */\n      jump(tag_539)\n        /* \"#utility.yul\":14476:15094   */\n    tag_540:\n        /* \"#utility.yul\":14528:14532   */\n      0x1f\n        /* \"#utility.yul\":14524:14533   */\n      not\n        /* \"#utility.yul\":14516:14522   */\n      dup5\n        /* \"#utility.yul\":14512:14534   */\n      and\n        /* \"#utility.yul\":14562:14599   */\n      tag_543\n        /* \"#utility.yul\":14594:14598   */\n      dup7\n        /* \"#utility.yul\":14562:14599   */\n      tag_362\n      jump\t// in\n    tag_543:\n        /* \"#utility.yul\":14621:14622   */\n      0x00\n        /* \"#utility.yul\":14635:14843   */\n    tag_544:\n        /* \"#utility.yul\":14649:14656   */\n      dup3\n        /* \"#utility.yul\":14646:14647   */\n      dup2\n        /* \"#utility.yul\":14643:14657   */\n      lt\n        /* \"#utility.yul\":14635:14843   */\n      iszero\n      tag_546\n      jumpi\n        /* \"#utility.yul\":14728:14737   */\n      dup5\n        /* \"#utility.yul\":14723:14726   */\n      dup10\n        /* \"#utility.yul\":14719:14738   */\n      add\n        /* \"#utility.yul\":14713:14739   */\n      mload\n        /* \"#utility.yul\":14705:14711   */\n      dup3\n        /* \"#utility.yul\":14698:14740   */\n      sstore\n        /* \"#utility.yul\":14779:14780   */\n      0x01\n        /* \"#utility.yul\":14771:14777   */\n      dup3\n        /* \"#utility.yul\":14767:14781   */\n      add\n        /* \"#utility.yul\":14757:14781   */\n      swap2\n      pop\n        /* \"#utility.yul\":14826:14828   */\n      0x20\n        /* \"#utility.yul\":14815:14824   */\n      dup6\n        /* \"#utility.yul\":14811:14829   */\n      add\n        /* \"#utility.yul\":14798:14829   */\n      swap5\n      pop\n        /* \"#utility.yul\":14672:14676   */\n      0x20\n        /* \"#utility.yul\":14669:14670   */\n      dup2\n        /* \"#utility.yul\":14665:14677   */\n      add\n        /* \"#utility.yul\":14660:14677   */\n      swap1\n      pop\n        /* \"#utility.yul\":14635:14843   */\n      jump(tag_544)\n    tag_546:\n        /* \"#utility.yul\":14871:14877   */\n      dup7\n        /* \"#utility.yul\":14862:14869   */\n      dup4\n        /* \"#utility.yul\":14859:14878   */\n      lt\n        /* \"#utility.yul\":14856:15035   */\n      iszero\n      tag_547\n      jumpi\n        /* \"#utility.yul\":14929:14938   */\n      dup5\n        /* \"#utility.yul\":14924:14927   */\n      dup10\n        /* \"#utility.yul\":14920:14939   */\n      add\n        /* \"#utility.yul\":14914:14940   */\n      mload\n        /* \"#utility.yul\":14972:15020   */\n      tag_548\n        /* \"#utility.yul\":15014:15018   */\n      0x1f\n        /* \"#utility.yul\":15006:15012   */\n      dup10\n        /* \"#utility.yul\":15002:15019   */\n      and\n        /* \"#utility.yul\":14991:15000   */\n      dup3\n        /* \"#utility.yul\":14972:15020   */\n      tag_375\n      jump\t// in\n    tag_548:\n        /* \"#utility.yul\":14964:14970   */\n      dup4\n        /* \"#utility.yul\":14957:15021   */\n      sstore\n        /* \"#utility.yul\":14879:15035   */\n      pop\n        /* \"#utility.yul\":14856:15035   */\n    tag_547:\n        /* \"#utility.yul\":15081:15082   */\n      0x01\n        /* \"#utility.yul\":15077:15078   */\n      0x02\n        /* \"#utility.yul\":15069:15075   */\n      dup9\n        /* \"#utility.yul\":15065:15079   */\n      mul\n        /* \"#utility.yul\":15061:15083   */\n      add\n        /* \"#utility.yul\":15055:15059   */\n      dup9\n        /* \"#utility.yul\":15048:15084   */\n      sstore\n        /* \"#utility.yul\":14483:15094   */\n      pop\n      pop\n      pop\n        /* \"#utility.yul\":14446:15333   */\n    tag_539:\n      pop\n        /* \"#utility.yul\":14036:15339   */\n      pop\n      pop\n      pop\n        /* \"#utility.yul\":13944:15339   */\n      pop\n      pop\n      jump\t// out\n    stop\n    data_73844ee127f08613ebe37071089123d7a78eb5f8fbd91acdd219bfc40ebb7998 4167726963756c7475726520746f6f6c2f746563686e69717565204f726465726564\n\n    auxdata: 0xa26469706673582212200895e84d331a564e77a80471a16d26ca301e7aa8c24eca5e8554a0f9eec7659f64736f6c634300081a0033\n}\n",
				"bytecode": {
					"linkReferences": {},
					"object": "60806040525f6001555f6002555f6003555f6004555f6005553480156022575f80fd5b50335f806101000a81548173ffffffffffffffffffffffffffffffffffffffff021916908373ffffffffffffffffffffffffffffffffffffffff1602179055506124d08061006f5f395ff3fe608060405234801561000f575f80fd5b5060043610610140575f3560e01c8063857ddb04116100b6578063b4a99a4e1161007a578063b4a99a4e14610355578063cc00487414610373578063cc4030691461038f578063dd286398146103c2578063e101a2e0146103e0578063eef5cb401461041057610140565b8063857ddb04146102ae57806386c18275146102ca5780639ba9f1bb146102e65780639c03facb1461031d578063a48d335a1461033957610140565b80633d753a1c116101085780633d753a1c146101eb578063438e9c4d146102075780634def474a1461022557806359bf286f146102415780636a992c9f146102745780637e43d94d1461029057610140565b8063102464ea146101445780632a4af440146101625780632b0187ac1461017e5780632b70b08d146101b15780632bdb2e6b146101cd575b5f80fd5b61014c610443565b6040516101599190611c32565b60405180910390f35b61017c60048036038101906101779190611df2565b610449565b005b61019860048036038101906101939190611ea4565b610584565b6040516101a89493929190611f3e565b60405180910390f35b6101cb60048036038101906101c69190611df2565b6106db565b005b6101d5610816565b6040516101e29190611c32565b60405180910390f35b61020560048036038101906102009190611ea4565b61081c565b005b61020f6108f5565b60405161021c9190611c32565b60405180910390f35b61023f600480360381019061023a9190611ea4565b6108fb565b005b61025b60048036038101906102569190611ea4565b6109d4565b60405161026b9493929190611f3e565b60405180910390f35b61028e60048036038101906102899190611df2565b610b2b565b005b610298610c66565b6040516102a59190611c32565b60405180910390f35b6102c860048036038101906102c39190611df2565b610c6c565b005b6102e460048036038101906102df9190611ea4565b610da7565b005b61030060048036038101906102fb9190611ea4565b610e7f565b604051610314989796959493929190612002565b60405180910390f35b61033760048036038101906103329190611ea4565b610fdb565b005b610353600480360381019061034e9190611ea4565b6110ba565b005b61035d611193565b60405161036a919061208c565b60405180910390f35b61038d600480360381019061038891906120a5565b6111b6565b005b6103a960048036038101906103a49190611ea4565b61134a565b6040516103b99493929190611f3e565b60405180910390f35b6103ca6114a1565b6040516103d79190611c32565b60405180910390f35b6103fa60048036038101906103f59190611ea4565b6114a7565b604051610407919061211b565b60405180910390f35b61042a60048036038101906104259190611ea4565b6117d3565b60405161043a9493929190611f3e565b60405180910390f35b60015481565b5f8054906101000a900473ffffffffffffffffffffffffffffffffffffffff1673ffffffffffffffffffffffffffffffffffffffff163373ffffffffffffffffffffffffffffffffffffffff161461049f575f80fd5b60045f8154809291906104b190612168565b919050555060405180608001604052808473ffffffffffffffffffffffffffffffffffffffff16815260200160045481526020018381526020018281525060095f60045481526020019081526020015f205f820151815f015f6101000a81548173ffffffffffffffffffffffffffffffffffffffff021916908373ffffffffffffffffffffffffffffffffffffffff16021790555060208201518160010155604082015181600201908161056591906123a9565b50606082015181600301908161057b91906123a9565b50905050505050565b6009602052805f5260405f205f91509050805f015f9054906101000a900473ffffffffffffffffffffffffffffffffffffffff16908060010154908060020180546105ce906121dc565b80601f01602080910402602001604051908101604052809291908181526020018280546105fa906121dc565b80156106455780601f1061061c57610100808354040283529160200191610645565b820191905f5260205f20905b81548152906001019060200180831161062857829003601f168201915b50505050509080600301805461065a906121dc565b80601f0160208091040260200160405190810160405280929190818152602001828054610686906121dc565b80156106d15780601f106106a8576101008083540402835291602001916106d1565b820191905f5260205f20905b8154815290600101906020018083116106b457829003601f168201915b5050505050905084565b5f8054906101000a900473ffffffffffffffffffffffffffffffffffffffff1673ffffffffffffffffffffffffffffffffffffffff163373ffffffffffffffffffffffffffffffffffffffff1614610731575f80fd5b60025f81548092919061074390612168565b919050555060405180608001604052808473ffffffffffffffffffffffffffffffffffffffff16815260200160025481526020018381526020018281525060075f60025481526020019081526020015f205f820151815f015f6101000a81548173ffffffffffffffffffffffffffffffffffffffff021916908373ffffffffffffffffffffffffffffffffffffffff1602179055506020820151816001015560408201518160020190816107f791906123a9565b50606082015181600301908161080d91906123a9565b50905050505050565b60045481565b5f8111801561082d57506001548111155b610835575f80fd5b5f61083f3361192a565b90505f811161084c575f80fd5b600360058111156108605761085f611f8f565b5b60065f8481526020019081526020015f206007015f9054906101000a900460ff16600581111561089357610892611f8f565b5b1461089c575f80fd5b8060065f8481526020019081526020015f2060060181905550600460065f8481526020019081526020015f206007015f6101000a81548160ff021916908360058111156108ec576108eb611f8f565b5b02179055505050565b60035481565b5f8111801561090c57506001548111155b610914575f80fd5b5f61091e336119e6565b90505f811161092b575f80fd5b6002600581111561093f5761093e611f8f565b5b60065f8481526020019081526020015f206007015f9054906101000a900460ff16600581111561097257610971611f8f565b5b1461097b575f80fd5b8060065f8481526020019081526020015f2060050181905550600360065f8481526020019081526020015f206007015f6101000a81548160ff021916908360058111156109cb576109ca611f8f565b5b02179055505050565b600a602052805f5260405f205f91509050805f015f9054906101000a900473ffffffffffffffffffffffffffffffffffffffff1690806001015490806002018054610a1e906121dc565b80601f0160208091040260200160405190810160405280929190818152602001828054610a4a906121dc565b8015610a955780601f10610a6c57610100808354040283529160200191610a95565b820191905f5260205f20905b815481529060010190602001808311610a7857829003601f168201915b505050505090806003018054610aaa906121dc565b80601f0160208091040260200160405190810160405280929190818152602001828054610ad6906121dc565b8015610b215780601f10610af857610100808354040283529160200191610b21565b820191905f5260205f20905b815481529060010190602001808311610b0457829003601f168201915b5050505050905084565b5f8054906101000a900473ffffffffffffffffffffffffffffffffffffffff1673ffffffffffffffffffffffffffffffffffffffff163373ffffffffffffffffffffffffffffffffffffffff1614610b81575f80fd5b60035f815480929190610b9390612168565b919050555060405180608001604052808473ffffffffffffffffffffffffffffffffffffffff16815260200160035481526020018381526020018281525060085f60035481526020019081526020015f205f820151815f015f6101000a81548173ffffffffffffffffffffffffffffffffffffffff021916908373ffffffffffffffffffffffffffffffffffffffff160217905550602082015181600101556040820151816002019081610c4791906123a9565b506060820151816003019081610c5d91906123a9565b50905050505050565b60055481565b5f8054906101000a900473ffffffffffffffffffffffffffffffffffffffff1673ffffffffffffffffffffffffffffffffffffffff163373ffffffffffffffffffffffffffffffffffffffff1614610cc2575f80fd5b60055f815480929190610cd490612168565b919050555060405180608001604052808473ffffffffffffffffffffffffffffffffffffffff168152602001600554815260200183815260200182815250600a5f60055481526020019081526020015f205f820151815f015f6101000a81548173ffffffffffffffffffffffffffffffffffffffff021916908373ffffffffffffffffffffffffffffffffffffffff160217905550602082015181600101556040820151816002019081610d8891906123a9565b506060820151816003019081610d9e91906123a9565b50905050505050565b5f81118015610db857506001548111155b610dc0575f80fd5b5f610dca33611aa2565b90505f8111610dd7575f80fd5b5f6005811115610dea57610de9611f8f565b5b60065f8481526020019081526020015f206007015f9054906101000a900460ff166005811115610e1d57610e1c611f8f565b5b14610e26575f80fd5b8060065f8481526020019081526020015f2060030181905550600160065f8481526020019081526020015f206007015f6101000a81548160ff02191690836005811115610e7657610e75611f8f565b5b02179055505050565b6006602052805f5260405f205f91509050805f015490806001018054610ea4906121dc565b80601f0160208091040260200160405190810160405280929190818152602001828054610ed0906121dc565b8015610f1b5780601f10610ef257610100808354040283529160200191610f1b565b820191905f5260205f20905b815481529060010190602001808311610efe57829003601f168201915b505050505090806002018054610f30906121dc565b80601f0160208091040260200160405190810160405280929190818152602001828054610f5c906121dc565b8015610fa75780601f10610f7e57610100808354040283529160200191610fa7565b820191905f5260205f20905b815481529060010190602001808311610f8a57829003601f168201915b505050505090806003015490806004015490806005015490806006015490806007015f9054906101000a900460ff16905088565b5f81118015610fec57506001548111155b610ff4575f80fd5b5f610ffe3361192a565b90505f811161100b575f80fd5b60065f8381526020019081526020015f2060060154811461102a575f80fd5b6004600581111561103e5761103d611f8f565b5b60065f8481526020019081526020015f206007015f9054906101000a900460ff16600581111561107157611070611f8f565b5b1461107a575f80fd5b600560065f8481526020019081526020015f206007015f6101000a81548160ff021916908360058111156110b1576110b0611f8f565b5b02179055505050565b5f811180156110cb57506001548111155b6110d3575f80fd5b5f6110dd33611b5e565b90505f81116110ea575f80fd5b600160058111156110fe576110fd611f8f565b5b60065f8481526020019081526020015f206007015f9054906101000a900460ff16600581111561113157611130611f8f565b5b1461113a575f80fd5b8060065f8481526020019081526020015f2060040181905550600260065f8481526020019081526020015f206007015f6101000a81548160ff0219169083600581111561118a57611189611f8f565b5b02179055505050565b5f8054906101000a900473ffffffffffffffffffffffffffffffffffffffff1681565b5f8054906101000a900473ffffffffffffffffffffffffffffffffffffffff1673ffffffffffffffffffffffffffffffffffffffff163373ffffffffffffffffffffffffffffffffffffffff161461120c575f80fd5b5f60025411801561121e57505f600354115b801561122b57505f600454115b801561123857505f600554115b611240575f80fd5b60015f81548092919061125290612168565b919050555060405180610100016040528060015481526020018381526020018281526020015f81526020015f81526020015f81526020015f81526020015f60058111156112a2576112a1611f8f565b5b81525060065f60015481526020019081526020015f205f820151815f015560208201518160010190816112d591906123a9565b5060408201518160020190816112eb91906123a9565b50606082015181600301556080820151816004015560a0820151816005015560c0820151816006015560e0820151816007015f6101000a81548160ff0219169083600581111561133e5761133d611f8f565b5b02179055509050505050565b6008602052805f5260405f205f91509050805f015f9054906101000a900473ffffffffffffffffffffffffffffffffffffffff1690806001015490806002018054611394906121dc565b80601f01602080910402602001604051908101604052809291908181526020018280546113c0906121dc565b801561140b5780601f106113e25761010080835404028352916020019161140b565b820191905f5260205f20905b8154815290600101906020018083116113ee57829003601f168201915b505050505090806003018054611420906121dc565b80601f016020809104026020016040519081016040528092919081815260200182805461144c906121dc565b80156114975780601f1061146e57610100808354040283529160200191611497565b820191905f5260205f20905b81548152906001019060200180831161147a57829003601f168201915b5050505050905084565b60025481565b60605f600154116114b6575f80fd5b5f60058111156114c9576114c8611f8f565b5b60065f8481526020019081526020015f206007015f9054906101000a900460ff1660058111156114fc576114fb611f8f565b5b03611521576040518060600160405280602281526020016124796022913990506117ce565b6001600581111561153557611534611f8f565b5b60065f8481526020019081526020015f206007015f9054906101000a900460ff16600581111561156857611567611f8f565b5b036115aa576040518060400160405280601981526020017f526177204d6174657269616c20537570706c792053746167650000000000000081525090506117ce565b600260058111156115be576115bd611f8f565b5b60065f8481526020019081526020015f206007015f9054906101000a900460ff1660058111156115f1576115f0611f8f565b5b03611633576040518060400160405280601381526020017f4d616e75666163747572696e672053746167650000000000000000000000000081525090506117ce565b6003600581111561164757611646611f8f565b5b60065f8481526020019081526020015f206007015f9054906101000a900460ff16600581111561167a57611679611f8f565b5b036116bc576040518060400160405280601281526020017f446973747269627574696f6e205374616765000000000000000000000000000081525090506117ce565b600460058111156116d0576116cf611f8f565b5b60065f8481526020019081526020015f206007015f9054906101000a900460ff16600581111561170357611702611f8f565b5b03611745576040518060400160405280600c81526020017f52657461696c205374616765000000000000000000000000000000000000000081525090506117ce565b60058081111561175857611757611f8f565b5b60065f8481526020019081526020015f206007015f9054906101000a900460ff16600581111561178b5761178a611f8f565b5b036117cd576040518060400160405280601f81526020017f4167726963756c7475726520746f6f6c2f746563686e6971756520536f6c640081525090506117ce565b5b919050565b6007602052805f5260405f205f91509050805f015f9054906101000a900473ffffffffffffffffffffffffffffffffffffffff169080600101549080600201805461181d906121dc565b80601f0160208091040260200160405190810160405280929190818152602001828054611849906121dc565b80156118945780601f1061186b57610100808354040283529160200191611894565b820191905f5260205f20905b81548152906001019060200180831161187757829003601f168201915b5050505050908060030180546118a9906121dc565b80601f01602080910402602001604051908101604052809291908181526020018280546118d5906121dc565b80156119205780601f106118f757610100808354040283529160200191611920565b820191905f5260205f20905b81548152906001019060200180831161190357829003601f168201915b5050505050905084565b5f8060055411611938575f80fd5b5f600190505b60055481116119dc578273ffffffffffffffffffffffffffffffffffffffff16600a5f8381526020019081526020015f205f015f9054906101000a900473ffffffffffffffffffffffffffffffffffffffff1673ffffffffffffffffffffffffffffffffffffffff16036119c957600a5f8281526020019081526020015f20600101549150506119e1565b80806119d490612168565b91505061193e565b505f90505b919050565b5f80600454116119f4575f80fd5b5f600190505b6004548111611a98578273ffffffffffffffffffffffffffffffffffffffff1660095f8381526020019081526020015f205f015f9054906101000a900473ffffffffffffffffffffffffffffffffffffffff1673ffffffffffffffffffffffffffffffffffffffff1603611a855760095f8281526020019081526020015f2060010154915050611a9d565b8080611a9090612168565b9150506119fa565b505f90505b919050565b5f8060025411611ab0575f80fd5b5f600190505b6002548111611b54578273ffffffffffffffffffffffffffffffffffffffff1660075f8381526020019081526020015f205f015f9054906101000a900473ffffffffffffffffffffffffffffffffffffffff1673ffffffffffffffffffffffffffffffffffffffff1603611b415760075f8281526020019081526020015f2060010154915050611b59565b8080611b4c90612168565b915050611ab6565b505f90505b919050565b5f8060035411611b6c575f80fd5b5f600190505b6003548111611c10578273ffffffffffffffffffffffffffffffffffffffff1660085f8381526020019081526020015f205f015f9054906101000a900473ffffffffffffffffffffffffffffffffffffffff1673ffffffffffffffffffffffffffffffffffffffff1603611bfd5760085f8281526020019081526020015f2060010154915050611c15565b8080611c0890612168565b915050611b72565b505f90505b919050565b5f819050919050565b611c2c81611c1a565b82525050565b5f602082019050611c455f830184611c23565b92915050565b5f604051905090565b5f80fd5b5f80fd5b5f73ffffffffffffffffffffffffffffffffffffffff82169050919050565b5f611c8582611c5c565b9050919050565b611c9581611c7b565b8114611c9f575f80fd5b50565b5f81359050611cb081611c8c565b92915050565b5f80fd5b5f80fd5b5f601f19601f8301169050919050565b7f4e487b71000000000000000000000000000000000000000000000000000000005f52604160045260245ffd5b611d0482611cbe565b810181811067ffffffffffffffff82111715611d2357611d22611cce565b5b80604052505050565b5f611d35611c4b565b9050611d418282611cfb565b919050565b5f67ffffffffffffffff821115611d6057611d5f611cce565b5b611d6982611cbe565b9050602081019050919050565b828183375f83830152505050565b5f611d96611d9184611d46565b611d2c565b905082815260208101848484011115611db257611db1611cba565b5b611dbd848285611d76565b509392505050565b5f82601f830112611dd957611dd8611cb6565b5b8135611de9848260208601611d84565b91505092915050565b5f805f60608486031215611e0957611e08611c54565b5b5f611e1686828701611ca2565b935050602084013567ffffffffffffffff811115611e3757611e36611c58565b5b611e4386828701611dc5565b925050604084013567ffffffffffffffff811115611e6457611e63611c58565b5b611e7086828701611dc5565b9150509250925092565b611e8381611c1a565b8114611e8d575f80fd5b50565b5f81359050611e9e81611e7a565b92915050565b5f60208284031215611eb957611eb8611c54565b5b5f611ec684828501611e90565b91505092915050565b611ed881611c7b565b82525050565b5f81519050919050565b5f82825260208201905092915050565b8281835e5f83830152505050565b5f611f1082611ede565b611f1a8185611ee8565b9350611f2a818560208601611ef8565b611f3381611cbe565b840191505092915050565b5f608082019050611f515f830187611ecf565b611f5e6020830186611c23565b8181036040830152611f708185611f06565b90508181036060830152611f848184611f06565b905095945050505050565b7f4e487b71000000000000000000000000000000000000000000000000000000005f52602160045260245ffd5b60068110611fcd57611fcc611f8f565b5b50565b5f819050611fdd82611fbc565b919050565b5f611fec82611fd0565b9050919050565b611ffc81611fe2565b82525050565b5f610100820190506120165f83018b611c23565b8181036020830152612028818a611f06565b9050818103604083015261203c8189611f06565b905061204b6060830188611c23565b6120586080830187611c23565b61206560a0830186611c23565b61207260c0830185611c23565b61207f60e0830184611ff3565b9998505050505050505050565b5f60208201905061209f5f830184611ecf565b92915050565b5f80604083850312156120bb576120ba611c54565b5b5f83013567ffffffffffffffff8111156120d8576120d7611c58565b5b6120e485828601611dc5565b925050602083013567ffffffffffffffff81111561210557612104611c58565b5b61211185828601611dc5565b9150509250929050565b5f6020820190508181035f8301526121338184611f06565b905092915050565b7f4e487b71000000000000000000000000000000000000000000000000000000005f52601160045260245ffd5b5f61217282611c1a565b91507fffffffffffffffffffffffffffffffffffffffffffffffffffffffffffffffff82036121a4576121a361213b565b5b600182019050919050565b7f4e487b71000000000000000000000000000000000000000000000000000000005f52602260045260245ffd5b5f60028204905060018216806121f357607f821691505b602082108103612206576122056121af565b5b50919050565b5f819050815f5260205f209050919050565b5f6020601f8301049050919050565b5f82821b905092915050565b5f600883026122687fffffffffffffffffffffffffffffffffffffffffffffffffffffffffffffffff8261222d565b612272868361222d565b95508019841693508086168417925050509392505050565b5f819050919050565b5f6122ad6122a86122a384611c1a565b61228a565b611c1a565b9050919050565b5f819050919050565b6122c683612293565b6122da6122d2826122b4565b848454612239565b825550505050565b5f90565b6122ee6122e2565b6122f98184846122bd565b505050565b5b8181101561231c576123115f826122e6565b6001810190506122ff565b5050565b601f821115612361576123328161220c565b61233b8461221e565b8101602085101561234a578190505b61235e6123568561221e565b8301826122fe565b50505b505050565b5f82821c905092915050565b5f6123815f1984600802612366565b1980831691505092915050565b5f6123998383612372565b9150826002028217905092915050565b6123b282611ede565b67ffffffffffffffff8111156123cb576123ca611cce565b5b6123d582546121dc565b6123e0828285612320565b5f60209050601f831160018114612411575f84156123ff578287015190505b612409858261238e565b865550612470565b601f19841661241f8661220c565b5f5b8281101561244657848901518255600182019150602085019450602081019050612421565b86831015612463578489015161245f601f891682612372565b8355505b6001600288020188555050505b50505050505056fe4167726963756c7475726520746f6f6c2f746563686e69717565204f726465726564a26469706673582212200895e84d331a564e77a80471a16d26ca301e7aa8c24eca5e8554a0f9eec7659f64736f6c634300081a0033",
					"opcodes": "PUSH1 0x80 PUSH1 0x40 MSTORE PUSH0 PUSH1 0x1 SSTORE PUSH0 PUSH1 0x2 SSTORE PUSH0 PUSH1 0x3 SSTORE PUSH0 PUSH1 0x4 SSTORE PUSH0 PUSH1 0x5 SSTORE CALLVALUE DUP1 ISZERO PUSH1 0x22 JUMPI PUSH0 DUP1 REVERT JUMPDEST POP CALLER PUSH0 DUP1 PUSH2 0x100 EXP DUP2 SLOAD DUP2 PUSH20 0xFFFFFFFFFFFFFFFFFFFFFFFFFFFFFFFFFFFFFFFF MUL NOT AND SWAP1 DUP4 PUSH20 0xFFFFFFFFFFFFFFFFFFFFFFFFFFFFFFFFFFFFFFFF AND MUL OR SWAP1 SSTORE POP PUSH2 0x24D0 DUP1 PUSH2 0x6F PUSH0 CODECOPY PUSH0 RETURN INVALID PUSH1 0x80 PUSH1 0x40 MSTORE CALLVALUE DUP1 ISZERO PUSH2 0xF JUMPI PUSH0 DUP1 REVERT JUMPDEST POP PUSH1 0x4 CALLDATASIZE LT PUSH2 0x140 JUMPI PUSH0 CALLDATALOAD PUSH1 0xE0 SHR DUP1 PUSH4 0x857DDB04 GT PUSH2 0xB6 JUMPI DUP1 PUSH4 0xB4A99A4E GT PUSH2 0x7A JUMPI DUP1 PUSH4 0xB4A99A4E EQ PUSH2 0x355 JUMPI DUP1 PUSH4 0xCC004874 EQ PUSH2 0x373 JUMPI DUP1 PUSH4 0xCC403069 EQ PUSH2 0x38F JUMPI DUP1 PUSH4 0xDD286398 EQ PUSH2 0x3C2 JUMPI DUP1 PUSH4 0xE101A2E0 EQ PUSH2 0x3E0 JUMPI DUP1 PUSH4 0xEEF5CB40 EQ PUSH2 0x410 JUMPI PUSH2 0x140 JUMP JUMPDEST DUP1 PUSH4 0x857DDB04 EQ PUSH2 0x2AE JUMPI DUP1 PUSH4 0x86C18275 EQ PUSH2 0x2CA JUMPI DUP1 PUSH4 0x9BA9F1BB EQ PUSH2 0x2E6 JUMPI DUP1 PUSH4 0x9C03FACB EQ PUSH2 0x31D JUMPI DUP1 PUSH4 0xA48D335A EQ PUSH2 0x339 JUMPI PUSH2 0x140 JUMP JUMPDEST DUP1 PUSH4 0x3D753A1C GT PUSH2 0x108 JUMPI DUP1 PUSH4 0x3D753A1C EQ PUSH2 0x1EB JUMPI DUP1 PUSH4 0x438E9C4D EQ PUSH2 0x207 JUMPI DUP1 PUSH4 0x4DEF474A EQ PUSH2 0x225 JUMPI DUP1 PUSH4 0x59BF286F EQ PUSH2 0x241 JUMPI DUP1 PUSH4 0x6A992C9F EQ PUSH2 0x274 JUMPI DUP1 PUSH4 0x7E43D94D EQ PUSH2 0x290 JUMPI PUSH2 0x140 JUMP JUMPDEST DUP1 PUSH4 0x102464EA EQ PUSH2 0x144 JUMPI DUP1 PUSH4 0x2A4AF440 EQ PUSH2 0x162 JUMPI DUP1 PUSH4 0x2B0187AC EQ PUSH2 0x17E JUMPI DUP1 PUSH4 0x2B70B08D EQ PUSH2 0x1B1 JUMPI DUP1 PUSH4 0x2BDB2E6B EQ PUSH2 0x1CD JUMPI JUMPDEST PUSH0 DUP1 REVERT JUMPDEST PUSH2 0x14C PUSH2 0x443 JUMP JUMPDEST PUSH1 0x40 MLOAD PUSH2 0x159 SWAP2 SWAP1 PUSH2 0x1C32 JUMP JUMPDEST PUSH1 0x40 MLOAD DUP1 SWAP2 SUB SWAP1 RETURN JUMPDEST PUSH2 0x17C PUSH1 0x4 DUP1 CALLDATASIZE SUB DUP2 ADD SWAP1 PUSH2 0x177 SWAP2 SWAP1 PUSH2 0x1DF2 JUMP JUMPDEST PUSH2 0x449 JUMP JUMPDEST STOP JUMPDEST PUSH2 0x198 PUSH1 0x4 DUP1 CALLDATASIZE SUB DUP2 ADD SWAP1 PUSH2 0x193 SWAP2 SWAP1 PUSH2 0x1EA4 JUMP JUMPDEST PUSH2 0x584 JUMP JUMPDEST PUSH1 0x40 MLOAD PUSH2 0x1A8 SWAP5 SWAP4 SWAP3 SWAP2 SWAP1 PUSH2 0x1F3E JUMP JUMPDEST PUSH1 0x40 MLOAD DUP1 SWAP2 SUB SWAP1 RETURN JUMPDEST PUSH2 0x1CB PUSH1 0x4 DUP1 CALLDATASIZE SUB DUP2 ADD SWAP1 PUSH2 0x1C6 SWAP2 SWAP1 PUSH2 0x1DF2 JUMP JUMPDEST PUSH2 0x6DB JUMP JUMPDEST STOP JUMPDEST PUSH2 0x1D5 PUSH2 0x816 JUMP JUMPDEST PUSH1 0x40 MLOAD PUSH2 0x1E2 SWAP2 SWAP1 PUSH2 0x1C32 JUMP JUMPDEST PUSH1 0x40 MLOAD DUP1 SWAP2 SUB SWAP1 RETURN JUMPDEST PUSH2 0x205 PUSH1 0x4 DUP1 CALLDATASIZE SUB DUP2 ADD SWAP1 PUSH2 0x200 SWAP2 SWAP1 PUSH2 0x1EA4 JUMP JUMPDEST PUSH2 0x81C JUMP JUMPDEST STOP JUMPDEST PUSH2 0x20F PUSH2 0x8F5 JUMP JUMPDEST PUSH1 0x40 MLOAD PUSH2 0x21C SWAP2 SWAP1 PUSH2 0x1C32 JUMP JUMPDEST PUSH1 0x40 MLOAD DUP1 SWAP2 SUB SWAP1 RETURN JUMPDEST PUSH2 0x23F PUSH1 0x4 DUP1 CALLDATASIZE SUB DUP2 ADD SWAP1 PUSH2 0x23A SWAP2 SWAP1 PUSH2 0x1EA4 JUMP JUMPDEST PUSH2 0x8FB JUMP JUMPDEST STOP JUMPDEST PUSH2 0x25B PUSH1 0x4 DUP1 CALLDATASIZE SUB DUP2 ADD SWAP1 PUSH2 0x256 SWAP2 SWAP1 PUSH2 0x1EA4 JUMP JUMPDEST PUSH2 0x9D4 JUMP JUMPDEST PUSH1 0x40 MLOAD PUSH2 0x26B SWAP5 SWAP4 SWAP3 SWAP2 SWAP1 PUSH2 0x1F3E JUMP JUMPDEST PUSH1 0x40 MLOAD DUP1 SWAP2 SUB SWAP1 RETURN JUMPDEST PUSH2 0x28E PUSH1 0x4 DUP1 CALLDATASIZE SUB DUP2 ADD SWAP1 PUSH2 0x289 SWAP2 SWAP1 PUSH2 0x1DF2 JUMP JUMPDEST PUSH2 0xB2B JUMP JUMPDEST STOP JUMPDEST PUSH2 0x298 PUSH2 0xC66 JUMP JUMPDEST PUSH1 0x40 MLOAD PUSH2 0x2A5 SWAP2 SWAP1 PUSH2 0x1C32 JUMP JUMPDEST PUSH1 0x40 MLOAD DUP1 SWAP2 SUB SWAP1 RETURN JUMPDEST PUSH2 0x2C8 PUSH1 0x4 DUP1 CALLDATASIZE SUB DUP2 ADD SWAP1 PUSH2 0x2C3 SWAP2 SWAP1 PUSH2 0x1DF2 JUMP JUMPDEST PUSH2 0xC6C JUMP JUMPDEST STOP JUMPDEST PUSH2 0x2E4 PUSH1 0x4 DUP1 CALLDATASIZE SUB DUP2 ADD SWAP1 PUSH2 0x2DF SWAP2 SWAP1 PUSH2 0x1EA4 JUMP JUMPDEST PUSH2 0xDA7 JUMP JUMPDEST STOP JUMPDEST PUSH2 0x300 PUSH1 0x4 DUP1 CALLDATASIZE SUB DUP2 ADD SWAP1 PUSH2 0x2FB SWAP2 SWAP1 PUSH2 0x1EA4 JUMP JUMPDEST PUSH2 0xE7F JUMP JUMPDEST PUSH1 0x40 MLOAD PUSH2 0x314 SWAP9 SWAP8 SWAP7 SWAP6 SWAP5 SWAP4 SWAP3 SWAP2 SWAP1 PUSH2 0x2002 JUMP JUMPDEST PUSH1 0x40 MLOAD DUP1 SWAP2 SUB SWAP1 RETURN JUMPDEST PUSH2 0x337 PUSH1 0x4 DUP1 CALLDATASIZE SUB DUP2 ADD SWAP1 PUSH2 0x332 SWAP2 SWAP1 PUSH2 0x1EA4 JUMP JUMPDEST PUSH2 0xFDB JUMP JUMPDEST STOP JUMPDEST PUSH2 0x353 PUSH1 0x4 DUP1 CALLDATASIZE SUB DUP2 ADD SWAP1 PUSH2 0x34E SWAP2 SWAP1 PUSH2 0x1EA4 JUMP JUMPDEST PUSH2 0x10BA JUMP JUMPDEST STOP JUMPDEST PUSH2 0x35D PUSH2 0x1193 JUMP JUMPDEST PUSH1 0x40 MLOAD PUSH2 0x36A SWAP2 SWAP1 PUSH2 0x208C JUMP JUMPDEST PUSH1 0x40 MLOAD DUP1 SWAP2 SUB SWAP1 RETURN JUMPDEST PUSH2 0x38D PUSH1 0x4 DUP1 CALLDATASIZE SUB DUP2 ADD SWAP1 PUSH2 0x388 SWAP2 SWAP1 PUSH2 0x20A5 JUMP JUMPDEST PUSH2 0x11B6 JUMP JUMPDEST STOP JUMPDEST PUSH2 0x3A9 PUSH1 0x4 DUP1 CALLDATASIZE SUB DUP2 ADD SWAP1 PUSH2 0x3A4 SWAP2 SWAP1 PUSH2 0x1EA4 JUMP JUMPDEST PUSH2 0x134A JUMP JUMPDEST PUSH1 0x40 MLOAD PUSH2 0x3B9 SWAP5 SWAP4 SWAP3 SWAP2 SWAP1 PUSH2 0x1F3E JUMP JUMPDEST PUSH1 0x40 MLOAD DUP1 SWAP2 SUB SWAP1 RETURN JUMPDEST PUSH2 0x3CA PUSH2 0x14A1 JUMP JUMPDEST PUSH1 0x40 MLOAD PUSH2 0x3D7 SWAP2 SWAP1 PUSH2 0x1C32 JUMP JUMPDEST PUSH1 0x40 MLOAD DUP1 SWAP2 SUB SWAP1 RETURN JUMPDEST PUSH2 0x3FA PUSH1 0x4 DUP1 CALLDATASIZE SUB DUP2 ADD SWAP1 PUSH2 0x3F5 SWAP2 SWAP1 PUSH2 0x1EA4 JUMP JUMPDEST PUSH2 0x14A7 JUMP JUMPDEST PUSH1 0x40 MLOAD PUSH2 0x407 SWAP2 SWAP1 PUSH2 0x211B JUMP JUMPDEST PUSH1 0x40 MLOAD DUP1 SWAP2 SUB SWAP1 RETURN JUMPDEST PUSH2 0x42A PUSH1 0x4 DUP1 CALLDATASIZE SUB DUP2 ADD SWAP1 PUSH2 0x425 SWAP2 SWAP1 PUSH2 0x1EA4 JUMP JUMPDEST PUSH2 0x17D3 JUMP JUMPDEST PUSH1 0x40 MLOAD PUSH2 0x43A SWAP5 SWAP4 SWAP3 SWAP2 SWAP1 PUSH2 0x1F3E JUMP JUMPDEST PUSH1 0x40 MLOAD DUP1 SWAP2 SUB SWAP1 RETURN JUMPDEST PUSH1 0x1 SLOAD DUP2 JUMP JUMPDEST PUSH0 DUP1 SLOAD SWAP1 PUSH2 0x100 EXP SWAP1 DIV PUSH20 0xFFFFFFFFFFFFFFFFFFFFFFFFFFFFFFFFFFFFFFFF AND PUSH20 0xFFFFFFFFFFFFFFFFFFFFFFFFFFFFFFFFFFFFFFFF AND CALLER PUSH20 0xFFFFFFFFFFFFFFFFFFFFFFFFFFFFFFFFFFFFFFFF AND EQ PUSH2 0x49F JUMPI PUSH0 DUP1 REVERT JUMPDEST PUSH1 0x4 PUSH0 DUP2 SLOAD DUP1 SWAP3 SWAP2 SWAP1 PUSH2 0x4B1 SWAP1 PUSH2 0x2168 JUMP JUMPDEST SWAP2 SWAP1 POP SSTORE POP PUSH1 0x40 MLOAD DUP1 PUSH1 0x80 ADD PUSH1 0x40 MSTORE DUP1 DUP5 PUSH20 0xFFFFFFFFFFFFFFFFFFFFFFFFFFFFFFFFFFFFFFFF AND DUP2 MSTORE PUSH1 0x20 ADD PUSH1 0x4 SLOAD DUP2 MSTORE PUSH1 0x20 ADD DUP4 DUP2 MSTORE PUSH1 0x20 ADD DUP3 DUP2 MSTORE POP PUSH1 0x9 PUSH0 PUSH1 0x4 SLOAD DUP2 MSTORE PUSH1 0x20 ADD SWAP1 DUP2 MSTORE PUSH1 0x20 ADD PUSH0 KECCAK256 PUSH0 DUP3 ADD MLOAD DUP2 PUSH0 ADD PUSH0 PUSH2 0x100 EXP DUP2 SLOAD DUP2 PUSH20 0xFFFFFFFFFFFFFFFFFFFFFFFFFFFFFFFFFFFFFFFF MUL NOT AND SWAP1 DUP4 PUSH20 0xFFFFFFFFFFFFFFFFFFFFFFFFFFFFFFFFFFFFFFFF AND MUL OR SWAP1 SSTORE POP PUSH1 0x20 DUP3 ADD MLOAD DUP2 PUSH1 0x1 ADD SSTORE PUSH1 0x40 DUP3 ADD MLOAD DUP2 PUSH1 0x2 ADD SWAP1 DUP2 PUSH2 0x565 SWAP2 SWAP1 PUSH2 0x23A9 JUMP JUMPDEST POP PUSH1 0x60 DUP3 ADD MLOAD DUP2 PUSH1 0x3 ADD SWAP1 DUP2 PUSH2 0x57B SWAP2 SWAP1 PUSH2 0x23A9 JUMP JUMPDEST POP SWAP1 POP POP POP POP POP JUMP JUMPDEST PUSH1 0x9 PUSH1 0x20 MSTORE DUP1 PUSH0 MSTORE PUSH1 0x40 PUSH0 KECCAK256 PUSH0 SWAP2 POP SWAP1 POP DUP1 PUSH0 ADD PUSH0 SWAP1 SLOAD SWAP1 PUSH2 0x100 EXP SWAP1 DIV PUSH20 0xFFFFFFFFFFFFFFFFFFFFFFFFFFFFFFFFFFFFFFFF AND SWAP1 DUP1 PUSH1 0x1 ADD SLOAD SWAP1 DUP1 PUSH1 0x2 ADD DUP1 SLOAD PUSH2 0x5CE SWAP1 PUSH2 0x21DC JUMP JUMPDEST DUP1 PUSH1 0x1F ADD PUSH1 0x20 DUP1 SWAP2 DIV MUL PUSH1 0x20 ADD PUSH1 0x40 MLOAD SWAP1 DUP2 ADD PUSH1 0x40 MSTORE DUP1 SWAP3 SWAP2 SWAP1 DUP2 DUP2 MSTORE PUSH1 0x20 ADD DUP3 DUP1 SLOAD PUSH2 0x5FA SWAP1 PUSH2 0x21DC JUMP JUMPDEST DUP1 ISZERO PUSH2 0x645 JUMPI DUP1 PUSH1 0x1F LT PUSH2 0x61C JUMPI PUSH2 0x100 DUP1 DUP4 SLOAD DIV MUL DUP4 MSTORE SWAP2 PUSH1 0x20 ADD SWAP2 PUSH2 0x645 JUMP JUMPDEST DUP3 ADD SWAP2 SWAP1 PUSH0 MSTORE PUSH1 0x20 PUSH0 KECCAK256 SWAP1 JUMPDEST DUP2 SLOAD DUP2 MSTORE SWAP1 PUSH1 0x1 ADD SWAP1 PUSH1 0x20 ADD DUP1 DUP4 GT PUSH2 0x628 JUMPI DUP3 SWAP1 SUB PUSH1 0x1F AND DUP3 ADD SWAP2 JUMPDEST POP POP POP POP POP SWAP1 DUP1 PUSH1 0x3 ADD DUP1 SLOAD PUSH2 0x65A SWAP1 PUSH2 0x21DC JUMP JUMPDEST DUP1 PUSH1 0x1F ADD PUSH1 0x20 DUP1 SWAP2 DIV MUL PUSH1 0x20 ADD PUSH1 0x40 MLOAD SWAP1 DUP2 ADD PUSH1 0x40 MSTORE DUP1 SWAP3 SWAP2 SWAP1 DUP2 DUP2 MSTORE PUSH1 0x20 ADD DUP3 DUP1 SLOAD PUSH2 0x686 SWAP1 PUSH2 0x21DC JUMP JUMPDEST DUP1 ISZERO PUSH2 0x6D1 JUMPI DUP1 PUSH1 0x1F LT PUSH2 0x6A8 JUMPI PUSH2 0x100 DUP1 DUP4 SLOAD DIV MUL DUP4 MSTORE SWAP2 PUSH1 0x20 ADD SWAP2 PUSH2 0x6D1 JUMP JUMPDEST DUP3 ADD SWAP2 SWAP1 PUSH0 MSTORE PUSH1 0x20 PUSH0 KECCAK256 SWAP1 JUMPDEST DUP2 SLOAD DUP2 MSTORE SWAP1 PUSH1 0x1 ADD SWAP1 PUSH1 0x20 ADD DUP1 DUP4 GT PUSH2 0x6B4 JUMPI DUP3 SWAP1 SUB PUSH1 0x1F AND DUP3 ADD SWAP2 JUMPDEST POP POP POP POP POP SWAP1 POP DUP5 JUMP JUMPDEST PUSH0 DUP1 SLOAD SWAP1 PUSH2 0x100 EXP SWAP1 DIV PUSH20 0xFFFFFFFFFFFFFFFFFFFFFFFFFFFFFFFFFFFFFFFF AND PUSH20 0xFFFFFFFFFFFFFFFFFFFFFFFFFFFFFFFFFFFFFFFF AND CALLER PUSH20 0xFFFFFFFFFFFFFFFFFFFFFFFFFFFFFFFFFFFFFFFF AND EQ PUSH2 0x731 JUMPI PUSH0 DUP1 REVERT JUMPDEST PUSH1 0x2 PUSH0 DUP2 SLOAD DUP1 SWAP3 SWAP2 SWAP1 PUSH2 0x743 SWAP1 PUSH2 0x2168 JUMP JUMPDEST SWAP2 SWAP1 POP SSTORE POP PUSH1 0x40 MLOAD DUP1 PUSH1 0x80 ADD PUSH1 0x40 MSTORE DUP1 DUP5 PUSH20 0xFFFFFFFFFFFFFFFFFFFFFFFFFFFFFFFFFFFFFFFF AND DUP2 MSTORE PUSH1 0x20 ADD PUSH1 0x2 SLOAD DUP2 MSTORE PUSH1 0x20 ADD DUP4 DUP2 MSTORE PUSH1 0x20 ADD DUP3 DUP2 MSTORE POP PUSH1 0x7 PUSH0 PUSH1 0x2 SLOAD DUP2 MSTORE PUSH1 0x20 ADD SWAP1 DUP2 MSTORE PUSH1 0x20 ADD PUSH0 KECCAK256 PUSH0 DUP3 ADD MLOAD DUP2 PUSH0 ADD PUSH0 PUSH2 0x100 EXP DUP2 SLOAD DUP2 PUSH20 0xFFFFFFFFFFFFFFFFFFFFFFFFFFFFFFFFFFFFFFFF MUL NOT AND SWAP1 DUP4 PUSH20 0xFFFFFFFFFFFFFFFFFFFFFFFFFFFFFFFFFFFFFFFF AND MUL OR SWAP1 SSTORE POP PUSH1 0x20 DUP3 ADD MLOAD DUP2 PUSH1 0x1 ADD SSTORE PUSH1 0x40 DUP3 ADD MLOAD DUP2 PUSH1 0x2 ADD SWAP1 DUP2 PUSH2 0x7F7 SWAP2 SWAP1 PUSH2 0x23A9 JUMP JUMPDEST POP PUSH1 0x60 DUP3 ADD MLOAD DUP2 PUSH1 0x3 ADD SWAP1 DUP2 PUSH2 0x80D SWAP2 SWAP1 PUSH2 0x23A9 JUMP JUMPDEST POP SWAP1 POP POP POP POP POP JUMP JUMPDEST PUSH1 0x4 SLOAD DUP2 JUMP JUMPDEST PUSH0 DUP2 GT DUP1 ISZERO PUSH2 0x82D JUMPI POP PUSH1 0x1 SLOAD DUP2 GT ISZERO JUMPDEST PUSH2 0x835 JUMPI PUSH0 DUP1 REVERT JUMPDEST PUSH0 PUSH2 0x83F CALLER PUSH2 0x192A JUMP JUMPDEST SWAP1 POP PUSH0 DUP2 GT PUSH2 0x84C JUMPI PUSH0 DUP1 REVERT JUMPDEST PUSH1 0x3 PUSH1 0x5 DUP2 GT ISZERO PUSH2 0x860 JUMPI PUSH2 0x85F PUSH2 0x1F8F JUMP JUMPDEST JUMPDEST PUSH1 0x6 PUSH0 DUP5 DUP2 MSTORE PUSH1 0x20 ADD SWAP1 DUP2 MSTORE PUSH1 0x20 ADD PUSH0 KECCAK256 PUSH1 0x7 ADD PUSH0 SWAP1 SLOAD SWAP1 PUSH2 0x100 EXP SWAP1 DIV PUSH1 0xFF AND PUSH1 0x5 DUP2 GT ISZERO PUSH2 0x893 JUMPI PUSH2 0x892 PUSH2 0x1F8F JUMP JUMPDEST JUMPDEST EQ PUSH2 0x89C JUMPI PUSH0 DUP1 REVERT JUMPDEST DUP1 PUSH1 0x6 PUSH0 DUP5 DUP2 MSTORE PUSH1 0x20 ADD SWAP1 DUP2 MSTORE PUSH1 0x20 ADD PUSH0 KECCAK256 PUSH1 0x6 ADD DUP2 SWAP1 SSTORE POP PUSH1 0x4 PUSH1 0x6 PUSH0 DUP5 DUP2 MSTORE PUSH1 0x20 ADD SWAP1 DUP2 MSTORE PUSH1 0x20 ADD PUSH0 KECCAK256 PUSH1 0x7 ADD PUSH0 PUSH2 0x100 EXP DUP2 SLOAD DUP2 PUSH1 0xFF MUL NOT AND SWAP1 DUP4 PUSH1 0x5 DUP2 GT ISZERO PUSH2 0x8EC JUMPI PUSH2 0x8EB PUSH2 0x1F8F JUMP JUMPDEST JUMPDEST MUL OR SWAP1 SSTORE POP POP POP JUMP JUMPDEST PUSH1 0x3 SLOAD DUP2 JUMP JUMPDEST PUSH0 DUP2 GT DUP1 ISZERO PUSH2 0x90C JUMPI POP PUSH1 0x1 SLOAD DUP2 GT ISZERO JUMPDEST PUSH2 0x914 JUMPI PUSH0 DUP1 REVERT JUMPDEST PUSH0 PUSH2 0x91E CALLER PUSH2 0x19E6 JUMP JUMPDEST SWAP1 POP PUSH0 DUP2 GT PUSH2 0x92B JUMPI PUSH0 DUP1 REVERT JUMPDEST PUSH1 0x2 PUSH1 0x5 DUP2 GT ISZERO PUSH2 0x93F JUMPI PUSH2 0x93E PUSH2 0x1F8F JUMP JUMPDEST JUMPDEST PUSH1 0x6 PUSH0 DUP5 DUP2 MSTORE PUSH1 0x20 ADD SWAP1 DUP2 MSTORE PUSH1 0x20 ADD PUSH0 KECCAK256 PUSH1 0x7 ADD PUSH0 SWAP1 SLOAD SWAP1 PUSH2 0x100 EXP SWAP1 DIV PUSH1 0xFF AND PUSH1 0x5 DUP2 GT ISZERO PUSH2 0x972 JUMPI PUSH2 0x971 PUSH2 0x1F8F JUMP JUMPDEST JUMPDEST EQ PUSH2 0x97B JUMPI PUSH0 DUP1 REVERT JUMPDEST DUP1 PUSH1 0x6 PUSH0 DUP5 DUP2 MSTORE PUSH1 0x20 ADD SWAP1 DUP2 MSTORE PUSH1 0x20 ADD PUSH0 KECCAK256 PUSH1 0x5 ADD DUP2 SWAP1 SSTORE POP PUSH1 0x3 PUSH1 0x6 PUSH0 DUP5 DUP2 MSTORE PUSH1 0x20 ADD SWAP1 DUP2 MSTORE PUSH1 0x20 ADD PUSH0 KECCAK256 PUSH1 0x7 ADD PUSH0 PUSH2 0x100 EXP DUP2 SLOAD DUP2 PUSH1 0xFF MUL NOT AND SWAP1 DUP4 PUSH1 0x5 DUP2 GT ISZERO PUSH2 0x9CB JUMPI PUSH2 0x9CA PUSH2 0x1F8F JUMP JUMPDEST JUMPDEST MUL OR SWAP1 SSTORE POP POP POP JUMP JUMPDEST PUSH1 0xA PUSH1 0x20 MSTORE DUP1 PUSH0 MSTORE PUSH1 0x40 PUSH0 KECCAK256 PUSH0 SWAP2 POP SWAP1 POP DUP1 PUSH0 ADD PUSH0 SWAP1 SLOAD SWAP1 PUSH2 0x100 EXP SWAP1 DIV PUSH20 0xFFFFFFFFFFFFFFFFFFFFFFFFFFFFFFFFFFFFFFFF AND SWAP1 DUP1 PUSH1 0x1 ADD SLOAD SWAP1 DUP1 PUSH1 0x2 ADD DUP1 SLOAD PUSH2 0xA1E SWAP1 PUSH2 0x21DC JUMP JUMPDEST DUP1 PUSH1 0x1F ADD PUSH1 0x20 DUP1 SWAP2 DIV MUL PUSH1 0x20 ADD PUSH1 0x40 MLOAD SWAP1 DUP2 ADD PUSH1 0x40 MSTORE DUP1 SWAP3 SWAP2 SWAP1 DUP2 DUP2 MSTORE PUSH1 0x20 ADD DUP3 DUP1 SLOAD PUSH2 0xA4A SWAP1 PUSH2 0x21DC JUMP JUMPDEST DUP1 ISZERO PUSH2 0xA95 JUMPI DUP1 PUSH1 0x1F LT PUSH2 0xA6C JUMPI PUSH2 0x100 DUP1 DUP4 SLOAD DIV MUL DUP4 MSTORE SWAP2 PUSH1 0x20 ADD SWAP2 PUSH2 0xA95 JUMP JUMPDEST DUP3 ADD SWAP2 SWAP1 PUSH0 MSTORE PUSH1 0x20 PUSH0 KECCAK256 SWAP1 JUMPDEST DUP2 SLOAD DUP2 MSTORE SWAP1 PUSH1 0x1 ADD SWAP1 PUSH1 0x20 ADD DUP1 DUP4 GT PUSH2 0xA78 JUMPI DUP3 SWAP1 SUB PUSH1 0x1F AND DUP3 ADD SWAP2 JUMPDEST POP POP POP POP POP SWAP1 DUP1 PUSH1 0x3 ADD DUP1 SLOAD PUSH2 0xAAA SWAP1 PUSH2 0x21DC JUMP JUMPDEST DUP1 PUSH1 0x1F ADD PUSH1 0x20 DUP1 SWAP2 DIV MUL PUSH1 0x20 ADD PUSH1 0x40 MLOAD SWAP1 DUP2 ADD PUSH1 0x40 MSTORE DUP1 SWAP3 SWAP2 SWAP1 DUP2 DUP2 MSTORE PUSH1 0x20 ADD DUP3 DUP1 SLOAD PUSH2 0xAD6 SWAP1 PUSH2 0x21DC JUMP JUMPDEST DUP1 ISZERO PUSH2 0xB21 JUMPI DUP1 PUSH1 0x1F LT PUSH2 0xAF8 JUMPI PUSH2 0x100 DUP1 DUP4 SLOAD DIV MUL DUP4 MSTORE SWAP2 PUSH1 0x20 ADD SWAP2 PUSH2 0xB21 JUMP JUMPDEST DUP3 ADD SWAP2 SWAP1 PUSH0 MSTORE PUSH1 0x20 PUSH0 KECCAK256 SWAP1 JUMPDEST DUP2 SLOAD DUP2 MSTORE SWAP1 PUSH1 0x1 ADD SWAP1 PUSH1 0x20 ADD DUP1 DUP4 GT PUSH2 0xB04 JUMPI DUP3 SWAP1 SUB PUSH1 0x1F AND DUP3 ADD SWAP2 JUMPDEST POP POP POP POP POP SWAP1 POP DUP5 JUMP JUMPDEST PUSH0 DUP1 SLOAD SWAP1 PUSH2 0x100 EXP SWAP1 DIV PUSH20 0xFFFFFFFFFFFFFFFFFFFFFFFFFFFFFFFFFFFFFFFF AND PUSH20 0xFFFFFFFFFFFFFFFFFFFFFFFFFFFFFFFFFFFFFFFF AND CALLER PUSH20 0xFFFFFFFFFFFFFFFFFFFFFFFFFFFFFFFFFFFFFFFF AND EQ PUSH2 0xB81 JUMPI PUSH0 DUP1 REVERT JUMPDEST PUSH1 0x3 PUSH0 DUP2 SLOAD DUP1 SWAP3 SWAP2 SWAP1 PUSH2 0xB93 SWAP1 PUSH2 0x2168 JUMP JUMPDEST SWAP2 SWAP1 POP SSTORE POP PUSH1 0x40 MLOAD DUP1 PUSH1 0x80 ADD PUSH1 0x40 MSTORE DUP1 DUP5 PUSH20 0xFFFFFFFFFFFFFFFFFFFFFFFFFFFFFFFFFFFFFFFF AND DUP2 MSTORE PUSH1 0x20 ADD PUSH1 0x3 SLOAD DUP2 MSTORE PUSH1 0x20 ADD DUP4 DUP2 MSTORE PUSH1 0x20 ADD DUP3 DUP2 MSTORE POP PUSH1 0x8 PUSH0 PUSH1 0x3 SLOAD DUP2 MSTORE PUSH1 0x20 ADD SWAP1 DUP2 MSTORE PUSH1 0x20 ADD PUSH0 KECCAK256 PUSH0 DUP3 ADD MLOAD DUP2 PUSH0 ADD PUSH0 PUSH2 0x100 EXP DUP2 SLOAD DUP2 PUSH20 0xFFFFFFFFFFFFFFFFFFFFFFFFFFFFFFFFFFFFFFFF MUL NOT AND SWAP1 DUP4 PUSH20 0xFFFFFFFFFFFFFFFFFFFFFFFFFFFFFFFFFFFFFFFF AND MUL OR SWAP1 SSTORE POP PUSH1 0x20 DUP3 ADD MLOAD DUP2 PUSH1 0x1 ADD SSTORE PUSH1 0x40 DUP3 ADD MLOAD DUP2 PUSH1 0x2 ADD SWAP1 DUP2 PUSH2 0xC47 SWAP2 SWAP1 PUSH2 0x23A9 JUMP JUMPDEST POP PUSH1 0x60 DUP3 ADD MLOAD DUP2 PUSH1 0x3 ADD SWAP1 DUP2 PUSH2 0xC5D SWAP2 SWAP1 PUSH2 0x23A9 JUMP JUMPDEST POP SWAP1 POP POP POP POP POP JUMP JUMPDEST PUSH1 0x5 SLOAD DUP2 JUMP JUMPDEST PUSH0 DUP1 SLOAD SWAP1 PUSH2 0x100 EXP SWAP1 DIV PUSH20 0xFFFFFFFFFFFFFFFFFFFFFFFFFFFFFFFFFFFFFFFF AND PUSH20 0xFFFFFFFFFFFFFFFFFFFFFFFFFFFFFFFFFFFFFFFF AND CALLER PUSH20 0xFFFFFFFFFFFFFFFFFFFFFFFFFFFFFFFFFFFFFFFF AND EQ PUSH2 0xCC2 JUMPI PUSH0 DUP1 REVERT JUMPDEST PUSH1 0x5 PUSH0 DUP2 SLOAD DUP1 SWAP3 SWAP2 SWAP1 PUSH2 0xCD4 SWAP1 PUSH2 0x2168 JUMP JUMPDEST SWAP2 SWAP1 POP SSTORE POP PUSH1 0x40 MLOAD DUP1 PUSH1 0x80 ADD PUSH1 0x40 MSTORE DUP1 DUP5 PUSH20 0xFFFFFFFFFFFFFFFFFFFFFFFFFFFFFFFFFFFFFFFF AND DUP2 MSTORE PUSH1 0x20 ADD PUSH1 0x5 SLOAD DUP2 MSTORE PUSH1 0x20 ADD DUP4 DUP2 MSTORE PUSH1 0x20 ADD DUP3 DUP2 MSTORE POP PUSH1 0xA PUSH0 PUSH1 0x5 SLOAD DUP2 MSTORE PUSH1 0x20 ADD SWAP1 DUP2 MSTORE PUSH1 0x20 ADD PUSH0 KECCAK256 PUSH0 DUP3 ADD MLOAD DUP2 PUSH0 ADD PUSH0 PUSH2 0x100 EXP DUP2 SLOAD DUP2 PUSH20 0xFFFFFFFFFFFFFFFFFFFFFFFFFFFFFFFFFFFFFFFF MUL NOT AND SWAP1 DUP4 PUSH20 0xFFFFFFFFFFFFFFFFFFFFFFFFFFFFFFFFFFFFFFFF AND MUL OR SWAP1 SSTORE POP PUSH1 0x20 DUP3 ADD MLOAD DUP2 PUSH1 0x1 ADD SSTORE PUSH1 0x40 DUP3 ADD MLOAD DUP2 PUSH1 0x2 ADD SWAP1 DUP2 PUSH2 0xD88 SWAP2 SWAP1 PUSH2 0x23A9 JUMP JUMPDEST POP PUSH1 0x60 DUP3 ADD MLOAD DUP2 PUSH1 0x3 ADD SWAP1 DUP2 PUSH2 0xD9E SWAP2 SWAP1 PUSH2 0x23A9 JUMP JUMPDEST POP SWAP1 POP POP POP POP POP JUMP JUMPDEST PUSH0 DUP2 GT DUP1 ISZERO PUSH2 0xDB8 JUMPI POP PUSH1 0x1 SLOAD DUP2 GT ISZERO JUMPDEST PUSH2 0xDC0 JUMPI PUSH0 DUP1 REVERT JUMPDEST PUSH0 PUSH2 0xDCA CALLER PUSH2 0x1AA2 JUMP JUMPDEST SWAP1 POP PUSH0 DUP2 GT PUSH2 0xDD7 JUMPI PUSH0 DUP1 REVERT JUMPDEST PUSH0 PUSH1 0x5 DUP2 GT ISZERO PUSH2 0xDEA JUMPI PUSH2 0xDE9 PUSH2 0x1F8F JUMP JUMPDEST JUMPDEST PUSH1 0x6 PUSH0 DUP5 DUP2 MSTORE PUSH1 0x20 ADD SWAP1 DUP2 MSTORE PUSH1 0x20 ADD PUSH0 KECCAK256 PUSH1 0x7 ADD PUSH0 SWAP1 SLOAD SWAP1 PUSH2 0x100 EXP SWAP1 DIV PUSH1 0xFF AND PUSH1 0x5 DUP2 GT ISZERO PUSH2 0xE1D JUMPI PUSH2 0xE1C PUSH2 0x1F8F JUMP JUMPDEST JUMPDEST EQ PUSH2 0xE26 JUMPI PUSH0 DUP1 REVERT JUMPDEST DUP1 PUSH1 0x6 PUSH0 DUP5 DUP2 MSTORE PUSH1 0x20 ADD SWAP1 DUP2 MSTORE PUSH1 0x20 ADD PUSH0 KECCAK256 PUSH1 0x3 ADD DUP2 SWAP1 SSTORE POP PUSH1 0x1 PUSH1 0x6 PUSH0 DUP5 DUP2 MSTORE PUSH1 0x20 ADD SWAP1 DUP2 MSTORE PUSH1 0x20 ADD PUSH0 KECCAK256 PUSH1 0x7 ADD PUSH0 PUSH2 0x100 EXP DUP2 SLOAD DUP2 PUSH1 0xFF MUL NOT AND SWAP1 DUP4 PUSH1 0x5 DUP2 GT ISZERO PUSH2 0xE76 JUMPI PUSH2 0xE75 PUSH2 0x1F8F JUMP JUMPDEST JUMPDEST MUL OR SWAP1 SSTORE POP POP POP JUMP JUMPDEST PUSH1 0x6 PUSH1 0x20 MSTORE DUP1 PUSH0 MSTORE PUSH1 0x40 PUSH0 KECCAK256 PUSH0 SWAP2 POP SWAP1 POP DUP1 PUSH0 ADD SLOAD SWAP1 DUP1 PUSH1 0x1 ADD DUP1 SLOAD PUSH2 0xEA4 SWAP1 PUSH2 0x21DC JUMP JUMPDEST DUP1 PUSH1 0x1F ADD PUSH1 0x20 DUP1 SWAP2 DIV MUL PUSH1 0x20 ADD PUSH1 0x40 MLOAD SWAP1 DUP2 ADD PUSH1 0x40 MSTORE DUP1 SWAP3 SWAP2 SWAP1 DUP2 DUP2 MSTORE PUSH1 0x20 ADD DUP3 DUP1 SLOAD PUSH2 0xED0 SWAP1 PUSH2 0x21DC JUMP JUMPDEST DUP1 ISZERO PUSH2 0xF1B JUMPI DUP1 PUSH1 0x1F LT PUSH2 0xEF2 JUMPI PUSH2 0x100 DUP1 DUP4 SLOAD DIV MUL DUP4 MSTORE SWAP2 PUSH1 0x20 ADD SWAP2 PUSH2 0xF1B JUMP JUMPDEST DUP3 ADD SWAP2 SWAP1 PUSH0 MSTORE PUSH1 0x20 PUSH0 KECCAK256 SWAP1 JUMPDEST DUP2 SLOAD DUP2 MSTORE SWAP1 PUSH1 0x1 ADD SWAP1 PUSH1 0x20 ADD DUP1 DUP4 GT PUSH2 0xEFE JUMPI DUP3 SWAP1 SUB PUSH1 0x1F AND DUP3 ADD SWAP2 JUMPDEST POP POP POP POP POP SWAP1 DUP1 PUSH1 0x2 ADD DUP1 SLOAD PUSH2 0xF30 SWAP1 PUSH2 0x21DC JUMP JUMPDEST DUP1 PUSH1 0x1F ADD PUSH1 0x20 DUP1 SWAP2 DIV MUL PUSH1 0x20 ADD PUSH1 0x40 MLOAD SWAP1 DUP2 ADD PUSH1 0x40 MSTORE DUP1 SWAP3 SWAP2 SWAP1 DUP2 DUP2 MSTORE PUSH1 0x20 ADD DUP3 DUP1 SLOAD PUSH2 0xF5C SWAP1 PUSH2 0x21DC JUMP JUMPDEST DUP1 ISZERO PUSH2 0xFA7 JUMPI DUP1 PUSH1 0x1F LT PUSH2 0xF7E JUMPI PUSH2 0x100 DUP1 DUP4 SLOAD DIV MUL DUP4 MSTORE SWAP2 PUSH1 0x20 ADD SWAP2 PUSH2 0xFA7 JUMP JUMPDEST DUP3 ADD SWAP2 SWAP1 PUSH0 MSTORE PUSH1 0x20 PUSH0 KECCAK256 SWAP1 JUMPDEST DUP2 SLOAD DUP2 MSTORE SWAP1 PUSH1 0x1 ADD SWAP1 PUSH1 0x20 ADD DUP1 DUP4 GT PUSH2 0xF8A JUMPI DUP3 SWAP1 SUB PUSH1 0x1F AND DUP3 ADD SWAP2 JUMPDEST POP POP POP POP POP SWAP1 DUP1 PUSH1 0x3 ADD SLOAD SWAP1 DUP1 PUSH1 0x4 ADD SLOAD SWAP1 DUP1 PUSH1 0x5 ADD SLOAD SWAP1 DUP1 PUSH1 0x6 ADD SLOAD SWAP1 DUP1 PUSH1 0x7 ADD PUSH0 SWAP1 SLOAD SWAP1 PUSH2 0x100 EXP SWAP1 DIV PUSH1 0xFF AND SWAP1 POP DUP9 JUMP JUMPDEST PUSH0 DUP2 GT DUP1 ISZERO PUSH2 0xFEC JUMPI POP PUSH1 0x1 SLOAD DUP2 GT ISZERO JUMPDEST PUSH2 0xFF4 JUMPI PUSH0 DUP1 REVERT JUMPDEST PUSH0 PUSH2 0xFFE CALLER PUSH2 0x192A JUMP JUMPDEST SWAP1 POP PUSH0 DUP2 GT PUSH2 0x100B JUMPI PUSH0 DUP1 REVERT JUMPDEST PUSH1 0x6 PUSH0 DUP4 DUP2 MSTORE PUSH1 0x20 ADD SWAP1 DUP2 MSTORE PUSH1 0x20 ADD PUSH0 KECCAK256 PUSH1 0x6 ADD SLOAD DUP2 EQ PUSH2 0x102A JUMPI PUSH0 DUP1 REVERT JUMPDEST PUSH1 0x4 PUSH1 0x5 DUP2 GT ISZERO PUSH2 0x103E JUMPI PUSH2 0x103D PUSH2 0x1F8F JUMP JUMPDEST JUMPDEST PUSH1 0x6 PUSH0 DUP5 DUP2 MSTORE PUSH1 0x20 ADD SWAP1 DUP2 MSTORE PUSH1 0x20 ADD PUSH0 KECCAK256 PUSH1 0x7 ADD PUSH0 SWAP1 SLOAD SWAP1 PUSH2 0x100 EXP SWAP1 DIV PUSH1 0xFF AND PUSH1 0x5 DUP2 GT ISZERO PUSH2 0x1071 JUMPI PUSH2 0x1070 PUSH2 0x1F8F JUMP JUMPDEST JUMPDEST EQ PUSH2 0x107A JUMPI PUSH0 DUP1 REVERT JUMPDEST PUSH1 0x5 PUSH1 0x6 PUSH0 DUP5 DUP2 MSTORE PUSH1 0x20 ADD SWAP1 DUP2 MSTORE PUSH1 0x20 ADD PUSH0 KECCAK256 PUSH1 0x7 ADD PUSH0 PUSH2 0x100 EXP DUP2 SLOAD DUP2 PUSH1 0xFF MUL NOT AND SWAP1 DUP4 PUSH1 0x5 DUP2 GT ISZERO PUSH2 0x10B1 JUMPI PUSH2 0x10B0 PUSH2 0x1F8F JUMP JUMPDEST JUMPDEST MUL OR SWAP1 SSTORE POP POP POP JUMP JUMPDEST PUSH0 DUP2 GT DUP1 ISZERO PUSH2 0x10CB JUMPI POP PUSH1 0x1 SLOAD DUP2 GT ISZERO JUMPDEST PUSH2 0x10D3 JUMPI PUSH0 DUP1 REVERT JUMPDEST PUSH0 PUSH2 0x10DD CALLER PUSH2 0x1B5E JUMP JUMPDEST SWAP1 POP PUSH0 DUP2 GT PUSH2 0x10EA JUMPI PUSH0 DUP1 REVERT JUMPDEST PUSH1 0x1 PUSH1 0x5 DUP2 GT ISZERO PUSH2 0x10FE JUMPI PUSH2 0x10FD PUSH2 0x1F8F JUMP JUMPDEST JUMPDEST PUSH1 0x6 PUSH0 DUP5 DUP2 MSTORE PUSH1 0x20 ADD SWAP1 DUP2 MSTORE PUSH1 0x20 ADD PUSH0 KECCAK256 PUSH1 0x7 ADD PUSH0 SWAP1 SLOAD SWAP1 PUSH2 0x100 EXP SWAP1 DIV PUSH1 0xFF AND PUSH1 0x5 DUP2 GT ISZERO PUSH2 0x1131 JUMPI PUSH2 0x1130 PUSH2 0x1F8F JUMP JUMPDEST JUMPDEST EQ PUSH2 0x113A JUMPI PUSH0 DUP1 REVERT JUMPDEST DUP1 PUSH1 0x6 PUSH0 DUP5 DUP2 MSTORE PUSH1 0x20 ADD SWAP1 DUP2 MSTORE PUSH1 0x20 ADD PUSH0 KECCAK256 PUSH1 0x4 ADD DUP2 SWAP1 SSTORE POP PUSH1 0x2 PUSH1 0x6 PUSH0 DUP5 DUP2 MSTORE PUSH1 0x20 ADD SWAP1 DUP2 MSTORE PUSH1 0x20 ADD PUSH0 KECCAK256 PUSH1 0x7 ADD PUSH0 PUSH2 0x100 EXP DUP2 SLOAD DUP2 PUSH1 0xFF MUL NOT AND SWAP1 DUP4 PUSH1 0x5 DUP2 GT ISZERO PUSH2 0x118A JUMPI PUSH2 0x1189 PUSH2 0x1F8F JUMP JUMPDEST JUMPDEST MUL OR SWAP1 SSTORE POP POP POP JUMP JUMPDEST PUSH0 DUP1 SLOAD SWAP1 PUSH2 0x100 EXP SWAP1 DIV PUSH20 0xFFFFFFFFFFFFFFFFFFFFFFFFFFFFFFFFFFFFFFFF AND DUP2 JUMP JUMPDEST PUSH0 DUP1 SLOAD SWAP1 PUSH2 0x100 EXP SWAP1 DIV PUSH20 0xFFFFFFFFFFFFFFFFFFFFFFFFFFFFFFFFFFFFFFFF AND PUSH20 0xFFFFFFFFFFFFFFFFFFFFFFFFFFFFFFFFFFFFFFFF AND CALLER PUSH20 0xFFFFFFFFFFFFFFFFFFFFFFFFFFFFFFFFFFFFFFFF AND EQ PUSH2 0x120C JUMPI PUSH0 DUP1 REVERT JUMPDEST PUSH0 PUSH1 0x2 SLOAD GT DUP1 ISZERO PUSH2 0x121E JUMPI POP PUSH0 PUSH1 0x3 SLOAD GT JUMPDEST DUP1 ISZERO PUSH2 0x122B JUMPI POP PUSH0 PUSH1 0x4 SLOAD GT JUMPDEST DUP1 ISZERO PUSH2 0x1238 JUMPI POP PUSH0 PUSH1 0x5 SLOAD GT JUMPDEST PUSH2 0x1240 JUMPI PUSH0 DUP1 REVERT JUMPDEST PUSH1 0x1 PUSH0 DUP2 SLOAD DUP1 SWAP3 SWAP2 SWAP1 PUSH2 0x1252 SWAP1 PUSH2 0x2168 JUMP JUMPDEST SWAP2 SWAP1 POP SSTORE POP PUSH1 0x40 MLOAD DUP1 PUSH2 0x100 ADD PUSH1 0x40 MSTORE DUP1 PUSH1 0x1 SLOAD DUP2 MSTORE PUSH1 0x20 ADD DUP4 DUP2 MSTORE PUSH1 0x20 ADD DUP3 DUP2 MSTORE PUSH1 0x20 ADD PUSH0 DUP2 MSTORE PUSH1 0x20 ADD PUSH0 DUP2 MSTORE PUSH1 0x20 ADD PUSH0 DUP2 MSTORE PUSH1 0x20 ADD PUSH0 DUP2 MSTORE PUSH1 0x20 ADD PUSH0 PUSH1 0x5 DUP2 GT ISZERO PUSH2 0x12A2 JUMPI PUSH2 0x12A1 PUSH2 0x1F8F JUMP JUMPDEST JUMPDEST DUP2 MSTORE POP PUSH1 0x6 PUSH0 PUSH1 0x1 SLOAD DUP2 MSTORE PUSH1 0x20 ADD SWAP1 DUP2 MSTORE PUSH1 0x20 ADD PUSH0 KECCAK256 PUSH0 DUP3 ADD MLOAD DUP2 PUSH0 ADD SSTORE PUSH1 0x20 DUP3 ADD MLOAD DUP2 PUSH1 0x1 ADD SWAP1 DUP2 PUSH2 0x12D5 SWAP2 SWAP1 PUSH2 0x23A9 JUMP JUMPDEST POP PUSH1 0x40 DUP3 ADD MLOAD DUP2 PUSH1 0x2 ADD SWAP1 DUP2 PUSH2 0x12EB SWAP2 SWAP1 PUSH2 0x23A9 JUMP JUMPDEST POP PUSH1 0x60 DUP3 ADD MLOAD DUP2 PUSH1 0x3 ADD SSTORE PUSH1 0x80 DUP3 ADD MLOAD DUP2 PUSH1 0x4 ADD SSTORE PUSH1 0xA0 DUP3 ADD MLOAD DUP2 PUSH1 0x5 ADD SSTORE PUSH1 0xC0 DUP3 ADD MLOAD DUP2 PUSH1 0x6 ADD SSTORE PUSH1 0xE0 DUP3 ADD MLOAD DUP2 PUSH1 0x7 ADD PUSH0 PUSH2 0x100 EXP DUP2 SLOAD DUP2 PUSH1 0xFF MUL NOT AND SWAP1 DUP4 PUSH1 0x5 DUP2 GT ISZERO PUSH2 0x133E JUMPI PUSH2 0x133D PUSH2 0x1F8F JUMP JUMPDEST JUMPDEST MUL OR SWAP1 SSTORE POP SWAP1 POP POP POP POP JUMP JUMPDEST PUSH1 0x8 PUSH1 0x20 MSTORE DUP1 PUSH0 MSTORE PUSH1 0x40 PUSH0 KECCAK256 PUSH0 SWAP2 POP SWAP1 POP DUP1 PUSH0 ADD PUSH0 SWAP1 SLOAD SWAP1 PUSH2 0x100 EXP SWAP1 DIV PUSH20 0xFFFFFFFFFFFFFFFFFFFFFFFFFFFFFFFFFFFFFFFF AND SWAP1 DUP1 PUSH1 0x1 ADD SLOAD SWAP1 DUP1 PUSH1 0x2 ADD DUP1 SLOAD PUSH2 0x1394 SWAP1 PUSH2 0x21DC JUMP JUMPDEST DUP1 PUSH1 0x1F ADD PUSH1 0x20 DUP1 SWAP2 DIV MUL PUSH1 0x20 ADD PUSH1 0x40 MLOAD SWAP1 DUP2 ADD PUSH1 0x40 MSTORE DUP1 SWAP3 SWAP2 SWAP1 DUP2 DUP2 MSTORE PUSH1 0x20 ADD DUP3 DUP1 SLOAD PUSH2 0x13C0 SWAP1 PUSH2 0x21DC JUMP JUMPDEST DUP1 ISZERO PUSH2 0x140B JUMPI DUP1 PUSH1 0x1F LT PUSH2 0x13E2 JUMPI PUSH2 0x100 DUP1 DUP4 SLOAD DIV MUL DUP4 MSTORE SWAP2 PUSH1 0x20 ADD SWAP2 PUSH2 0x140B JUMP JUMPDEST DUP3 ADD SWAP2 SWAP1 PUSH0 MSTORE PUSH1 0x20 PUSH0 KECCAK256 SWAP1 JUMPDEST DUP2 SLOAD DUP2 MSTORE SWAP1 PUSH1 0x1 ADD SWAP1 PUSH1 0x20 ADD DUP1 DUP4 GT PUSH2 0x13EE JUMPI DUP3 SWAP1 SUB PUSH1 0x1F AND DUP3 ADD SWAP2 JUMPDEST POP POP POP POP POP SWAP1 DUP1 PUSH1 0x3 ADD DUP1 SLOAD PUSH2 0x1420 SWAP1 PUSH2 0x21DC JUMP JUMPDEST DUP1 PUSH1 0x1F ADD PUSH1 0x20 DUP1 SWAP2 DIV MUL PUSH1 0x20 ADD PUSH1 0x40 MLOAD SWAP1 DUP2 ADD PUSH1 0x40 MSTORE DUP1 SWAP3 SWAP2 SWAP1 DUP2 DUP2 MSTORE PUSH1 0x20 ADD DUP3 DUP1 SLOAD PUSH2 0x144C SWAP1 PUSH2 0x21DC JUMP JUMPDEST DUP1 ISZERO PUSH2 0x1497 JUMPI DUP1 PUSH1 0x1F LT PUSH2 0x146E JUMPI PUSH2 0x100 DUP1 DUP4 SLOAD DIV MUL DUP4 MSTORE SWAP2 PUSH1 0x20 ADD SWAP2 PUSH2 0x1497 JUMP JUMPDEST DUP3 ADD SWAP2 SWAP1 PUSH0 MSTORE PUSH1 0x20 PUSH0 KECCAK256 SWAP1 JUMPDEST DUP2 SLOAD DUP2 MSTORE SWAP1 PUSH1 0x1 ADD SWAP1 PUSH1 0x20 ADD DUP1 DUP4 GT PUSH2 0x147A JUMPI DUP3 SWAP1 SUB PUSH1 0x1F AND DUP3 ADD SWAP2 JUMPDEST POP POP POP POP POP SWAP1 POP DUP5 JUMP JUMPDEST PUSH1 0x2 SLOAD DUP2 JUMP JUMPDEST PUSH1 0x60 PUSH0 PUSH1 0x1 SLOAD GT PUSH2 0x14B6 JUMPI PUSH0 DUP1 REVERT JUMPDEST PUSH0 PUSH1 0x5 DUP2 GT ISZERO PUSH2 0x14C9 JUMPI PUSH2 0x14C8 PUSH2 0x1F8F JUMP JUMPDEST JUMPDEST PUSH1 0x6 PUSH0 DUP5 DUP2 MSTORE PUSH1 0x20 ADD SWAP1 DUP2 MSTORE PUSH1 0x20 ADD PUSH0 KECCAK256 PUSH1 0x7 ADD PUSH0 SWAP1 SLOAD SWAP1 PUSH2 0x100 EXP SWAP1 DIV PUSH1 0xFF AND PUSH1 0x5 DUP2 GT ISZERO PUSH2 0x14FC JUMPI PUSH2 0x14FB PUSH2 0x1F8F JUMP JUMPDEST JUMPDEST SUB PUSH2 0x1521 JUMPI PUSH1 0x40 MLOAD DUP1 PUSH1 0x60 ADD PUSH1 0x40 MSTORE DUP1 PUSH1 0x22 DUP2 MSTORE PUSH1 0x20 ADD PUSH2 0x2479 PUSH1 0x22 SWAP2 CODECOPY SWAP1 POP PUSH2 0x17CE JUMP JUMPDEST PUSH1 0x1 PUSH1 0x5 DUP2 GT ISZERO PUSH2 0x1535 JUMPI PUSH2 0x1534 PUSH2 0x1F8F JUMP JUMPDEST JUMPDEST PUSH1 0x6 PUSH0 DUP5 DUP2 MSTORE PUSH1 0x20 ADD SWAP1 DUP2 MSTORE PUSH1 0x20 ADD PUSH0 KECCAK256 PUSH1 0x7 ADD PUSH0 SWAP1 SLOAD SWAP1 PUSH2 0x100 EXP SWAP1 DIV PUSH1 0xFF AND PUSH1 0x5 DUP2 GT ISZERO PUSH2 0x1568 JUMPI PUSH2 0x1567 PUSH2 0x1F8F JUMP JUMPDEST JUMPDEST SUB PUSH2 0x15AA JUMPI PUSH1 0x40 MLOAD DUP1 PUSH1 0x40 ADD PUSH1 0x40 MSTORE DUP1 PUSH1 0x19 DUP2 MSTORE PUSH1 0x20 ADD PUSH32 0x526177204D6174657269616C20537570706C7920537461676500000000000000 DUP2 MSTORE POP SWAP1 POP PUSH2 0x17CE JUMP JUMPDEST PUSH1 0x2 PUSH1 0x5 DUP2 GT ISZERO PUSH2 0x15BE JUMPI PUSH2 0x15BD PUSH2 0x1F8F JUMP JUMPDEST JUMPDEST PUSH1 0x6 PUSH0 DUP5 DUP2 MSTORE PUSH1 0x20 ADD SWAP1 DUP2 MSTORE PUSH1 0x20 ADD PUSH0 KECCAK256 PUSH1 0x7 ADD PUSH0 SWAP1 SLOAD SWAP1 PUSH2 0x100 EXP SWAP1 DIV PUSH1 0xFF AND PUSH1 0x5 DUP2 GT ISZERO PUSH2 0x15F1 JUMPI PUSH2 0x15F0 PUSH2 0x1F8F JUMP JUMPDEST JUMPDEST SUB PUSH2 0x1633 JUMPI PUSH1 0x40 MLOAD DUP1 PUSH1 0x40 ADD PUSH1 0x40 MSTORE DUP1 PUSH1 0x13 DUP2 MSTORE PUSH1 0x20 ADD PUSH32 0x4D616E75666163747572696E6720537461676500000000000000000000000000 DUP2 MSTORE POP SWAP1 POP PUSH2 0x17CE JUMP JUMPDEST PUSH1 0x3 PUSH1 0x5 DUP2 GT ISZERO PUSH2 0x1647 JUMPI PUSH2 0x1646 PUSH2 0x1F8F JUMP JUMPDEST JUMPDEST PUSH1 0x6 PUSH0 DUP5 DUP2 MSTORE PUSH1 0x20 ADD SWAP1 DUP2 MSTORE PUSH1 0x20 ADD PUSH0 KECCAK256 PUSH1 0x7 ADD PUSH0 SWAP1 SLOAD SWAP1 PUSH2 0x100 EXP SWAP1 DIV PUSH1 0xFF AND PUSH1 0x5 DUP2 GT ISZERO PUSH2 0x167A JUMPI PUSH2 0x1679 PUSH2 0x1F8F JUMP JUMPDEST JUMPDEST SUB PUSH2 0x16BC JUMPI PUSH1 0x40 MLOAD DUP1 PUSH1 0x40 ADD PUSH1 0x40 MSTORE DUP1 PUSH1 0x12 DUP2 MSTORE PUSH1 0x20 ADD PUSH32 0x446973747269627574696F6E2053746167650000000000000000000000000000 DUP2 MSTORE POP SWAP1 POP PUSH2 0x17CE JUMP JUMPDEST PUSH1 0x4 PUSH1 0x5 DUP2 GT ISZERO PUSH2 0x16D0 JUMPI PUSH2 0x16CF PUSH2 0x1F8F JUMP JUMPDEST JUMPDEST PUSH1 0x6 PUSH0 DUP5 DUP2 MSTORE PUSH1 0x20 ADD SWAP1 DUP2 MSTORE PUSH1 0x20 ADD PUSH0 KECCAK256 PUSH1 0x7 ADD PUSH0 SWAP1 SLOAD SWAP1 PUSH2 0x100 EXP SWAP1 DIV PUSH1 0xFF AND PUSH1 0x5 DUP2 GT ISZERO PUSH2 0x1703 JUMPI PUSH2 0x1702 PUSH2 0x1F8F JUMP JUMPDEST JUMPDEST SUB PUSH2 0x1745 JUMPI PUSH1 0x40 MLOAD DUP1 PUSH1 0x40 ADD PUSH1 0x40 MSTORE DUP1 PUSH1 0xC DUP2 MSTORE PUSH1 0x20 ADD PUSH32 0x52657461696C2053746167650000000000000000000000000000000000000000 DUP2 MSTORE POP SWAP1 POP PUSH2 0x17CE JUMP JUMPDEST PUSH1 0x5 DUP1 DUP2 GT ISZERO PUSH2 0x1758 JUMPI PUSH2 0x1757 PUSH2 0x1F8F JUMP JUMPDEST JUMPDEST PUSH1 0x6 PUSH0 DUP5 DUP2 MSTORE PUSH1 0x20 ADD SWAP1 DUP2 MSTORE PUSH1 0x20 ADD PUSH0 KECCAK256 PUSH1 0x7 ADD PUSH0 SWAP1 SLOAD SWAP1 PUSH2 0x100 EXP SWAP1 DIV PUSH1 0xFF AND PUSH1 0x5 DUP2 GT ISZERO PUSH2 0x178B JUMPI PUSH2 0x178A PUSH2 0x1F8F JUMP JUMPDEST JUMPDEST SUB PUSH2 0x17CD JUMPI PUSH1 0x40 MLOAD DUP1 PUSH1 0x40 ADD PUSH1 0x40 MSTORE DUP1 PUSH1 0x1F DUP2 MSTORE PUSH1 0x20 ADD PUSH32 0x4167726963756C7475726520746F6F6C2F746563686E6971756520536F6C6400 DUP2 MSTORE POP SWAP1 POP PUSH2 0x17CE JUMP JUMPDEST JUMPDEST SWAP2 SWAP1 POP JUMP JUMPDEST PUSH1 0x7 PUSH1 0x20 MSTORE DUP1 PUSH0 MSTORE PUSH1 0x40 PUSH0 KECCAK256 PUSH0 SWAP2 POP SWAP1 POP DUP1 PUSH0 ADD PUSH0 SWAP1 SLOAD SWAP1 PUSH2 0x100 EXP SWAP1 DIV PUSH20 0xFFFFFFFFFFFFFFFFFFFFFFFFFFFFFFFFFFFFFFFF AND SWAP1 DUP1 PUSH1 0x1 ADD SLOAD SWAP1 DUP1 PUSH1 0x2 ADD DUP1 SLOAD PUSH2 0x181D SWAP1 PUSH2 0x21DC JUMP JUMPDEST DUP1 PUSH1 0x1F ADD PUSH1 0x20 DUP1 SWAP2 DIV MUL PUSH1 0x20 ADD PUSH1 0x40 MLOAD SWAP1 DUP2 ADD PUSH1 0x40 MSTORE DUP1 SWAP3 SWAP2 SWAP1 DUP2 DUP2 MSTORE PUSH1 0x20 ADD DUP3 DUP1 SLOAD PUSH2 0x1849 SWAP1 PUSH2 0x21DC JUMP JUMPDEST DUP1 ISZERO PUSH2 0x1894 JUMPI DUP1 PUSH1 0x1F LT PUSH2 0x186B JUMPI PUSH2 0x100 DUP1 DUP4 SLOAD DIV MUL DUP4 MSTORE SWAP2 PUSH1 0x20 ADD SWAP2 PUSH2 0x1894 JUMP JUMPDEST DUP3 ADD SWAP2 SWAP1 PUSH0 MSTORE PUSH1 0x20 PUSH0 KECCAK256 SWAP1 JUMPDEST DUP2 SLOAD DUP2 MSTORE SWAP1 PUSH1 0x1 ADD SWAP1 PUSH1 0x20 ADD DUP1 DUP4 GT PUSH2 0x1877 JUMPI DUP3 SWAP1 SUB PUSH1 0x1F AND DUP3 ADD SWAP2 JUMPDEST POP POP POP POP POP SWAP1 DUP1 PUSH1 0x3 ADD DUP1 SLOAD PUSH2 0x18A9 SWAP1 PUSH2 0x21DC JUMP JUMPDEST DUP1 PUSH1 0x1F ADD PUSH1 0x20 DUP1 SWAP2 DIV MUL PUSH1 0x20 ADD PUSH1 0x40 MLOAD SWAP1 DUP2 ADD PUSH1 0x40 MSTORE DUP1 SWAP3 SWAP2 SWAP1 DUP2 DUP2 MSTORE PUSH1 0x20 ADD DUP3 DUP1 SLOAD PUSH2 0x18D5 SWAP1 PUSH2 0x21DC JUMP JUMPDEST DUP1 ISZERO PUSH2 0x1920 JUMPI DUP1 PUSH1 0x1F LT PUSH2 0x18F7 JUMPI PUSH2 0x100 DUP1 DUP4 SLOAD DIV MUL DUP4 MSTORE SWAP2 PUSH1 0x20 ADD SWAP2 PUSH2 0x1920 JUMP JUMPDEST DUP3 ADD SWAP2 SWAP1 PUSH0 MSTORE PUSH1 0x20 PUSH0 KECCAK256 SWAP1 JUMPDEST DUP2 SLOAD DUP2 MSTORE SWAP1 PUSH1 0x1 ADD SWAP1 PUSH1 0x20 ADD DUP1 DUP4 GT PUSH2 0x1903 JUMPI DUP3 SWAP1 SUB PUSH1 0x1F AND DUP3 ADD SWAP2 JUMPDEST POP POP POP POP POP SWAP1 POP DUP5 JUMP JUMPDEST PUSH0 DUP1 PUSH1 0x5 SLOAD GT PUSH2 0x1938 JUMPI PUSH0 DUP1 REVERT JUMPDEST PUSH0 PUSH1 0x1 SWAP1 POP JUMPDEST PUSH1 0x5 SLOAD DUP2 GT PUSH2 0x19DC JUMPI DUP3 PUSH20 0xFFFFFFFFFFFFFFFFFFFFFFFFFFFFFFFFFFFFFFFF AND PUSH1 0xA PUSH0 DUP4 DUP2 MSTORE PUSH1 0x20 ADD SWAP1 DUP2 MSTORE PUSH1 0x20 ADD PUSH0 KECCAK256 PUSH0 ADD PUSH0 SWAP1 SLOAD SWAP1 PUSH2 0x100 EXP SWAP1 DIV PUSH20 0xFFFFFFFFFFFFFFFFFFFFFFFFFFFFFFFFFFFFFFFF AND PUSH20 0xFFFFFFFFFFFFFFFFFFFFFFFFFFFFFFFFFFFFFFFF AND SUB PUSH2 0x19C9 JUMPI PUSH1 0xA PUSH0 DUP3 DUP2 MSTORE PUSH1 0x20 ADD SWAP1 DUP2 MSTORE PUSH1 0x20 ADD PUSH0 KECCAK256 PUSH1 0x1 ADD SLOAD SWAP2 POP POP PUSH2 0x19E1 JUMP JUMPDEST DUP1 DUP1 PUSH2 0x19D4 SWAP1 PUSH2 0x2168 JUMP JUMPDEST SWAP2 POP POP PUSH2 0x193E JUMP JUMPDEST POP PUSH0 SWAP1 POP JUMPDEST SWAP2 SWAP1 POP JUMP JUMPDEST PUSH0 DUP1 PUSH1 0x4 SLOAD GT PUSH2 0x19F4 JUMPI PUSH0 DUP1 REVERT JUMPDEST PUSH0 PUSH1 0x1 SWAP1 POP JUMPDEST PUSH1 0x4 SLOAD DUP2 GT PUSH2 0x1A98 JUMPI DUP3 PUSH20 0xFFFFFFFFFFFFFFFFFFFFFFFFFFFFFFFFFFFFFFFF AND PUSH1 0x9 PUSH0 DUP4 DUP2 MSTORE PUSH1 0x20 ADD SWAP1 DUP2 MSTORE PUSH1 0x20 ADD PUSH0 KECCAK256 PUSH0 ADD PUSH0 SWAP1 SLOAD SWAP1 PUSH2 0x100 EXP SWAP1 DIV PUSH20 0xFFFFFFFFFFFFFFFFFFFFFFFFFFFFFFFFFFFFFFFF AND PUSH20 0xFFFFFFFFFFFFFFFFFFFFFFFFFFFFFFFFFFFFFFFF AND SUB PUSH2 0x1A85 JUMPI PUSH1 0x9 PUSH0 DUP3 DUP2 MSTORE PUSH1 0x20 ADD SWAP1 DUP2 MSTORE PUSH1 0x20 ADD PUSH0 KECCAK256 PUSH1 0x1 ADD SLOAD SWAP2 POP POP PUSH2 0x1A9D JUMP JUMPDEST DUP1 DUP1 PUSH2 0x1A90 SWAP1 PUSH2 0x2168 JUMP JUMPDEST SWAP2 POP POP PUSH2 0x19FA JUMP JUMPDEST POP PUSH0 SWAP1 POP JUMPDEST SWAP2 SWAP1 POP JUMP JUMPDEST PUSH0 DUP1 PUSH1 0x2 SLOAD GT PUSH2 0x1AB0 JUMPI PUSH0 DUP1 REVERT JUMPDEST PUSH0 PUSH1 0x1 SWAP1 POP JUMPDEST PUSH1 0x2 SLOAD DUP2 GT PUSH2 0x1B54 JUMPI DUP3 PUSH20 0xFFFFFFFFFFFFFFFFFFFFFFFFFFFFFFFFFFFFFFFF AND PUSH1 0x7 PUSH0 DUP4 DUP2 MSTORE PUSH1 0x20 ADD SWAP1 DUP2 MSTORE PUSH1 0x20 ADD PUSH0 KECCAK256 PUSH0 ADD PUSH0 SWAP1 SLOAD SWAP1 PUSH2 0x100 EXP SWAP1 DIV PUSH20 0xFFFFFFFFFFFFFFFFFFFFFFFFFFFFFFFFFFFFFFFF AND PUSH20 0xFFFFFFFFFFFFFFFFFFFFFFFFFFFFFFFFFFFFFFFF AND SUB PUSH2 0x1B41 JUMPI PUSH1 0x7 PUSH0 DUP3 DUP2 MSTORE PUSH1 0x20 ADD SWAP1 DUP2 MSTORE PUSH1 0x20 ADD PUSH0 KECCAK256 PUSH1 0x1 ADD SLOAD SWAP2 POP POP PUSH2 0x1B59 JUMP JUMPDEST DUP1 DUP1 PUSH2 0x1B4C SWAP1 PUSH2 0x2168 JUMP JUMPDEST SWAP2 POP POP PUSH2 0x1AB6 JUMP JUMPDEST POP PUSH0 SWAP1 POP JUMPDEST SWAP2 SWAP1 POP JUMP JUMPDEST PUSH0 DUP1 PUSH1 0x3 SLOAD GT PUSH2 0x1B6C JUMPI PUSH0 DUP1 REVERT JUMPDEST PUSH0 PUSH1 0x1 SWAP1 POP JUMPDEST PUSH1 0x3 SLOAD DUP2 GT PUSH2 0x1C10 JUMPI DUP3 PUSH20 0xFFFFFFFFFFFFFFFFFFFFFFFFFFFFFFFFFFFFFFFF AND PUSH1 0x8 PUSH0 DUP4 DUP2 MSTORE PUSH1 0x20 ADD SWAP1 DUP2 MSTORE PUSH1 0x20 ADD PUSH0 KECCAK256 PUSH0 ADD PUSH0 SWAP1 SLOAD SWAP1 PUSH2 0x100 EXP SWAP1 DIV PUSH20 0xFFFFFFFFFFFFFFFFFFFFFFFFFFFFFFFFFFFFFFFF AND PUSH20 0xFFFFFFFFFFFFFFFFFFFFFFFFFFFFFFFFFFFFFFFF AND SUB PUSH2 0x1BFD JUMPI PUSH1 0x8 PUSH0 DUP3 DUP2 MSTORE PUSH1 0x20 ADD SWAP1 DUP2 MSTORE PUSH1 0x20 ADD PUSH0 KECCAK256 PUSH1 0x1 ADD SLOAD SWAP2 POP POP PUSH2 0x1C15 JUMP JUMPDEST DUP1 DUP1 PUSH2 0x1C08 SWAP1 PUSH2 0x2168 JUMP JUMPDEST SWAP2 POP POP PUSH2 0x1B72 JUMP JUMPDEST POP PUSH0 SWAP1 POP JUMPDEST SWAP2 SWAP1 POP JUMP JUMPDEST PUSH0 DUP2 SWAP1 POP SWAP2 SWAP1 POP JUMP JUMPDEST PUSH2 0x1C2C DUP2 PUSH2 0x1C1A JUMP JUMPDEST DUP3 MSTORE POP POP JUMP JUMPDEST PUSH0 PUSH1 0x20 DUP3 ADD SWAP1 POP PUSH2 0x1C45 PUSH0 DUP4 ADD DUP5 PUSH2 0x1C23 JUMP JUMPDEST SWAP3 SWAP2 POP POP JUMP JUMPDEST PUSH0 PUSH1 0x40 MLOAD SWAP1 POP SWAP1 JUMP JUMPDEST PUSH0 DUP1 REVERT JUMPDEST PUSH0 DUP1 REVERT JUMPDEST PUSH0 PUSH20 0xFFFFFFFFFFFFFFFFFFFFFFFFFFFFFFFFFFFFFFFF DUP3 AND SWAP1 POP SWAP2 SWAP1 POP JUMP JUMPDEST PUSH0 PUSH2 0x1C85 DUP3 PUSH2 0x1C5C JUMP JUMPDEST SWAP1 POP SWAP2 SWAP1 POP JUMP JUMPDEST PUSH2 0x1C95 DUP2 PUSH2 0x1C7B JUMP JUMPDEST DUP2 EQ PUSH2 0x1C9F JUMPI PUSH0 DUP1 REVERT JUMPDEST POP JUMP JUMPDEST PUSH0 DUP2 CALLDATALOAD SWAP1 POP PUSH2 0x1CB0 DUP2 PUSH2 0x1C8C JUMP JUMPDEST SWAP3 SWAP2 POP POP JUMP JUMPDEST PUSH0 DUP1 REVERT JUMPDEST PUSH0 DUP1 REVERT JUMPDEST PUSH0 PUSH1 0x1F NOT PUSH1 0x1F DUP4 ADD AND SWAP1 POP SWAP2 SWAP1 POP JUMP JUMPDEST PUSH32 0x4E487B7100000000000000000000000000000000000000000000000000000000 PUSH0 MSTORE PUSH1 0x41 PUSH1 0x4 MSTORE PUSH1 0x24 PUSH0 REVERT JUMPDEST PUSH2 0x1D04 DUP3 PUSH2 0x1CBE JUMP JUMPDEST DUP2 ADD DUP2 DUP2 LT PUSH8 0xFFFFFFFFFFFFFFFF DUP3 GT OR ISZERO PUSH2 0x1D23 JUMPI PUSH2 0x1D22 PUSH2 0x1CCE JUMP JUMPDEST JUMPDEST DUP1 PUSH1 0x40 MSTORE POP POP POP JUMP JUMPDEST PUSH0 PUSH2 0x1D35 PUSH2 0x1C4B JUMP JUMPDEST SWAP1 POP PUSH2 0x1D41 DUP3 DUP3 PUSH2 0x1CFB JUMP JUMPDEST SWAP2 SWAP1 POP JUMP JUMPDEST PUSH0 PUSH8 0xFFFFFFFFFFFFFFFF DUP3 GT ISZERO PUSH2 0x1D60 JUMPI PUSH2 0x1D5F PUSH2 0x1CCE JUMP JUMPDEST JUMPDEST PUSH2 0x1D69 DUP3 PUSH2 0x1CBE JUMP JUMPDEST SWAP1 POP PUSH1 0x20 DUP2 ADD SWAP1 POP SWAP2 SWAP1 POP JUMP JUMPDEST DUP3 DUP2 DUP4 CALLDATACOPY PUSH0 DUP4 DUP4 ADD MSTORE POP POP POP JUMP JUMPDEST PUSH0 PUSH2 0x1D96 PUSH2 0x1D91 DUP5 PUSH2 0x1D46 JUMP JUMPDEST PUSH2 0x1D2C JUMP JUMPDEST SWAP1 POP DUP3 DUP2 MSTORE PUSH1 0x20 DUP2 ADD DUP5 DUP5 DUP5 ADD GT ISZERO PUSH2 0x1DB2 JUMPI PUSH2 0x1DB1 PUSH2 0x1CBA JUMP JUMPDEST JUMPDEST PUSH2 0x1DBD DUP5 DUP3 DUP6 PUSH2 0x1D76 JUMP JUMPDEST POP SWAP4 SWAP3 POP POP POP JUMP JUMPDEST PUSH0 DUP3 PUSH1 0x1F DUP4 ADD SLT PUSH2 0x1DD9 JUMPI PUSH2 0x1DD8 PUSH2 0x1CB6 JUMP JUMPDEST JUMPDEST DUP2 CALLDATALOAD PUSH2 0x1DE9 DUP5 DUP3 PUSH1 0x20 DUP7 ADD PUSH2 0x1D84 JUMP JUMPDEST SWAP2 POP POP SWAP3 SWAP2 POP POP JUMP JUMPDEST PUSH0 DUP1 PUSH0 PUSH1 0x60 DUP5 DUP7 SUB SLT ISZERO PUSH2 0x1E09 JUMPI PUSH2 0x1E08 PUSH2 0x1C54 JUMP JUMPDEST JUMPDEST PUSH0 PUSH2 0x1E16 DUP7 DUP3 DUP8 ADD PUSH2 0x1CA2 JUMP JUMPDEST SWAP4 POP POP PUSH1 0x20 DUP5 ADD CALLDATALOAD PUSH8 0xFFFFFFFFFFFFFFFF DUP2 GT ISZERO PUSH2 0x1E37 JUMPI PUSH2 0x1E36 PUSH2 0x1C58 JUMP JUMPDEST JUMPDEST PUSH2 0x1E43 DUP7 DUP3 DUP8 ADD PUSH2 0x1DC5 JUMP JUMPDEST SWAP3 POP POP PUSH1 0x40 DUP5 ADD CALLDATALOAD PUSH8 0xFFFFFFFFFFFFFFFF DUP2 GT ISZERO PUSH2 0x1E64 JUMPI PUSH2 0x1E63 PUSH2 0x1C58 JUMP JUMPDEST JUMPDEST PUSH2 0x1E70 DUP7 DUP3 DUP8 ADD PUSH2 0x1DC5 JUMP JUMPDEST SWAP2 POP POP SWAP3 POP SWAP3 POP SWAP3 JUMP JUMPDEST PUSH2 0x1E83 DUP2 PUSH2 0x1C1A JUMP JUMPDEST DUP2 EQ PUSH2 0x1E8D JUMPI PUSH0 DUP1 REVERT JUMPDEST POP JUMP JUMPDEST PUSH0 DUP2 CALLDATALOAD SWAP1 POP PUSH2 0x1E9E DUP2 PUSH2 0x1E7A JUMP JUMPDEST SWAP3 SWAP2 POP POP JUMP JUMPDEST PUSH0 PUSH1 0x20 DUP3 DUP5 SUB SLT ISZERO PUSH2 0x1EB9 JUMPI PUSH2 0x1EB8 PUSH2 0x1C54 JUMP JUMPDEST JUMPDEST PUSH0 PUSH2 0x1EC6 DUP5 DUP3 DUP6 ADD PUSH2 0x1E90 JUMP JUMPDEST SWAP2 POP POP SWAP3 SWAP2 POP POP JUMP JUMPDEST PUSH2 0x1ED8 DUP2 PUSH2 0x1C7B JUMP JUMPDEST DUP3 MSTORE POP POP JUMP JUMPDEST PUSH0 DUP2 MLOAD SWAP1 POP SWAP2 SWAP1 POP JUMP JUMPDEST PUSH0 DUP3 DUP3 MSTORE PUSH1 0x20 DUP3 ADD SWAP1 POP SWAP3 SWAP2 POP POP JUMP JUMPDEST DUP3 DUP2 DUP4 MCOPY PUSH0 DUP4 DUP4 ADD MSTORE POP POP POP JUMP JUMPDEST PUSH0 PUSH2 0x1F10 DUP3 PUSH2 0x1EDE JUMP JUMPDEST PUSH2 0x1F1A DUP2 DUP6 PUSH2 0x1EE8 JUMP JUMPDEST SWAP4 POP PUSH2 0x1F2A DUP2 DUP6 PUSH1 0x20 DUP7 ADD PUSH2 0x1EF8 JUMP JUMPDEST PUSH2 0x1F33 DUP2 PUSH2 0x1CBE JUMP JUMPDEST DUP5 ADD SWAP2 POP POP SWAP3 SWAP2 POP POP JUMP JUMPDEST PUSH0 PUSH1 0x80 DUP3 ADD SWAP1 POP PUSH2 0x1F51 PUSH0 DUP4 ADD DUP8 PUSH2 0x1ECF JUMP JUMPDEST PUSH2 0x1F5E PUSH1 0x20 DUP4 ADD DUP7 PUSH2 0x1C23 JUMP JUMPDEST DUP2 DUP2 SUB PUSH1 0x40 DUP4 ADD MSTORE PUSH2 0x1F70 DUP2 DUP6 PUSH2 0x1F06 JUMP JUMPDEST SWAP1 POP DUP2 DUP2 SUB PUSH1 0x60 DUP4 ADD MSTORE PUSH2 0x1F84 DUP2 DUP5 PUSH2 0x1F06 JUMP JUMPDEST SWAP1 POP SWAP6 SWAP5 POP POP POP POP POP JUMP JUMPDEST PUSH32 0x4E487B7100000000000000000000000000000000000000000000000000000000 PUSH0 MSTORE PUSH1 0x21 PUSH1 0x4 MSTORE PUSH1 0x24 PUSH0 REVERT JUMPDEST PUSH1 0x6 DUP2 LT PUSH2 0x1FCD JUMPI PUSH2 0x1FCC PUSH2 0x1F8F JUMP JUMPDEST JUMPDEST POP JUMP JUMPDEST PUSH0 DUP2 SWAP1 POP PUSH2 0x1FDD DUP3 PUSH2 0x1FBC JUMP JUMPDEST SWAP2 SWAP1 POP JUMP JUMPDEST PUSH0 PUSH2 0x1FEC DUP3 PUSH2 0x1FD0 JUMP JUMPDEST SWAP1 POP SWAP2 SWAP1 POP JUMP JUMPDEST PUSH2 0x1FFC DUP2 PUSH2 0x1FE2 JUMP JUMPDEST DUP3 MSTORE POP POP JUMP JUMPDEST PUSH0 PUSH2 0x100 DUP3 ADD SWAP1 POP PUSH2 0x2016 PUSH0 DUP4 ADD DUP12 PUSH2 0x1C23 JUMP JUMPDEST DUP2 DUP2 SUB PUSH1 0x20 DUP4 ADD MSTORE PUSH2 0x2028 DUP2 DUP11 PUSH2 0x1F06 JUMP JUMPDEST SWAP1 POP DUP2 DUP2 SUB PUSH1 0x40 DUP4 ADD MSTORE PUSH2 0x203C DUP2 DUP10 PUSH2 0x1F06 JUMP JUMPDEST SWAP1 POP PUSH2 0x204B PUSH1 0x60 DUP4 ADD DUP9 PUSH2 0x1C23 JUMP JUMPDEST PUSH2 0x2058 PUSH1 0x80 DUP4 ADD DUP8 PUSH2 0x1C23 JUMP JUMPDEST PUSH2 0x2065 PUSH1 0xA0 DUP4 ADD DUP7 PUSH2 0x1C23 JUMP JUMPDEST PUSH2 0x2072 PUSH1 0xC0 DUP4 ADD DUP6 PUSH2 0x1C23 JUMP JUMPDEST PUSH2 0x207F PUSH1 0xE0 DUP4 ADD DUP5 PUSH2 0x1FF3 JUMP JUMPDEST SWAP10 SWAP9 POP POP POP POP POP POP POP POP POP JUMP JUMPDEST PUSH0 PUSH1 0x20 DUP3 ADD SWAP1 POP PUSH2 0x209F PUSH0 DUP4 ADD DUP5 PUSH2 0x1ECF JUMP JUMPDEST SWAP3 SWAP2 POP POP JUMP JUMPDEST PUSH0 DUP1 PUSH1 0x40 DUP4 DUP6 SUB SLT ISZERO PUSH2 0x20BB JUMPI PUSH2 0x20BA PUSH2 0x1C54 JUMP JUMPDEST JUMPDEST PUSH0 DUP4 ADD CALLDATALOAD PUSH8 0xFFFFFFFFFFFFFFFF DUP2 GT ISZERO PUSH2 0x20D8 JUMPI PUSH2 0x20D7 PUSH2 0x1C58 JUMP JUMPDEST JUMPDEST PUSH2 0x20E4 DUP6 DUP3 DUP7 ADD PUSH2 0x1DC5 JUMP JUMPDEST SWAP3 POP POP PUSH1 0x20 DUP4 ADD CALLDATALOAD PUSH8 0xFFFFFFFFFFFFFFFF DUP2 GT ISZERO PUSH2 0x2105 JUMPI PUSH2 0x2104 PUSH2 0x1C58 JUMP JUMPDEST JUMPDEST PUSH2 0x2111 DUP6 DUP3 DUP7 ADD PUSH2 0x1DC5 JUMP JUMPDEST SWAP2 POP POP SWAP3 POP SWAP3 SWAP1 POP JUMP JUMPDEST PUSH0 PUSH1 0x20 DUP3 ADD SWAP1 POP DUP2 DUP2 SUB PUSH0 DUP4 ADD MSTORE PUSH2 0x2133 DUP2 DUP5 PUSH2 0x1F06 JUMP JUMPDEST SWAP1 POP SWAP3 SWAP2 POP POP JUMP JUMPDEST PUSH32 0x4E487B7100000000000000000000000000000000000000000000000000000000 PUSH0 MSTORE PUSH1 0x11 PUSH1 0x4 MSTORE PUSH1 0x24 PUSH0 REVERT JUMPDEST PUSH0 PUSH2 0x2172 DUP3 PUSH2 0x1C1A JUMP JUMPDEST SWAP2 POP PUSH32 0xFFFFFFFFFFFFFFFFFFFFFFFFFFFFFFFFFFFFFFFFFFFFFFFFFFFFFFFFFFFFFFFF DUP3 SUB PUSH2 0x21A4 JUMPI PUSH2 0x21A3 PUSH2 0x213B JUMP JUMPDEST JUMPDEST PUSH1 0x1 DUP3 ADD SWAP1 POP SWAP2 SWAP1 POP JUMP JUMPDEST PUSH32 0x4E487B7100000000000000000000000000000000000000000000000000000000 PUSH0 MSTORE PUSH1 0x22 PUSH1 0x4 MSTORE PUSH1 0x24 PUSH0 REVERT JUMPDEST PUSH0 PUSH1 0x2 DUP3 DIV SWAP1 POP PUSH1 0x1 DUP3 AND DUP1 PUSH2 0x21F3 JUMPI PUSH1 0x7F DUP3 AND SWAP2 POP JUMPDEST PUSH1 0x20 DUP3 LT DUP2 SUB PUSH2 0x2206 JUMPI PUSH2 0x2205 PUSH2 0x21AF JUMP JUMPDEST JUMPDEST POP SWAP2 SWAP1 POP JUMP JUMPDEST PUSH0 DUP2 SWAP1 POP DUP2 PUSH0 MSTORE PUSH1 0x20 PUSH0 KECCAK256 SWAP1 POP SWAP2 SWAP1 POP JUMP JUMPDEST PUSH0 PUSH1 0x20 PUSH1 0x1F DUP4 ADD DIV SWAP1 POP SWAP2 SWAP1 POP JUMP JUMPDEST PUSH0 DUP3 DUP3 SHL SWAP1 POP SWAP3 SWAP2 POP POP JUMP JUMPDEST PUSH0 PUSH1 0x8 DUP4 MUL PUSH2 0x2268 PUSH32 0xFFFFFFFFFFFFFFFFFFFFFFFFFFFFFFFFFFFFFFFFFFFFFFFFFFFFFFFFFFFFFFFF DUP3 PUSH2 0x222D JUMP JUMPDEST PUSH2 0x2272 DUP7 DUP4 PUSH2 0x222D JUMP JUMPDEST SWAP6 POP DUP1 NOT DUP5 AND SWAP4 POP DUP1 DUP7 AND DUP5 OR SWAP3 POP POP POP SWAP4 SWAP3 POP POP POP JUMP JUMPDEST PUSH0 DUP2 SWAP1 POP SWAP2 SWAP1 POP JUMP JUMPDEST PUSH0 PUSH2 0x22AD PUSH2 0x22A8 PUSH2 0x22A3 DUP5 PUSH2 0x1C1A JUMP JUMPDEST PUSH2 0x228A JUMP JUMPDEST PUSH2 0x1C1A JUMP JUMPDEST SWAP1 POP SWAP2 SWAP1 POP JUMP JUMPDEST PUSH0 DUP2 SWAP1 POP SWAP2 SWAP1 POP JUMP JUMPDEST PUSH2 0x22C6 DUP4 PUSH2 0x2293 JUMP JUMPDEST PUSH2 0x22DA PUSH2 0x22D2 DUP3 PUSH2 0x22B4 JUMP JUMPDEST DUP5 DUP5 SLOAD PUSH2 0x2239 JUMP JUMPDEST DUP3 SSTORE POP POP POP POP JUMP JUMPDEST PUSH0 SWAP1 JUMP JUMPDEST PUSH2 0x22EE PUSH2 0x22E2 JUMP JUMPDEST PUSH2 0x22F9 DUP2 DUP5 DUP5 PUSH2 0x22BD JUMP JUMPDEST POP POP POP JUMP JUMPDEST JUMPDEST DUP2 DUP2 LT ISZERO PUSH2 0x231C JUMPI PUSH2 0x2311 PUSH0 DUP3 PUSH2 0x22E6 JUMP JUMPDEST PUSH1 0x1 DUP2 ADD SWAP1 POP PUSH2 0x22FF JUMP JUMPDEST POP POP JUMP JUMPDEST PUSH1 0x1F DUP3 GT ISZERO PUSH2 0x2361 JUMPI PUSH2 0x2332 DUP2 PUSH2 0x220C JUMP JUMPDEST PUSH2 0x233B DUP5 PUSH2 0x221E JUMP JUMPDEST DUP2 ADD PUSH1 0x20 DUP6 LT ISZERO PUSH2 0x234A JUMPI DUP2 SWAP1 POP JUMPDEST PUSH2 0x235E PUSH2 0x2356 DUP6 PUSH2 0x221E JUMP JUMPDEST DUP4 ADD DUP3 PUSH2 0x22FE JUMP JUMPDEST POP POP JUMPDEST POP POP POP JUMP JUMPDEST PUSH0 DUP3 DUP3 SHR SWAP1 POP SWAP3 SWAP2 POP POP JUMP JUMPDEST PUSH0 PUSH2 0x2381 PUSH0 NOT DUP5 PUSH1 0x8 MUL PUSH2 0x2366 JUMP JUMPDEST NOT DUP1 DUP4 AND SWAP2 POP POP SWAP3 SWAP2 POP POP JUMP JUMPDEST PUSH0 PUSH2 0x2399 DUP4 DUP4 PUSH2 0x2372 JUMP JUMPDEST SWAP2 POP DUP3 PUSH1 0x2 MUL DUP3 OR SWAP1 POP SWAP3 SWAP2 POP POP JUMP JUMPDEST PUSH2 0x23B2 DUP3 PUSH2 0x1EDE JUMP JUMPDEST PUSH8 0xFFFFFFFFFFFFFFFF DUP2 GT ISZERO PUSH2 0x23CB JUMPI PUSH2 0x23CA PUSH2 0x1CCE JUMP JUMPDEST JUMPDEST PUSH2 0x23D5 DUP3 SLOAD PUSH2 0x21DC JUMP JUMPDEST PUSH2 0x23E0 DUP3 DUP3 DUP6 PUSH2 0x2320 JUMP JUMPDEST PUSH0 PUSH1 0x20 SWAP1 POP PUSH1 0x1F DUP4 GT PUSH1 0x1 DUP2 EQ PUSH2 0x2411 JUMPI PUSH0 DUP5 ISZERO PUSH2 0x23FF JUMPI DUP3 DUP8 ADD MLOAD SWAP1 POP JUMPDEST PUSH2 0x2409 DUP6 DUP3 PUSH2 0x238E JUMP JUMPDEST DUP7 SSTORE POP PUSH2 0x2470 JUMP JUMPDEST PUSH1 0x1F NOT DUP5 AND PUSH2 0x241F DUP7 PUSH2 0x220C JUMP JUMPDEST PUSH0 JUMPDEST DUP3 DUP2 LT ISZERO PUSH2 0x2446 JUMPI DUP5 DUP10 ADD MLOAD DUP3 SSTORE PUSH1 0x1 DUP3 ADD SWAP2 POP PUSH1 0x20 DUP6 ADD SWAP5 POP PUSH1 0x20 DUP2 ADD SWAP1 POP PUSH2 0x2421 JUMP JUMPDEST DUP7 DUP4 LT ISZERO PUSH2 0x2463 JUMPI DUP5 DUP10 ADD MLOAD PUSH2 0x245F PUSH1 0x1F DUP10 AND DUP3 PUSH2 0x2372 JUMP JUMPDEST DUP4 SSTORE POP JUMPDEST PUSH1 0x1 PUSH1 0x2 DUP9 MUL ADD DUP9 SSTORE POP POP POP JUMPDEST POP POP POP POP POP POP JUMP INVALID COINBASE PUSH8 0x726963756C747572 PUSH6 0x20746F6F6C2F PUSH21 0x6563686E69717565204F726465726564A264697066 PUSH20 0x582212200895E84D331A564E77A80471A16D26CA ADDRESS 0x1E PUSH27 0xA8C24ECA5E8554A0F9EEC7659F64736F6C634300081A0033000000 "
				},
				"gasEstimates": {
					"creation": {
						"codeDepositCost": "1884800",
						"executionCost": "51278",
						"totalCost": "1936078"
					},
					"external": {
						"AgricultureStock(uint256)": "infinite",
						"DIS(uint256)": "infinite",
						"Distribute(uint256)": "infinite",
						"MAN(uint256)": "infinite",
						"Manufacturing(uint256)": "infinite",
						"Owner()": "2527",
						"RET(uint256)": "infinite",
						"RMS(uint256)": "infinite",
						"RMSsupply(uint256)": "infinite",
						"Retail(uint256)": "infinite",
						"addAgriculture(string,string)": "infinite",
						"addDistributor(address,string,string)": "infinite",
						"addManufacturer(address,string,string)": "infinite",
						"addRMS(address,string,string)": "infinite",
						"addRetailer(address,string,string)": "infinite",
						"agricultureCtr()": "2449",
						"disCtr()": "2537",
						"manCtr()": "2470",
						"retCtr()": "2558",
						"rmsCtr()": "2513",
						"showStage(uint256)": "infinite",
						"sold(uint256)": "infinite"
					},
					"internal": {
						"findDIS(address)": "infinite",
						"findMAN(address)": "infinite",
						"findRET(address)": "infinite",
						"findRMS(address)": "infinite"
					}
				},
				"methodIdentifiers": {
					"AgricultureStock(uint256)": "9ba9f1bb",
					"DIS(uint256)": "2b0187ac",
					"Distribute(uint256)": "4def474a",
					"MAN(uint256)": "cc403069",
					"Manufacturing(uint256)": "a48d335a",
					"Owner()": "b4a99a4e",
					"RET(uint256)": "59bf286f",
					"RMS(uint256)": "eef5cb40",
					"RMSsupply(uint256)": "86c18275",
					"Retail(uint256)": "3d753a1c",
					"addAgriculture(string,string)": "cc004874",
					"addDistributor(address,string,string)": "2a4af440",
					"addManufacturer(address,string,string)": "6a992c9f",
					"addRMS(address,string,string)": "2b70b08d",
					"addRetailer(address,string,string)": "857ddb04",
					"agricultureCtr()": "102464ea",
					"disCtr()": "2bdb2e6b",
					"manCtr()": "438e9c4d",
					"retCtr()": "7e43d94d",
					"rmsCtr()": "dd286398",
					"showStage(uint256)": "e101a2e0",
					"sold(uint256)": "9c03facb"
				}
			},
			"storageLayout": {
				"storage": [
					{
						"astId": 3,
						"contract": "contracts/SupplyChain.sol:SupplyChain",
						"label": "Owner",
						"offset": 0,
						"slot": "0",
						"type": "t_address"
					},
					{
						"astId": 33,
						"contract": "contracts/SupplyChain.sol:SupplyChain",
						"label": "agricultureCtr",
						"offset": 0,
						"slot": "1",
						"type": "t_uint256"
					},
					{
						"astId": 36,
						"contract": "contracts/SupplyChain.sol:SupplyChain",
						"label": "rmsCtr",
						"offset": 0,
						"slot": "2",
						"type": "t_uint256"
					},
					{
						"astId": 39,
						"contract": "contracts/SupplyChain.sol:SupplyChain",
						"label": "manCtr",
						"offset": 0,
						"slot": "3",
						"type": "t_uint256"
					},
					{
						"astId": 42,
						"contract": "contracts/SupplyChain.sol:SupplyChain",
						"label": "disCtr",
						"offset": 0,
						"slot": "4",
						"type": "t_uint256"
					},
					{
						"astId": 45,
						"contract": "contracts/SupplyChain.sol:SupplyChain",
						"label": "retCtr",
						"offset": 0,
						"slot": "5",
						"type": "t_uint256"
					},
					{
						"astId": 68,
						"contract": "contracts/SupplyChain.sol:SupplyChain",
						"label": "AgricultureStock",
						"offset": 0,
						"slot": "6",
						"type": "t_mapping(t_uint256,t_struct(agriculture)63_storage)"
					},
					{
						"astId": 156,
						"contract": "contracts/SupplyChain.sol:SupplyChain",
						"label": "RMS",
						"offset": 0,
						"slot": "7",
						"type": "t_mapping(t_uint256,t_struct(rawMaterialSupplier)151_storage)"
					},
					{
						"astId": 170,
						"contract": "contracts/SupplyChain.sol:SupplyChain",
						"label": "MAN",
						"offset": 0,
						"slot": "8",
						"type": "t_mapping(t_uint256,t_struct(manufacturer)165_storage)"
					},
					{
						"astId": 184,
						"contract": "contracts/SupplyChain.sol:SupplyChain",
						"label": "DIS",
						"offset": 0,
						"slot": "9",
						"type": "t_mapping(t_uint256,t_struct(distributor)179_storage)"
					},
					{
						"astId": 198,
						"contract": "contracts/SupplyChain.sol:SupplyChain",
						"label": "RET",
						"offset": 0,
						"slot": "10",
						"type": "t_mapping(t_uint256,t_struct(retailer)193_storage)"
					}
				],
				"types": {
					"t_address": {
						"encoding": "inplace",
						"label": "address",
						"numberOfBytes": "20"
					},
					"t_enum(STAGE)30": {
						"encoding": "inplace",
						"label": "enum SupplyChain.STAGE",
						"numberOfBytes": "1"
					},
					"t_mapping(t_uint256,t_struct(agriculture)63_storage)": {
						"encoding": "mapping",
						"key": "t_uint256",
						"label": "mapping(uint256 => struct SupplyChain.agriculture)",
						"numberOfBytes": "32",
						"value": "t_struct(agriculture)63_storage"
					},
					"t_mapping(t_uint256,t_struct(distributor)179_storage)": {
						"encoding": "mapping",
						"key": "t_uint256",
						"label": "mapping(uint256 => struct SupplyChain.distributor)",
						"numberOfBytes": "32",
						"value": "t_struct(distributor)179_storage"
					},
					"t_mapping(t_uint256,t_struct(manufacturer)165_storage)": {
						"encoding": "mapping",
						"key": "t_uint256",
						"label": "mapping(uint256 => struct SupplyChain.manufacturer)",
						"numberOfBytes": "32",
						"value": "t_struct(manufacturer)165_storage"
					},
					"t_mapping(t_uint256,t_struct(rawMaterialSupplier)151_storage)": {
						"encoding": "mapping",
						"key": "t_uint256",
						"label": "mapping(uint256 => struct SupplyChain.rawMaterialSupplier)",
						"numberOfBytes": "32",
						"value": "t_struct(rawMaterialSupplier)151_storage"
					},
					"t_mapping(t_uint256,t_struct(retailer)193_storage)": {
						"encoding": "mapping",
						"key": "t_uint256",
						"label": "mapping(uint256 => struct SupplyChain.retailer)",
						"numberOfBytes": "32",
						"value": "t_struct(retailer)193_storage"
					},
					"t_string_storage": {
						"encoding": "bytes",
						"label": "string",
						"numberOfBytes": "32"
					},
					"t_struct(agriculture)63_storage": {
						"encoding": "inplace",
						"label": "struct SupplyChain.agriculture",
						"members": [
							{
								"astId": 47,
								"contract": "contracts/SupplyChain.sol:SupplyChain",
								"label": "id",
								"offset": 0,
								"slot": "0",
								"type": "t_uint256"
							},
							{
								"astId": 49,
								"contract": "contracts/SupplyChain.sol:SupplyChain",
								"label": "name",
								"offset": 0,
								"slot": "1",
								"type": "t_string_storage"
							},
							{
								"astId": 51,
								"contract": "contracts/SupplyChain.sol:SupplyChain",
								"label": "description",
								"offset": 0,
								"slot": "2",
								"type": "t_string_storage"
							},
							{
								"astId": 53,
								"contract": "contracts/SupplyChain.sol:SupplyChain",
								"label": "RMSid",
								"offset": 0,
								"slot": "3",
								"type": "t_uint256"
							},
							{
								"astId": 55,
								"contract": "contracts/SupplyChain.sol:SupplyChain",
								"label": "MANid",
								"offset": 0,
								"slot": "4",
								"type": "t_uint256"
							},
							{
								"astId": 57,
								"contract": "contracts/SupplyChain.sol:SupplyChain",
								"label": "DISid",
								"offset": 0,
								"slot": "5",
								"type": "t_uint256"
							},
							{
								"astId": 59,
								"contract": "contracts/SupplyChain.sol:SupplyChain",
								"label": "RETid",
								"offset": 0,
								"slot": "6",
								"type": "t_uint256"
							},
							{
								"astId": 62,
								"contract": "contracts/SupplyChain.sol:SupplyChain",
								"label": "stage",
								"offset": 0,
								"slot": "7",
								"type": "t_enum(STAGE)30"
							}
						],
						"numberOfBytes": "256"
					},
					"t_struct(distributor)179_storage": {
						"encoding": "inplace",
						"label": "struct SupplyChain.distributor",
						"members": [
							{
								"astId": 172,
								"contract": "contracts/SupplyChain.sol:SupplyChain",
								"label": "addr",
								"offset": 0,
								"slot": "0",
								"type": "t_address"
							},
							{
								"astId": 174,
								"contract": "contracts/SupplyChain.sol:SupplyChain",
								"label": "id",
								"offset": 0,
								"slot": "1",
								"type": "t_uint256"
							},
							{
								"astId": 176,
								"contract": "contracts/SupplyChain.sol:SupplyChain",
								"label": "name",
								"offset": 0,
								"slot": "2",
								"type": "t_string_storage"
							},
							{
								"astId": 178,
								"contract": "contracts/SupplyChain.sol:SupplyChain",
								"label": "place",
								"offset": 0,
								"slot": "3",
								"type": "t_string_storage"
							}
						],
						"numberOfBytes": "128"
					},
					"t_struct(manufacturer)165_storage": {
						"encoding": "inplace",
						"label": "struct SupplyChain.manufacturer",
						"members": [
							{
								"astId": 158,
								"contract": "contracts/SupplyChain.sol:SupplyChain",
								"label": "addr",
								"offset": 0,
								"slot": "0",
								"type": "t_address"
							},
							{
								"astId": 160,
								"contract": "contracts/SupplyChain.sol:SupplyChain",
								"label": "id",
								"offset": 0,
								"slot": "1",
								"type": "t_uint256"
							},
							{
								"astId": 162,
								"contract": "contracts/SupplyChain.sol:SupplyChain",
								"label": "name",
								"offset": 0,
								"slot": "2",
								"type": "t_string_storage"
							},
							{
								"astId": 164,
								"contract": "contracts/SupplyChain.sol:SupplyChain",
								"label": "place",
								"offset": 0,
								"slot": "3",
								"type": "t_string_storage"
							}
						],
						"numberOfBytes": "128"
					},
					"t_struct(rawMaterialSupplier)151_storage": {
						"encoding": "inplace",
						"label": "struct SupplyChain.rawMaterialSupplier",
						"members": [
							{
								"astId": 144,
								"contract": "contracts/SupplyChain.sol:SupplyChain",
								"label": "addr",
								"offset": 0,
								"slot": "0",
								"type": "t_address"
							},
							{
								"astId": 146,
								"contract": "contracts/SupplyChain.sol:SupplyChain",
								"label": "id",
								"offset": 0,
								"slot": "1",
								"type": "t_uint256"
							},
							{
								"astId": 148,
								"contract": "contracts/SupplyChain.sol:SupplyChain",
								"label": "name",
								"offset": 0,
								"slot": "2",
								"type": "t_string_storage"
							},
							{
								"astId": 150,
								"contract": "contracts/SupplyChain.sol:SupplyChain",
								"label": "place",
								"offset": 0,
								"slot": "3",
								"type": "t_string_storage"
							}
						],
						"numberOfBytes": "128"
					},
					"t_struct(retailer)193_storage": {
						"encoding": "inplace",
						"label": "struct SupplyChain.retailer",
						"members": [
							{
								"astId": 186,
								"contract": "contracts/SupplyChain.sol:SupplyChain",
								"label": "addr",
								"offset": 0,
								"slot": "0",
								"type": "t_address"
							},
							{
								"astId": 188,
								"contract": "contracts/SupplyChain.sol:SupplyChain",
								"label": "id",
								"offset": 0,
								"slot": "1",
								"type": "t_uint256"
							},
							{
								"astId": 190,
								"contract": "contracts/SupplyChain.sol:SupplyChain",
								"label": "name",
								"offset": 0,
								"slot": "2",
								"type": "t_string_storage"
							},
							{
								"astId": 192,
								"contract": "contracts/SupplyChain.sol:SupplyChain",
								"label": "place",
								"offset": 0,
								"slot": "3",
								"type": "t_string_storage"
							}
						],
						"numberOfBytes": "128"
					},
					"t_uint256": {
						"encoding": "inplace",
						"label": "uint256",
						"numberOfBytes": "32"
					}
				}
			},
			"userdoc": {
				"kind": "user",
				"methods": {},
				"version": 1
			}
		}
	}
}