{
	"data": {
		"bytecode": {
			"linkReferences": {},
			"object": "60806040525f6001555f6002555f6003555f6004555f6005553480156022575f80fd5b50335f806101000a81548173ffffffffffffffffffffffffffffffffffffffff021916908373ffffffffffffffffffffffffffffffffffffffff1602179055506124d08061006f5f395ff3fe608060405234801561000f575f80fd5b5060043610610140575f3560e01c8063857ddb04116100b6578063b4a99a4e1161007a578063b4a99a4e14610355578063cc00487414610373578063cc4030691461038f578063dd286398146103c2578063e101a2e0146103e0578063eef5cb401461041057610140565b8063857ddb04146102ae57806386c18275146102ca5780639ba9f1bb146102e65780639c03facb1461031d578063a48d335a1461033957610140565b80633d753a1c116101085780633d753a1c146101eb578063438e9c4d146102075780634def474a1461022557806359bf286f146102415780636a992c9f146102745780637e43d94d1461029057610140565b8063102464ea146101445780632a4af440146101625780632b0187ac1461017e5780632b70b08d146101b15780632bdb2e6b146101cd575b5f80fd5b61014c610443565b6040516101599190611c32565b60405180910390f35b61017c60048036038101906101779190611df2565b610449565b005b61019860048036038101906101939190611ea4565b610584565b6040516101a89493929190611f3e565b60405180910390f35b6101cb60048036038101906101c69190611df2565b6106db565b005b6101d5610816565b6040516101e29190611c32565b60405180910390f35b61020560048036038101906102009190611ea4565b61081c565b005b61020f6108f5565b60405161021c9190611c32565b60405180910390f35b61023f600480360381019061023a9190611ea4565b6108fb565b005b61025b60048036038101906102569190611ea4565b6109d4565b60405161026b9493929190611f3e565b60405180910390f35b61028e60048036038101906102899190611df2565b610b2b565b005b610298610c66565b6040516102a59190611c32565b60405180910390f35b6102c860048036038101906102c39190611df2565b610c6c565b005b6102e460048036038101906102df9190611ea4565b610da7565b005b61030060048036038101906102fb9190611ea4565b610e7f565b604051610314989796959493929190612002565b60405180910390f35b61033760048036038101906103329190611ea4565b610fdb565b005b610353600480360381019061034e9190611ea4565b6110ba565b005b61035d611193565b60405161036a919061208c565b60405180910390f35b61038d600480360381019061038891906120a5565b6111b6565b005b6103a960048036038101906103a49190611ea4565b61134a565b6040516103b99493929190611f3e565b60405180910390f35b6103ca6114a1565b6040516103d79190611c32565b60405180910390f35b6103fa60048036038101906103f59190611ea4565b6114a7565b604051610407919061211b565b60405180910390f35b61042a60048036038101906104259190611ea4565b6117d3565b60405161043a9493929190611f3e565b60405180910390f35b60015481565b5f8054906101000a900473ffffffffffffffffffffffffffffffffffffffff1673ffffffffffffffffffffffffffffffffffffffff163373ffffffffffffffffffffffffffffffffffffffff161461049f575f80fd5b60045f8154809291906104b190612168565b919050555060405180608001604052808473ffffffffffffffffffffffffffffffffffffffff16815260200160045481526020018381526020018281525060095f60045481526020019081526020015f205f820151815f015f6101000a81548173ffffffffffffffffffffffffffffffffffffffff021916908373ffffffffffffffffffffffffffffffffffffffff16021790555060208201518160010155604082015181600201908161056591906123a9565b50606082015181600301908161057b91906123a9565b50905050505050565b6009602052805f5260405f205f91509050805f015f9054906101000a900473ffffffffffffffffffffffffffffffffffffffff16908060010154908060020180546105ce906121dc565b80601f01602080910402602001604051908101604052809291908181526020018280546105fa906121dc565b80156106455780601f1061061c57610100808354040283529160200191610645565b820191905f5260205f20905b81548152906001019060200180831161062857829003601f168201915b50505050509080600301805461065a906121dc565b80601f0160208091040260200160405190810160405280929190818152602001828054610686906121dc565b80156106d15780601f106106a8576101008083540402835291602001916106d1565b820191905f5260205f20905b8154815290600101906020018083116106b457829003601f168201915b5050505050905084565b5f8054906101000a900473ffffffffffffffffffffffffffffffffffffffff1673ffffffffffffffffffffffffffffffffffffffff163373ffffffffffffffffffffffffffffffffffffffff1614610731575f80fd5b60025f81548092919061074390612168565b919050555060405180608001604052808473ffffffffffffffffffffffffffffffffffffffff16815260200160025481526020018381526020018281525060075f60025481526020019081526020015f205f820151815f015f6101000a81548173ffffffffffffffffffffffffffffffffffffffff021916908373ffffffffffffffffffffffffffffffffffffffff1602179055506020820151816001015560408201518160020190816107f791906123a9565b50606082015181600301908161080d91906123a9565b50905050505050565b60045481565b5f8111801561082d57506001548111155b610835575f80fd5b5f61083f3361192a565b90505f811161084c575f80fd5b600360058111156108605761085f611f8f565b5b60065f8481526020019081526020015f206007015f9054906101000a900460ff16600581111561089357610892611f8f565b5b1461089c575f80fd5b8060065f8481526020019081526020015f2060060181905550600460065f8481526020019081526020015f206007015f6101000a81548160ff021916908360058111156108ec576108eb611f8f565b5b02179055505050565b60035481565b5f8111801561090c57506001548111155b610914575f80fd5b5f61091e336119e6565b90505f811161092b575f80fd5b6002600581111561093f5761093e611f8f565b5b60065f8481526020019081526020015f206007015f9054906101000a900460ff16600581111561097257610971611f8f565b5b1461097b575f80fd5b8060065f8481526020019081526020015f2060050181905550600360065f8481526020019081526020015f206007015f6101000a81548160ff021916908360058111156109cb576109ca611f8f565b5b02179055505050565b600a602052805f5260405f205f91509050805f015f9054906101000a900473ffffffffffffffffffffffffffffffffffffffff1690806001015490806002018054610a1e906121dc565b80601f0160208091040260200160405190810160405280929190818152602001828054610a4a906121dc565b8015610a955780601f10610a6c57610100808354040283529160200191610a95565b820191905f5260205f20905b815481529060010190602001808311610a7857829003601f168201915b505050505090806003018054610aaa906121dc565b80601f0160208091040260200160405190810160405280929190818152602001828054610ad6906121dc565b8015610b215780601f10610af857610100808354040283529160200191610b21565b820191905f5260205f20905b815481529060010190602001808311610b0457829003601f168201915b5050505050905084565b5f8054906101000a900473ffffffffffffffffffffffffffffffffffffffff1673ffffffffffffffffffffffffffffffffffffffff163373ffffffffffffffffffffffffffffffffffffffff1614610b81575f80fd5b60035f815480929190610b9390612168565b919050555060405180608001604052808473ffffffffffffffffffffffffffffffffffffffff16815260200160035481526020018381526020018281525060085f60035481526020019081526020015f205f820151815f015f6101000a81548173ffffffffffffffffffffffffffffffffffffffff021916908373ffffffffffffffffffffffffffffffffffffffff160217905550602082015181600101556040820151816002019081610c4791906123a9565b506060820151816003019081610c5d91906123a9565b50905050505050565b60055481565b5f8054906101000a900473ffffffffffffffffffffffffffffffffffffffff1673ffffffffffffffffffffffffffffffffffffffff163373ffffffffffffffffffffffffffffffffffffffff1614610cc2575f80fd5b60055f815480929190610cd490612168565b919050555060405180608001604052808473ffffffffffffffffffffffffffffffffffffffff168152602001600554815260200183815260200182815250600a5f60055481526020019081526020015f205f820151815f015f6101000a81548173ffffffffffffffffffffffffffffffffffffffff021916908373ffffffffffffffffffffffffffffffffffffffff160217905550602082015181600101556040820151816002019081610d8891906123a9565b506060820151816003019081610d9e91906123a9565b50905050505050565b5f81118015610db857506001548111155b610dc0575f80fd5b5f610dca33611aa2565b90505f8111610dd7575f80fd5b5f6005811115610dea57610de9611f8f565b5b60065f8481526020019081526020015f206007015f9054906101000a900460ff166005811115610e1d57610e1c611f8f565b5b14610e26575f80fd5b8060065f8481526020019081526020015f2060030181905550600160065f8481526020019081526020015f206007015f6101000a81548160ff02191690836005811115610e7657610e75611f8f565b5b02179055505050565b6006602052805f5260405f205f91509050805f015490806001018054610ea4906121dc565b80601f0160208091040260200160405190810160405280929190818152602001828054610ed0906121dc565b8015610f1b5780601f10610ef257610100808354040283529160200191610f1b565b820191905f5260205f20905b815481529060010190602001808311610efe57829003601f168201915b505050505090806002018054610f30906121dc565b80601f0160208091040260200160405190810160405280929190818152602001828054610f5c906121dc565b8015610fa75780601f10610f7e57610100808354040283529160200191610fa7565b820191905f5260205f20905b815481529060010190602001808311610f8a57829003601f168201915b505050505090806003015490806004015490806005015490806006015490806007015f9054906101000a900460ff16905088565b5f81118015610fec57506001548111155b610ff4575f80fd5b5f610ffe3361192a565b90505f811161100b575f80fd5b60065f8381526020019081526020015f2060060154811461102a575f80fd5b6004600581111561103e5761103d611f8f565b5b60065f8481526020019081526020015f206007015f9054906101000a900460ff16600581111561107157611070611f8f565b5b1461107a575f80fd5b600560065f8481526020019081526020015f206007015f6101000a81548160ff021916908360058111156110b1576110b0611f8f565b5b02179055505050565b5f811180156110cb57506001548111155b6110d3575f80fd5b5f6110dd33611b5e565b90505f81116110ea575f80fd5b600160058111156110fe576110fd611f8f565b5b60065f8481526020019081526020015f206007015f9054906101000a900460ff16600581111561113157611130611f8f565b5b1461113a575f80fd5b8060065f8481526020019081526020015f2060040181905550600260065f8481526020019081526020015f206007015f6101000a81548160ff0219169083600581111561118a57611189611f8f565b5b02179055505050565b5f8054906101000a900473ffffffffffffffffffffffffffffffffffffffff1681565b5f8054906101000a900473ffffffffffffffffffffffffffffffffffffffff1673ffffffffffffffffffffffffffffffffffffffff163373ffffffffffffffffffffffffffffffffffffffff161461120c575f80fd5b5f60025411801561121e57505f600354115b801561122b57505f600454115b801561123857505f600554115b611240575f80fd5b60015f81548092919061125290612168565b919050555060405180610100016040528060015481526020018381526020018281526020015f81526020015f81526020015f81526020015f81526020015f60058111156112a2576112a1611f8f565b5b81525060065f60015481526020019081526020015f205f820151815f015560208201518160010190816112d591906123a9565b5060408201518160020190816112eb91906123a9565b50606082015181600301556080820151816004015560a0820151816005015560c0820151816006015560e0820151816007015f6101000a81548160ff0219169083600581111561133e5761133d611f8f565b5b02179055509050505050565b6008602052805f5260405f205f91509050805f015f9054906101000a900473ffffffffffffffffffffffffffffffffffffffff1690806001015490806002018054611394906121dc565b80601f01602080910402602001604051908101604052809291908181526020018280546113c0906121dc565b801561140b5780601f106113e25761010080835404028352916020019161140b565b820191905f5260205f20905b8154815290600101906020018083116113ee57829003601f168201915b505050505090806003018054611420906121dc565b80601f016020809104026020016040519081016040528092919081815260200182805461144c906121dc565b80156114975780601f1061146e57610100808354040283529160200191611497565b820191905f5260205f20905b81548152906001019060200180831161147a57829003601f168201915b5050505050905084565b60025481565b60605f600154116114b6575f80fd5b5f60058111156114c9576114c8611f8f565b5b60065f8481526020019081526020015f206007015f9054906101000a900460ff1660058111156114fc576114fb611f8f565b5b03611521576040518060600160405280602281526020016124796022913990506117ce565b6001600581111561153557611534611f8f565b5b60065f8481526020019081526020015f206007015f9054906101000a900460ff16600581111561156857611567611f8f565b5b036115aa576040518060400160405280601981526020017f526177204d6174657269616c20537570706c792053746167650000000000000081525090506117ce565b600260058111156115be576115bd611f8f565b5b60065f8481526020019081526020015f206007015f9054906101000a900460ff1660058111156115f1576115f0611f8f565b5b03611633576040518060400160405280601381526020017f4d616e75666163747572696e672053746167650000000000000000000000000081525090506117ce565b6003600581111561164757611646611f8f565b5b60065f8481526020019081526020015f206007015f9054906101000a900460ff16600581111561167a57611679611f8f565b5b036116bc576040518060400160405280601281526020017f446973747269627574696f6e205374616765000000000000000000000000000081525090506117ce565b600460058111156116d0576116cf611f8f565b5b60065f8481526020019081526020015f206007015f9054906101000a900460ff16600581111561170357611702611f8f565b5b03611745576040518060400160405280600c81526020017f52657461696c205374616765000000000000000000000000000000000000000081525090506117ce565b60058081111561175857611757611f8f565b5b60065f8481526020019081526020015f206007015f9054906101000a900460ff16600581111561178b5761178a611f8f565b5b036117cd576040518060400160405280601f81526020017f4167726963756c7475726520746f6f6c2f746563686e6971756520536f6c640081525090506117ce565b5b919050565b6007602052805f5260405f205f91509050805f015f9054906101000a900473ffffffffffffffffffffffffffffffffffffffff169080600101549080600201805461181d906121dc565b80601f0160208091040260200160405190810160405280929190818152602001828054611849906121dc565b80156118945780601f1061186b57610100808354040283529160200191611894565b820191905f5260205f20905b81548152906001019060200180831161187757829003601f168201915b5050505050908060030180546118a9906121dc565b80601f01602080910402602001604051908101604052809291908181526020018280546118d5906121dc565b80156119205780601f106118f757610100808354040283529160200191611920565b820191905f5260205f20905b81548152906001019060200180831161190357829003601f168201915b5050505050905084565b5f8060055411611938575f80fd5b5f600190505b60055481116119dc578273ffffffffffffffffffffffffffffffffffffffff16600a5f8381526020019081526020015f205f015f9054906101000a900473ffffffffffffffffffffffffffffffffffffffff1673ffffffffffffffffffffffffffffffffffffffff16036119c957600a5f8281526020019081526020015f20600101549150506119e1565b80806119d490612168565b91505061193e565b505f90505b919050565b5f80600454116119f4575f80fd5b5f600190505b6004548111611a98578273ffffffffffffffffffffffffffffffffffffffff1660095f8381526020019081526020015f205f015f9054906101000a900473ffffffffffffffffffffffffffffffffffffffff1673ffffffffffffffffffffffffffffffffffffffff1603611a855760095f8281526020019081526020015f2060010154915050611a9d565b8080611a9090612168565b9150506119fa565b505f90505b919050565b5f8060025411611ab0575f80fd5b5f600190505b6002548111611b54578273ffffffffffffffffffffffffffffffffffffffff1660075f8381526020019081526020015f205f015f9054906101000a900473ffffffffffffffffffffffffffffffffffffffff1673ffffffffffffffffffffffffffffffffffffffff1603611b415760075f8281526020019081526020015f2060010154915050611b59565b8080611b4c90612168565b915050611ab6565b505f90505b919050565b5f8060035411611b6c575f80fd5b5f600190505b6003548111611c10578273ffffffffffffffffffffffffffffffffffffffff1660085f8381526020019081526020015f205f015f9054906101000a900473ffffffffffffffffffffffffffffffffffffffff1673ffffffffffffffffffffffffffffffffffffffff1603611bfd5760085f8281526020019081526020015f2060010154915050611c15565b8080611c0890612168565b915050611b72565b505f90505b919050565b5f819050919050565b611c2c81611c1a565b82525050565b5f602082019050611c455f830184611c23565b92915050565b5f604051905090565b5f80fd5b5f80fd5b5f73ffffffffffffffffffffffffffffffffffffffff82169050919050565b5f611c8582611c5c565b9050919050565b611c9581611c7b565b8114611c9f575f80fd5b50565b5f81359050611cb081611c8c565b92915050565b5f80fd5b5f80fd5b5f601f19601f8301169050919050565b7f4e487b71000000000000000000000000000000000000000000000000000000005f52604160045260245ffd5b611d0482611cbe565b810181811067ffffffffffffffff82111715611d2357611d22611cce565b5b80604052505050565b5f611d35611c4b565b9050611d418282611cfb565b919050565b5f67ffffffffffffffff821115611d6057611d5f611cce565b5b611d6982611cbe565b9050602081019050919050565b828183375f83830152505050565b5f611d96611d9184611d46565b611d2c565b905082815260208101848484011115611db257611db1611cba565b5b611dbd848285611d76565b509392505050565b5f82601f830112611dd957611dd8611cb6565b5b8135611de9848260208601611d84565b91505092915050565b5f805f60608486031215611e0957611e08611c54565b5b5f611e1686828701611ca2565b935050602084013567ffffffffffffffff811115611e3757611e36611c58565b5b611e4386828701611dc5565b925050604084013567ffffffffffffffff811115611e6457611e63611c58565b5b611e7086828701611dc5565b9150509250925092565b611e8381611c1a565b8114611e8d575f80fd5b50565b5f81359050611e9e81611e7a565b92915050565b5f60208284031215611eb957611eb8611c54565b5b5f611ec684828501611e90565b91505092915050565b611ed881611c7b565b82525050565b5f81519050919050565b5f82825260208201905092915050565b8281835e5f83830152505050565b5f611f1082611ede565b611f1a8185611ee8565b9350611f2a818560208601611ef8565b611f3381611cbe565b840191505092915050565b5f608082019050611f515f830187611ecf565b611f5e6020830186611c23565b8181036040830152611f708185611f06565b90508181036060830152611f848184611f06565b905095945050505050565b7f4e487b71000000000000000000000000000000000000000000000000000000005f52602160045260245ffd5b60068110611fcd57611fcc611f8f565b5b50565b5f819050611fdd82611fbc565b919050565b5f611fec82611fd0565b9050919050565b611ffc81611fe2565b82525050565b5f610100820190506120165f83018b611c23565b8181036020830152612028818a611f06565b9050818103604083015261203c8189611f06565b905061204b6060830188611c23565b6120586080830187611c23565b61206560a0830186611c23565b61207260c0830185611c23565b61207f60e0830184611ff3565b9998505050505050505050565b5f60208201905061209f5f830184611ecf565b92915050565b5f80604083850312156120bb576120ba611c54565b5b5f83013567ffffffffffffffff8111156120d8576120d7611c58565b5b6120e485828601611dc5565b925050602083013567ffffffffffffffff81111561210557612104611c58565b5b61211185828601611dc5565b9150509250929050565b5f6020820190508181035f8301526121338184611f06565b905092915050565b7f4e487b71000000000000000000000000000000000000000000000000000000005f52601160045260245ffd5b5f61217282611c1a565b91507fffffffffffffffffffffffffffffffffffffffffffffffffffffffffffffffff82036121a4576121a361213b565b5b600182019050919050565b7f4e487b71000000000000000000000000000000000000000000000000000000005f52602260045260245ffd5b5f60028204905060018216806121f357607f821691505b602082108103612206576122056121af565b5b50919050565b5f819050815f5260205f209050919050565b5f6020601f8301049050919050565b5f82821b905092915050565b5f600883026122687fffffffffffffffffffffffffffffffffffffffffffffffffffffffffffffffff8261222d565b612272868361222d565b95508019841693508086168417925050509392505050565b5f819050919050565b5f6122ad6122a86122a384611c1a565b61228a565b611c1a565b9050919050565b5f819050919050565b6122c683612293565b6122da6122d2826122b4565b848454612239565b825550505050565b5f90565b6122ee6122e2565b6122f98184846122bd565b505050565b5b8181101561231c576123115f826122e6565b6001810190506122ff565b5050565b601f821115612361576123328161220c565b61233b8461221e565b8101602085101561234a578190505b61235e6123568561221e565b8301826122fe565b50505b505050565b5f82821c905092915050565b5f6123815f1984600802612366565b1980831691505092915050565b5f6123998383612372565b9150826002028217905092915050565b6123b282611ede565b67ffffffffffffffff8111156123cb576123ca611cce565b5b6123d582546121dc565b6123e0828285612320565b5f60209050601f831160018114612411575f84156123ff578287015190505b612409858261238e565b865550612470565b601f19841661241f8661220c565b5f5b8281101561244657848901518255600182019150602085019450602081019050612421565b86831015612463578489015161245f601f891682612372565b8355505b6001600288020188555050505b50505050505056fe4167726963756c7475726520746f6f6c2f746563686e69717565204f726465726564a26469706673582212200895e84d331a564e77a80471a16d26ca301e7aa8c24eca5e8554a0f9eec7659f64736f6c634300081a0033",
			"opcodes": "PUSH1 0x80 PUSH1 0x40 MSTORE PUSH0 PUSH1 0x1 SSTORE PUSH0 PUSH1 0x2 SSTORE PUSH0 PUSH1 0x3 SSTORE PUSH0 PUSH1 0x4 SSTORE PUSH0 PUSH1 0x5 SSTORE CALLVALUE DUP1 ISZERO PUSH1 0x22 JUMPI PUSH0 DUP1 REVERT JUMPDEST POP CALLER PUSH0 DUP1 PUSH2 0x100 EXP DUP2 SLOAD DUP2 PUSH20 0xFFFFFFFFFFFFFFFFFFFFFFFFFFFFFFFFFFFFFFFF MUL NOT AND SWAP1 DUP4 PUSH20 0xFFFFFFFFFFFFFFFFFFFFFFFFFFFFFFFFFFFFFFFF AND MUL OR SWAP1 SSTORE POP PUSH2 0x24D0 DUP1 PUSH2 0x6F PUSH0 CODECOPY PUSH0 RETURN INVALID PUSH1 0x80 PUSH1 0x40 MSTORE CALLVALUE DUP1 ISZERO PUSH2 0xF JUMPI PUSH0 DUP1 REVERT JUMPDEST POP PUSH1 0x4 CALLDATASIZE LT PUSH2 0x140 JUMPI PUSH0 CALLDATALOAD PUSH1 0xE0 SHR DUP1 PUSH4 0x857DDB04 GT PUSH2 0xB6 JUMPI DUP1 PUSH4 0xB4A99A4E GT PUSH2 0x7A JUMPI DUP1 PUSH4 0xB4A99A4E EQ PUSH2 0x355 JUMPI DUP1 PUSH4 0xCC004874 EQ PUSH2 0x373 JUMPI DUP1 PUSH4 0xCC403069 EQ PUSH2 0x38F JUMPI DUP1 PUSH4 0xDD286398 EQ PUSH2 0x3C2 JUMPI DUP1 PUSH4 0xE101A2E0 EQ PUSH2 0x3E0 JUMPI DUP1 PUSH4 0xEEF5CB40 EQ PUSH2 0x410 JUMPI PUSH2 0x140 JUMP JUMPDEST DUP1 PUSH4 0x857DDB04 EQ PUSH2 0x2AE JUMPI DUP1 PUSH4 0x86C18275 EQ PUSH2 0x2CA JUMPI DUP1 PUSH4 0x9BA9F1BB EQ PUSH2 0x2E6 JUMPI DUP1 PUSH4 0x9C03FACB EQ PUSH2 0x31D JUMPI DUP1 PUSH4 0xA48D335A EQ PUSH2 0x339 JUMPI PUSH2 0x140 JUMP JUMPDEST DUP1 PUSH4 0x3D753A1C GT PUSH2 0x108 JUMPI DUP1 PUSH4 0x3D753A1C EQ PUSH2 0x1EB JUMPI DUP1 PUSH4 0x438E9C4D EQ PUSH2 0x207 JUMPI DUP1 PUSH4 0x4DEF474A EQ PUSH2 0x225 JUMPI DUP1 PUSH4 0x59BF286F EQ PUSH2 0x241 JUMPI DUP1 PUSH4 0x6A992C9F EQ PUSH2 0x274 JUMPI DUP1 PUSH4 0x7E43D94D EQ PUSH2 0x290 JUMPI PUSH2 0x140 JUMP JUMPDEST DUP1 PUSH4 0x102464EA EQ PUSH2 0x144 JUMPI DUP1 PUSH4 0x2A4AF440 EQ PUSH2 0x162 JUMPI DUP1 PUSH4 0x2B0187AC EQ PUSH2 0x17E JUMPI DUP1 PUSH4 0x2B70B08D EQ PUSH2 0x1B1 JUMPI DUP1 PUSH4 0x2BDB2E6B EQ PUSH2 0x1CD JUMPI JUMPDEST PUSH0 DUP1 REVERT JUMPDEST PUSH2 0x14C PUSH2 0x443 JUMP JUMPDEST PUSH1 0x40 MLOAD PUSH2 0x159 SWAP2 SWAP1 PUSH2 0x1C32 JUMP JUMPDEST PUSH1 0x40 MLOAD DUP1 SWAP2 SUB SWAP1 RETURN JUMPDEST PUSH2 0x17C PUSH1 0x4 DUP1 CALLDATASIZE SUB DUP2 ADD SWAP1 PUSH2 0x177 SWAP2 SWAP1 PUSH2 0x1DF2 JUMP JUMPDEST PUSH2 0x449 JUMP JUMPDEST STOP JUMPDEST PUSH2 0x198 PUSH1 0x4 DUP1 CALLDATASIZE SUB DUP2 ADD SWAP1 PUSH2 0x193 SWAP2 SWAP1 PUSH2 0x1EA4 JUMP JUMPDEST PUSH2 0x584 JUMP JUMPDEST PUSH1 0x40 MLOAD PUSH2 0x1A8 SWAP5 SWAP4 SWAP3 SWAP2 SWAP1 PUSH2 0x1F3E JUMP JUMPDEST PUSH1 0x40 MLOAD DUP1 SWAP2 SUB SWAP1 RETURN JUMPDEST PUSH2 0x1CB PUSH1 0x4 DUP1 CALLDATASIZE SUB DUP2 ADD SWAP1 PUSH2 0x1C6 SWAP2 SWAP1 PUSH2 0x1DF2 JUMP JUMPDEST PUSH2 0x6DB JUMP JUMPDEST STOP JUMPDEST PUSH2 0x1D5 PUSH2 0x816 JUMP JUMPDEST PUSH1 0x40 MLOAD PUSH2 0x1E2 SWAP2 SWAP1 PUSH2 0x1C32 JUMP JUMPDEST PUSH1 0x40 MLOAD DUP1 SWAP2 SUB SWAP1 RETURN JUMPDEST PUSH2 0x205 PUSH1 0x4 DUP1 CALLDATASIZE SUB DUP2 ADD SWAP1 PUSH2 0x200 SWAP2 SWAP1 PUSH2 0x1EA4 JUMP JUMPDEST PUSH2 0x81C JUMP JUMPDEST STOP JUMPDEST PUSH2 0x20F PUSH2 0x8F5 JUMP JUMPDEST PUSH1 0x40 MLOAD PUSH2 0x21C SWAP2 SWAP1 PUSH2 0x1C32 JUMP JUMPDEST PUSH1 0x40 MLOAD DUP1 SWAP2 SUB SWAP1 RETURN JUMPDEST PUSH2 0x23F PUSH1 0x4 DUP1 CALLDATASIZE SUB DUP2 ADD SWAP1 PUSH2 0x23A SWAP2 SWAP1 PUSH2 0x1EA4 JUMP JUMPDEST PUSH2 0x8FB JUMP JUMPDEST STOP JUMPDEST PUSH2 0x25B PUSH1 0x4 DUP1 CALLDATASIZE SUB DUP2 ADD SWAP1 PUSH2 0x256 SWAP2 SWAP1 PUSH2 0x1EA4 JUMP JUMPDEST PUSH2 0x9D4 JUMP JUMPDEST PUSH1 0x40 MLOAD PUSH2 0x26B SWAP5 SWAP4 SWAP3 SWAP2 SWAP1 PUSH2 0x1F3E JUMP JUMPDEST PUSH1 0x40 MLOAD DUP1 SWAP2 SUB SWAP1 RETURN JUMPDEST PUSH2 0x28E PUSH1 0x4 DUP1 CALLDATASIZE SUB DUP2 ADD SWAP1 PUSH2 0x289 SWAP2 SWAP1 PUSH2 0x1DF2 JUMP JUMPDEST PUSH2 0xB2B JUMP JUMPDEST STOP JUMPDEST PUSH2 0x298 PUSH2 0xC66 JUMP JUMPDEST PUSH1 0x40 MLOAD PUSH2 0x2A5 SWAP2 SWAP1 PUSH2 0x1C32 JUMP JUMPDEST PUSH1 0x40 MLOAD DUP1 SWAP2 SUB SWAP1 RETURN JUMPDEST PUSH2 0x2C8 PUSH1 0x4 DUP1 CALLDATASIZE SUB DUP2 ADD SWAP1 PUSH2 0x2C3 SWAP2 SWAP1 PUSH2 0x1DF2 JUMP JUMPDEST PUSH2 0xC6C JUMP JUMPDEST STOP JUMPDEST PUSH2 0x2E4 PUSH1 0x4 DUP1 CALLDATASIZE SUB DUP2 ADD SWAP1 PUSH2 0x2DF SWAP2 SWAP1 PUSH2 0x1EA4 JUMP JUMPDEST PUSH2 0xDA7 JUMP JUMPDEST STOP JUMPDEST PUSH2 0x300 PUSH1 0x4 DUP1 CALLDATASIZE SUB DUP2 ADD SWAP1 PUSH2 0x2FB SWAP2 SWAP1 PUSH2 0x1EA4 JUMP JUMPDEST PUSH2 0xE7F JUMP JUMPDEST PUSH1 0x40 MLOAD PUSH2 0x314 SWAP9 SWAP8 SWAP7 SWAP6 SWAP5 SWAP4 SWAP3 SWAP2 SWAP1 PUSH2 0x2002 JUMP JUMPDEST PUSH1 0x40 MLOAD DUP1 SWAP2 SUB SWAP1 RETURN JUMPDEST PUSH2 0x337 PUSH1 0x4 DUP1 CALLDATASIZE SUB DUP2 ADD SWAP1 PUSH2 0x332 SWAP2 SWAP1 PUSH2 0x1EA4 JUMP JUMPDEST PUSH2 0xFDB JUMP JUMPDEST STOP JUMPDEST PUSH2 0x353 PUSH1 0x4 DUP1 CALLDATASIZE SUB DUP2 ADD SWAP1 PUSH2 0x34E SWAP2 SWAP1 PUSH2 0x1EA4 JUMP JUMPDEST PUSH2 0x10BA JUMP JUMPDEST STOP JUMPDEST PUSH2 0x35D PUSH2 0x1193 JUMP JUMPDEST PUSH1 0x40 MLOAD PUSH2 0x36A SWAP2 SWAP1 PUSH2 0x208C JUMP JUMPDEST PUSH1 0x40 MLOAD DUP1 SWAP2 SUB SWAP1 RETURN JUMPDEST PUSH2 0x38D PUSH1 0x4 DUP1 CALLDATASIZE SUB DUP2 ADD SWAP1 PUSH2 0x388 SWAP2 SWAP1 PUSH2 0x20A5 JUMP JUMPDEST PUSH2 0x11B6 JUMP JUMPDEST STOP JUMPDEST PUSH2 0x3A9 PUSH1 0x4 DUP1 CALLDATASIZE SUB DUP2 ADD SWAP1 PUSH2 0x3A4 SWAP2 SWAP1 PUSH2 0x1EA4 JUMP JUMPDEST PUSH2 0x134A JUMP JUMPDEST PUSH1 0x40 MLOAD PUSH2 0x3B9 SWAP5 SWAP4 SWAP3 SWAP2 SWAP1 PUSH2 0x1F3E JUMP JUMPDEST PUSH1 0x40 MLOAD DUP1 SWAP2 SUB SWAP1 RETURN JUMPDEST PUSH2 0x3CA PUSH2 0x14A1 JUMP JUMPDEST PUSH1 0x40 MLOAD PUSH2 0x3D7 SWAP2 SWAP1 PUSH2 0x1C32 JUMP JUMPDEST PUSH1 0x40 MLOAD DUP1 SWAP2 SUB SWAP1 RETURN JUMPDEST PUSH2 0x3FA PUSH1 0x4 DUP1 CALLDATASIZE SUB DUP2 ADD SWAP1 PUSH2 0x3F5 SWAP2 SWAP1 PUSH2 0x1EA4 JUMP JUMPDEST PUSH2 0x14A7 JUMP JUMPDEST PUSH1 0x40 MLOAD PUSH2 0x407 SWAP2 SWAP1 PUSH2 0x211B JUMP JUMPDEST PUSH1 0x40 MLOAD DUP1 SWAP2 SUB SWAP1 RETURN JUMPDEST PUSH2 0x42A PUSH1 0x4 DUP1 CALLDATASIZE SUB DUP2 ADD SWAP1 PUSH2 0x425 SWAP2 SWAP1 PUSH2 0x1EA4 JUMP JUMPDEST PUSH2 0x17D3 JUMP JUMPDEST PUSH1 0x40 MLOAD PUSH2 0x43A SWAP5 SWAP4 SWAP3 SWAP2 SWAP1 PUSH2 0x1F3E JUMP JUMPDEST PUSH1 0x40 MLOAD DUP1 SWAP2 SUB SWAP1 RETURN JUMPDEST PUSH1 0x1 SLOAD DUP2 JUMP JUMPDEST PUSH0 DUP1 SLOAD SWAP1 PUSH2 0x100 EXP SWAP1 DIV PUSH20 0xFFFFFFFFFFFFFFFFFFFFFFFFFFFFFFFFFFFFFFFF AND PUSH20 0xFFFFFFFFFFFFFFFFFFFFFFFFFFFFFFFFFFFFFFFF AND CALLER PUSH20 0xFFFFFFFFFFFFFFFFFFFFFFFFFFFFFFFFFFFFFFFF AND EQ PUSH2 0x49F JUMPI PUSH0 DUP1 REVERT JUMPDEST PUSH1 0x4 PUSH0 DUP2 SLOAD DUP1 SWAP3 SWAP2 SWAP1 PUSH2 0x4B1 SWAP1 PUSH2 0x2168 JUMP JUMPDEST SWAP2 SWAP1 POP SSTORE POP PUSH1 0x40 MLOAD DUP1 PUSH1 0x80 ADD PUSH1 0x40 MSTORE DUP1 DUP5 PUSH20 0xFFFFFFFFFFFFFFFFFFFFFFFFFFFFFFFFFFFFFFFF AND DUP2 MSTORE PUSH1 0x20 ADD PUSH1 0x4 SLOAD DUP2 MSTORE PUSH1 0x20 ADD DUP4 DUP2 MSTORE PUSH1 0x20 ADD DUP3 DUP2 MSTORE POP PUSH1 0x9 PUSH0 PUSH1 0x4 SLOAD DUP2 MSTORE PUSH1 0x20 ADD SWAP1 DUP2 MSTORE PUSH1 0x20 ADD PUSH0 KECCAK256 PUSH0 DUP3 ADD MLOAD DUP2 PUSH0 ADD PUSH0 PUSH2 0x100 EXP DUP2 SLOAD DUP2 PUSH20 0xFFFFFFFFFFFFFFFFFFFFFFFFFFFFFFFFFFFFFFFF MUL NOT AND SWAP1 DUP4 PUSH20 0xFFFFFFFFFFFFFFFFFFFFFFFFFFFFFFFFFFFFFFFF AND MUL OR SWAP1 SSTORE POP PUSH1 0x20 DUP3 ADD MLOAD DUP2 PUSH1 0x1 ADD SSTORE PUSH1 0x40 DUP3 ADD MLOAD DUP2 PUSH1 0x2 ADD SWAP1 DUP2 PUSH2 0x565 SWAP2 SWAP1 PUSH2 0x23A9 JUMP JUMPDEST POP PUSH1 0x60 DUP3 ADD MLOAD DUP2 PUSH1 0x3 ADD SWAP1 DUP2 PUSH2 0x57B SWAP2 SWAP1 PUSH2 0x23A9 JUMP JUMPDEST POP SWAP1 POP POP POP POP POP JUMP JUMPDEST PUSH1 0x9 PUSH1 0x20 MSTORE DUP1 PUSH0 MSTORE PUSH1 0x40 PUSH0 KECCAK256 PUSH0 SWAP2 POP SWAP1 POP DUP1 PUSH0 ADD PUSH0 SWAP1 SLOAD SWAP1 PUSH2 0x100 EXP SWAP1 DIV PUSH20 0xFFFFFFFFFFFFFFFFFFFFFFFFFFFFFFFFFFFFFFFF AND SWAP1 DUP1 PUSH1 0x1 ADD SLOAD SWAP1 DUP1 PUSH1 0x2 ADD DUP1 SLOAD PUSH2 0x5CE SWAP1 PUSH2 0x21DC JUMP JUMPDEST DUP1 PUSH1 0x1F ADD PUSH1 0x20 DUP1 SWAP2 DIV MUL PUSH1 0x20 ADD PUSH1 0x40 MLOAD SWAP1 DUP2 ADD PUSH1 0x40 MSTORE DUP1 SWAP3 SWAP2 SWAP1 DUP2 DUP2 MSTORE PUSH1 0x20 ADD DUP3 DUP1 SLOAD PUSH2 0x5FA SWAP1 PUSH2 0x21DC JUMP JUMPDEST DUP1 ISZERO PUSH2 0x645 JUMPI DUP1 PUSH1 0x1F LT PUSH2 0x61C JUMPI PUSH2 0x100 DUP1 DUP4 SLOAD DIV MUL DUP4 MSTORE SWAP2 PUSH1 0x20 ADD SWAP2 PUSH2 0x645 JUMP JUMPDEST DUP3 ADD SWAP2 SWAP1 PUSH0 MSTORE PUSH1 0x20 PUSH0 KECCAK256 SWAP1 JUMPDEST DUP2 SLOAD DUP2 MSTORE SWAP1 PUSH1 0x1 ADD SWAP1 PUSH1 0x20 ADD DUP1 DUP4 GT PUSH2 0x628 JUMPI DUP3 SWAP1 SUB PUSH1 0x1F AND DUP3 ADD SWAP2 JUMPDEST POP POP POP POP POP SWAP1 DUP1 PUSH1 0x3 ADD DUP1 SLOAD PUSH2 0x65A SWAP1 PUSH2 0x21DC JUMP JUMPDEST DUP1 PUSH1 0x1F ADD PUSH1 0x20 DUP1 SWAP2 DIV MUL PUSH1 0x20 ADD PUSH1 0x40 MLOAD SWAP1 DUP2 ADD PUSH1 0x40 MSTORE DUP1 SWAP3 SWAP2 SWAP1 DUP2 DUP2 MSTORE PUSH1 0x20 ADD DUP3 DUP1 SLOAD PUSH2 0x686 SWAP1 PUSH2 0x21DC JUMP JUMPDEST DUP1 ISZERO PUSH2 0x6D1 JUMPI DUP1 PUSH1 0x1F LT PUSH2 0x6A8 JUMPI PUSH2 0x100 DUP1 DUP4 SLOAD DIV MUL DUP4 MSTORE SWAP2 PUSH1 0x20 ADD SWAP2 PUSH2 0x6D1 JUMP JUMPDEST DUP3 ADD SWAP2 SWAP1 PUSH0 MSTORE PUSH1 0x20 PUSH0 KECCAK256 SWAP1 JUMPDEST DUP2 SLOAD DUP2 MSTORE SWAP1 PUSH1 0x1 ADD SWAP1 PUSH1 0x20 ADD DUP1 DUP4 GT PUSH2 0x6B4 JUMPI DUP3 SWAP1 SUB PUSH1 0x1F AND DUP3 ADD SWAP2 JUMPDEST POP POP POP POP POP SWAP1 POP DUP5 JUMP JUMPDEST PUSH0 DUP1 SLOAD SWAP1 PUSH2 0x100 EXP SWAP1 DIV PUSH20 0xFFFFFFFFFFFFFFFFFFFFFFFFFFFFFFFFFFFFFFFF AND PUSH20 0xFFFFFFFFFFFFFFFFFFFFFFFFFFFFFFFFFFFFFFFF AND CALLER PUSH20 0xFFFFFFFFFFFFFFFFFFFFFFFFFFFFFFFFFFFFFFFF AND EQ PUSH2 0x731 JUMPI PUSH0 DUP1 REVERT JUMPDEST PUSH1 0x2 PUSH0 DUP2 SLOAD DUP1 SWAP3 SWAP2 SWAP1 PUSH2 0x743 SWAP1 PUSH2 0x2168 JUMP JUMPDEST SWAP2 SWAP1 POP SSTORE POP PUSH1 0x40 MLOAD DUP1 PUSH1 0x80 ADD PUSH1 0x40 MSTORE DUP1 DUP5 PUSH20 0xFFFFFFFFFFFFFFFFFFFFFFFFFFFFFFFFFFFFFFFF AND DUP2 MSTORE PUSH1 0x20 ADD PUSH1 0x2 SLOAD DUP2 MSTORE PUSH1 0x20 ADD DUP4 DUP2 MSTORE PUSH1 0x20 ADD DUP3 DUP2 MSTORE POP PUSH1 0x7 PUSH0 PUSH1 0x2 SLOAD DUP2 MSTORE PUSH1 0x20 ADD SWAP1 DUP2 MSTORE PUSH1 0x20 ADD PUSH0 KECCAK256 PUSH0 DUP3 ADD MLOAD DUP2 PUSH0 ADD PUSH0 PUSH2 0x100 EXP DUP2 SLOAD DUP2 PUSH20 0xFFFFFFFFFFFFFFFFFFFFFFFFFFFFFFFFFFFFFFFF MUL NOT AND SWAP1 DUP4 PUSH20 0xFFFFFFFFFFFFFFFFFFFFFFFFFFFFFFFFFFFFFFFF AND MUL OR SWAP1 SSTORE POP PUSH1 0x20 DUP3 ADD MLOAD DUP2 PUSH1 0x1 ADD SSTORE PUSH1 0x40 DUP3 ADD MLOAD DUP2 PUSH1 0x2 ADD SWAP1 DUP2 PUSH2 0x7F7 SWAP2 SWAP1 PUSH2 0x23A9 JUMP JUMPDEST POP PUSH1 0x60 DUP3 ADD MLOAD DUP2 PUSH1 0x3 ADD SWAP1 DUP2 PUSH2 0x80D SWAP2 SWAP1 PUSH2 0x23A9 JUMP JUMPDEST POP SWAP1 POP POP POP POP POP JUMP JUMPDEST PUSH1 0x4 SLOAD DUP2 JUMP JUMPDEST PUSH0 DUP2 GT DUP1 ISZERO PUSH2 0x82D JUMPI POP PUSH1 0x1 SLOAD DUP2 GT ISZERO JUMPDEST PUSH2 0x835 JUMPI PUSH0 DUP1 REVERT JUMPDEST PUSH0 PUSH2 0x83F CALLER PUSH2 0x192A JUMP JUMPDEST SWAP1 POP PUSH0 DUP2 GT PUSH2 0x84C JUMPI PUSH0 DUP1 REVERT JUMPDEST PUSH1 0x3 PUSH1 0x5 DUP2 GT ISZERO PUSH2 0x860 JUMPI PUSH2 0x85F PUSH2 0x1F8F JUMP JUMPDEST JUMPDEST PUSH1 0x6 PUSH0 DUP5 DUP2 MSTORE PUSH1 0x20 ADD SWAP1 DUP2 MSTORE PUSH1 0x20 ADD PUSH0 KECCAK256 PUSH1 0x7 ADD PUSH0 SWAP1 SLOAD SWAP1 PUSH2 0x100 EXP SWAP1 DIV PUSH1 0xFF AND PUSH1 0x5 DUP2 GT ISZERO PUSH2 0x893 JUMPI PUSH2 0x892 PUSH2 0x1F8F JUMP JUMPDEST JUMPDEST EQ PUSH2 0x89C JUMPI PUSH0 DUP1 REVERT JUMPDEST DUP1 PUSH1 0x6 PUSH0 DUP5 DUP2 MSTORE PUSH1 0x20 ADD SWAP1 DUP2 MSTORE PUSH1 0x20 ADD PUSH0 KECCAK256 PUSH1 0x6 ADD DUP2 SWAP1 SSTORE POP PUSH1 0x4 PUSH1 0x6 PUSH0 DUP5 DUP2 MSTORE PUSH1 0x20 ADD SWAP1 DUP2 MSTORE PUSH1 0x20 ADD PUSH0 KECCAK256 PUSH1 0x7 ADD PUSH0 PUSH2 0x100 EXP DUP2 SLOAD DUP2 PUSH1 0xFF MUL NOT AND SWAP1 DUP4 PUSH1 0x5 DUP2 GT ISZERO PUSH2 0x8EC JUMPI PUSH2 0x8EB PUSH2 0x1F8F JUMP JUMPDEST JUMPDEST MUL OR SWAP1 SSTORE POP POP POP JUMP JUMPDEST PUSH1 0x3 SLOAD DUP2 JUMP JUMPDEST PUSH0 DUP2 GT DUP1 ISZERO PUSH2 0x90C JUMPI POP PUSH1 0x1 SLOAD DUP2 GT ISZERO JUMPDEST PUSH2 0x914 JUMPI PUSH0 DUP1 REVERT JUMPDEST PUSH0 PUSH2 0x91E CALLER PUSH2 0x19E6 JUMP JUMPDEST SWAP1 POP PUSH0 DUP2 GT PUSH2 0x92B JUMPI PUSH0 DUP1 REVERT JUMPDEST PUSH1 0x2 PUSH1 0x5 DUP2 GT ISZERO PUSH2 0x93F JUMPI PUSH2 0x93E PUSH2 0x1F8F JUMP JUMPDEST JUMPDEST PUSH1 0x6 PUSH0 DUP5 DUP2 MSTORE PUSH1 0x20 ADD SWAP1 DUP2 MSTORE PUSH1 0x20 ADD PUSH0 KECCAK256 PUSH1 0x7 ADD PUSH0 SWAP1 SLOAD SWAP1 PUSH2 0x100 EXP SWAP1 DIV PUSH1 0xFF AND PUSH1 0x5 DUP2 GT ISZERO PUSH2 0x972 JUMPI PUSH2 0x971 PUSH2 0x1F8F JUMP JUMPDEST JUMPDEST EQ PUSH2 0x97B JUMPI PUSH0 DUP1 REVERT JUMPDEST DUP1 PUSH1 0x6 PUSH0 DUP5 DUP2 MSTORE PUSH1 0x20 ADD SWAP1 DUP2 MSTORE PUSH1 0x20 ADD PUSH0 KECCAK256 PUSH1 0x5 ADD DUP2 SWAP1 SSTORE POP PUSH1 0x3 PUSH1 0x6 PUSH0 DUP5 DUP2 MSTORE PUSH1 0x20 ADD SWAP1 DUP2 MSTORE PUSH1 0x20 ADD PUSH0 KECCAK256 PUSH1 0x7 ADD PUSH0 PUSH2 0x100 EXP DUP2 SLOAD DUP2 PUSH1 0xFF MUL NOT AND SWAP1 DUP4 PUSH1 0x5 DUP2 GT ISZERO PUSH2 0x9CB JUMPI PUSH2 0x9CA PUSH2 0x1F8F JUMP JUMPDEST JUMPDEST MUL OR SWAP1 SSTORE POP POP POP JUMP JUMPDEST PUSH1 0xA PUSH1 0x20 MSTORE DUP1 PUSH0 MSTORE PUSH1 0x40 PUSH0 KECCAK256 PUSH0 SWAP2 POP SWAP1 POP DUP1 PUSH0 ADD PUSH0 SWAP1 SLOAD SWAP1 PUSH2 0x100 EXP SWAP1 DIV PUSH20 0xFFFFFFFFFFFFFFFFFFFFFFFFFFFFFFFFFFFFFFFF AND SWAP1 DUP1 PUSH1 0x1 ADD SLOAD SWAP1 DUP1 PUSH1 0x2 ADD DUP1 SLOAD PUSH2 0xA1E SWAP1 PUSH2 0x21DC JUMP JUMPDEST DUP1 PUSH1 0x1F ADD PUSH1 0x20 DUP1 SWAP2 DIV MUL PUSH1 0x20 ADD PUSH1 0x40 MLOAD SWAP1 DUP2 ADD PUSH1 0x40 MSTORE DUP1 SWAP3 SWAP2 SWAP1 DUP2 DUP2 MSTORE PUSH1 0x20 ADD DUP3 DUP1 SLOAD PUSH2 0xA4A SWAP1 PUSH2 0x21DC JUMP JUMPDEST DUP1 ISZERO PUSH2 0xA95 JUMPI DUP1 PUSH1 0x1F LT PUSH2 0xA6C JUMPI PUSH2 0x100 DUP1 DUP4 SLOAD DIV MUL DUP4 MSTORE SWAP2 PUSH1 0x20 ADD SWAP2 PUSH2 0xA95 JUMP JUMPDEST DUP3 ADD SWAP2 SWAP1 PUSH0 MSTORE PUSH1 0x20 PUSH0 KECCAK256 SWAP1 JUMPDEST DUP2 SLOAD DUP2 MSTORE SWAP1 PUSH1 0x1 ADD SWAP1 PUSH1 0x20 ADD DUP1 DUP4 GT PUSH2 0xA78 JUMPI DUP3 SWAP1 SUB PUSH1 0x1F AND DUP3 ADD SWAP2 JUMPDEST POP POP POP POP POP SWAP1 DUP1 PUSH1 0x3 ADD DUP1 SLOAD PUSH2 0xAAA SWAP1 PUSH2 0x21DC JUMP JUMPDEST DUP1 PUSH1 0x1F ADD PUSH1 0x20 DUP1 SWAP2 DIV MUL PUSH1 0x20 ADD PUSH1 0x40 MLOAD SWAP1 DUP2 ADD PUSH1 0x40 MSTORE DUP1 SWAP3 SWAP2 SWAP1 DUP2 DUP2 MSTORE PUSH1 0x20 ADD DUP3 DUP1 SLOAD PUSH2 0xAD6 SWAP1 PUSH2 0x21DC JUMP JUMPDEST DUP1 ISZERO PUSH2 0xB21 JUMPI DUP1 PUSH1 0x1F LT PUSH2 0xAF8 JUMPI PUSH2 0x100 DUP1 DUP4 SLOAD DIV MUL DUP4 MSTORE SWAP2 PUSH1 0x20 ADD SWAP2 PUSH2 0xB21 JUMP JUMPDEST DUP3 ADD SWAP2 SWAP1 PUSH0 MSTORE PUSH1 0x20 PUSH0 KECCAK256 SWAP1 JUMPDEST DUP2 SLOAD DUP2 MSTORE SWAP1 PUSH1 0x1 ADD SWAP1 PUSH1 0x20 ADD DUP1 DUP4 GT PUSH2 0xB04 JUMPI DUP3 SWAP1 SUB PUSH1 0x1F AND DUP3 ADD SWAP2 JUMPDEST POP POP POP POP POP SWAP1 POP DUP5 JUMP JUMPDEST PUSH0 DUP1 SLOAD SWAP1 PUSH2 0x100 EXP SWAP1 DIV PUSH20 0xFFFFFFFFFFFFFFFFFFFFFFFFFFFFFFFFFFFFFFFF AND PUSH20 0xFFFFFFFFFFFFFFFFFFFFFFFFFFFFFFFFFFFFFFFF AND CALLER PUSH20 0xFFFFFFFFFFFFFFFFFFFFFFFFFFFFFFFFFFFFFFFF AND EQ PUSH2 0xB81 JUMPI PUSH0 DUP1 REVERT JUMPDEST PUSH1 0x3 PUSH0 DUP2 SLOAD DUP1 SWAP3 SWAP2 SWAP1 PUSH2 0xB93 SWAP1 PUSH2 0x2168 JUMP JUMPDEST SWAP2 SWAP1 POP SSTORE POP PUSH1 0x40 MLOAD DUP1 PUSH1 0x80 ADD PUSH1 0x40 MSTORE DUP1 DUP5 PUSH20 0xFFFFFFFFFFFFFFFFFFFFFFFFFFFFFFFFFFFFFFFF AND DUP2 MSTORE PUSH1 0x20 ADD PUSH1 0x3 SLOAD DUP2 MSTORE PUSH1 0x20 ADD DUP4 DUP2 MSTORE PUSH1 0x20 ADD DUP3 DUP2 MSTORE POP PUSH1 0x8 PUSH0 PUSH1 0x3 SLOAD DUP2 MSTORE PUSH1 0x20 ADD SWAP1 DUP2 MSTORE PUSH1 0x20 ADD PUSH0 KECCAK256 PUSH0 DUP3 ADD MLOAD DUP2 PUSH0 ADD PUSH0 PUSH2 0x100 EXP DUP2 SLOAD DUP2 PUSH20 0xFFFFFFFFFFFFFFFFFFFFFFFFFFFFFFFFFFFFFFFF MUL NOT AND SWAP1 DUP4 PUSH20 0xFFFFFFFFFFFFFFFFFFFFFFFFFFFFFFFFFFFFFFFF AND MUL OR SWAP1 SSTORE POP PUSH1 0x20 DUP3 ADD MLOAD DUP2 PUSH1 0x1 ADD SSTORE PUSH1 0x40 DUP3 ADD MLOAD DUP2 PUSH1 0x2 ADD SWAP1 DUP2 PUSH2 0xC47 SWAP2 SWAP1 PUSH2 0x23A9 JUMP JUMPDEST POP PUSH1 0x60 DUP3 ADD MLOAD DUP2 PUSH1 0x3 ADD SWAP1 DUP2 PUSH2 0xC5D SWAP2 SWAP1 PUSH2 0x23A9 JUMP JUMPDEST POP SWAP1 POP POP POP POP POP JUMP JUMPDEST PUSH1 0x5 SLOAD DUP2 JUMP JUMPDEST PUSH0 DUP1 SLOAD SWAP1 PUSH2 0x100 EXP SWAP1 DIV PUSH20 0xFFFFFFFFFFFFFFFFFFFFFFFFFFFFFFFFFFFFFFFF AND PUSH20 0xFFFFFFFFFFFFFFFFFFFFFFFFFFFFFFFFFFFFFFFF AND CALLER PUSH20 0xFFFFFFFFFFFFFFFFFFFFFFFFFFFFFFFFFFFFFFFF AND EQ PUSH2 0xCC2 JUMPI PUSH0 DUP1 REVERT JUMPDEST PUSH1 0x5 PUSH0 DUP2 SLOAD DUP1 SWAP3 SWAP2 SWAP1 PUSH2 0xCD4 SWAP1 PUSH2 0x2168 JUMP JUMPDEST SWAP2 SWAP1 POP SSTORE POP PUSH1 0x40 MLOAD DUP1 PUSH1 0x80 ADD PUSH1 0x40 MSTORE DUP1 DUP5 PUSH20 0xFFFFFFFFFFFFFFFFFFFFFFFFFFFFFFFFFFFFFFFF AND DUP2 MSTORE PUSH1 0x20 ADD PUSH1 0x5 SLOAD DUP2 MSTORE PUSH1 0x20 ADD DUP4 DUP2 MSTORE PUSH1 0x20 ADD DUP3 DUP2 MSTORE POP PUSH1 0xA PUSH0 PUSH1 0x5 SLOAD DUP2 MSTORE PUSH1 0x20 ADD SWAP1 DUP2 MSTORE PUSH1 0x20 ADD PUSH0 KECCAK256 PUSH0 DUP3 ADD MLOAD DUP2 PUSH0 ADD PUSH0 PUSH2 0x100 EXP DUP2 SLOAD DUP2 PUSH20 0xFFFFFFFFFFFFFFFFFFFFFFFFFFFFFFFFFFFFFFFF MUL NOT AND SWAP1 DUP4 PUSH20 0xFFFFFFFFFFFFFFFFFFFFFFFFFFFFFFFFFFFFFFFF AND MUL OR SWAP1 SSTORE POP PUSH1 0x20 DUP3 ADD MLOAD DUP2 PUSH1 0x1 ADD SSTORE PUSH1 0x40 DUP3 ADD MLOAD DUP2 PUSH1 0x2 ADD SWAP1 DUP2 PUSH2 0xD88 SWAP2 SWAP1 PUSH2 0x23A9 JUMP JUMPDEST POP PUSH1 0x60 DUP3 ADD MLOAD DUP2 PUSH1 0x3 ADD SWAP1 DUP2 PUSH2 0xD9E SWAP2 SWAP1 PUSH2 0x23A9 JUMP JUMPDEST POP SWAP1 POP POP POP POP POP JUMP JUMPDEST PUSH0 DUP2 GT DUP1 ISZERO PUSH2 0xDB8 JUMPI POP PUSH1 0x1 SLOAD DUP2 GT ISZERO JUMPDEST PUSH2 0xDC0 JUMPI PUSH0 DUP1 REVERT JUMPDEST PUSH0 PUSH2 0xDCA CALLER PUSH2 0x1AA2 JUMP JUMPDEST SWAP1 POP PUSH0 DUP2 GT PUSH2 0xDD7 JUMPI PUSH0 DUP1 REVERT JUMPDEST PUSH0 PUSH1 0x5 DUP2 GT ISZERO PUSH2 0xDEA JUMPI PUSH2 0xDE9 PUSH2 0x1F8F JUMP JUMPDEST JUMPDEST PUSH1 0x6 PUSH0 DUP5 DUP2 MSTORE PUSH1 0x20 ADD SWAP1 DUP2 MSTORE PUSH1 0x20 ADD PUSH0 KECCAK256 PUSH1 0x7 ADD PUSH0 SWAP1 SLOAD SWAP1 PUSH2 0x100 EXP SWAP1 DIV PUSH1 0xFF AND PUSH1 0x5 DUP2 GT ISZERO PUSH2 0xE1D JUMPI PUSH2 0xE1C PUSH2 0x1F8F JUMP JUMPDEST JUMPDEST EQ PUSH2 0xE26 JUMPI PUSH0 DUP1 REVERT JUMPDEST DUP1 PUSH1 0x6 PUSH0 DUP5 DUP2 MSTORE PUSH1 0x20 ADD SWAP1 DUP2 MSTORE PUSH1 0x20 ADD PUSH0 KECCAK256 PUSH1 0x3 ADD DUP2 SWAP1 SSTORE POP PUSH1 0x1 PUSH1 0x6 PUSH0 DUP5 DUP2 MSTORE PUSH1 0x20 ADD SWAP1 DUP2 MSTORE PUSH1 0x20 ADD PUSH0 KECCAK256 PUSH1 0x7 ADD PUSH0 PUSH2 0x100 EXP DUP2 SLOAD DUP2 PUSH1 0xFF MUL NOT AND SWAP1 DUP4 PUSH1 0x5 DUP2 GT ISZERO PUSH2 0xE76 JUMPI PUSH2 0xE75 PUSH2 0x1F8F JUMP JUMPDEST JUMPDEST MUL OR SWAP1 SSTORE POP POP POP JUMP JUMPDEST PUSH1 0x6 PUSH1 0x20 MSTORE DUP1 PUSH0 MSTORE PUSH1 0x40 PUSH0 KECCAK256 PUSH0 SWAP2 POP SWAP1 POP DUP1 PUSH0 ADD SLOAD SWAP1 DUP1 PUSH1 0x1 ADD DUP1 SLOAD PUSH2 0xEA4 SWAP1 PUSH2 0x21DC JUMP JUMPDEST DUP1 PUSH1 0x1F ADD PUSH1 0x20 DUP1 SWAP2 DIV MUL PUSH1 0x20 ADD PUSH1 0x40 MLOAD SWAP1 DUP2 ADD PUSH1 0x40 MSTORE DUP1 SWAP3 SWAP2 SWAP1 DUP2 DUP2 MSTORE PUSH1 0x20 ADD DUP3 DUP1 SLOAD PUSH2 0xED0 SWAP1 PUSH2 0x21DC JUMP JUMPDEST DUP1 ISZERO PUSH2 0xF1B JUMPI DUP1 PUSH1 0x1F LT PUSH2 0xEF2 JUMPI PUSH2 0x100 DUP1 DUP4 SLOAD DIV MUL DUP4 MSTORE SWAP2 PUSH1 0x20 ADD SWAP2 PUSH2 0xF1B JUMP JUMPDEST DUP3 ADD SWAP2 SWAP1 PUSH0 MSTORE PUSH1 0x20 PUSH0 KECCAK256 SWAP1 JUMPDEST DUP2 SLOAD DUP2 MSTORE SWAP1 PUSH1 0x1 ADD SWAP1 PUSH1 0x20 ADD DUP1 DUP4 GT PUSH2 0xEFE JUMPI DUP3 SWAP1 SUB PUSH1 0x1F AND DUP3 ADD SWAP2 JUMPDEST POP POP POP POP POP SWAP1 DUP1 PUSH1 0x2 ADD DUP1 SLOAD PUSH2 0xF30 SWAP1 PUSH2 0x21DC JUMP JUMPDEST DUP1 PUSH1 0x1F ADD PUSH1 0x20 DUP1 SWAP2 DIV MUL PUSH1 0x20 ADD PUSH1 0x40 MLOAD SWAP1 DUP2 ADD PUSH1 0x40 MSTORE DUP1 SWAP3 SWAP2 SWAP1 DUP2 DUP2 MSTORE PUSH1 0x20 ADD DUP3 DUP1 SLOAD PUSH2 0xF5C SWAP1 PUSH2 0x21DC JUMP JUMPDEST DUP1 ISZERO PUSH2 0xFA7 JUMPI DUP1 PUSH1 0x1F LT PUSH2 0xF7E JUMPI PUSH2 0x100 DUP1 DUP4 SLOAD DIV MUL DUP4 MSTORE SWAP2 PUSH1 0x20 ADD SWAP2 PUSH2 0xFA7 JUMP JUMPDEST DUP3 ADD SWAP2 SWAP1 PUSH0 MSTORE PUSH1 0x20 PUSH0 KECCAK256 SWAP1 JUMPDEST DUP2 SLOAD DUP2 MSTORE SWAP1 PUSH1 0x1 ADD SWAP1 PUSH1 0x20 ADD DUP1 DUP4 GT PUSH2 0xF8A JUMPI DUP3 SWAP1 SUB PUSH1 0x1F AND DUP3 ADD SWAP2 JUMPDEST POP POP POP POP POP SWAP1 DUP1 PUSH1 0x3 ADD SLOAD SWAP1 DUP1 PUSH1 0x4 ADD SLOAD SWAP1 DUP1 PUSH1 0x5 ADD SLOAD SWAP1 DUP1 PUSH1 0x6 ADD SLOAD SWAP1 DUP1 PUSH1 0x7 ADD PUSH0 SWAP1 SLOAD SWAP1 PUSH2 0x100 EXP SWAP1 DIV PUSH1 0xFF AND SWAP1 POP DUP9 JUMP JUMPDEST PUSH0 DUP2 GT DUP1 ISZERO PUSH2 0xFEC JUMPI POP PUSH1 0x1 SLOAD DUP2 GT ISZERO JUMPDEST PUSH2 0xFF4 JUMPI PUSH0 DUP1 REVERT JUMPDEST PUSH0 PUSH2 0xFFE CALLER PUSH2 0x192A JUMP JUMPDEST SWAP1 POP PUSH0 DUP2 GT PUSH2 0x100B JUMPI PUSH0 DUP1 REVERT JUMPDEST PUSH1 0x6 PUSH0 DUP4 DUP2 MSTORE PUSH1 0x20 ADD SWAP1 DUP2 MSTORE PUSH1 0x20 ADD PUSH0 KECCAK256 PUSH1 0x6 ADD SLOAD DUP2 EQ PUSH2 0x102A JUMPI PUSH0 DUP1 REVERT JUMPDEST PUSH1 0x4 PUSH1 0x5 DUP2 GT ISZERO PUSH2 0x103E JUMPI PUSH2 0x103D PUSH2 0x1F8F JUMP JUMPDEST JUMPDEST PUSH1 0x6 PUSH0 DUP5 DUP2 MSTORE PUSH1 0x20 ADD SWAP1 DUP2 MSTORE PUSH1 0x20 ADD PUSH0 KECCAK256 PUSH1 0x7 ADD PUSH0 SWAP1 SLOAD SWAP1 PUSH2 0x100 EXP SWAP1 DIV PUSH1 0xFF AND PUSH1 0x5 DUP2 GT ISZERO PUSH2 0x1071 JUMPI PUSH2 0x1070 PUSH2 0x1F8F JUMP JUMPDEST JUMPDEST EQ PUSH2 0x107A JUMPI PUSH0 DUP1 REVERT JUMPDEST PUSH1 0x5 PUSH1 0x6 PUSH0 DUP5 DUP2 MSTORE PUSH1 0x20 ADD SWAP1 DUP2 MSTORE PUSH1 0x20 ADD PUSH0 KECCAK256 PUSH1 0x7 ADD PUSH0 PUSH2 0x100 EXP DUP2 SLOAD DUP2 PUSH1 0xFF MUL NOT AND SWAP1 DUP4 PUSH1 0x5 DUP2 GT ISZERO PUSH2 0x10B1 JUMPI PUSH2 0x10B0 PUSH2 0x1F8F JUMP JUMPDEST JUMPDEST MUL OR SWAP1 SSTORE POP POP POP JUMP JUMPDEST PUSH0 DUP2 GT DUP1 ISZERO PUSH2 0x10CB JUMPI POP PUSH1 0x1 SLOAD DUP2 GT ISZERO JUMPDEST PUSH2 0x10D3 JUMPI PUSH0 DUP1 REVERT JUMPDEST PUSH0 PUSH2 0x10DD CALLER PUSH2 0x1B5E JUMP JUMPDEST SWAP1 POP PUSH0 DUP2 GT PUSH2 0x10EA JUMPI PUSH0 DUP1 REVERT JUMPDEST PUSH1 0x1 PUSH1 0x5 DUP2 GT ISZERO PUSH2 0x10FE JUMPI PUSH2 0x10FD PUSH2 0x1F8F JUMP JUMPDEST JUMPDEST PUSH1 0x6 PUSH0 DUP5 DUP2 MSTORE PUSH1 0x20 ADD SWAP1 DUP2 MSTORE PUSH1 0x20 ADD PUSH0 KECCAK256 PUSH1 0x7 ADD PUSH0 SWAP1 SLOAD SWAP1 PUSH2 0x100 EXP SWAP1 DIV PUSH1 0xFF AND PUSH1 0x5 DUP2 GT ISZERO PUSH2 0x1131 JUMPI PUSH2 0x1130 PUSH2 0x1F8F JUMP JUMPDEST JUMPDEST EQ PUSH2 0x113A JUMPI PUSH0 DUP1 REVERT JUMPDEST DUP1 PUSH1 0x6 PUSH0 DUP5 DUP2 MSTORE PUSH1 0x20 ADD SWAP1 DUP2 MSTORE PUSH1 0x20 ADD PUSH0 KECCAK256 PUSH1 0x4 ADD DUP2 SWAP1 SSTORE POP PUSH1 0x2 PUSH1 0x6 PUSH0 DUP5 DUP2 MSTORE PUSH1 0x20 ADD SWAP1 DUP2 MSTORE PUSH1 0x20 ADD PUSH0 KECCAK256 PUSH1 0x7 ADD PUSH0 PUSH2 0x100 EXP DUP2 SLOAD DUP2 PUSH1 0xFF MUL NOT AND SWAP1 DUP4 PUSH1 0x5 DUP2 GT ISZERO PUSH2 0x118A JUMPI PUSH2 0x1189 PUSH2 0x1F8F JUMP JUMPDEST JUMPDEST MUL OR SWAP1 SSTORE POP POP POP JUMP JUMPDEST PUSH0 DUP1 SLOAD SWAP1 PUSH2 0x100 EXP SWAP1 DIV PUSH20 0xFFFFFFFFFFFFFFFFFFFFFFFFFFFFFFFFFFFFFFFF AND DUP2 JUMP JUMPDEST PUSH0 DUP1 SLOAD SWAP1 PUSH2 0x100 EXP SWAP1 DIV PUSH20 0xFFFFFFFFFFFFFFFFFFFFFFFFFFFFFFFFFFFFFFFF AND PUSH20 0xFFFFFFFFFFFFFFFFFFFFFFFFFFFFFFFFFFFFFFFF AND CALLER PUSH20 0xFFFFFFFFFFFFFFFFFFFFFFFFFFFFFFFFFFFFFFFF AND EQ PUSH2 0x120C JUMPI PUSH0 DUP1 REVERT JUMPDEST PUSH0 PUSH1 0x2 SLOAD GT DUP1 ISZERO PUSH2 0x121E JUMPI POP PUSH0 PUSH1 0x3 SLOAD GT JUMPDEST DUP1 ISZERO PUSH2 0x122B JUMPI POP PUSH0 PUSH1 0x4 SLOAD GT JUMPDEST DUP1 ISZERO PUSH2 0x1238 JUMPI POP PUSH0 PUSH1 0x5 SLOAD GT JUMPDEST PUSH2 0x1240 JUMPI PUSH0 DUP1 REVERT JUMPDEST PUSH1 0x1 PUSH0 DUP2 SLOAD DUP1 SWAP3 SWAP2 SWAP1 PUSH2 0x1252 SWAP1 PUSH2 0x2168 JUMP JUMPDEST SWAP2 SWAP1 POP SSTORE POP PUSH1 0x40 MLOAD DUP1 PUSH2 0x100 ADD PUSH1 0x40 MSTORE DUP1 PUSH1 0x1 SLOAD DUP2 MSTORE PUSH1 0x20 ADD DUP4 DUP2 MSTORE PUSH1 0x20 ADD DUP3 DUP2 MSTORE PUSH1 0x20 ADD PUSH0 DUP2 MSTORE PUSH1 0x20 ADD PUSH0 DUP2 MSTORE PUSH1 0x20 ADD PUSH0 DUP2 MSTORE PUSH1 0x20 ADD PUSH0 DUP2 MSTORE PUSH1 0x20 ADD PUSH0 PUSH1 0x5 DUP2 GT ISZERO PUSH2 0x12A2 JUMPI PUSH2 0x12A1 PUSH2 0x1F8F JUMP JUMPDEST JUMPDEST DUP2 MSTORE POP PUSH1 0x6 PUSH0 PUSH1 0x1 SLOAD DUP2 MSTORE PUSH1 0x20 ADD SWAP1 DUP2 MSTORE PUSH1 0x20 ADD PUSH0 KECCAK256 PUSH0 DUP3 ADD MLOAD DUP2 PUSH0 ADD SSTORE PUSH1 0x20 DUP3 ADD MLOAD DUP2 PUSH1 0x1 ADD SWAP1 DUP2 PUSH2 0x12D5 SWAP2 SWAP1 PUSH2 0x23A9 JUMP JUMPDEST POP PUSH1 0x40 DUP3 ADD MLOAD DUP2 PUSH1 0x2 ADD SWAP1 DUP2 PUSH2 0x12EB SWAP2 SWAP1 PUSH2 0x23A9 JUMP JUMPDEST POP PUSH1 0x60 DUP3 ADD MLOAD DUP2 PUSH1 0x3 ADD SSTORE PUSH1 0x80 DUP3 ADD MLOAD DUP2 PUSH1 0x4 ADD SSTORE PUSH1 0xA0 DUP3 ADD MLOAD DUP2 PUSH1 0x5 ADD SSTORE PUSH1 0xC0 DUP3 ADD MLOAD DUP2 PUSH1 0x6 ADD SSTORE PUSH1 0xE0 DUP3 ADD MLOAD DUP2 PUSH1 0x7 ADD PUSH0 PUSH2 0x100 EXP DUP2 SLOAD DUP2 PUSH1 0xFF MUL NOT AND SWAP1 DUP4 PUSH1 0x5 DUP2 GT ISZERO PUSH2 0x133E JUMPI PUSH2 0x133D PUSH2 0x1F8F JUMP JUMPDEST JUMPDEST MUL OR SWAP1 SSTORE POP SWAP1 POP POP POP POP JUMP JUMPDEST PUSH1 0x8 PUSH1 0x20 MSTORE DUP1 PUSH0 MSTORE PUSH1 0x40 PUSH0 KECCAK256 PUSH0 SWAP2 POP SWAP1 POP DUP1 PUSH0 ADD PUSH0 SWAP1 SLOAD SWAP1 PUSH2 0x100 EXP SWAP1 DIV PUSH20 0xFFFFFFFFFFFFFFFFFFFFFFFFFFFFFFFFFFFFFFFF AND SWAP1 DUP1 PUSH1 0x1 ADD SLOAD SWAP1 DUP1 PUSH1 0x2 ADD DUP1 SLOAD PUSH2 0x1394 SWAP1 PUSH2 0x21DC JUMP JUMPDEST DUP1 PUSH1 0x1F ADD PUSH1 0x20 DUP1 SWAP2 DIV MUL PUSH1 0x20 ADD PUSH1 0x40 MLOAD SWAP1 DUP2 ADD PUSH1 0x40 MSTORE DUP1 SWAP3 SWAP2 SWAP1 DUP2 DUP2 MSTORE PUSH1 0x20 ADD DUP3 DUP1 SLOAD PUSH2 0x13C0 SWAP1 PUSH2 0x21DC JUMP JUMPDEST DUP1 ISZERO PUSH2 0x140B JUMPI DUP1 PUSH1 0x1F LT PUSH2 0x13E2 JUMPI PUSH2 0x100 DUP1 DUP4 SLOAD DIV MUL DUP4 MSTORE SWAP2 PUSH1 0x20 ADD SWAP2 PUSH2 0x140B JUMP JUMPDEST DUP3 ADD SWAP2 SWAP1 PUSH0 MSTORE PUSH1 0x20 PUSH0 KECCAK256 SWAP1 JUMPDEST DUP2 SLOAD DUP2 MSTORE SWAP1 PUSH1 0x1 ADD SWAP1 PUSH1 0x20 ADD DUP1 DUP4 GT PUSH2 0x13EE JUMPI DUP3 SWAP1 SUB PUSH1 0x1F AND DUP3 ADD SWAP2 JUMPDEST POP POP POP POP POP SWAP1 DUP1 PUSH1 0x3 ADD DUP1 SLOAD PUSH2 0x1420 SWAP1 PUSH2 0x21DC JUMP JUMPDEST DUP1 PUSH1 0x1F ADD PUSH1 0x20 DUP1 SWAP2 DIV MUL PUSH1 0x20 ADD PUSH1 0x40 MLOAD SWAP1 DUP2 ADD PUSH1 0x40 MSTORE DUP1 SWAP3 SWAP2 SWAP1 DUP2 DUP2 MSTORE PUSH1 0x20 ADD DUP3 DUP1 SLOAD PUSH2 0x144C SWAP1 PUSH2 0x21DC JUMP JUMPDEST DUP1 ISZERO PUSH2 0x1497 JUMPI DUP1 PUSH1 0x1F LT PUSH2 0x146E JUMPI PUSH2 0x100 DUP1 DUP4 SLOAD DIV MUL DUP4 MSTORE SWAP2 PUSH1 0x20 ADD SWAP2 PUSH2 0x1497 JUMP JUMPDEST DUP3 ADD SWAP2 SWAP1 PUSH0 MSTORE PUSH1 0x20 PUSH0 KECCAK256 SWAP1 JUMPDEST DUP2 SLOAD DUP2 MSTORE SWAP1 PUSH1 0x1 ADD SWAP1 PUSH1 0x20 ADD DUP1 DUP4 GT PUSH2 0x147A JUMPI DUP3 SWAP1 SUB PUSH1 0x1F AND DUP3 ADD SWAP2 JUMPDEST POP POP POP POP POP SWAP1 POP DUP5 JUMP JUMPDEST PUSH1 0x2 SLOAD DUP2 JUMP JUMPDEST PUSH1 0x60 PUSH0 PUSH1 0x1 SLOAD GT PUSH2 0x14B6 JUMPI PUSH0 DUP1 REVERT JUMPDEST PUSH0 PUSH1 0x5 DUP2 GT ISZERO PUSH2 0x14C9 JUMPI PUSH2 0x14C8 PUSH2 0x1F8F JUMP JUMPDEST JUMPDEST PUSH1 0x6 PUSH0 DUP5 DUP2 MSTORE PUSH1 0x20 ADD SWAP1 DUP2 MSTORE PUSH1 0x20 ADD PUSH0 KECCAK256 PUSH1 0x7 ADD PUSH0 SWAP1 SLOAD SWAP1 PUSH2 0x100 EXP SWAP1 DIV PUSH1 0xFF AND PUSH1 0x5 DUP2 GT ISZERO PUSH2 0x14FC JUMPI PUSH2 0x14FB PUSH2 0x1F8F JUMP JUMPDEST JUMPDEST SUB PUSH2 0x1521 JUMPI PUSH1 0x40 MLOAD DUP1 PUSH1 0x60 ADD PUSH1 0x40 MSTORE DUP1 PUSH1 0x22 DUP2 MSTORE PUSH1 0x20 ADD PUSH2 0x2479 PUSH1 0x22 SWAP2 CODECOPY SWAP1 POP PUSH2 0x17CE JUMP JUMPDEST PUSH1 0x1 PUSH1 0x5 DUP2 GT ISZERO PUSH2 0x1535 JUMPI PUSH2 0x1534 PUSH2 0x1F8F JUMP JUMPDEST JUMPDEST PUSH1 0x6 PUSH0 DUP5 DUP2 MSTORE PUSH1 0x20 ADD SWAP1 DUP2 MSTORE PUSH1 0x20 ADD PUSH0 KECCAK256 PUSH1 0x7 ADD PUSH0 SWAP1 SLOAD SWAP1 PUSH2 0x100 EXP SWAP1 DIV PUSH1 0xFF AND PUSH1 0x5 DUP2 GT ISZERO PUSH2 0x1568 JUMPI PUSH2 0x1567 PUSH2 0x1F8F JUMP JUMPDEST JUMPDEST SUB PUSH2 0x15AA JUMPI PUSH1 0x40 MLOAD DUP1 PUSH1 0x40 ADD PUSH1 0x40 MSTORE DUP1 PUSH1 0x19 DUP2 MSTORE PUSH1 0x20 ADD PUSH32 0x526177204D6174657269616C20537570706C7920537461676500000000000000 DUP2 MSTORE POP SWAP1 POP PUSH2 0x17CE JUMP JUMPDEST PUSH1 0x2 PUSH1 0x5 DUP2 GT ISZERO PUSH2 0x15BE JUMPI PUSH2 0x15BD PUSH2 0x1F8F JUMP JUMPDEST JUMPDEST PUSH1 0x6 PUSH0 DUP5 DUP2 MSTORE PUSH1 0x20 ADD SWAP1 DUP2 MSTORE PUSH1 0x20 ADD PUSH0 KECCAK256 PUSH1 0x7 ADD PUSH0 SWAP1 SLOAD SWAP1 PUSH2 0x100 EXP SWAP1 DIV PUSH1 0xFF AND PUSH1 0x5 DUP2 GT ISZERO PUSH2 0x15F1 JUMPI PUSH2 0x15F0 PUSH2 0x1F8F JUMP JUMPDEST JUMPDEST SUB PUSH2 0x1633 JUMPI PUSH1 0x40 MLOAD DUP1 PUSH1 0x40 ADD PUSH1 0x40 MSTORE DUP1 PUSH1 0x13 DUP2 MSTORE PUSH1 0x20 ADD PUSH32 0x4D616E75666163747572696E6720537461676500000000000000000000000000 DUP2 MSTORE POP SWAP1 POP PUSH2 0x17CE JUMP JUMPDEST PUSH1 0x3 PUSH1 0x5 DUP2 GT ISZERO PUSH2 0x1647 JUMPI PUSH2 0x1646 PUSH2 0x1F8F JUMP JUMPDEST JUMPDEST PUSH1 0x6 PUSH0 DUP5 DUP2 MSTORE PUSH1 0x20 ADD SWAP1 DUP2 MSTORE PUSH1 0x20 ADD PUSH0 KECCAK256 PUSH1 0x7 ADD PUSH0 SWAP1 SLOAD SWAP1 PUSH2 0x100 EXP SWAP1 DIV PUSH1 0xFF AND PUSH1 0x5 DUP2 GT ISZERO PUSH2 0x167A JUMPI PUSH2 0x1679 PUSH2 0x1F8F JUMP JUMPDEST JUMPDEST SUB PUSH2 0x16BC JUMPI PUSH1 0x40 MLOAD DUP1 PUSH1 0x40 ADD PUSH1 0x40 MSTORE DUP1 PUSH1 0x12 DUP2 MSTORE PUSH1 0x20 ADD PUSH32 0x446973747269627574696F6E2053746167650000000000000000000000000000 DUP2 MSTORE POP SWAP1 POP PUSH2 0x17CE JUMP JUMPDEST PUSH1 0x4 PUSH1 0x5 DUP2 GT ISZERO PUSH2 0x16D0 JUMPI PUSH2 0x16CF PUSH2 0x1F8F JUMP JUMPDEST JUMPDEST PUSH1 0x6 PUSH0 DUP5 DUP2 MSTORE PUSH1 0x20 ADD SWAP1 DUP2 MSTORE PUSH1 0x20 ADD PUSH0 KECCAK256 PUSH1 0x7 ADD PUSH0 SWAP1 SLOAD SWAP1 PUSH2 0x100 EXP SWAP1 DIV PUSH1 0xFF AND PUSH1 0x5 DUP2 GT ISZERO PUSH2 0x1703 JUMPI PUSH2 0x1702 PUSH2 0x1F8F JUMP JUMPDEST JUMPDEST SUB PUSH2 0x1745 JUMPI PUSH1 0x40 MLOAD DUP1 PUSH1 0x40 ADD PUSH1 0x40 MSTORE DUP1 PUSH1 0xC DUP2 MSTORE PUSH1 0x20 ADD PUSH32 0x52657461696C2053746167650000000000000000000000000000000000000000 DUP2 MSTORE POP SWAP1 POP PUSH2 0x17CE JUMP JUMPDEST PUSH1 0x5 DUP1 DUP2 GT ISZERO PUSH2 0x1758 JUMPI PUSH2 0x1757 PUSH2 0x1F8F JUMP JUMPDEST JUMPDEST PUSH1 0x6 PUSH0 DUP5 DUP2 MSTORE PUSH1 0x20 ADD SWAP1 DUP2 MSTORE PUSH1 0x20 ADD PUSH0 KECCAK256 PUSH1 0x7 ADD PUSH0 SWAP1 SLOAD SWAP1 PUSH2 0x100 EXP SWAP1 DIV PUSH1 0xFF AND PUSH1 0x5 DUP2 GT ISZERO PUSH2 0x178B JUMPI PUSH2 0x178A PUSH2 0x1F8F JUMP JUMPDEST JUMPDEST SUB PUSH2 0x17CD JUMPI PUSH1 0x40 MLOAD DUP1 PUSH1 0x40 ADD PUSH1 0x40 MSTORE DUP1 PUSH1 0x1F DUP2 MSTORE PUSH1 0x20 ADD PUSH32 0x4167726963756C7475726520746F6F6C2F746563686E6971756520536F6C6400 DUP2 MSTORE POP SWAP1 POP PUSH2 0x17CE JUMP JUMPDEST JUMPDEST SWAP2 SWAP1 POP JUMP JUMPDEST PUSH1 0x7 PUSH1 0x20 MSTORE DUP1 PUSH0 MSTORE PUSH1 0x40 PUSH0 KECCAK256 PUSH0 SWAP2 POP SWAP1 POP DUP1 PUSH0 ADD PUSH0 SWAP1 SLOAD SWAP1 PUSH2 0x100 EXP SWAP1 DIV PUSH20 0xFFFFFFFFFFFFFFFFFFFFFFFFFFFFFFFFFFFFFFFF AND SWAP1 DUP1 PUSH1 0x1 ADD SLOAD SWAP1 DUP1 PUSH1 0x2 ADD DUP1 SLOAD PUSH2 0x181D SWAP1 PUSH2 0x21DC JUMP JUMPDEST DUP1 PUSH1 0x1F ADD PUSH1 0x20 DUP1 SWAP2 DIV MUL PUSH1 0x20 ADD PUSH1 0x40 MLOAD SWAP1 DUP2 ADD PUSH1 0x40 MSTORE DUP1 SWAP3 SWAP2 SWAP1 DUP2 DUP2 MSTORE PUSH1 0x20 ADD DUP3 DUP1 SLOAD PUSH2 0x1849 SWAP1 PUSH2 0x21DC JUMP JUMPDEST DUP1 ISZERO PUSH2 0x1894 JUMPI DUP1 PUSH1 0x1F LT PUSH2 0x186B JUMPI PUSH2 0x100 DUP1 DUP4 SLOAD DIV MUL DUP4 MSTORE SWAP2 PUSH1 0x20 ADD SWAP2 PUSH2 0x1894 JUMP JUMPDEST DUP3 ADD SWAP2 SWAP1 PUSH0 MSTORE PUSH1 0x20 PUSH0 KECCAK256 SWAP1 JUMPDEST DUP2 SLOAD DUP2 MSTORE SWAP1 PUSH1 0x1 ADD SWAP1 PUSH1 0x20 ADD DUP1 DUP4 GT PUSH2 0x1877 JUMPI DUP3 SWAP1 SUB PUSH1 0x1F AND DUP3 ADD SWAP2 JUMPDEST POP POP POP POP POP SWAP1 DUP1 PUSH1 0x3 ADD DUP1 SLOAD PUSH2 0x18A9 SWAP1 PUSH2 0x21DC JUMP JUMPDEST DUP1 PUSH1 0x1F ADD PUSH1 0x20 DUP1 SWAP2 DIV MUL PUSH1 0x20 ADD PUSH1 0x40 MLOAD SWAP1 DUP2 ADD PUSH1 0x40 MSTORE DUP1 SWAP3 SWAP2 SWAP1 DUP2 DUP2 MSTORE PUSH1 0x20 ADD DUP3 DUP1 SLOAD PUSH2 0x18D5 SWAP1 PUSH2 0x21DC JUMP JUMPDEST DUP1 ISZERO PUSH2 0x1920 JUMPI DUP1 PUSH1 0x1F LT PUSH2 0x18F7 JUMPI PUSH2 0x100 DUP1 DUP4 SLOAD DIV MUL DUP4 MSTORE SWAP2 PUSH1 0x20 ADD SWAP2 PUSH2 0x1920 JUMP JUMPDEST DUP3 ADD SWAP2 SWAP1 PUSH0 MSTORE PUSH1 0x20 PUSH0 KECCAK256 SWAP1 JUMPDEST DUP2 SLOAD DUP2 MSTORE SWAP1 PUSH1 0x1 ADD SWAP1 PUSH1 0x20 ADD DUP1 DUP4 GT PUSH2 0x1903 JUMPI DUP3 SWAP1 SUB PUSH1 0x1F AND DUP3 ADD SWAP2 JUMPDEST POP POP POP POP POP SWAP1 POP DUP5 JUMP JUMPDEST PUSH0 DUP1 PUSH1 0x5 SLOAD GT PUSH2 0x1938 JUMPI PUSH0 DUP1 REVERT JUMPDEST PUSH0 PUSH1 0x1 SWAP1 POP JUMPDEST PUSH1 0x5 SLOAD DUP2 GT PUSH2 0x19DC JUMPI DUP3 PUSH20 0xFFFFFFFFFFFFFFFFFFFFFFFFFFFFFFFFFFFFFFFF AND PUSH1 0xA PUSH0 DUP4 DUP2 MSTORE PUSH1 0x20 ADD SWAP1 DUP2 MSTORE PUSH1 0x20 ADD PUSH0 KECCAK256 PUSH0 ADD PUSH0 SWAP1 SLOAD SWAP1 PUSH2 0x100 EXP SWAP1 DIV PUSH20 0xFFFFFFFFFFFFFFFFFFFFFFFFFFFFFFFFFFFFFFFF AND PUSH20 0xFFFFFFFFFFFFFFFFFFFFFFFFFFFFFFFFFFFFFFFF AND SUB PUSH2 0x19C9 JUMPI PUSH1 0xA PUSH0 DUP3 DUP2 MSTORE PUSH1 0x20 ADD SWAP1 DUP2 MSTORE PUSH1 0x20 ADD PUSH0 KECCAK256 PUSH1 0x1 ADD SLOAD SWAP2 POP POP PUSH2 0x19E1 JUMP JUMPDEST DUP1 DUP1 PUSH2 0x19D4 SWAP1 PUSH2 0x2168 JUMP JUMPDEST SWAP2 POP POP PUSH2 0x193E JUMP JUMPDEST POP PUSH0 SWAP1 POP JUMPDEST SWAP2 SWAP1 POP JUMP JUMPDEST PUSH0 DUP1 PUSH1 0x4 SLOAD GT PUSH2 0x19F4 JUMPI PUSH0 DUP1 REVERT JUMPDEST PUSH0 PUSH1 0x1 SWAP1 POP JUMPDEST PUSH1 0x4 SLOAD DUP2 GT PUSH2 0x1A98 JUMPI DUP3 PUSH20 0xFFFFFFFFFFFFFFFFFFFFFFFFFFFFFFFFFFFFFFFF AND PUSH1 0x9 PUSH0 DUP4 DUP2 MSTORE PUSH1 0x20 ADD SWAP1 DUP2 MSTORE PUSH1 0x20 ADD PUSH0 KECCAK256 PUSH0 ADD PUSH0 SWAP1 SLOAD SWAP1 PUSH2 0x100 EXP SWAP1 DIV PUSH20 0xFFFFFFFFFFFFFFFFFFFFFFFFFFFFFFFFFFFFFFFF AND PUSH20 0xFFFFFFFFFFFFFFFFFFFFFFFFFFFFFFFFFFFFFFFF AND SUB PUSH2 0x1A85 JUMPI PUSH1 0x9 PUSH0 DUP3 DUP2 MSTORE PUSH1 0x20 ADD SWAP1 DUP2 MSTORE PUSH1 0x20 ADD PUSH0 KECCAK256 PUSH1 0x1 ADD SLOAD SWAP2 POP POP PUSH2 0x1A9D JUMP JUMPDEST DUP1 DUP1 PUSH2 0x1A90 SWAP1 PUSH2 0x2168 JUMP JUMPDEST SWAP2 POP POP PUSH2 0x19FA JUMP JUMPDEST POP PUSH0 SWAP1 POP JUMPDEST SWAP2 SWAP1 POP JUMP JUMPDEST PUSH0 DUP1 PUSH1 0x2 SLOAD GT PUSH2 0x1AB0 JUMPI PUSH0 DUP1 REVERT JUMPDEST PUSH0 PUSH1 0x1 SWAP1 POP JUMPDEST PUSH1 0x2 SLOAD DUP2 GT PUSH2 0x1B54 JUMPI DUP3 PUSH20 0xFFFFFFFFFFFFFFFFFFFFFFFFFFFFFFFFFFFFFFFF AND PUSH1 0x7 PUSH0 DUP4 DUP2 MSTORE PUSH1 0x20 ADD SWAP1 DUP2 MSTORE PUSH1 0x20 ADD PUSH0 KECCAK256 PUSH0 ADD PUSH0 SWAP1 SLOAD SWAP1 PUSH2 0x100 EXP SWAP1 DIV PUSH20 0xFFFFFFFFFFFFFFFFFFFFFFFFFFFFFFFFFFFFFFFF AND PUSH20 0xFFFFFFFFFFFFFFFFFFFFFFFFFFFFFFFFFFFFFFFF AND SUB PUSH2 0x1B41 JUMPI PUSH1 0x7 PUSH0 DUP3 DUP2 MSTORE PUSH1 0x20 ADD SWAP1 DUP2 MSTORE PUSH1 0x20 ADD PUSH0 KECCAK256 PUSH1 0x1 ADD SLOAD SWAP2 POP POP PUSH2 0x1B59 JUMP JUMPDEST DUP1 DUP1 PUSH2 0x1B4C SWAP1 PUSH2 0x2168 JUMP JUMPDEST SWAP2 POP POP PUSH2 0x1AB6 JUMP JUMPDEST POP PUSH0 SWAP1 POP JUMPDEST SWAP2 SWAP1 POP JUMP JUMPDEST PUSH0 DUP1 PUSH1 0x3 SLOAD GT PUSH2 0x1B6C JUMPI PUSH0 DUP1 REVERT JUMPDEST PUSH0 PUSH1 0x1 SWAP1 POP JUMPDEST PUSH1 0x3 SLOAD DUP2 GT PUSH2 0x1C10 JUMPI DUP3 PUSH20 0xFFFFFFFFFFFFFFFFFFFFFFFFFFFFFFFFFFFFFFFF AND PUSH1 0x8 PUSH0 DUP4 DUP2 MSTORE PUSH1 0x20 ADD SWAP1 DUP2 MSTORE PUSH1 0x20 ADD PUSH0 KECCAK256 PUSH0 ADD PUSH0 SWAP1 SLOAD SWAP1 PUSH2 0x100 EXP SWAP1 DIV PUSH20 0xFFFFFFFFFFFFFFFFFFFFFFFFFFFFFFFFFFFFFFFF AND PUSH20 0xFFFFFFFFFFFFFFFFFFFFFFFFFFFFFFFFFFFFFFFF AND SUB PUSH2 0x1BFD JUMPI PUSH1 0x8 PUSH0 DUP3 DUP2 MSTORE PUSH1 0x20 ADD SWAP1 DUP2 MSTORE PUSH1 0x20 ADD PUSH0 KECCAK256 PUSH1 0x1 ADD SLOAD SWAP2 POP POP PUSH2 0x1C15 JUMP JUMPDEST DUP1 DUP1 PUSH2 0x1C08 SWAP1 PUSH2 0x2168 JUMP JUMPDEST SWAP2 POP POP PUSH2 0x1B72 JUMP JUMPDEST POP PUSH0 SWAP1 POP JUMPDEST SWAP2 SWAP1 POP JUMP JUMPDEST PUSH0 DUP2 SWAP1 POP SWAP2 SWAP1 POP JUMP JUMPDEST PUSH2 0x1C2C DUP2 PUSH2 0x1C1A JUMP JUMPDEST DUP3 MSTORE POP POP JUMP JUMPDEST PUSH0 PUSH1 0x20 DUP3 ADD SWAP1 POP PUSH2 0x1C45 PUSH0 DUP4 ADD DUP5 PUSH2 0x1C23 JUMP JUMPDEST SWAP3 SWAP2 POP POP JUMP JUMPDEST PUSH0 PUSH1 0x40 MLOAD SWAP1 POP SWAP1 JUMP JUMPDEST PUSH0 DUP1 REVERT JUMPDEST PUSH0 DUP1 REVERT JUMPDEST PUSH0 PUSH20 0xFFFFFFFFFFFFFFFFFFFFFFFFFFFFFFFFFFFFFFFF DUP3 AND SWAP1 POP SWAP2 SWAP1 POP JUMP JUMPDEST PUSH0 PUSH2 0x1C85 DUP3 PUSH2 0x1C5C JUMP JUMPDEST SWAP1 POP SWAP2 SWAP1 POP JUMP JUMPDEST PUSH2 0x1C95 DUP2 PUSH2 0x1C7B JUMP JUMPDEST DUP2 EQ PUSH2 0x1C9F JUMPI PUSH0 DUP1 REVERT JUMPDEST POP JUMP JUMPDEST PUSH0 DUP2 CALLDATALOAD SWAP1 POP PUSH2 0x1CB0 DUP2 PUSH2 0x1C8C JUMP JUMPDEST SWAP3 SWAP2 POP POP JUMP JUMPDEST PUSH0 DUP1 REVERT JUMPDEST PUSH0 DUP1 REVERT JUMPDEST PUSH0 PUSH1 0x1F NOT PUSH1 0x1F DUP4 ADD AND SWAP1 POP SWAP2 SWAP1 POP JUMP JUMPDEST PUSH32 0x4E487B7100000000000000000000000000000000000000000000000000000000 PUSH0 MSTORE PUSH1 0x41 PUSH1 0x4 MSTORE PUSH1 0x24 PUSH0 REVERT JUMPDEST PUSH2 0x1D04 DUP3 PUSH2 0x1CBE JUMP JUMPDEST DUP2 ADD DUP2 DUP2 LT PUSH8 0xFFFFFFFFFFFFFFFF DUP3 GT OR ISZERO PUSH2 0x1D23 JUMPI PUSH2 0x1D22 PUSH2 0x1CCE JUMP JUMPDEST JUMPDEST DUP1 PUSH1 0x40 MSTORE POP POP POP JUMP JUMPDEST PUSH0 PUSH2 0x1D35 PUSH2 0x1C4B JUMP JUMPDEST SWAP1 POP PUSH2 0x1D41 DUP3 DUP3 PUSH2 0x1CFB JUMP JUMPDEST SWAP2 SWAP1 POP JUMP JUMPDEST PUSH0 PUSH8 0xFFFFFFFFFFFFFFFF DUP3 GT ISZERO PUSH2 0x1D60 JUMPI PUSH2 0x1D5F PUSH2 0x1CCE JUMP JUMPDEST JUMPDEST PUSH2 0x1D69 DUP3 PUSH2 0x1CBE JUMP JUMPDEST SWAP1 POP PUSH1 0x20 DUP2 ADD SWAP1 POP SWAP2 SWAP1 POP JUMP JUMPDEST DUP3 DUP2 DUP4 CALLDATACOPY PUSH0 DUP4 DUP4 ADD MSTORE POP POP POP JUMP JUMPDEST PUSH0 PUSH2 0x1D96 PUSH2 0x1D91 DUP5 PUSH2 0x1D46 JUMP JUMPDEST PUSH2 0x1D2C JUMP JUMPDEST SWAP1 POP DUP3 DUP2 MSTORE PUSH1 0x20 DUP2 ADD DUP5 DUP5 DUP5 ADD GT ISZERO PUSH2 0x1DB2 JUMPI PUSH2 0x1DB1 PUSH2 0x1CBA JUMP JUMPDEST JUMPDEST PUSH2 0x1DBD DUP5 DUP3 DUP6 PUSH2 0x1D76 JUMP JUMPDEST POP SWAP4 SWAP3 POP POP POP JUMP JUMPDEST PUSH0 DUP3 PUSH1 0x1F DUP4 ADD SLT PUSH2 0x1DD9 JUMPI PUSH2 0x1DD8 PUSH2 0x1CB6 JUMP JUMPDEST JUMPDEST DUP2 CALLDATALOAD PUSH2 0x1DE9 DUP5 DUP3 PUSH1 0x20 DUP7 ADD PUSH2 0x1D84 JUMP JUMPDEST SWAP2 POP POP SWAP3 SWAP2 POP POP JUMP JUMPDEST PUSH0 DUP1 PUSH0 PUSH1 0x60 DUP5 DUP7 SUB SLT ISZERO PUSH2 0x1E09 JUMPI PUSH2 0x1E08 PUSH2 0x1C54 JUMP JUMPDEST JUMPDEST PUSH0 PUSH2 0x1E16 DUP7 DUP3 DUP8 ADD PUSH2 0x1CA2 JUMP JUMPDEST SWAP4 POP POP PUSH1 0x20 DUP5 ADD CALLDATALOAD PUSH8 0xFFFFFFFFFFFFFFFF DUP2 GT ISZERO PUSH2 0x1E37 JUMPI PUSH2 0x1E36 PUSH2 0x1C58 JUMP JUMPDEST JUMPDEST PUSH2 0x1E43 DUP7 DUP3 DUP8 ADD PUSH2 0x1DC5 JUMP JUMPDEST SWAP3 POP POP PUSH1 0x40 DUP5 ADD CALLDATALOAD PUSH8 0xFFFFFFFFFFFFFFFF DUP2 GT ISZERO PUSH2 0x1E64 JUMPI PUSH2 0x1E63 PUSH2 0x1C58 JUMP JUMPDEST JUMPDEST PUSH2 0x1E70 DUP7 DUP3 DUP8 ADD PUSH2 0x1DC5 JUMP JUMPDEST SWAP2 POP POP SWAP3 POP SWAP3 POP SWAP3 JUMP JUMPDEST PUSH2 0x1E83 DUP2 PUSH2 0x1C1A JUMP JUMPDEST DUP2 EQ PUSH2 0x1E8D JUMPI PUSH0 DUP1 REVERT JUMPDEST POP JUMP JUMPDEST PUSH0 DUP2 CALLDATALOAD SWAP1 POP PUSH2 0x1E9E DUP2 PUSH2 0x1E7A JUMP JUMPDEST SWAP3 SWAP2 POP POP JUMP JUMPDEST PUSH0 PUSH1 0x20 DUP3 DUP5 SUB SLT ISZERO PUSH2 0x1EB9 JUMPI PUSH2 0x1EB8 PUSH2 0x1C54 JUMP JUMPDEST JUMPDEST PUSH0 PUSH2 0x1EC6 DUP5 DUP3 DUP6 ADD PUSH2 0x1E90 JUMP JUMPDEST SWAP2 POP POP SWAP3 SWAP2 POP POP JUMP JUMPDEST PUSH2 0x1ED8 DUP2 PUSH2 0x1C7B JUMP JUMPDEST DUP3 MSTORE POP POP JUMP JUMPDEST PUSH0 DUP2 MLOAD SWAP1 POP SWAP2 SWAP1 POP JUMP JUMPDEST PUSH0 DUP3 DUP3 MSTORE PUSH1 0x20 DUP3 ADD SWAP1 POP SWAP3 SWAP2 POP POP JUMP JUMPDEST DUP3 DUP2 DUP4 MCOPY PUSH0 DUP4 DUP4 ADD MSTORE POP POP POP JUMP JUMPDEST PUSH0 PUSH2 0x1F10 DUP3 PUSH2 0x1EDE JUMP JUMPDEST PUSH2 0x1F1A DUP2 DUP6 PUSH2 0x1EE8 JUMP JUMPDEST SWAP4 POP PUSH2 0x1F2A DUP2 DUP6 PUSH1 0x20 DUP7 ADD PUSH2 0x1EF8 JUMP JUMPDEST PUSH2 0x1F33 DUP2 PUSH2 0x1CBE JUMP JUMPDEST DUP5 ADD SWAP2 POP POP SWAP3 SWAP2 POP POP JUMP JUMPDEST PUSH0 PUSH1 0x80 DUP3 ADD SWAP1 POP PUSH2 0x1F51 PUSH0 DUP4 ADD DUP8 PUSH2 0x1ECF JUMP JUMPDEST PUSH2 0x1F5E PUSH1 0x20 DUP4 ADD DUP7 PUSH2 0x1C23 JUMP JUMPDEST DUP2 DUP2 SUB PUSH1 0x40 DUP4 ADD MSTORE PUSH2 0x1F70 DUP2 DUP6 PUSH2 0x1F06 JUMP JUMPDEST SWAP1 POP DUP2 DUP2 SUB PUSH1 0x60 DUP4 ADD MSTORE PUSH2 0x1F84 DUP2 DUP5 PUSH2 0x1F06 JUMP JUMPDEST SWAP1 POP SWAP6 SWAP5 POP POP POP POP POP JUMP JUMPDEST PUSH32 0x4E487B7100000000000000000000000000000000000000000000000000000000 PUSH0 MSTORE PUSH1 0x21 PUSH1 0x4 MSTORE PUSH1 0x24 PUSH0 REVERT JUMPDEST PUSH1 0x6 DUP2 LT PUSH2 0x1FCD JUMPI PUSH2 0x1FCC PUSH2 0x1F8F JUMP JUMPDEST JUMPDEST POP JUMP JUMPDEST PUSH0 DUP2 SWAP1 POP PUSH2 0x1FDD DUP3 PUSH2 0x1FBC JUMP JUMPDEST SWAP2 SWAP1 POP JUMP JUMPDEST PUSH0 PUSH2 0x1FEC DUP3 PUSH2 0x1FD0 JUMP JUMPDEST SWAP1 POP SWAP2 SWAP1 POP JUMP JUMPDEST PUSH2 0x1FFC DUP2 PUSH2 0x1FE2 JUMP JUMPDEST DUP3 MSTORE POP POP JUMP JUMPDEST PUSH0 PUSH2 0x100 DUP3 ADD SWAP1 POP PUSH2 0x2016 PUSH0 DUP4 ADD DUP12 PUSH2 0x1C23 JUMP JUMPDEST DUP2 DUP2 SUB PUSH1 0x20 DUP4 ADD MSTORE PUSH2 0x2028 DUP2 DUP11 PUSH2 0x1F06 JUMP JUMPDEST SWAP1 POP DUP2 DUP2 SUB PUSH1 0x40 DUP4 ADD MSTORE PUSH2 0x203C DUP2 DUP10 PUSH2 0x1F06 JUMP JUMPDEST SWAP1 POP PUSH2 0x204B PUSH1 0x60 DUP4 ADD DUP9 PUSH2 0x1C23 JUMP JUMPDEST PUSH2 0x2058 PUSH1 0x80 DUP4 ADD DUP8 PUSH2 0x1C23 JUMP JUMPDEST PUSH2 0x2065 PUSH1 0xA0 DUP4 ADD DUP7 PUSH2 0x1C23 JUMP JUMPDEST PUSH2 0x2072 PUSH1 0xC0 DUP4 ADD DUP6 PUSH2 0x1C23 JUMP JUMPDEST PUSH2 0x207F PUSH1 0xE0 DUP4 ADD DUP5 PUSH2 0x1FF3 JUMP JUMPDEST SWAP10 SWAP9 POP POP POP POP POP POP POP POP POP JUMP JUMPDEST PUSH0 PUSH1 0x20 DUP3 ADD SWAP1 POP PUSH2 0x209F PUSH0 DUP4 ADD DUP5 PUSH2 0x1ECF JUMP JUMPDEST SWAP3 SWAP2 POP POP JUMP JUMPDEST PUSH0 DUP1 PUSH1 0x40 DUP4 DUP6 SUB SLT ISZERO PUSH2 0x20BB JUMPI PUSH2 0x20BA PUSH2 0x1C54 JUMP JUMPDEST JUMPDEST PUSH0 DUP4 ADD CALLDATALOAD PUSH8 0xFFFFFFFFFFFFFFFF DUP2 GT ISZERO PUSH2 0x20D8 JUMPI PUSH2 0x20D7 PUSH2 0x1C58 JUMP JUMPDEST JUMPDEST PUSH2 0x20E4 DUP6 DUP3 DUP7 ADD PUSH2 0x1DC5 JUMP JUMPDEST SWAP3 POP POP PUSH1 0x20 DUP4 ADD CALLDATALOAD PUSH8 0xFFFFFFFFFFFFFFFF DUP2 GT ISZERO PUSH2 0x2105 JUMPI PUSH2 0x2104 PUSH2 0x1C58 JUMP JUMPDEST JUMPDEST PUSH2 0x2111 DUP6 DUP3 DUP7 ADD PUSH2 0x1DC5 JUMP JUMPDEST SWAP2 POP POP SWAP3 POP SWAP3 SWAP1 POP JUMP JUMPDEST PUSH0 PUSH1 0x20 DUP3 ADD SWAP1 POP DUP2 DUP2 SUB PUSH0 DUP4 ADD MSTORE PUSH2 0x2133 DUP2 DUP5 PUSH2 0x1F06 JUMP JUMPDEST SWAP1 POP SWAP3 SWAP2 POP POP JUMP JUMPDEST PUSH32 0x4E487B7100000000000000000000000000000000000000000000000000000000 PUSH0 MSTORE PUSH1 0x11 PUSH1 0x4 MSTORE PUSH1 0x24 PUSH0 REVERT JUMPDEST PUSH0 PUSH2 0x2172 DUP3 PUSH2 0x1C1A JUMP JUMPDEST SWAP2 POP PUSH32 0xFFFFFFFFFFFFFFFFFFFFFFFFFFFFFFFFFFFFFFFFFFFFFFFFFFFFFFFFFFFFFFFF DUP3 SUB PUSH2 0x21A4 JUMPI PUSH2 0x21A3 PUSH2 0x213B JUMP JUMPDEST JUMPDEST PUSH1 0x1 DUP3 ADD SWAP1 POP SWAP2 SWAP1 POP JUMP JUMPDEST PUSH32 0x4E487B7100000000000000000000000000000000000000000000000000000000 PUSH0 MSTORE PUSH1 0x22 PUSH1 0x4 MSTORE PUSH1 0x24 PUSH0 REVERT JUMPDEST PUSH0 PUSH1 0x2 DUP3 DIV SWAP1 POP PUSH1 0x1 DUP3 AND DUP1 PUSH2 0x21F3 JUMPI PUSH1 0x7F DUP3 AND SWAP2 POP JUMPDEST PUSH1 0x20 DUP3 LT DUP2 SUB PUSH2 0x2206 JUMPI PUSH2 0x2205 PUSH2 0x21AF JUMP JUMPDEST JUMPDEST POP SWAP2 SWAP1 POP JUMP JUMPDEST PUSH0 DUP2 SWAP1 POP DUP2 PUSH0 MSTORE PUSH1 0x20 PUSH0 KECCAK256 SWAP1 POP SWAP2 SWAP1 POP JUMP JUMPDEST PUSH0 PUSH1 0x20 PUSH1 0x1F DUP4 ADD DIV SWAP1 POP SWAP2 SWAP1 POP JUMP JUMPDEST PUSH0 DUP3 DUP3 SHL SWAP1 POP SWAP3 SWAP2 POP POP JUMP JUMPDEST PUSH0 PUSH1 0x8 DUP4 MUL PUSH2 0x2268 PUSH32 0xFFFFFFFFFFFFFFFFFFFFFFFFFFFFFFFFFFFFFFFFFFFFFFFFFFFFFFFFFFFFFFFF DUP3 PUSH2 0x222D JUMP JUMPDEST PUSH2 0x2272 DUP7 DUP4 PUSH2 0x222D JUMP JUMPDEST SWAP6 POP DUP1 NOT DUP5 AND SWAP4 POP DUP1 DUP7 AND DUP5 OR SWAP3 POP POP POP SWAP4 SWAP3 POP POP POP JUMP JUMPDEST PUSH0 DUP2 SWAP1 POP SWAP2 SWAP1 POP JUMP JUMPDEST PUSH0 PUSH2 0x22AD PUSH2 0x22A8 PUSH2 0x22A3 DUP5 PUSH2 0x1C1A JUMP JUMPDEST PUSH2 0x228A JUMP JUMPDEST PUSH2 0x1C1A JUMP JUMPDEST SWAP1 POP SWAP2 SWAP1 POP JUMP JUMPDEST PUSH0 DUP2 SWAP1 POP SWAP2 SWAP1 POP JUMP JUMPDEST PUSH2 0x22C6 DUP4 PUSH2 0x2293 JUMP JUMPDEST PUSH2 0x22DA PUSH2 0x22D2 DUP3 PUSH2 0x22B4 JUMP JUMPDEST DUP5 DUP5 SLOAD PUSH2 0x2239 JUMP JUMPDEST DUP3 SSTORE POP POP POP POP JUMP JUMPDEST PUSH0 SWAP1 JUMP JUMPDEST PUSH2 0x22EE PUSH2 0x22E2 JUMP JUMPDEST PUSH2 0x22F9 DUP2 DUP5 DUP5 PUSH2 0x22BD JUMP JUMPDEST POP POP POP JUMP JUMPDEST JUMPDEST DUP2 DUP2 LT ISZERO PUSH2 0x231C JUMPI PUSH2 0x2311 PUSH0 DUP3 PUSH2 0x22E6 JUMP JUMPDEST PUSH1 0x1 DUP2 ADD SWAP1 POP PUSH2 0x22FF JUMP JUMPDEST POP POP JUMP JUMPDEST PUSH1 0x1F DUP3 GT ISZERO PUSH2 0x2361 JUMPI PUSH2 0x2332 DUP2 PUSH2 0x220C JUMP JUMPDEST PUSH2 0x233B DUP5 PUSH2 0x221E JUMP JUMPDEST DUP2 ADD PUSH1 0x20 DUP6 LT ISZERO PUSH2 0x234A JUMPI DUP2 SWAP1 POP JUMPDEST PUSH2 0x235E PUSH2 0x2356 DUP6 PUSH2 0x221E JUMP JUMPDEST DUP4 ADD DUP3 PUSH2 0x22FE JUMP JUMPDEST POP POP JUMPDEST POP POP POP JUMP JUMPDEST PUSH0 DUP3 DUP3 SHR SWAP1 POP SWAP3 SWAP2 POP POP JUMP JUMPDEST PUSH0 PUSH2 0x2381 PUSH0 NOT DUP5 PUSH1 0x8 MUL PUSH2 0x2366 JUMP JUMPDEST NOT DUP1 DUP4 AND SWAP2 POP POP SWAP3 SWAP2 POP POP JUMP JUMPDEST PUSH0 PUSH2 0x2399 DUP4 DUP4 PUSH2 0x2372 JUMP JUMPDEST SWAP2 POP DUP3 PUSH1 0x2 MUL DUP3 OR SWAP1 POP SWAP3 SWAP2 POP POP JUMP JUMPDEST PUSH2 0x23B2 DUP3 PUSH2 0x1EDE JUMP JUMPDEST PUSH8 0xFFFFFFFFFFFFFFFF DUP2 GT ISZERO PUSH2 0x23CB JUMPI PUSH2 0x23CA PUSH2 0x1CCE JUMP JUMPDEST JUMPDEST PUSH2 0x23D5 DUP3 SLOAD PUSH2 0x21DC JUMP JUMPDEST PUSH2 0x23E0 DUP3 DUP3 DUP6 PUSH2 0x2320 JUMP JUMPDEST PUSH0 PUSH1 0x20 SWAP1 POP PUSH1 0x1F DUP4 GT PUSH1 0x1 DUP2 EQ PUSH2 0x2411 JUMPI PUSH0 DUP5 ISZERO PUSH2 0x23FF JUMPI DUP3 DUP8 ADD MLOAD SWAP1 POP JUMPDEST PUSH2 0x2409 DUP6 DUP3 PUSH2 0x238E JUMP JUMPDEST DUP7 SSTORE POP PUSH2 0x2470 JUMP JUMPDEST PUSH1 0x1F NOT DUP5 AND PUSH2 0x241F DUP7 PUSH2 0x220C JUMP JUMPDEST PUSH0 JUMPDEST DUP3 DUP2 LT ISZERO PUSH2 0x2446 JUMPI DUP5 DUP10 ADD MLOAD DUP3 SSTORE PUSH1 0x1 DUP3 ADD SWAP2 POP PUSH1 0x20 DUP6 ADD SWAP5 POP PUSH1 0x20 DUP2 ADD SWAP1 POP PUSH2 0x2421 JUMP JUMPDEST DUP7 DUP4 LT ISZERO PUSH2 0x2463 JUMPI DUP5 DUP10 ADD MLOAD PUSH2 0x245F PUSH1 0x1F DUP10 AND DUP3 PUSH2 0x2372 JUMP JUMPDEST DUP4 SSTORE POP JUMPDEST PUSH1 0x1 PUSH1 0x2 DUP9 MUL ADD DUP9 SSTORE POP POP POP JUMPDEST POP POP POP POP POP POP JUMP INVALID COINBASE PUSH8 0x726963756C747572 PUSH6 0x20746F6F6C2F PUSH21 0x6563686E69717565204F726465726564A264697066 PUSH20 0x582212200895E84D331A564E77A80471A16D26CA ADDRESS 0x1E PUSH27 0xA8C24ECA5E8554A0F9EEC7659F64736F6C634300081A0033000000 "
		},
		"gasEstimates": {
			"creation": {
				"codeDepositCost": "1884800",
				"executionCost": "51278",
				"totalCost": "1936078"
			},
			"external": {
				"AgricultureStock(uint256)": "infinite",
				"DIS(uint256)": "infinite",
				"Distribute(uint256)": "infinite",
				"MAN(uint256)": "infinite",
				"Manufacturing(uint256)": "infinite",
				"Owner()": "2527",
				"RET(uint256)": "infinite",
				"RMS(uint256)": "infinite",
				"RMSsupply(uint256)": "infinite",
				"Retail(uint256)": "infinite",
				"addAgriculture(string,string)": "infinite",
				"addDistributor(address,string,string)": "infinite",
				"addManufacturer(address,string,string)": "infinite",
				"addRMS(address,string,string)": "infinite",
				"addRetailer(address,string,string)": "infinite",
				"agricultureCtr()": "2449",
				"disCtr()": "2537",
				"manCtr()": "2470",
				"retCtr()": "2558",
				"rmsCtr()": "2513",
				"showStage(uint256)": "infinite",
				"sold(uint256)": "infinite"
			},
			"internal": {
				"findDIS(address)": "infinite",
				"findMAN(address)": "infinite",
				"findRET(address)": "infinite",
				"findRMS(address)": "infinite"
			}
		},
		"methodIdentifiers": {
			"AgricultureStock(uint256)": "9ba9f1bb",
			"DIS(uint256)": "2b0187ac",
			"Distribute(uint256)": "4def474a",
			"MAN(uint256)": "cc403069",
			"Manufacturing(uint256)": "a48d335a",
			"Owner()": "b4a99a4e",
			"RET(uint256)": "59bf286f",
			"RMS(uint256)": "eef5cb40",
			"RMSsupply(uint256)": "86c18275",
			"Retail(uint256)": "3d753a1c",
			"addAgriculture(string,string)": "cc004874",
			"addDistributor(address,string,string)": "2a4af440",
			"addManufacturer(address,string,string)": "6a992c9f",
			"addRMS(address,string,string)": "2b70b08d",
			"addRetailer(address,string,string)": "857ddb04",
			"agricultureCtr()": "102464ea",
			"disCtr()": "2bdb2e6b",
			"manCtr()": "438e9c4d",
			"retCtr()": "7e43d94d",
			"rmsCtr()": "dd286398",
			"showStage(uint256)": "e101a2e0",
			"sold(uint256)": "9c03facb"
		}
	},
	"abi": [
		{
			"inputs": [],
			"stateMutability": "nonpayable",
			"type": "constructor"
		},
		{
			"inputs": [
				{
					"internalType": "uint256",
					"name": "",
					"type": "uint256"
				}
			],
			"name": "AgricultureStock",
			"outputs": [
				{
					"internalType": "uint256",
					"name": "id",
					"type": "uint256"
				},
				{
					"internalType": "string",
					"name": "name",
					"type": "string"
				},
				{
					"internalType": "string",
					"name": "description",
					"type": "string"
				},
				{
					"internalType": "uint256",
					"name": "RMSid",
					"type": "uint256"
				},
				{
					"internalType": "uint256",
					"name": "MANid",
					"type": "uint256"
				},
				{
					"internalType": "uint256",
					"name": "DISid",
					"type": "uint256"
				},
				{
					"internalType": "uint256",
					"name": "RETid",
					"type": "uint256"
				},
				{
					"internalType": "enum SupplyChain.STAGE",
					"name": "stage",
					"type": "uint8"
				}
			],
			"stateMutability": "view",
			"type": "function"
		},
		{
			"inputs": [
				{
					"internalType": "uint256",
					"name": "",
					"type": "uint256"
				}
			],
			"name": "DIS",
			"outputs": [
				{
					"internalType": "address",
					"name": "addr",
					"type": "address"
				},
				{
					"internalType": "uint256",
					"name": "id",
					"type": "uint256"
				},
				{
					"internalType": "string",
					"name": "name",
					"type": "string"
				},
				{
					"internalType": "string",
					"name": "place",
					"type": "string"
				}
			],
			"stateMutability": "view",
			"type": "function"
		},
		{
			"inputs": [
				{
					"internalType": "uint256",
					"name": "_agricultureID",
					"type": "uint256"
				}
			],
			"name": "Distribute",
			"outputs": [],
			"stateMutability": "nonpayable",
			"type": "function"
		},
		{
			"inputs": [
				{
					"internalType": "uint256",
					"name": "",
					"type": "uint256"
				}
			],
			"name": "MAN",
			"outputs": [
				{
					"internalType": "address",
					"name": "addr",
					"type": "address"
				},
				{
					"internalType": "uint256",
					"name": "id",
					"type": "uint256"
				},
				{
					"internalType": "string",
					"name": "name",
					"type": "string"
				},
				{
					"internalType": "string",
					"name": "place",
					"type": "string"
				}
			],
			"stateMutability": "view",
			"type": "function"
		},
		{
			"inputs": [
				{
					"internalType": "uint256",
					"name": "_agricultureID",
					"type": "uint256"
				}
			],
			"name": "Manufacturing",
			"outputs": [],
			"stateMutability": "nonpayable",
			"type": "function"
		},
		{
			"inputs": [],
			"name": "Owner",
			"outputs": [
				{
					"internalType": "address",
					"name": "",
					"type": "address"
				}
			],
			"stateMutability": "view",
			"type": "function"
		},
		{
			"inputs": [
				{
					"internalType": "uint256",
					"name": "",
					"type": "uint256"
				}
			],
			"name": "RET",
			"outputs": [
				{
					"internalType": "address",
					"name": "addr",
					"type": "address"
				},
				{
					"internalType": "uint256",
					"name": "id",
					"type": "uint256"
				},
				{
					"internalType": "string",
					"name": "name",
					"type": "string"
				},
				{
					"internalType": "string",
					"name": "place",
					"type": "string"
				}
			],
			"stateMutability": "view",
			"type": "function"
		},
		{
			"inputs": [
				{
					"internalType": "uint256",
					"name": "",
					"type": "uint256"
				}
			],
			"name": "RMS",
			"outputs": [
				{
					"internalType": "address",
					"name": "addr",
					"type": "address"
				},
				{
					"internalType": "uint256",
					"name": "id",
					"type": "uint256"
				},
				{
					"internalType": "string",
					"name": "name",
					"type": "string"
				},
				{
					"internalType": "string",
					"name": "place",
					"type": "string"
				}
			],
			"stateMutability": "view",
			"type": "function"
		},
		{
			"inputs": [
				{
					"internalType": "uint256",
					"name": "_agricultureID",
					"type": "uint256"
				}
			],
			"name": "RMSsupply",
			"outputs": [],
			"stateMutability": "nonpayable",
			"type": "function"
		},
		{
			"inputs": [
				{
					"internalType": "uint256",
					"name": "_agricultureID",
					"type": "uint256"
				}
			],
			"name": "Retail",
			"outputs": [],
			"stateMutability": "nonpayable",
			"type": "function"
		},
		{
			"inputs": [
				{
					"internalType": "string",
					"name": "_name",
					"type": "string"
				},
				{
					"internalType": "string",
					"name": "_description",
					"type": "string"
				}
			],
			"name": "addAgriculture",
			"outputs": [],
			"stateMutability": "nonpayable",
			"type": "function"
		},
		{
			"inputs": [
				{
					"internalType": "address",
					"name": "_address",
					"type": "address"
				},
				{
					"internalType": "string",
					"name": "_name",
					"type": "string"
				},
				{
					"internalType": "string",
					"name": "_place",
					"type": "string"
				}
			],
			"name": "addDistributor",
			"outputs": [],
			"stateMutability": "nonpayable",
			"type": "function"
		},
		{
			"inputs": [
				{
					"internalType": "address",
					"name": "_address",
					"type": "address"
				},
				{
					"internalType": "string",
					"name": "_name",
					"type": "string"
				},
				{
					"internalType": "string",
					"name": "_place",
					"type": "string"
				}
			],
			"name": "addManufacturer",
			"outputs": [],
			"stateMutability": "nonpayable",
			"type": "function"
		},
		{
			"inputs": [
				{
					"internalType": "address",
					"name": "_address",
					"type": "address"
				},
				{
					"internalType": "string",
					"name": "_name",
					"type": "string"
				},
				{
					"internalType": "string",
					"name": "_place",
					"type": "string"
				}
			],
			"name": "addRMS",
			"outputs": [],
			"stateMutability": "nonpayable",
			"type": "function"
		},
		{
			"inputs": [
				{
					"internalType": "address",
					"name": "_address",
					"type": "address"
				},
				{
					"internalType": "string",
					"name": "_name",
					"type": "string"
				},
				{
					"internalType": "string",
					"name": "_place",
					"type": "string"
				}
			],
			"name": "addRetailer",
			"outputs": [],
			"stateMutability": "nonpayable",
			"type": "function"
		},
		{
			"inputs": [],
			"name": "agricultureCtr",
			"outputs": [
				{
					"internalType": "uint256",
					"name": "",
					"type": "uint256"
				}
			],
			"stateMutability": "view",
			"type": "function"
		},
		{
			"inputs": [],
			"name": "disCtr",
			"outputs": [
				{
					"internalType": "uint256",
					"name": "",
					"type": "uint256"
				}
			],
			"stateMutability": "view",
			"type": "function"
		},
		{
			"inputs": [],
			"name": "manCtr",
			"outputs": [
				{
					"internalType": "uint256",
					"name": "",
					"type": "uint256"
				}
			],
			"stateMutability": "view",
			"type": "function"
		},
		{
			"inputs": [],
			"name": "retCtr",
			"outputs": [
				{
					"internalType": "uint256",
					"name": "",
					"type": "uint256"
				}
			],
			"stateMutability": "view",
			"type": "function"
		},
		{
			"inputs": [],
			"name": "rmsCtr",
			"outputs": [
				{
					"internalType": "uint256",
					"name": "",
					"type": "uint256"
				}
			],
			"stateMutability": "view",
			"type": "function"
		},
		{
			"inputs": [
				{
					"internalType": "uint256",
					"name": "_agricultureID",
					"type": "uint256"
				}
			],
			"name": "showStage",
			"outputs": [
				{
					"internalType": "string",
					"name": "",
					"type": "string"
				}
			],
			"stateMutability": "view",
			"type": "function"
		},
		{
			"inputs": [
				{
					"internalType": "uint256",
					"name": "_agricultureID",
					"type": "uint256"
				}
			],
			"name": "sold",
			"outputs": [],
			"stateMutability": "nonpayable",
			"type": "function"
		}
	]
}